{
  "address": "0x95401dc811bb5740090279Ba06cfA8fcF6113778",
  "abi": [
    {
      "inputs": [],
      "stateMutability": "nonpayable",
      "type": "constructor"
    },
    {
      "anonymous": false,
      "inputs": [
        {
          "indexed": true,
          "internalType": "address",
          "name": "owner",
          "type": "address"
        },
        {
          "indexed": true,
          "internalType": "address",
          "name": "spender",
          "type": "address"
        },
        {
          "indexed": false,
          "internalType": "uint256",
          "name": "value",
          "type": "uint256"
        }
      ],
      "name": "Approval",
      "type": "event"
    },
    {
      "anonymous": false,
      "inputs": [
        {
          "indexed": false,
          "internalType": "address",
          "name": "tokenAddress",
          "type": "address"
        }
      ],
      "name": "NewTokenAdded",
      "type": "event"
    },
    {
      "anonymous": false,
      "inputs": [
        {
          "indexed": true,
          "internalType": "address",
          "name": "previousOwner",
          "type": "address"
        },
        {
          "indexed": true,
          "internalType": "address",
          "name": "newOwner",
          "type": "address"
        }
      ],
      "name": "OwnershipTransferred",
      "type": "event"
    },
    {
      "anonymous": false,
      "inputs": [
        {
          "indexed": false,
          "internalType": "address",
          "name": "tokenAddress",
          "type": "address"
        }
      ],
      "name": "TokenRemoved",
      "type": "event"
    },
    {
      "anonymous": false,
      "inputs": [
        {
          "indexed": true,
          "internalType": "address",
          "name": "from",
          "type": "address"
        },
        {
          "indexed": true,
          "internalType": "address",
          "name": "to",
          "type": "address"
        },
        {
          "indexed": false,
          "internalType": "uint256",
          "name": "value",
          "type": "uint256"
        }
      ],
      "name": "Transfer",
      "type": "event"
    },
    {
      "anonymous": false,
      "inputs": [
        {
          "indexed": true,
          "internalType": "address",
          "name": "account",
          "type": "address"
        },
        {
          "indexed": false,
          "internalType": "uint256",
          "name": "when",
          "type": "uint256"
        },
        {
          "indexed": false,
          "internalType": "address",
          "name": "token_deposited",
          "type": "address"
        },
        {
          "indexed": false,
          "internalType": "uint256",
          "name": "amount",
          "type": "uint256"
        },
        {
          "indexed": false,
          "internalType": "uint256",
          "name": "PLPissued",
          "type": "uint256"
        }
      ],
      "name": "depositEvent",
      "type": "event"
    },
    {
      "anonymous": false,
      "inputs": [
        {
          "indexed": false,
          "internalType": "uint256",
          "name": "when",
          "type": "uint256"
        },
        {
          "indexed": false,
          "internalType": "uint8",
          "name": "oldexpo",
          "type": "uint8"
        },
        {
          "indexed": false,
          "internalType": "uint8",
          "name": "newexpo",
          "type": "uint8"
        }
      ],
      "name": "expoEvent",
      "type": "event"
    },
    {
      "anonymous": false,
      "inputs": [
        {
          "indexed": false,
          "internalType": "uint256",
          "name": "when",
          "type": "uint256"
        },
        {
          "indexed": false,
          "internalType": "uint8",
          "name": "exposition",
          "type": "uint8"
        },
        {
          "indexed": false,
          "internalType": "uint256",
          "name": "oldNAV",
          "type": "uint256"
        },
        {
          "indexed": false,
          "internalType": "uint256",
          "name": "NAV",
          "type": "uint256"
        },
        {
          "indexed": false,
          "internalType": "uint256",
          "name": "usdcNAV",
          "type": "uint256"
        },
        {
          "indexed": false,
          "internalType": "uint256",
          "name": "longNAV",
          "type": "uint256"
        },
        {
          "indexed": false,
          "internalType": "uint256",
          "name": "shortNAV",
          "type": "uint256"
        },
        {
          "indexed": false,
          "internalType": "uint256",
          "name": "totalsupply",
          "type": "uint256"
        }
      ],
      "name": "navEvent",
      "type": "event"
    },
    {
      "anonymous": false,
      "inputs": [
        {
          "indexed": true,
          "internalType": "address",
          "name": "account",
          "type": "address"
        },
        {
          "indexed": false,
          "internalType": "uint256",
          "name": "when",
          "type": "uint256"
        },
        {
          "indexed": false,
          "internalType": "uint256",
          "name": "amount",
          "type": "uint256"
        },
        {
          "indexed": false,
          "internalType": "uint256",
          "name": "nav",
          "type": "uint256"
        },
        {
          "indexed": false,
          "internalType": "uint256",
          "name": "preop_supply",
          "type": "uint256"
        }
      ],
      "name": "withdrawEvent",
      "type": "event"
    },
    {
      "inputs": [],
      "name": "GMX_controller",
      "outputs": [
        {
          "internalType": "address",
          "name": "",
          "type": "address"
        }
      ],
      "stateMutability": "view",
      "type": "function"
    },
    {
      "inputs": [],
      "name": "USDC",
      "outputs": [
        {
          "internalType": "address",
          "name": "",
          "type": "address"
        }
      ],
      "stateMutability": "view",
      "type": "function"
    },
    {
      "inputs": [],
      "name": "WETH",
      "outputs": [
        {
          "internalType": "address",
          "name": "",
          "type": "address"
        }
      ],
      "stateMutability": "view",
      "type": "function"
    },
    {
      "inputs": [
        {
          "internalType": "address",
          "name": "tokenAddress",
          "type": "address"
        }
      ],
      "name": "acceptToken",
      "outputs": [],
      "stateMutability": "nonpayable",
      "type": "function"
    },
    {
      "inputs": [
        {
          "internalType": "address",
          "name": "owner",
          "type": "address"
        },
        {
          "internalType": "address",
          "name": "spender",
          "type": "address"
        }
      ],
      "name": "allowance",
      "outputs": [
        {
          "internalType": "uint256",
          "name": "",
          "type": "uint256"
        }
      ],
      "stateMutability": "view",
      "type": "function"
    },
    {
      "inputs": [
        {
          "internalType": "address",
          "name": "spender",
          "type": "address"
        },
        {
          "internalType": "uint256",
          "name": "amount",
          "type": "uint256"
        }
      ],
      "name": "approve",
      "outputs": [
        {
          "internalType": "bool",
          "name": "",
          "type": "bool"
        }
      ],
      "stateMutability": "nonpayable",
      "type": "function"
    },
    {
      "inputs": [
        {
          "internalType": "address",
          "name": "account",
          "type": "address"
        }
      ],
      "name": "balanceOf",
      "outputs": [
        {
          "internalType": "uint256",
          "name": "",
          "type": "uint256"
        }
      ],
      "stateMutability": "view",
      "type": "function"
    },
    {
      "inputs": [],
      "name": "decimals",
      "outputs": [
        {
          "internalType": "uint8",
          "name": "",
          "type": "uint8"
        }
      ],
      "stateMutability": "view",
      "type": "function"
    },
    {
      "inputs": [
        {
          "internalType": "address",
          "name": "spender",
          "type": "address"
        },
        {
          "internalType": "uint256",
          "name": "subtractedValue",
          "type": "uint256"
        }
      ],
      "name": "decreaseAllowance",
      "outputs": [
        {
          "internalType": "bool",
          "name": "",
          "type": "bool"
        }
      ],
      "stateMutability": "nonpayable",
      "type": "function"
    },
    {
      "inputs": [
        {
          "internalType": "address",
          "name": "tokenAddress",
          "type": "address"
        },
        {
          "internalType": "uint256",
          "name": "_amount",
          "type": "uint256"
        }
      ],
      "name": "deposit",
      "outputs": [],
      "stateMutability": "payable",
      "type": "function"
    },
    {
      "inputs": [],
      "name": "exposition",
      "outputs": [
        {
          "internalType": "uint8",
          "name": "",
          "type": "uint8"
        }
      ],
      "stateMutability": "view",
      "type": "function"
    },
    {
      "inputs": [],
      "name": "fees",
      "outputs": [
        {
          "internalType": "uint8",
          "name": "",
          "type": "uint8"
        }
      ],
      "stateMutability": "view",
      "type": "function"
    },
    {
      "inputs": [],
      "name": "getExposition",
      "outputs": [
        {
          "internalType": "uint8",
          "name": "",
          "type": "uint8"
        }
      ],
      "stateMutability": "view",
      "type": "function"
    },
    {
      "inputs": [],
      "name": "getGMX_controller",
      "outputs": [
        {
          "internalType": "address",
          "name": "",
          "type": "address"
        }
      ],
      "stateMutability": "view",
      "type": "function"
    },
    {
      "inputs": [],
      "name": "getNetAssetValue",
      "outputs": [
        {
          "internalType": "uint256",
          "name": "",
          "type": "uint256"
        }
      ],
      "stateMutability": "view",
      "type": "function"
    },
    {
      "inputs": [],
      "name": "gmxVault",
      "outputs": [
        {
          "internalType": "address",
          "name": "",
          "type": "address"
        }
      ],
      "stateMutability": "view",
      "type": "function"
    },
    {
      "inputs": [
        {
          "internalType": "address",
          "name": "spender",
          "type": "address"
        },
        {
          "internalType": "uint256",
          "name": "addedValue",
          "type": "uint256"
        }
      ],
      "name": "increaseAllowance",
      "outputs": [
        {
          "internalType": "bool",
          "name": "",
          "type": "bool"
        }
      ],
      "stateMutability": "nonpayable",
      "type": "function"
    },
    {
      "inputs": [
        {
          "internalType": "address",
          "name": "tokenAddress",
          "type": "address"
        }
      ],
      "name": "isAccepted",
      "outputs": [
        {
          "internalType": "bool",
          "name": "",
          "type": "bool"
        }
      ],
      "stateMutability": "view",
      "type": "function"
    },
    {
      "inputs": [],
      "name": "liquidateLongPositions",
      "outputs": [],
      "stateMutability": "payable",
      "type": "function"
    },
    {
      "inputs": [],
      "name": "liquidateShortPositions",
      "outputs": [],
      "stateMutability": "payable",
      "type": "function"
    },
    {
      "inputs": [],
      "name": "name",
      "outputs": [
        {
          "internalType": "string",
          "name": "",
          "type": "string"
        }
      ],
      "stateMutability": "view",
      "type": "function"
    },
    {
      "inputs": [],
      "name": "netAssetValue",
      "outputs": [
        {
          "internalType": "uint256",
          "name": "",
          "type": "uint256"
        }
      ],
      "stateMutability": "view",
      "type": "function"
    },
    {
      "inputs": [],
      "name": "openPosition",
      "outputs": [],
      "stateMutability": "payable",
      "type": "function"
    },
    {
      "inputs": [],
      "name": "owner",
      "outputs": [
        {
          "internalType": "address",
          "name": "",
          "type": "address"
        }
      ],
      "stateMutability": "view",
      "type": "function"
    },
    {
      "inputs": [
        {
          "internalType": "address",
          "name": "tokenAddress",
          "type": "address"
        }
      ],
      "name": "removeToken",
      "outputs": [],
      "stateMutability": "nonpayable",
      "type": "function"
    },
    {
      "inputs": [],
      "name": "renounceOwnership",
      "outputs": [],
      "stateMutability": "nonpayable",
      "type": "function"
    },
    {
      "inputs": [
        {
          "internalType": "uint8",
          "name": "_exposition",
          "type": "uint8"
        }
      ],
      "name": "setExposition",
      "outputs": [],
      "stateMutability": "nonpayable",
      "type": "function"
    },
    {
      "inputs": [
        {
          "internalType": "address",
          "name": "_addr",
          "type": "address"
        }
      ],
      "name": "setGMX_controller",
      "outputs": [],
      "stateMutability": "nonpayable",
      "type": "function"
    },
    {
      "inputs": [],
      "name": "symbol",
      "outputs": [
        {
          "internalType": "string",
          "name": "",
          "type": "string"
        }
      ],
      "stateMutability": "view",
      "type": "function"
    },
    {
      "inputs": [
        {
          "internalType": "address",
          "name": "",
          "type": "address"
        }
      ],
      "name": "tokenAccepted",
      "outputs": [
        {
          "internalType": "bool",
          "name": "",
          "type": "bool"
        }
      ],
      "stateMutability": "view",
      "type": "function"
    },
    {
      "inputs": [],
      "name": "totalSupply",
      "outputs": [
        {
          "internalType": "uint256",
          "name": "",
          "type": "uint256"
        }
      ],
      "stateMutability": "view",
      "type": "function"
    },
    {
      "inputs": [
        {
          "internalType": "address",
          "name": "to",
          "type": "address"
        },
        {
          "internalType": "uint256",
          "name": "amount",
          "type": "uint256"
        }
      ],
      "name": "transfer",
      "outputs": [
        {
          "internalType": "bool",
          "name": "",
          "type": "bool"
        }
      ],
      "stateMutability": "nonpayable",
      "type": "function"
    },
    {
      "inputs": [
        {
          "internalType": "address",
          "name": "from",
          "type": "address"
        },
        {
          "internalType": "address",
          "name": "to",
          "type": "address"
        },
        {
          "internalType": "uint256",
          "name": "amount",
          "type": "uint256"
        }
      ],
      "name": "transferFrom",
      "outputs": [
        {
          "internalType": "bool",
          "name": "",
          "type": "bool"
        }
      ],
      "stateMutability": "nonpayable",
      "type": "function"
    },
    {
      "inputs": [
        {
          "internalType": "address",
          "name": "newOwner",
          "type": "address"
        }
      ],
      "name": "transferOwnership",
      "outputs": [],
      "stateMutability": "nonpayable",
      "type": "function"
    },
    {
      "inputs": [],
      "name": "updateNetAssetValue",
      "outputs": [],
      "stateMutability": "nonpayable",
      "type": "function"
    },
    {
      "inputs": [
        {
          "internalType": "uint256",
          "name": "_amount",
          "type": "uint256"
        }
      ],
      "name": "withdraw",
      "outputs": [],
      "stateMutability": "payable",
      "type": "function"
    }
  ],
  "transactionHash": "0x6115b5d744518f33490c428403ba396a037b805fa9d89d3478ae7004e464f40b",
  "args": [],
  "numDeployments": 1,
  "solcInputHash": "2b030230043893938e8cd990df5c83a5",
  "bytecode": "0x6080604052600780546001600160a01b03199081167382af49447d8a07e3bd95bd0d56f35241523fbab11790915560088054821673ff970a61a04b1ca14834a43f5de4533ebddb5cc81790556009805490911673489ee077994b6658eafa855c308275ead8097c4a1790553480156200007757600080fd5b5060405180604001604052806008815260200167506f6c79706c757360c01b815250604051806040016040528060038152602001620504c560ec1b815250620000cf620000c96200010660201b60201c565b6200010a565b6004620000dd8382620001ff565b506005620000ec8282620001ff565b5050600b80546001600a5562ff00ff1916905550620002cb565b3390565b600080546001600160a01b038381166001600160a01b0319831681178455604051919092169283917f8be0079c531659141344cd1fd0a4f28419497f9722a3daafe3b4186f6b6457e09190a35050565b634e487b7160e01b600052604160045260246000fd5b600181811c908216806200018557607f821691505b602082108103620001a657634e487b7160e01b600052602260045260246000fd5b50919050565b601f821115620001fa57600081815260208120601f850160051c81016020861015620001d55750805b601f850160051c820191505b81811015620001f657828155600101620001e1565b5050505b505050565b81516001600160401b038111156200021b576200021b6200015a565b62000233816200022c845462000170565b84620001ac565b602080601f8311600181146200026b5760008415620002525750858301515b600019600386901b1c1916600185901b178555620001f6565b600085815260208120601f198616915b828110156200029c578886015182559484019460019091019084016200027b565b5085821015620002bb5787850151600019600388901b60f8161c191681555b5050505050600190811b01905550565b61276080620002db6000396000f3fe6080604052600436106101cf5760003560e01c8063715018a6116100f8578063a9059cbb11610090578063a9059cbb146104dd578063ad5c4648146104fd578063aedf795e1461051d578063b3b3453e1461054d578063dd62ed3e1461056d578063de9257cd1461058d578063e6f091f9146105a5578063ed61f4a1146105de578063f2fde38b146105f357600080fd5b8063715018a6146103e057806389a30271146103f55780638cd3f064146104155780638da5cb5b1461043557806395d89b41146104535780639af1d35a146104685780639ecbfa4214610487578063a3673b38146104a7578063a457c2d7146104bd57600080fd5b80633027ac221161016b5780633027ac22146102fe578063313ce56714610306578063350245c21461031a578063395093511461032257806347e7ef2414610342578063481d6ee9146103555780635fa7b584146103755780636639a81d1461039557806370a08231146103aa57600080fd5b80630677a2a5146101d457806306fdde0314610204578063095ea7b31461022657806311af7d951461025657806318160ddd146102785780631cd2f7c81461029757806323b872dd146102c357806328250e0d146102e35780632e1a7d4d146102eb575b600080fd5b3480156101e057600080fd5b506006546001600160a01b03165b6040516101fb91906123a0565b60405180910390f35b34801561021057600080fd5b50610219610613565b6040516101fb91906123fa565b34801561023257600080fd5b50610246610241366004612430565b6106a5565b60405190151581526020016101fb565b34801561026257600080fd5b5061027661027136600461245a565b6106bf565b005b34801561028457600080fd5b506003545b6040519081526020016101fb565b3480156102a357600080fd5b50600b546102b19060ff1681565b60405160ff90911681526020016101fb565b3480156102cf57600080fd5b506102466102de366004612475565b6106fb565b61027661071f565b6102766102f93660046124b1565b61078a565b610276610cb1565b34801561031257600080fd5b5060126102b1565b610276610cec565b34801561032e57600080fd5b5061024661033d366004612430565b610ecd565b610276610350366004612430565b610eef565b34801561036157600080fd5b506102766103703660046124ca565b61151e565b34801561038157600080fd5b5061027661039036600461245a565b611679565b3480156103a157600080fd5b50600a54610289565b3480156103b657600080fd5b506102896103c536600461245a565b6001600160a01b031660009081526001602052604090205490565b3480156103ec57600080fd5b5061027661173a565b34801561040157600080fd5b506008546101ee906001600160a01b031681565b34801561042157600080fd5b5061027661043036600461245a565b61174e565b34801561044157600080fd5b506000546001600160a01b03166101ee565b34801561045f57600080fd5b50610219611808565b34801561047457600080fd5b50600b546102b190610100900460ff1681565b34801561049357600080fd5b506006546101ee906001600160a01b031681565b3480156104b357600080fd5b50610289600a5481565b3480156104c957600080fd5b506102466104d8366004612430565b611817565b3480156104e957600080fd5b506102466104f8366004612430565b611892565b34801561050957600080fd5b506007546101ee906001600160a01b031681565b34801561052957600080fd5b5061024661053836600461245a565b600c6020526000908152604090205460ff1681565b34801561055957600080fd5b506009546101ee906001600160a01b031681565b34801561057957600080fd5b506102896105883660046124ed565b6118a0565b34801561059957600080fd5b50600b5460ff166102b1565b3480156105b157600080fd5b506102466105c036600461245a565b6001600160a01b03166000908152600c602052604090205460ff1690565b3480156105ea57600080fd5b506102766118cb565b3480156105ff57600080fd5b5061027661060e36600461245a565b6118db565b60606004805461062290612520565b80601f016020809104026020016040519081016040528092919081815260200182805461064e90612520565b801561069b5780601f106106705761010080835404028352916020019161069b565b820191906000526020600020905b81548152906001019060200180831161067e57829003601f168201915b5050505050905090565b6000336106b3818585611954565b60019150505b92915050565b6106c7611a79565b600680546001600160a01b039092166001600160a01b0319909216919091179055600b805462ff0000191662010000179055565b600033610709858285611ad3565b610714858585611b4d565b506001949350505050565b610727611a79565b600654604051637cb1759760e01b8152600160048201526001600160a01b0390911690637cb175979034906024015b6000604051808303818588803b15801561076f57600080fd5b505af1158015610783573d6000803e3d6000fd5b5050505050565b6000811161079757600080fd5b6040516370a0823160e01b8152819030906370a08231906107bc9033906004016123a0565b602060405180830381865afa1580156107d9573d6000803e3d6000fd5b505050506040513d601f19601f820116820180604052508101906107fd919061255a565b10156108765760405162461bcd60e51b815260206004820152603a60248201527f53757270726973696e676c7920796f752063616e6e6f7420776974686472617760448201527f20746f6b656e20796f752068617665206e6f7420626f7567687400000000000060648201526084015b60405180910390fd5b600b5460009060ff1660011461088d576000610890565b60015b90506108bb60405180604001604052806008815260200167576974686472617760c01b815250611ce6565b6108e56040518060400160405280600881526020016720b6b7bab73a101d60c11b81525083611d29565b61091b604051806040016040528060128152602001712730bb103132b337b932903ab83230ba329d60711b815250600a54611d29565b610923611d72565b61094c604051806040016040528060058152602001642730bb101d60d91b815250600a54611d29565b6109d3604051806040016040528060048152602001632a29901d60e11b815250306001600160a01b03166318160ddd6040518163ffffffff1660e01b8152600401602060405180830381865afa1580156109aa573d6000803e3d6000fd5b505050506040513d601f19601f820116820180604052508101906109ce919061255a565b611d29565b6000306001600160a01b03166318160ddd6040518163ffffffff1660e01b8152600401602060405180830381865afa158015610a13573d6000803e3d6000fd5b505050506040513d601f19601f82011682018060405250810190610a37919061255a565b9050610a433384612166565b600b5460ff16600003610b60576040805180820190915260098152683932ba3930b4ba101d60b91b6020820152610aae90610a8a8368327cb2734119d3b7a9601e1b612589565b600a54610a9a87620f4240612589565b610aa49190612589565b6109ce91906125a0565b6008546001600160a01b031663a9059cbb33610ad68468327cb2734119d3b7a9601e1b612589565b600a54610ae688620f4240612589565b610af09190612589565b610afa91906125a0565b6040518363ffffffff1660e01b8152600401610b179291906125c2565b6020604051808303816000875af1158015610b36573d6000803e3d6000fd5b505050506040513d601f19601f82011682018060405250810190610b5a91906125eb565b50610c5e565b6040805180820190915260098152683932ba3930b4ba101d60b91b6020820152610baa90610b9a8368327cb2734119d3b7a9601e1b612589565b600a54610a9a87620f1b30612589565b6006546001600160a01b031663c5dac33b3433610bd38568327cb2734119d3b7a9601e1b612589565b600a54610be389620f1b30612589565b610bed9190612589565b610bf791906125a0565b6040516001600160e01b031960e086901b1681526001600160a01b039092166004830152602482015285151560448201526064016000604051808303818588803b158015610c4457600080fd5b505af1158015610c58573d6000803e3d6000fd5b50505050505b600a546040805142815260208101869052908101919091526060810182905233907f7d655f729e74749ef66079e8380b356147309a7161212c83e699b8e7fb78781c9060800160405180910390a2505050565b610cb9611a79565b600654604051637cb1759760e01b8152600060048201526001600160a01b0390911690637cb17597903490602401610756565b610cf4611a79565b600b5460009060ff16600114610d0b576000610d0e565b60015b6008546006546040516370a0823160e01b81529293506001600160a01b039182169263095ea7b3929091169083906370a0823190610d509030906004016123a0565b602060405180830381865afa158015610d6d573d6000803e3d6000fd5b505050506040513d601f19601f82011682018060405250810190610d91919061255a565b6040518363ffffffff1660e01b8152600401610dae9291906125c2565b6020604051808303816000875af1158015610dcd573d6000803e3d6000fd5b505050506040513d601f19601f82011682018060405250810190610df191906125eb565b506006546008546040516370a0823160e01b81526001600160a01b0392831692631c5ecc069234929116906370a0823190610e309030906004016123a0565b602060405180830381865afa158015610e4d573d6000803e3d6000fd5b505050506040513d601f19601f82011682018060405250810190610e71919061255a565b6040516001600160e01b031960e085901b168152600481019190915284151560248201526044016000604051808303818588803b158015610eb157600080fd5b505af1158015610ec5573d6000803e3d6000fd5b505050505050565b6000336106b3818585610ee083836118a0565b610eea9190612606565b611954565b6001600160a01b0382166000908152600c602052604090205460ff16610f515760405162461bcd60e51b8152602060048201526017602482015276151bdad95b881b9bdd081e595d081cdd5c1c1bdc9d1959604a1b604482015260640161086d565b60008111610fa15760405162461bcd60e51b815260206004820152601e60248201527f416d6f756e7420746f206465706f736974206973206d616e6461746f72790000604482015260640161086d565b6000610fae6064836125a0565b610fb89083612619565b90506000610fe46040518060400160405280600781526020016611195c1bdcda5d60ca1b815250611ce6565b61100e6040518060400160405280600881526020016720b6b7bab73a101d60c11b81525084611d29565b611048604051806040016040528060168152602001752730bb103132b337b9329037b832b930ba34b7b7101d60511b815250600a54611d29565b306001600160a01b03166318160ddd6040518163ffffffff1660e01b8152600401602060405180830381865afa158015611086573d6000803e3d6000fd5b505050506040513d601f19601f820116820180604052508101906110aa919061255a565b6000036110c7576110c08364e8d4a51000612589565b90506111f9565b6110cf611d72565b600b5460ff1660000361116957600a54306001600160a01b03166318160ddd6040518163ffffffff1660e01b8152600401602060405180830381865afa15801561111d573d6000803e3d6000fd5b505050506040513d601f19601f82011682018060405250810190611141919061255a565b6111558569d3c21bcecceda1000000612589565b61115f9190612589565b6110c091906125a0565b600a54306001600160a01b03166318160ddd6040518163ffffffff1660e01b8152600401602060405180830381865afa1580156111aa573d6000803e3d6000fd5b505050506040513d601f19601f820116820180604052508101906111ce919061255a565b6111e28469d3c21bcecceda1000000612589565b6111ec9190612589565b6111f691906125a0565b90505b6112296040518060400160405280600c81526020016b2730bb103ab83230ba32b21d60a11b815250600a54611d29565b611287604051806040016040528060048152602001632a29901d60e11b815250306001600160a01b03166318160ddd6040518163ffffffff1660e01b8152600401602060405180830381865afa1580156109aa573d6000803e3d6000fd5b6112ae60405180604001604052806005815260200164282628101d60d91b81525082611d29565b6112de6040518060400160405280600e81526020016d20b6b7bab73a103a37b5b2b7101d60911b81525083611d29565b6112e83382612280565b6040516323b872dd60e01b8152336004820152306024820152604481018490526001600160a01b038516906323b872dd906064016020604051808303816000875af115801561133b573d6000803e3d6000fd5b505050506040513d601f19601f8201168201806040525081019061135f91906125eb565b5060065460405163095ea7b360e01b81526001600160a01b038681169263095ea7b392611394929091169087906004016125c2565b6020604051808303816000875af11580156113b3573d6000803e3d6000fd5b505050506040513d601f19601f820116820180604052508101906113d791906125eb565b50600b5460ff1660010361145157600654604051630e2f660360e11b815260048101859052600160248201526001600160a01b0390911690631c5ecc069034906044016000604051808303818588803b15801561143357600080fd5b505af1158015611447573d6000803e3d6000fd5b50505050506114c6565b600b5460ff166002036114c657600654604051630e2f660360e11b815260048101859052600060248201526001600160a01b0390911690631c5ecc069034906044016000604051808303818588803b1580156114ac57600080fd5b505af11580156114c0573d6000803e3d6000fd5b50505050505b604080514281526001600160a01b03861660208201529081018490526060810182905233907fc43285a6e98e6524bf49b1c1bdda72f38b968b31d2861d4422c0716e89b131819060800160405180910390a250505050565b611526611a79565b60ff8116158061153957508060ff166001145b8061154757508060ff166002145b6115b25760405162461bcd60e51b815260206004820152603660248201527f56616c7565206d757374206265203020666f72206e65757472616c2c203120666044820152751bdc88131bdb99c81bdc880c88199bdc8814da1bdc9d60521b606482015260840161086d565b600b5460ff80831691160361161d5760405162461bcd60e51b815260206004820152602b60248201527f52657665727465642062656361757365206578706f736974696f6e206861732060448201526a1b9bdd0818da185b99d95960aa1b606482015260840161086d565b600b805460ff19811660ff84811691821790935560408051428152939092166020840181905291830152907ffa0731d6f72a8f51cd2381cdd6778ccea1323c89d9b49a780eb07d809e4ce1699060600160405180910390a15050565b611681611a79565b6001600160a01b0381166000908152600c602052604090205460ff166116df5760405162461bcd60e51b8152602060048201526013602482015272151bdad95b881b9bdd081e595d081859191959606a1b604482015260640161086d565b6001600160a01b0381166000908152600c602052604090819020805460ff19169055517f4c910b69fe65a61f7531b9c5042b2329ca7179c77290aa7e2eb3afa3c8511fd39061172f9083906123a0565b60405180910390a150565b611742611a79565b61174c600061232f565b565b611756611a79565b6001600160a01b0381166000908152600c602052604090205460ff16156117b55760405162461bcd60e51b8152602060048201526013602482015272151bdad95b88185b1c9958591e481859191959606a1b604482015260640161086d565b6001600160a01b0381166000908152600c602052604090819020805460ff19166001179055517fae340411f33c346ae24187433a8df6e508be40cf0deb3949d51cea12df7fa0219061172f9083906123a0565b60606005805461062290612520565b6000338161182582866118a0565b9050838110156118855760405162461bcd60e51b815260206004820152602560248201527f45524332303a2064656372656173656420616c6c6f77616e63652062656c6f77604482015264207a65726f60d81b606482015260840161086d565b6107148286868403611954565b6000336106b3818585611b4d565b6001600160a01b03918216600090815260026020908152604080832093909416825291909152205490565b6118d3611a79565b61174c611d72565b6118e3611a79565b6001600160a01b0381166119485760405162461bcd60e51b815260206004820152602660248201527f4f776e61626c653a206e6577206f776e657220697320746865207a65726f206160448201526564647265737360d01b606482015260840161086d565b6119518161232f565b50565b6001600160a01b0383166119b65760405162461bcd60e51b8152602060048201526024808201527f45524332303a20617070726f76652066726f6d20746865207a65726f206164646044820152637265737360e01b606482015260840161086d565b6001600160a01b038216611a175760405162461bcd60e51b815260206004820152602260248201527f45524332303a20617070726f766520746f20746865207a65726f206164647265604482015261737360f01b606482015260840161086d565b6001600160a01b0383811660008181526002602090815260408083209487168084529482529182902085905590518481527f8c5be1e5ebec7d5bd14f71427d1e84f3dd0314c0f7b2291e5b200ac8c7c3b92591015b60405180910390a3505050565b6000546001600160a01b0316331461174c5760405162461bcd60e51b815260206004820181905260248201527f4f776e61626c653a2063616c6c6572206973206e6f7420746865206f776e6572604482015260640161086d565b6000611adf84846118a0565b90506000198114611b475781811015611b3a5760405162461bcd60e51b815260206004820152601d60248201527f45524332303a20696e73756666696369656e7420616c6c6f77616e6365000000604482015260640161086d565b611b478484848403611954565b50505050565b6001600160a01b038316611bb15760405162461bcd60e51b815260206004820152602560248201527f45524332303a207472616e736665722066726f6d20746865207a65726f206164604482015264647265737360d81b606482015260840161086d565b6001600160a01b038216611c135760405162461bcd60e51b815260206004820152602360248201527f45524332303a207472616e7366657220746f20746865207a65726f206164647260448201526265737360e81b606482015260840161086d565b6001600160a01b03831660009081526001602052604090205481811015611c8b5760405162461bcd60e51b815260206004820152602660248201527f45524332303a207472616e7366657220616d6f756e7420657863656564732062604482015265616c616e636560d01b606482015260840161086d565b6001600160a01b03808516600081815260016020526040808220868603905592861680825290839020805486019055915160008051602061270b83398151915290611cd99086815260200190565b60405180910390a3611b47565b61195181604051602401611cfa91906123fa565b60408051601f198184030181529190526020810180516001600160e01b031663104c13eb60e21b17905261237f565b611d6e8282604051602401611d3f92919061262c565b60408051601f198184030181529190526020810180516001600160e01b0316632d839cb360e21b17905261237f565b5050565b600a546008546040516370a0823160e01b8152600091829182916001600160a01b0316906370a0823190611daa9030906004016123a0565b602060405180830381865afa158015611dc7573d6000803e3d6000fd5b505050506040513d601f19601f82011682018060405250810190611deb919061255a565b611dff9069d3c21bcecceda1000000612589565b600954600654600754604051634a3f088d60e01b81529394506000936001600160a01b0393841693634a3f088d93611e459390821692911690819060019060040161264e565b610100604051808303816000875af1158015611e65573d6000803e3d6000fd5b505050506040513d601f19601f82011682018060405250810190611e899190612678565b5050505050509150506000811115611f215760095460065460075460405163045a6f3760e41b81526001600160a01b03938416936345a6f37093611edb9390821692911690819060019060040161264e565b60408051808303816000875af1158015611ef9573d6000803e3d6000fd5b505050506040513d601f19601f82011682018060405250810190611f1d91906126de565b9450505b6000611f2d8583612606565b600954600654600854600754604051634a3f088d60e01b81529495506000946001600160a01b0394851694634a3f088d94611f77949082169390821692911690879060040161264e565b610100604051808303816000875af1158015611f97573d6000803e3d6000fd5b505050506040513d601f19601f82011682018060405250810190611fbb9190612678565b50505050505091505060008111156120585760095460065460085460075460405163045a6f3760e41b81526001600160a01b03948516946345a6f3709461201294908216939082169291169060009060040161264e565b60408051808303816000875af1158015612030573d6000803e3d6000fd5b505050506040513d601f19601f8201168201806040525081019061205491906126de565b9550505b60006120648683612619565b9050806120718487612606565b61207b9190612606565b600a819055507f059d0701380a5813cc605b68bc8aae0c943d3aecbfa3d35e11f8396e056eb6cc42600b60009054906101000a900460ff168a600a54898887306001600160a01b03166318160ddd6040518163ffffffff1660e01b8152600401602060405180830381865afa1580156120f8573d6000803e3d6000fd5b505050506040513d601f19601f8201168201806040525081019061211c919061255a565b6040805198895260ff9097166020890152958701949094526060860192909252608085015260a084015260c083015260e08201526101000160405180910390a15050505050505050565b6001600160a01b0382166121c65760405162461bcd60e51b815260206004820152602160248201527f45524332303a206275726e2066726f6d20746865207a65726f206164647265736044820152607360f81b606482015260840161086d565b6001600160a01b0382166000908152600160205260409020548181101561223a5760405162461bcd60e51b815260206004820152602260248201527f45524332303a206275726e20616d6f756e7420657863656564732062616c616e604482015261636560f01b606482015260840161086d565b6001600160a01b038316600081815260016020908152604080832086860390556003805487900390555185815291929160008051602061270b8339815191529101611a6c565b6001600160a01b0382166122d65760405162461bcd60e51b815260206004820152601f60248201527f45524332303a206d696e7420746f20746865207a65726f206164647265737300604482015260640161086d565b80600360008282546122e89190612606565b90915550506001600160a01b03821660008181526001602090815260408083208054860190555184815260008051602061270b833981519152910160405180910390a35050565b600080546001600160a01b038381166001600160a01b0319831681178455604051919092169283917f8be0079c531659141344cd1fd0a4f28419497f9722a3daafe3b4186f6b6457e09190a35050565b80516a636f6e736f6c652e6c6f67602083016000808483855afa5050505050565b6001600160a01b0391909116815260200190565b6000815180845260005b818110156123da576020818501810151868301820152016123be565b506000602082860101526020601f19601f83011685010191505092915050565b60208152600061240d60208301846123b4565b9392505050565b80356001600160a01b038116811461242b57600080fd5b919050565b6000806040838503121561244357600080fd5b61244c83612414565b946020939093013593505050565b60006020828403121561246c57600080fd5b61240d82612414565b60008060006060848603121561248a57600080fd5b61249384612414565b92506124a160208501612414565b9150604084013590509250925092565b6000602082840312156124c357600080fd5b5035919050565b6000602082840312156124dc57600080fd5b813560ff8116811461240d57600080fd5b6000806040838503121561250057600080fd5b61250983612414565b915061251760208401612414565b90509250929050565b600181811c9082168061253457607f821691505b60208210810361255457634e487b7160e01b600052602260045260246000fd5b50919050565b60006020828403121561256c57600080fd5b5051919050565b634e487b7160e01b600052601160045260246000fd5b80820281158282048414176106b9576106b9612573565b6000826125bd57634e487b7160e01b600052601260045260246000fd5b500490565b6001600160a01b03929092168252602082015260400190565b8051801515811461242b57600080fd5b6000602082840312156125fd57600080fd5b61240d826125db565b808201808211156106b9576106b9612573565b818103818111156106b9576106b9612573565b60408152600061263f60408301856123b4565b90508260208301529392505050565b6001600160a01b039485168152928416602084015292166040820152901515606082015260800190565b600080600080600080600080610100898b03121561269557600080fd5b885197506020890151965060408901519550606089015194506080890151935060a089015192506126c860c08a016125db565b915060e089015190509295985092959890939650565b600080604083850312156126f157600080fd5b6126fa836125db565b915060208301519050925092905056feddf252ad1be2c89b69c2b068fc378daa952ba7f163c4a11628f55a4df523b3efa2646970667358221220bc08b806d3c32afabf4e9e829f68da0bed8e08608a86ac4479d93794b98e16e864736f6c63430008110033",
  "devdoc": {
    "kind": "dev",
    "methods": {
      "acceptToken(address)": {
        "details": "until now, only USDC deposit are handled",
        "params": {
          "tokenAddress": "arbitrum address of the ERC20 token"
        }
      },
      "allowance(address,address)": {
        "details": "See {IERC20-allowance}."
      },
      "approve(address,uint256)": {
        "details": "See {IERC20-approve}. NOTE: If `amount` is the maximum `uint256`, the allowance is not updated on `transferFrom`. This is semantically equivalent to an infinite approval. Requirements: - `spender` cannot be the zero address."
      },
      "balanceOf(address)": {
        "details": "See {IERC20-balanceOf}."
      },
      "decimals()": {
        "details": "Returns the number of decimals used to get its user representation. For example, if `decimals` equals `2`, a balance of `505` tokens should be displayed to a user as `5.05` (`505 / 10 ** 2`). Tokens usually opt for a value of 18, imitating the relationship between Ether and Wei. This is the value {ERC20} uses, unless this function is overridden; NOTE: This information is only used for _display_ purposes: it in no way affects any of the arithmetic of the contract, including {IERC20-balanceOf} and {IERC20-transfer}."
      },
      "decreaseAllowance(address,uint256)": {
        "details": "Atomically decreases the allowance granted to `spender` by the caller. This is an alternative to {approve} that can be used as a mitigation for problems described in {IERC20-approve}. Emits an {Approval} event indicating the updated allowance. Requirements: - `spender` cannot be the zero address. - `spender` must have allowance for the caller of at least `subtractedValue`."
      },
      "increaseAllowance(address,uint256)": {
        "details": "Atomically increases the allowance granted to `spender` by the caller. This is an alternative to {approve} that can be used as a mitigation for problems described in {IERC20-approve}. Emits an {Approval} event indicating the updated allowance. Requirements: - `spender` cannot be the zero address."
      },
      "name()": {
        "details": "Returns the name of the token."
      },
      "owner()": {
        "details": "Returns the address of the current owner."
      },
      "renounceOwnership()": {
        "details": "Leaves the contract without owner. It will not be possible to call `onlyOwner` functions anymore. Can only be called by the current owner. NOTE: Renouncing ownership will leave the contract without an owner, thereby removing any functionality that is only available to the owner."
      },
      "setExposition(uint8)": {
        "details": "only the owner can call this function",
        "params": {
          "_exposition": "0 for neutral | 1 Long | 2 Short"
        }
      },
      "setGMX_controller(address)": {
        "details": "only the owner can call this function",
        "params": {
          "_addr": "address of the controller to add"
        }
      },
      "symbol()": {
        "details": "Returns the symbol of the token, usually a shorter version of the name."
      },
      "totalSupply()": {
        "details": "See {IERC20-totalSupply}."
      },
      "transfer(address,uint256)": {
        "details": "See {IERC20-transfer}. Requirements: - `to` cannot be the zero address. - the caller must have a balance of at least `amount`."
      },
      "transferFrom(address,address,uint256)": {
        "details": "See {IERC20-transferFrom}. Emits an {Approval} event indicating the updated allowance. This is not required by the EIP. See the note at the beginning of {ERC20}. NOTE: Does not update the allowance if the current allowance is the maximum `uint256`. Requirements: - `from` and `to` cannot be the zero address. - `from` must have a balance of at least `amount`. - the caller must have allowance for ``from``'s tokens of at least `amount`."
      },
      "transferOwnership(address)": {
        "details": "Transfers ownership of the contract to a new account (`newOwner`). Can only be called by the current owner."
      }
    },
    "version": 1
  },
  "userdoc": {
    "kind": "user",
    "methods": {
      "acceptToken(address)": {
        "notice": "whitelist the token accepted in the vault, allow a better control"
      },
      "deposit(address,uint256)": {
        "notice": "function for depositing ana ccepted token on the vault token address to deposit [to implement later]"
      },
      "setExposition(uint8)": {
        "notice": "function that sets the exposition of the contract (Long Short or Neutral and rebalance assets accordingly)"
      },
      "setGMX_controller(address)": {
        "notice": "function that sets the exposition of the contract (Long Short or Neutral and rebalance assets accordingly)"
      }
    },
    "notice": "Arbitrum project",
    "version": 1
  },
  "storageLayout": {
    "storage": [
      {
        "astId": 10799,
        "contract": "contracts/MyVault.sol:MyVault",
        "label": "_owner",
        "offset": 0,
        "slot": "0",
        "type": "t_address"
      },
      {
        "astId": 10920,
        "contract": "contracts/MyVault.sol:MyVault",
        "label": "_balances",
        "offset": 0,
        "slot": "1",
        "type": "t_mapping(t_address,t_uint256)"
      },
      {
        "astId": 10926,
        "contract": "contracts/MyVault.sol:MyVault",
        "label": "_allowances",
        "offset": 0,
        "slot": "2",
        "type": "t_mapping(t_address,t_mapping(t_address,t_uint256))"
      },
      {
        "astId": 10928,
        "contract": "contracts/MyVault.sol:MyVault",
        "label": "_totalSupply",
        "offset": 0,
        "slot": "3",
        "type": "t_uint256"
      },
      {
        "astId": 10930,
        "contract": "contracts/MyVault.sol:MyVault",
        "label": "_name",
        "offset": 0,
        "slot": "4",
        "type": "t_string_storage"
      },
      {
        "astId": 10932,
        "contract": "contracts/MyVault.sol:MyVault",
        "label": "_symbol",
        "offset": 0,
        "slot": "5",
        "type": "t_string_storage"
      },
      {
        "astId": 1707,
        "contract": "contracts/MyVault.sol:MyVault",
        "label": "GMX_controller",
        "offset": 0,
        "slot": "6",
        "type": "t_address"
      },
      {
        "astId": 1710,
        "contract": "contracts/MyVault.sol:MyVault",
        "label": "WETH",
        "offset": 0,
        "slot": "7",
        "type": "t_address"
      },
      {
        "astId": 1713,
        "contract": "contracts/MyVault.sol:MyVault",
        "label": "USDC",
        "offset": 0,
        "slot": "8",
        "type": "t_address"
      },
      {
        "astId": 1716,
        "contract": "contracts/MyVault.sol:MyVault",
        "label": "gmxVault",
        "offset": 0,
        "slot": "9",
        "type": "t_address"
      },
      {
        "astId": 1718,
        "contract": "contracts/MyVault.sol:MyVault",
        "label": "netAssetValue",
        "offset": 0,
        "slot": "10",
        "type": "t_uint256"
      },
      {
        "astId": 1720,
        "contract": "contracts/MyVault.sol:MyVault",
        "label": "exposition",
        "offset": 0,
        "slot": "11",
        "type": "t_uint8"
      },
      {
        "astId": 1722,
        "contract": "contracts/MyVault.sol:MyVault",
        "label": "fees",
        "offset": 1,
        "slot": "11",
        "type": "t_uint8"
      },
      {
        "astId": 1724,
        "contract": "contracts/MyVault.sol:MyVault",
        "label": "isInit",
        "offset": 2,
        "slot": "11",
        "type": "t_bool"
      },
      {
        "astId": 1728,
        "contract": "contracts/MyVault.sol:MyVault",
        "label": "tokenAccepted",
        "offset": 0,
        "slot": "12",
        "type": "t_mapping(t_address,t_bool)"
      }
    ],
    "types": {
      "t_address": {
        "encoding": "inplace",
        "label": "address",
        "numberOfBytes": "20"
      },
      "t_bool": {
        "encoding": "inplace",
        "label": "bool",
        "numberOfBytes": "1"
      },
      "t_mapping(t_address,t_bool)": {
        "encoding": "mapping",
        "key": "t_address",
        "label": "mapping(address => bool)",
        "numberOfBytes": "32",
        "value": "t_bool"
      },
      "t_mapping(t_address,t_mapping(t_address,t_uint256))": {
        "encoding": "mapping",
        "key": "t_address",
        "label": "mapping(address => mapping(address => uint256))",
        "numberOfBytes": "32",
        "value": "t_mapping(t_address,t_uint256)"
      },
      "t_mapping(t_address,t_uint256)": {
        "encoding": "mapping",
        "key": "t_address",
        "label": "mapping(address => uint256)",
        "numberOfBytes": "32",
        "value": "t_uint256"
      },
      "t_string_storage": {
        "encoding": "bytes",
        "label": "string",
        "numberOfBytes": "32"
      },
      "t_uint256": {
        "encoding": "inplace",
        "label": "uint256",
        "numberOfBytes": "32"
      },
      "t_uint8": {
        "encoding": "inplace",
        "label": "uint8",
        "numberOfBytes": "1"
      }
    }
  }
}