{"contracts/GMX_controller.sol":{"GMX_controller":{"abi":[{"inputs":[{"internalType":"address","name":"_vault","type":"address"}],"stateMutability":"nonpayable","type":"constructor"},{"anonymous":false,"inputs":[{"indexed":true,"internalType":"address","name":"previousOwner","type":"address"},{"indexed":true,"internalType":"address","name":"newOwner","type":"address"}],"name":"OwnershipTransferred","type":"event"},{"inputs":[],"name":"GMXexecutionFee","outputs":[{"internalType":"uint256","name":"","type":"uint256"}],"stateMutability":"view","type":"function"},{"inputs":[],"name":"USDC","outputs":[{"internalType":"address","name":"","type":"address"}],"stateMutability":"view","type":"function"},{"inputs":[],"name":"WETH","outputs":[{"internalType":"address","name":"","type":"address"}],"stateMutability":"view","type":"function"},{"inputs":[{"internalType":"address","name":"_to","type":"address"},{"internalType":"uint256","name":"tokenAmount","type":"uint256"},{"internalType":"bool","name":"isLong","type":"bool"}],"name":"decreasePosition","outputs":[],"stateMutability":"payable","type":"function"},{"inputs":[],"name":"getVaultOwner","outputs":[{"internalType":"address","name":"","type":"address"}],"stateMutability":"view","type":"function"},{"inputs":[],"name":"gmxPositionRouter","outputs":[{"internalType":"address","name":"","type":"address"}],"stateMutability":"view","type":"function"},{"inputs":[],"name":"gmxReader","outputs":[{"internalType":"address","name":"","type":"address"}],"stateMutability":"view","type":"function"},{"inputs":[],"name":"gmxRouter","outputs":[{"internalType":"address","name":"","type":"address"}],"stateMutability":"view","type":"function"},{"inputs":[],"name":"gmxVault","outputs":[{"internalType":"address","name":"","type":"address"}],"stateMutability":"view","type":"function"},{"inputs":[{"internalType":"uint256","name":"tokenAmount","type":"uint256"},{"internalType":"bool","name":"isLong","type":"bool"}],"name":"increasePosition","outputs":[],"stateMutability":"payable","type":"function"},{"inputs":[{"internalType":"bool","name":"isLong","type":"bool"}],"name":"liquidatePosition","outputs":[],"stateMutability":"payable","type":"function"},{"inputs":[],"name":"owner","outputs":[{"internalType":"address","name":"","type":"address"}],"stateMutability":"view","type":"function"},{"inputs":[],"name":"renounceOwnership","outputs":[],"stateMutability":"nonpayable","type":"function"},{"inputs":[{"internalType":"address","name":"_addr","type":"address"}],"name":"setVaultOwner","outputs":[],"stateMutability":"nonpayable","type":"function"},{"inputs":[{"internalType":"address","name":"newOwner","type":"address"}],"name":"transferOwnership","outputs":[],"stateMutability":"nonpayable","type":"function"},{"inputs":[],"name":"vault","outputs":[{"internalType":"address","name":"","type":"address"}],"stateMutability":"view","type":"function"}],"devdoc":{"kind":"dev","methods":{"owner()":{"details":"Returns the address of the current owner."},"renounceOwnership()":{"details":"Leaves the contract without owner. It will not be possible to call `onlyOwner` functions anymore. Can only be called by the current owner. NOTE: Renouncing ownership will leave the contract without an owner, thereby removing any functionality that is only available to the owner."},"transferOwnership(address)":{"details":"Transfers ownership of the contract to a new account (`newOwner`). Can only be called by the current owner."}},"version":1},"evm":{"bytecode":{"linkReferences":{},"object":"6080604052600180546001600160a01b031990811673489ee077994b6658eafa855c308275ead8097c4a1790915560028054821673abbc5f99639c9b6bcb58544ddf04efa6802f406417905560038054821673b87a436b93ffe9d75c5cfa7bacfff96430b098681790556004805482167322199a49a999c351ef7927602cfb187ec3cae4891790556005805482167382af49447d8a07e3bd95bd0d56f35241523fbab11790556006805490911673ff970a61a04b1ca14834a43f5de4533ebddb5cc8179055348015620000d157600080fd5b50604051620016e5380380620016e5833981016040819052620000f4916200024e565b620000ff33620001fe565b600880546001600160a01b0319166001600160a01b03838116919091179091556002546003546040516338c74dd960e01b815290831660048201529116906338c74dd990602401600060405180830381600087803b1580156200016157600080fd5b505af115801562000176573d6000803e3d6000fd5b50505050600360009054906101000a90046001600160a01b03166001600160a01b03166363ae21036040518163ffffffff1660e01b8152600401602060405180830381865afa158015620001ce573d6000803e3d6000fd5b505050506040513d601f19601f82011682018060405250810190620001f4919062000280565b600755506200029a565b600080546001600160a01b038381166001600160a01b0319831681178455604051919092169283917f8be0079c531659141344cd1fd0a4f28419497f9722a3daafe3b4186f6b6457e09190a35050565b6000602082840312156200026157600080fd5b81516001600160a01b03811681146200027957600080fd5b9392505050565b6000602082840312156200029357600080fd5b5051919050565b61143b80620002aa6000396000f3fe6080604052600436106100d35760003560e01c8063a44ca3461161007a578063a44ca346146101c9578063ad5c4648146101e7578063b3b3453e14610207578063be77cd3214610227578063c5dac33b14610247578063c657e7c21461025a578063f2fde38b1461027a578063fbfa77cf1461029a57600080fd5b80631c5ecc06146100d8578063434c0c75146100ed578063634e318014610116578063715018a6146101435780637cb175971461015857806380b3631c1461016b57806389a302711461018b5780638da5cb5b146101ab575b600080fd5b6100eb6100e63660046110b4565b6102ba565b005b3480156100f957600080fd5b5061010360075481565b6040519081526020015b60405180910390f35b34801561012257600080fd5b50600254610136906001600160a01b031681565b60405161010d91906110e4565b34801561014f57600080fd5b506100eb61075a565b6100eb6101663660046110f8565b61076e565b34801561017757600080fd5b506100eb610186366004611138565b610b34565b34801561019757600080fd5b50600654610136906001600160a01b031681565b3480156101b757600080fd5b506000546001600160a01b0316610136565b3480156101d557600080fd5b506008546001600160a01b0316610136565b3480156101f357600080fd5b50600554610136906001600160a01b031681565b34801561021357600080fd5b50600154610136906001600160a01b031681565b34801561023357600080fd5b50600454610136906001600160a01b031681565b6100eb610255366004611153565b610b5e565b34801561026657600080fd5b50600354610136906001600160a01b031681565b34801561028657600080fd5b506100eb610295366004611138565b610f1d565b3480156102a657600080fd5b50600854610136906001600160a01b031681565b6008546001600160a01b031633146102ed5760405162461bcd60e51b81526004016102e490611193565b60405180910390fd5b6006546008546040516323b872dd60e01b81526001600160a01b039182166004820152306024820152604481018590529116906323b872dd906064016020604051808303816000875af1158015610348573d6000803e3d6000fd5b505050506040513d601f19601f8201168201806040525081019061036c91906111b6565b5060065460025460405163095ea7b360e01b81526001600160a01b0391821660048201526024810185905291169063095ea7b3906044016020604051808303816000875af11580156103c2573d6000803e3d6000fd5b505050506040513d601f19601f820116820180604052508101906103e691906111b6565b50600060646103f684606e6111d3565b61040091906111fe565b6104149069d3c21bcecceda10000006111d3565b9050600082156105ea57604080516002808252606082018352600092602083019080368337505060065482519293506001600160a01b03169183915060009061045f5761045f611220565b6001600160a01b03928316602091820292909201015260055482519116908290600190811061049057610490611220565b6001600160a01b039283166020918202929092010152600154600554604051637092736960e11b8152612710939283169263e124e6d2926104d6929116906004016110e4565b602060405180830381865afa1580156104f3573d6000803e3d6000fd5b505050506040513d601f19601f820116820180604052508101906105179190611236565b6105239061272e6111d3565b61052d91906111fe565b915061053882610f96565b61054185610f96565b61054a83610f96565b60035460055460085460405163f2ae372f60e01b81526001600160a01b039384169363f2ae372f9334936105b2938893928316928d926000928d928f928e92655af3107a400092716d79726566657272616c4d6176696e69676960701b921690600401611293565b6000604051808303818588803b1580156105cb57600080fd5b505af11580156105df573d6000803e3d6000fd5b505050505050610754565b60408051600180825281830190925260009160208083019080368337505060065482519293506001600160a01b03169183915060009061062c5761062c611220565b6001600160a01b0392831660209182029290920101526001546005546040516340d3096b60e11b815261271093928316926381a612d692610672929116906004016110e4565b602060405180830381865afa15801561068f573d6000803e3d6000fd5b505050506040513d601f19601f820116820180604052508101906106b39190611236565b6106bf906126f26111d3565b6106c991906111fe565b60035460055460085460405163f2ae372f60e01b81529395506001600160a01b039283169363f2ae372f933493610720938893918316928d926000928d928f928e92655af3107a4000928792911690600401611293565b6000604051808303818588803b15801561073957600080fd5b505af115801561074d573d6000803e3d6000fd5b5050505050505b50505050565b610762610fdb565b61076c6000611035565b565b6008546001600160a01b031633146107985760405162461bcd60e51b81526004016102e490611193565b600081156109cf57604080516002808252606082018352600092602083019080368337505060055482519293506001600160a01b0316918391506000906107e1576107e1611220565b6001600160a01b03928316602091820292909201015260065482519116908290600190811061081257610812611220565b6001600160a01b039283166020918202929092010152600154600554604051634a3f088d60e01b815260009392831692634a3f088d9261085f923092919091169081908a906004016112fe565b610100604051808303816000875af115801561087f573d6000803e3d6000fd5b505050506040513d601f19601f820116820180604052508101906108a39190611328565b50506001546005546040516340d3096b60e11b8152979850612710976001600160a01b0392831697506381a612d696506108e695509116925060040190506110e4565b602060405180830381865afa158015610903573d6000803e3d6000fd5b505050506040513d601f19601f820116820180604052508101906109279190611236565b610933906126f26111d3565b61093d91906111fe565b600354600554600854604051637be7d14160e01b81529396506001600160a01b0392831693637be7d141933493610997938993918316926000928a928e9233928f928792655af3107a400092849290911690600401611392565b6000604051808303818588803b1580156109b057600080fd5b505af11580156109c4573d6000803e3d6000fd5b505050505050505050565b60408051600180825281830190925260009160208083019080368337505060065482519293506001600160a01b031691839150600090610a1157610a11611220565b6001600160a01b039283166020918202929092010152600154600654600554604051634a3f088d60e01b815260009493841693634a3f088d93610a609330939183169216908a906004016112fe565b610100604051808303816000875af1158015610a80573d6000803e3d6000fd5b505050506040513d601f19601f82011682018060405250810190610aa49190611328565b5050600154600554604051637092736960e11b8152979850612710976001600160a01b03928316975063e124e6d29650610ae795509116925060040190506110e4565b602060405180830381865afa158015610b04573d6000803e3d6000fd5b505050506040513d601f19601f82011682018060405250810190610b289190611236565b6109339061272e6111d3565b610b3c610fdb565b600880546001600160a01b0319166001600160a01b0392909216919091179055565b6008546001600160a01b03163314610b885760405162461bcd60e51b81526004016102e490611193565b6000806064610b9885606e6111d3565b610ba291906111fe565b610bb69069d3c21bcecceda10000006111d3565b90508215610d8457604080516002808252606082018352600092602083019080368337505060055482519293506001600160a01b031691839150600090610bff57610bff611220565b6001600160a01b039283166020918202929092010152600654825191169082906001908110610c3057610c30611220565b6001600160a01b0392831660209182029290920101526001546005546040516340d3096b60e11b815261271093928316926381a612d692610c76929116906004016110e4565b602060405180830381865afa158015610c93573d6000803e3d6000fd5b505050506040513d601f19601f82011682018060405250810190610cb79190611236565b610cc3906126f26111d3565b610ccd91906111fe565b6003546005549194506001600160a01b0390811691637be7d141913491859116610d018a69d3c21bcecceda10000006111d3565b878a8d8b6000655af3107a40006000600860009054906101000a90046001600160a01b03166040518d63ffffffff1660e01b8152600401610d4c9b9a99989796959493929190611392565b6000604051808303818588803b158015610d6557600080fd5b505af1158015610d79573d6000803e3d6000fd5b505050505050610f16565b60408051600180825281830190925260009160208083019080368337505060065482519293506001600160a01b031691839150600090610dc657610dc6611220565b6001600160a01b039283166020918202929092010152600154600554604051637092736960e11b8152612710939283169263e124e6d292610e0c929116906004016110e4565b602060405180830381865afa158015610e29573d6000803e3d6000fd5b505050506040513d601f19601f82011682018060405250810190610e4d9190611236565b610e599061272e6111d3565b610e6391906111fe565b6003546005549194506001600160a01b0390811691637be7d141913491859116610e978a69d3c21bcecceda10000006111d3565b878a8d8b6000655af3107a40006000600860009054906101000a90046001600160a01b03166040518d63ffffffff1660e01b8152600401610ee29b9a99989796959493929190611392565b6000604051808303818588803b158015610efb57600080fd5b505af1158015610f0f573d6000803e3d6000fd5b5050505050505b5050505050565b610f25610fdb565b6001600160a01b038116610f8a5760405162461bcd60e51b815260206004820152602660248201527f4f776e61626c653a206e6577206f776e657220697320746865207a65726f206160448201526564647265737360d01b60648201526084016102e4565b610f9381611035565b50565b610f9381604051602401610fac91815260200190565b60408051601f198184030181529190526020810180516001600160e01b031663f82c50f160e01b179052611085565b6000546001600160a01b0316331461076c5760405162461bcd60e51b815260206004820181905260248201527f4f776e61626c653a2063616c6c6572206973206e6f7420746865206f776e657260448201526064016102e4565b600080546001600160a01b038381166001600160a01b0319831681178455604051919092169283917f8be0079c531659141344cd1fd0a4f28419497f9722a3daafe3b4186f6b6457e09190a35050565b80516a636f6e736f6c652e6c6f67602083016000808483855afa5050505050565b8015158114610f9357600080fd5b600080604083850312156110c757600080fd5b8235915060208301356110d9816110a6565b809150509250929050565b6001600160a01b0391909116815260200190565b60006020828403121561110a57600080fd5b8135611115816110a6565b9392505050565b80356001600160a01b038116811461113357600080fd5b919050565b60006020828403121561114a57600080fd5b6111158261111c565b60008060006060848603121561116857600080fd5b6111718461111c565b9250602084013591506040840135611188816110a6565b809150509250925092565b602080825260099082015268139bdd081d985d5b1d60ba1b604082015260600190565b6000602082840312156111c857600080fd5b8151611115816110a6565b80820281158282048414176111f857634e487b7160e01b600052601160045260246000fd5b92915050565b60008261121b57634e487b7160e01b600052601260045260246000fd5b500490565b634e487b7160e01b600052603260045260246000fd5b60006020828403121561124857600080fd5b5051919050565b600081518084526020808501945080840160005b838110156112885781516001600160a01b031687529582019590820190600101611263565b509495945050505050565b60006101408083526112a78184018e61124f565b6001600160a01b039c8d166020850152604084019b909b5250506060810197909752608087019590955292151560a086015260c085019190915260e084015261010083015290921661012090920191909152919050565b6001600160a01b039485168152928416602084015292166040820152901515606082015260800190565b600080600080600080600080610100898b03121561134557600080fd5b885197506020890151965060408901519550606089015194506080890151935060a0890151925060c089015161137a816110a6565b8092505060e089015190509295985092959890939650565b60006101608083526113a68184018f61124f565b6001600160a01b039d8e166020850152604084019c909c5250506060810198909852951515608088015293881660a087015260c086019290925260e085015261010084015215156101208301529092166101409092019190915291905056fea264697066735822122085a2d7fac529c85115fb530975c1dc9a300d64d1d4c5f76248ad217dc04422e964736f6c63430008110033","opcodes":"PUSH1 0x80 PUSH1 0x40 MSTORE PUSH1 0x1 DUP1 SLOAD PUSH1 0x1 PUSH1 0x1 PUSH1 0xA0 SHL SUB NOT SWAP1 DUP2 AND PUSH20 0x489EE077994B6658EAFA855C308275EAD8097C4A OR SWAP1 SWAP2 SSTORE PUSH1 0x2 DUP1 SLOAD DUP3 AND PUSH20 0xABBC5F99639C9B6BCB58544DDF04EFA6802F4064 OR SWAP1 SSTORE PUSH1 0x3 DUP1 SLOAD DUP3 AND PUSH20 0xB87A436B93FFE9D75C5CFA7BACFFF96430B09868 OR SWAP1 SSTORE PUSH1 0x4 DUP1 SLOAD DUP3 AND PUSH20 0x22199A49A999C351EF7927602CFB187EC3CAE489 OR SWAP1 SSTORE PUSH1 0x5 DUP1 SLOAD DUP3 AND PUSH20 0x82AF49447D8A07E3BD95BD0D56F35241523FBAB1 OR SWAP1 SSTORE PUSH1 0x6 DUP1 SLOAD SWAP1 SWAP2 AND PUSH20 0xFF970A61A04B1CA14834A43F5DE4533EBDDB5CC8 OR SWAP1 SSTORE CALLVALUE DUP1 ISZERO PUSH3 0xD1 JUMPI PUSH1 0x0 DUP1 REVERT JUMPDEST POP PUSH1 0x40 MLOAD PUSH3 0x16E5 CODESIZE SUB DUP1 PUSH3 0x16E5 DUP4 CODECOPY DUP2 ADD PUSH1 0x40 DUP2 SWAP1 MSTORE PUSH3 0xF4 SWAP2 PUSH3 0x24E JUMP JUMPDEST PUSH3 0xFF CALLER PUSH3 0x1FE JUMP JUMPDEST PUSH1 0x8 DUP1 SLOAD PUSH1 0x1 PUSH1 0x1 PUSH1 0xA0 SHL SUB NOT AND PUSH1 0x1 PUSH1 0x1 PUSH1 0xA0 SHL SUB DUP4 DUP2 AND SWAP2 SWAP1 SWAP2 OR SWAP1 SWAP2 SSTORE PUSH1 0x2 SLOAD PUSH1 0x3 SLOAD PUSH1 0x40 MLOAD PUSH4 0x38C74DD9 PUSH1 0xE0 SHL DUP2 MSTORE SWAP1 DUP4 AND PUSH1 0x4 DUP3 ADD MSTORE SWAP2 AND SWAP1 PUSH4 0x38C74DD9 SWAP1 PUSH1 0x24 ADD PUSH1 0x0 PUSH1 0x40 MLOAD DUP1 DUP4 SUB DUP2 PUSH1 0x0 DUP8 DUP1 EXTCODESIZE ISZERO DUP1 ISZERO PUSH3 0x161 JUMPI PUSH1 0x0 DUP1 REVERT JUMPDEST POP GAS CALL ISZERO DUP1 ISZERO PUSH3 0x176 JUMPI RETURNDATASIZE PUSH1 0x0 DUP1 RETURNDATACOPY RETURNDATASIZE PUSH1 0x0 REVERT JUMPDEST POP POP POP POP PUSH1 0x3 PUSH1 0x0 SWAP1 SLOAD SWAP1 PUSH2 0x100 EXP SWAP1 DIV PUSH1 0x1 PUSH1 0x1 PUSH1 0xA0 SHL SUB AND PUSH1 0x1 PUSH1 0x1 PUSH1 0xA0 SHL SUB AND PUSH4 0x63AE2103 PUSH1 0x40 MLOAD DUP2 PUSH4 0xFFFFFFFF AND PUSH1 0xE0 SHL DUP2 MSTORE PUSH1 0x4 ADD PUSH1 0x20 PUSH1 0x40 MLOAD DUP1 DUP4 SUB DUP2 DUP7 GAS STATICCALL ISZERO DUP1 ISZERO PUSH3 0x1CE JUMPI RETURNDATASIZE PUSH1 0x0 DUP1 RETURNDATACOPY RETURNDATASIZE PUSH1 0x0 REVERT JUMPDEST POP POP POP POP PUSH1 0x40 MLOAD RETURNDATASIZE PUSH1 0x1F NOT PUSH1 0x1F DUP3 ADD AND DUP3 ADD DUP1 PUSH1 0x40 MSTORE POP DUP2 ADD SWAP1 PUSH3 0x1F4 SWAP2 SWAP1 PUSH3 0x280 JUMP JUMPDEST PUSH1 0x7 SSTORE POP PUSH3 0x29A JUMP JUMPDEST PUSH1 0x0 DUP1 SLOAD PUSH1 0x1 PUSH1 0x1 PUSH1 0xA0 SHL SUB DUP4 DUP2 AND PUSH1 0x1 PUSH1 0x1 PUSH1 0xA0 SHL SUB NOT DUP4 AND DUP2 OR DUP5 SSTORE PUSH1 0x40 MLOAD SWAP2 SWAP1 SWAP3 AND SWAP3 DUP4 SWAP2 PUSH32 0x8BE0079C531659141344CD1FD0A4F28419497F9722A3DAAFE3B4186F6B6457E0 SWAP2 SWAP1 LOG3 POP POP JUMP JUMPDEST PUSH1 0x0 PUSH1 0x20 DUP3 DUP5 SUB SLT ISZERO PUSH3 0x261 JUMPI PUSH1 0x0 DUP1 REVERT JUMPDEST DUP2 MLOAD PUSH1 0x1 PUSH1 0x1 PUSH1 0xA0 SHL SUB DUP2 AND DUP2 EQ PUSH3 0x279 JUMPI PUSH1 0x0 DUP1 REVERT JUMPDEST SWAP4 SWAP3 POP POP POP JUMP JUMPDEST PUSH1 0x0 PUSH1 0x20 DUP3 DUP5 SUB SLT ISZERO PUSH3 0x293 JUMPI PUSH1 0x0 DUP1 REVERT JUMPDEST POP MLOAD SWAP2 SWAP1 POP JUMP JUMPDEST PUSH2 0x143B DUP1 PUSH3 0x2AA PUSH1 0x0 CODECOPY PUSH1 0x0 RETURN INVALID PUSH1 0x80 PUSH1 0x40 MSTORE PUSH1 0x4 CALLDATASIZE LT PUSH2 0xD3 JUMPI PUSH1 0x0 CALLDATALOAD PUSH1 0xE0 SHR DUP1 PUSH4 0xA44CA346 GT PUSH2 0x7A JUMPI DUP1 PUSH4 0xA44CA346 EQ PUSH2 0x1C9 JUMPI DUP1 PUSH4 0xAD5C4648 EQ PUSH2 0x1E7 JUMPI DUP1 PUSH4 0xB3B3453E EQ PUSH2 0x207 JUMPI DUP1 PUSH4 0xBE77CD32 EQ PUSH2 0x227 JUMPI DUP1 PUSH4 0xC5DAC33B EQ PUSH2 0x247 JUMPI DUP1 PUSH4 0xC657E7C2 EQ PUSH2 0x25A JUMPI DUP1 PUSH4 0xF2FDE38B EQ PUSH2 0x27A JUMPI DUP1 PUSH4 0xFBFA77CF EQ PUSH2 0x29A JUMPI PUSH1 0x0 DUP1 REVERT JUMPDEST DUP1 PUSH4 0x1C5ECC06 EQ PUSH2 0xD8 JUMPI DUP1 PUSH4 0x434C0C75 EQ PUSH2 0xED JUMPI DUP1 PUSH4 0x634E3180 EQ PUSH2 0x116 JUMPI DUP1 PUSH4 0x715018A6 EQ PUSH2 0x143 JUMPI DUP1 PUSH4 0x7CB17597 EQ PUSH2 0x158 JUMPI DUP1 PUSH4 0x80B3631C EQ PUSH2 0x16B JUMPI DUP1 PUSH4 0x89A30271 EQ PUSH2 0x18B JUMPI DUP1 PUSH4 0x8DA5CB5B EQ PUSH2 0x1AB JUMPI JUMPDEST PUSH1 0x0 DUP1 REVERT JUMPDEST PUSH2 0xEB PUSH2 0xE6 CALLDATASIZE PUSH1 0x4 PUSH2 0x10B4 JUMP JUMPDEST PUSH2 0x2BA JUMP JUMPDEST STOP JUMPDEST CALLVALUE DUP1 ISZERO PUSH2 0xF9 JUMPI PUSH1 0x0 DUP1 REVERT JUMPDEST POP PUSH2 0x103 PUSH1 0x7 SLOAD DUP2 JUMP JUMPDEST PUSH1 0x40 MLOAD SWAP1 DUP2 MSTORE PUSH1 0x20 ADD JUMPDEST PUSH1 0x40 MLOAD DUP1 SWAP2 SUB SWAP1 RETURN JUMPDEST CALLVALUE DUP1 ISZERO PUSH2 0x122 JUMPI PUSH1 0x0 DUP1 REVERT JUMPDEST POP PUSH1 0x2 SLOAD PUSH2 0x136 SWAP1 PUSH1 0x1 PUSH1 0x1 PUSH1 0xA0 SHL SUB AND DUP2 JUMP JUMPDEST PUSH1 0x40 MLOAD PUSH2 0x10D SWAP2 SWAP1 PUSH2 0x10E4 JUMP JUMPDEST CALLVALUE DUP1 ISZERO PUSH2 0x14F JUMPI PUSH1 0x0 DUP1 REVERT JUMPDEST POP PUSH2 0xEB PUSH2 0x75A JUMP JUMPDEST PUSH2 0xEB PUSH2 0x166 CALLDATASIZE PUSH1 0x4 PUSH2 0x10F8 JUMP JUMPDEST PUSH2 0x76E JUMP JUMPDEST CALLVALUE DUP1 ISZERO PUSH2 0x177 JUMPI PUSH1 0x0 DUP1 REVERT JUMPDEST POP PUSH2 0xEB PUSH2 0x186 CALLDATASIZE PUSH1 0x4 PUSH2 0x1138 JUMP JUMPDEST PUSH2 0xB34 JUMP JUMPDEST CALLVALUE DUP1 ISZERO PUSH2 0x197 JUMPI PUSH1 0x0 DUP1 REVERT JUMPDEST POP PUSH1 0x6 SLOAD PUSH2 0x136 SWAP1 PUSH1 0x1 PUSH1 0x1 PUSH1 0xA0 SHL SUB AND DUP2 JUMP JUMPDEST CALLVALUE DUP1 ISZERO PUSH2 0x1B7 JUMPI PUSH1 0x0 DUP1 REVERT JUMPDEST POP PUSH1 0x0 SLOAD PUSH1 0x1 PUSH1 0x1 PUSH1 0xA0 SHL SUB AND PUSH2 0x136 JUMP JUMPDEST CALLVALUE DUP1 ISZERO PUSH2 0x1D5 JUMPI PUSH1 0x0 DUP1 REVERT JUMPDEST POP PUSH1 0x8 SLOAD PUSH1 0x1 PUSH1 0x1 PUSH1 0xA0 SHL SUB AND PUSH2 0x136 JUMP JUMPDEST CALLVALUE DUP1 ISZERO PUSH2 0x1F3 JUMPI PUSH1 0x0 DUP1 REVERT JUMPDEST POP PUSH1 0x5 SLOAD PUSH2 0x136 SWAP1 PUSH1 0x1 PUSH1 0x1 PUSH1 0xA0 SHL SUB AND DUP2 JUMP JUMPDEST CALLVALUE DUP1 ISZERO PUSH2 0x213 JUMPI PUSH1 0x0 DUP1 REVERT JUMPDEST POP PUSH1 0x1 SLOAD PUSH2 0x136 SWAP1 PUSH1 0x1 PUSH1 0x1 PUSH1 0xA0 SHL SUB AND DUP2 JUMP JUMPDEST CALLVALUE DUP1 ISZERO PUSH2 0x233 JUMPI PUSH1 0x0 DUP1 REVERT JUMPDEST POP PUSH1 0x4 SLOAD PUSH2 0x136 SWAP1 PUSH1 0x1 PUSH1 0x1 PUSH1 0xA0 SHL SUB AND DUP2 JUMP JUMPDEST PUSH2 0xEB PUSH2 0x255 CALLDATASIZE PUSH1 0x4 PUSH2 0x1153 JUMP JUMPDEST PUSH2 0xB5E JUMP JUMPDEST CALLVALUE DUP1 ISZERO PUSH2 0x266 JUMPI PUSH1 0x0 DUP1 REVERT JUMPDEST POP PUSH1 0x3 SLOAD PUSH2 0x136 SWAP1 PUSH1 0x1 PUSH1 0x1 PUSH1 0xA0 SHL SUB AND DUP2 JUMP JUMPDEST CALLVALUE DUP1 ISZERO PUSH2 0x286 JUMPI PUSH1 0x0 DUP1 REVERT JUMPDEST POP PUSH2 0xEB PUSH2 0x295 CALLDATASIZE PUSH1 0x4 PUSH2 0x1138 JUMP JUMPDEST PUSH2 0xF1D JUMP JUMPDEST CALLVALUE DUP1 ISZERO PUSH2 0x2A6 JUMPI PUSH1 0x0 DUP1 REVERT JUMPDEST POP PUSH1 0x8 SLOAD PUSH2 0x136 SWAP1 PUSH1 0x1 PUSH1 0x1 PUSH1 0xA0 SHL SUB AND DUP2 JUMP JUMPDEST PUSH1 0x8 SLOAD PUSH1 0x1 PUSH1 0x1 PUSH1 0xA0 SHL SUB AND CALLER EQ PUSH2 0x2ED JUMPI PUSH1 0x40 MLOAD PUSH3 0x461BCD PUSH1 0xE5 SHL DUP2 MSTORE PUSH1 0x4 ADD PUSH2 0x2E4 SWAP1 PUSH2 0x1193 JUMP JUMPDEST PUSH1 0x40 MLOAD DUP1 SWAP2 SUB SWAP1 REVERT JUMPDEST PUSH1 0x6 SLOAD PUSH1 0x8 SLOAD PUSH1 0x40 MLOAD PUSH4 0x23B872DD PUSH1 0xE0 SHL DUP2 MSTORE PUSH1 0x1 PUSH1 0x1 PUSH1 0xA0 SHL SUB SWAP2 DUP3 AND PUSH1 0x4 DUP3 ADD MSTORE ADDRESS PUSH1 0x24 DUP3 ADD MSTORE PUSH1 0x44 DUP2 ADD DUP6 SWAP1 MSTORE SWAP2 AND SWAP1 PUSH4 0x23B872DD SWAP1 PUSH1 0x64 ADD PUSH1 0x20 PUSH1 0x40 MLOAD DUP1 DUP4 SUB DUP2 PUSH1 0x0 DUP8 GAS CALL ISZERO DUP1 ISZERO PUSH2 0x348 JUMPI RETURNDATASIZE PUSH1 0x0 DUP1 RETURNDATACOPY RETURNDATASIZE PUSH1 0x0 REVERT JUMPDEST POP POP POP POP PUSH1 0x40 MLOAD RETURNDATASIZE PUSH1 0x1F NOT PUSH1 0x1F DUP3 ADD AND DUP3 ADD DUP1 PUSH1 0x40 MSTORE POP DUP2 ADD SWAP1 PUSH2 0x36C SWAP2 SWAP1 PUSH2 0x11B6 JUMP JUMPDEST POP PUSH1 0x6 SLOAD PUSH1 0x2 SLOAD PUSH1 0x40 MLOAD PUSH4 0x95EA7B3 PUSH1 0xE0 SHL DUP2 MSTORE PUSH1 0x1 PUSH1 0x1 PUSH1 0xA0 SHL SUB SWAP2 DUP3 AND PUSH1 0x4 DUP3 ADD MSTORE PUSH1 0x24 DUP2 ADD DUP6 SWAP1 MSTORE SWAP2 AND SWAP1 PUSH4 0x95EA7B3 SWAP1 PUSH1 0x44 ADD PUSH1 0x20 PUSH1 0x40 MLOAD DUP1 DUP4 SUB DUP2 PUSH1 0x0 DUP8 GAS CALL ISZERO DUP1 ISZERO PUSH2 0x3C2 JUMPI RETURNDATASIZE PUSH1 0x0 DUP1 RETURNDATACOPY RETURNDATASIZE PUSH1 0x0 REVERT JUMPDEST POP POP POP POP PUSH1 0x40 MLOAD RETURNDATASIZE PUSH1 0x1F NOT PUSH1 0x1F DUP3 ADD AND DUP3 ADD DUP1 PUSH1 0x40 MSTORE POP DUP2 ADD SWAP1 PUSH2 0x3E6 SWAP2 SWAP1 PUSH2 0x11B6 JUMP JUMPDEST POP PUSH1 0x0 PUSH1 0x64 PUSH2 0x3F6 DUP5 PUSH1 0x6E PUSH2 0x11D3 JUMP JUMPDEST PUSH2 0x400 SWAP2 SWAP1 PUSH2 0x11FE JUMP JUMPDEST PUSH2 0x414 SWAP1 PUSH10 0xD3C21BCECCEDA1000000 PUSH2 0x11D3 JUMP JUMPDEST SWAP1 POP PUSH1 0x0 DUP3 ISZERO PUSH2 0x5EA JUMPI PUSH1 0x40 DUP1 MLOAD PUSH1 0x2 DUP1 DUP3 MSTORE PUSH1 0x60 DUP3 ADD DUP4 MSTORE PUSH1 0x0 SWAP3 PUSH1 0x20 DUP4 ADD SWAP1 DUP1 CALLDATASIZE DUP4 CALLDATACOPY POP POP PUSH1 0x6 SLOAD DUP3 MLOAD SWAP3 SWAP4 POP PUSH1 0x1 PUSH1 0x1 PUSH1 0xA0 SHL SUB AND SWAP2 DUP4 SWAP2 POP PUSH1 0x0 SWAP1 PUSH2 0x45F JUMPI PUSH2 0x45F PUSH2 0x1220 JUMP JUMPDEST PUSH1 0x1 PUSH1 0x1 PUSH1 0xA0 SHL SUB SWAP3 DUP4 AND PUSH1 0x20 SWAP2 DUP3 MUL SWAP3 SWAP1 SWAP3 ADD ADD MSTORE PUSH1 0x5 SLOAD DUP3 MLOAD SWAP2 AND SWAP1 DUP3 SWAP1 PUSH1 0x1 SWAP1 DUP2 LT PUSH2 0x490 JUMPI PUSH2 0x490 PUSH2 0x1220 JUMP JUMPDEST PUSH1 0x1 PUSH1 0x1 PUSH1 0xA0 SHL SUB SWAP3 DUP4 AND PUSH1 0x20 SWAP2 DUP3 MUL SWAP3 SWAP1 SWAP3 ADD ADD MSTORE PUSH1 0x1 SLOAD PUSH1 0x5 SLOAD PUSH1 0x40 MLOAD PUSH4 0x70927369 PUSH1 0xE1 SHL DUP2 MSTORE PUSH2 0x2710 SWAP4 SWAP3 DUP4 AND SWAP3 PUSH4 0xE124E6D2 SWAP3 PUSH2 0x4D6 SWAP3 SWAP2 AND SWAP1 PUSH1 0x4 ADD PUSH2 0x10E4 JUMP JUMPDEST PUSH1 0x20 PUSH1 0x40 MLOAD DUP1 DUP4 SUB DUP2 DUP7 GAS STATICCALL ISZERO DUP1 ISZERO PUSH2 0x4F3 JUMPI RETURNDATASIZE PUSH1 0x0 DUP1 RETURNDATACOPY RETURNDATASIZE PUSH1 0x0 REVERT JUMPDEST POP POP POP POP PUSH1 0x40 MLOAD RETURNDATASIZE PUSH1 0x1F NOT PUSH1 0x1F DUP3 ADD AND DUP3 ADD DUP1 PUSH1 0x40 MSTORE POP DUP2 ADD SWAP1 PUSH2 0x517 SWAP2 SWAP1 PUSH2 0x1236 JUMP JUMPDEST PUSH2 0x523 SWAP1 PUSH2 0x272E PUSH2 0x11D3 JUMP JUMPDEST PUSH2 0x52D SWAP2 SWAP1 PUSH2 0x11FE JUMP JUMPDEST SWAP2 POP PUSH2 0x538 DUP3 PUSH2 0xF96 JUMP JUMPDEST PUSH2 0x541 DUP6 PUSH2 0xF96 JUMP JUMPDEST PUSH2 0x54A DUP4 PUSH2 0xF96 JUMP JUMPDEST PUSH1 0x3 SLOAD PUSH1 0x5 SLOAD PUSH1 0x8 SLOAD PUSH1 0x40 MLOAD PUSH4 0xF2AE372F PUSH1 0xE0 SHL DUP2 MSTORE PUSH1 0x1 PUSH1 0x1 PUSH1 0xA0 SHL SUB SWAP4 DUP5 AND SWAP4 PUSH4 0xF2AE372F SWAP4 CALLVALUE SWAP4 PUSH2 0x5B2 SWAP4 DUP9 SWAP4 SWAP3 DUP4 AND SWAP3 DUP14 SWAP3 PUSH1 0x0 SWAP3 DUP14 SWAP3 DUP16 SWAP3 DUP15 SWAP3 PUSH6 0x5AF3107A4000 SWAP3 PUSH18 0x6D79726566657272616C4D6176696E696769 PUSH1 0x70 SHL SWAP3 AND SWAP1 PUSH1 0x4 ADD PUSH2 0x1293 JUMP JUMPDEST PUSH1 0x0 PUSH1 0x40 MLOAD DUP1 DUP4 SUB DUP2 DUP6 DUP9 DUP1 EXTCODESIZE ISZERO DUP1 ISZERO PUSH2 0x5CB JUMPI PUSH1 0x0 DUP1 REVERT JUMPDEST POP GAS CALL ISZERO DUP1 ISZERO PUSH2 0x5DF JUMPI RETURNDATASIZE PUSH1 0x0 DUP1 RETURNDATACOPY RETURNDATASIZE PUSH1 0x0 REVERT JUMPDEST POP POP POP POP POP POP PUSH2 0x754 JUMP JUMPDEST PUSH1 0x40 DUP1 MLOAD PUSH1 0x1 DUP1 DUP3 MSTORE DUP2 DUP4 ADD SWAP1 SWAP3 MSTORE PUSH1 0x0 SWAP2 PUSH1 0x20 DUP1 DUP4 ADD SWAP1 DUP1 CALLDATASIZE DUP4 CALLDATACOPY POP POP PUSH1 0x6 SLOAD DUP3 MLOAD SWAP3 SWAP4 POP PUSH1 0x1 PUSH1 0x1 PUSH1 0xA0 SHL SUB AND SWAP2 DUP4 SWAP2 POP PUSH1 0x0 SWAP1 PUSH2 0x62C JUMPI PUSH2 0x62C PUSH2 0x1220 JUMP JUMPDEST PUSH1 0x1 PUSH1 0x1 PUSH1 0xA0 SHL SUB SWAP3 DUP4 AND PUSH1 0x20 SWAP2 DUP3 MUL SWAP3 SWAP1 SWAP3 ADD ADD MSTORE PUSH1 0x1 SLOAD PUSH1 0x5 SLOAD PUSH1 0x40 MLOAD PUSH4 0x40D3096B PUSH1 0xE1 SHL DUP2 MSTORE PUSH2 0x2710 SWAP4 SWAP3 DUP4 AND SWAP3 PUSH4 0x81A612D6 SWAP3 PUSH2 0x672 SWAP3 SWAP2 AND SWAP1 PUSH1 0x4 ADD PUSH2 0x10E4 JUMP JUMPDEST PUSH1 0x20 PUSH1 0x40 MLOAD DUP1 DUP4 SUB DUP2 DUP7 GAS STATICCALL ISZERO DUP1 ISZERO PUSH2 0x68F JUMPI RETURNDATASIZE PUSH1 0x0 DUP1 RETURNDATACOPY RETURNDATASIZE PUSH1 0x0 REVERT JUMPDEST POP POP POP POP PUSH1 0x40 MLOAD RETURNDATASIZE PUSH1 0x1F NOT PUSH1 0x1F DUP3 ADD AND DUP3 ADD DUP1 PUSH1 0x40 MSTORE POP DUP2 ADD SWAP1 PUSH2 0x6B3 SWAP2 SWAP1 PUSH2 0x1236 JUMP JUMPDEST PUSH2 0x6BF SWAP1 PUSH2 0x26F2 PUSH2 0x11D3 JUMP JUMPDEST PUSH2 0x6C9 SWAP2 SWAP1 PUSH2 0x11FE JUMP JUMPDEST PUSH1 0x3 SLOAD PUSH1 0x5 SLOAD PUSH1 0x8 SLOAD PUSH1 0x40 MLOAD PUSH4 0xF2AE372F PUSH1 0xE0 SHL DUP2 MSTORE SWAP4 SWAP6 POP PUSH1 0x1 PUSH1 0x1 PUSH1 0xA0 SHL SUB SWAP3 DUP4 AND SWAP4 PUSH4 0xF2AE372F SWAP4 CALLVALUE SWAP4 PUSH2 0x720 SWAP4 DUP9 SWAP4 SWAP2 DUP4 AND SWAP3 DUP14 SWAP3 PUSH1 0x0 SWAP3 DUP14 SWAP3 DUP16 SWAP3 DUP15 SWAP3 PUSH6 0x5AF3107A4000 SWAP3 DUP8 SWAP3 SWAP2 AND SWAP1 PUSH1 0x4 ADD PUSH2 0x1293 JUMP JUMPDEST PUSH1 0x0 PUSH1 0x40 MLOAD DUP1 DUP4 SUB DUP2 DUP6 DUP9 DUP1 EXTCODESIZE ISZERO DUP1 ISZERO PUSH2 0x739 JUMPI PUSH1 0x0 DUP1 REVERT JUMPDEST POP GAS CALL ISZERO DUP1 ISZERO PUSH2 0x74D JUMPI RETURNDATASIZE PUSH1 0x0 DUP1 RETURNDATACOPY RETURNDATASIZE PUSH1 0x0 REVERT JUMPDEST POP POP POP POP POP POP JUMPDEST POP POP POP POP JUMP JUMPDEST PUSH2 0x762 PUSH2 0xFDB JUMP JUMPDEST PUSH2 0x76C PUSH1 0x0 PUSH2 0x1035 JUMP JUMPDEST JUMP JUMPDEST PUSH1 0x8 SLOAD PUSH1 0x1 PUSH1 0x1 PUSH1 0xA0 SHL SUB AND CALLER EQ PUSH2 0x798 JUMPI PUSH1 0x40 MLOAD PUSH3 0x461BCD PUSH1 0xE5 SHL DUP2 MSTORE PUSH1 0x4 ADD PUSH2 0x2E4 SWAP1 PUSH2 0x1193 JUMP JUMPDEST PUSH1 0x0 DUP2 ISZERO PUSH2 0x9CF JUMPI PUSH1 0x40 DUP1 MLOAD PUSH1 0x2 DUP1 DUP3 MSTORE PUSH1 0x60 DUP3 ADD DUP4 MSTORE PUSH1 0x0 SWAP3 PUSH1 0x20 DUP4 ADD SWAP1 DUP1 CALLDATASIZE DUP4 CALLDATACOPY POP POP PUSH1 0x5 SLOAD DUP3 MLOAD SWAP3 SWAP4 POP PUSH1 0x1 PUSH1 0x1 PUSH1 0xA0 SHL SUB AND SWAP2 DUP4 SWAP2 POP PUSH1 0x0 SWAP1 PUSH2 0x7E1 JUMPI PUSH2 0x7E1 PUSH2 0x1220 JUMP JUMPDEST PUSH1 0x1 PUSH1 0x1 PUSH1 0xA0 SHL SUB SWAP3 DUP4 AND PUSH1 0x20 SWAP2 DUP3 MUL SWAP3 SWAP1 SWAP3 ADD ADD MSTORE PUSH1 0x6 SLOAD DUP3 MLOAD SWAP2 AND SWAP1 DUP3 SWAP1 PUSH1 0x1 SWAP1 DUP2 LT PUSH2 0x812 JUMPI PUSH2 0x812 PUSH2 0x1220 JUMP JUMPDEST PUSH1 0x1 PUSH1 0x1 PUSH1 0xA0 SHL SUB SWAP3 DUP4 AND PUSH1 0x20 SWAP2 DUP3 MUL SWAP3 SWAP1 SWAP3 ADD ADD MSTORE PUSH1 0x1 SLOAD PUSH1 0x5 SLOAD PUSH1 0x40 MLOAD PUSH4 0x4A3F088D PUSH1 0xE0 SHL DUP2 MSTORE PUSH1 0x0 SWAP4 SWAP3 DUP4 AND SWAP3 PUSH4 0x4A3F088D SWAP3 PUSH2 0x85F SWAP3 ADDRESS SWAP3 SWAP2 SWAP1 SWAP2 AND SWAP1 DUP2 SWAP1 DUP11 SWAP1 PUSH1 0x4 ADD PUSH2 0x12FE JUMP JUMPDEST PUSH2 0x100 PUSH1 0x40 MLOAD DUP1 DUP4 SUB DUP2 PUSH1 0x0 DUP8 GAS CALL ISZERO DUP1 ISZERO PUSH2 0x87F JUMPI RETURNDATASIZE PUSH1 0x0 DUP1 RETURNDATACOPY RETURNDATASIZE PUSH1 0x0 REVERT JUMPDEST POP POP POP POP PUSH1 0x40 MLOAD RETURNDATASIZE PUSH1 0x1F NOT PUSH1 0x1F DUP3 ADD AND DUP3 ADD DUP1 PUSH1 0x40 MSTORE POP DUP2 ADD SWAP1 PUSH2 0x8A3 SWAP2 SWAP1 PUSH2 0x1328 JUMP JUMPDEST POP POP PUSH1 0x1 SLOAD PUSH1 0x5 SLOAD PUSH1 0x40 MLOAD PUSH4 0x40D3096B PUSH1 0xE1 SHL DUP2 MSTORE SWAP8 SWAP9 POP PUSH2 0x2710 SWAP8 PUSH1 0x1 PUSH1 0x1 PUSH1 0xA0 SHL SUB SWAP3 DUP4 AND SWAP8 POP PUSH4 0x81A612D6 SWAP7 POP PUSH2 0x8E6 SWAP6 POP SWAP2 AND SWAP3 POP PUSH1 0x4 ADD SWAP1 POP PUSH2 0x10E4 JUMP JUMPDEST PUSH1 0x20 PUSH1 0x40 MLOAD DUP1 DUP4 SUB DUP2 DUP7 GAS STATICCALL ISZERO DUP1 ISZERO PUSH2 0x903 JUMPI RETURNDATASIZE PUSH1 0x0 DUP1 RETURNDATACOPY RETURNDATASIZE PUSH1 0x0 REVERT JUMPDEST POP POP POP POP PUSH1 0x40 MLOAD RETURNDATASIZE PUSH1 0x1F NOT PUSH1 0x1F DUP3 ADD AND DUP3 ADD DUP1 PUSH1 0x40 MSTORE POP DUP2 ADD SWAP1 PUSH2 0x927 SWAP2 SWAP1 PUSH2 0x1236 JUMP JUMPDEST PUSH2 0x933 SWAP1 PUSH2 0x26F2 PUSH2 0x11D3 JUMP JUMPDEST PUSH2 0x93D SWAP2 SWAP1 PUSH2 0x11FE JUMP JUMPDEST PUSH1 0x3 SLOAD PUSH1 0x5 SLOAD PUSH1 0x8 SLOAD PUSH1 0x40 MLOAD PUSH4 0x7BE7D141 PUSH1 0xE0 SHL DUP2 MSTORE SWAP4 SWAP7 POP PUSH1 0x1 PUSH1 0x1 PUSH1 0xA0 SHL SUB SWAP3 DUP4 AND SWAP4 PUSH4 0x7BE7D141 SWAP4 CALLVALUE SWAP4 PUSH2 0x997 SWAP4 DUP10 SWAP4 SWAP2 DUP4 AND SWAP3 PUSH1 0x0 SWAP3 DUP11 SWAP3 DUP15 SWAP3 CALLER SWAP3 DUP16 SWAP3 DUP8 SWAP3 PUSH6 0x5AF3107A4000 SWAP3 DUP5 SWAP3 SWAP1 SWAP2 AND SWAP1 PUSH1 0x4 ADD PUSH2 0x1392 JUMP JUMPDEST PUSH1 0x0 PUSH1 0x40 MLOAD DUP1 DUP4 SUB DUP2 DUP6 DUP9 DUP1 EXTCODESIZE ISZERO DUP1 ISZERO PUSH2 0x9B0 JUMPI PUSH1 0x0 DUP1 REVERT JUMPDEST POP GAS CALL ISZERO DUP1 ISZERO PUSH2 0x9C4 JUMPI RETURNDATASIZE PUSH1 0x0 DUP1 RETURNDATACOPY RETURNDATASIZE PUSH1 0x0 REVERT JUMPDEST POP POP POP POP POP POP POP POP POP JUMP JUMPDEST PUSH1 0x40 DUP1 MLOAD PUSH1 0x1 DUP1 DUP3 MSTORE DUP2 DUP4 ADD SWAP1 SWAP3 MSTORE PUSH1 0x0 SWAP2 PUSH1 0x20 DUP1 DUP4 ADD SWAP1 DUP1 CALLDATASIZE DUP4 CALLDATACOPY POP POP PUSH1 0x6 SLOAD DUP3 MLOAD SWAP3 SWAP4 POP PUSH1 0x1 PUSH1 0x1 PUSH1 0xA0 SHL SUB AND SWAP2 DUP4 SWAP2 POP PUSH1 0x0 SWAP1 PUSH2 0xA11 JUMPI PUSH2 0xA11 PUSH2 0x1220 JUMP JUMPDEST PUSH1 0x1 PUSH1 0x1 PUSH1 0xA0 SHL SUB SWAP3 DUP4 AND PUSH1 0x20 SWAP2 DUP3 MUL SWAP3 SWAP1 SWAP3 ADD ADD MSTORE PUSH1 0x1 SLOAD PUSH1 0x6 SLOAD PUSH1 0x5 SLOAD PUSH1 0x40 MLOAD PUSH4 0x4A3F088D PUSH1 0xE0 SHL DUP2 MSTORE PUSH1 0x0 SWAP5 SWAP4 DUP5 AND SWAP4 PUSH4 0x4A3F088D SWAP4 PUSH2 0xA60 SWAP4 ADDRESS SWAP4 SWAP2 DUP4 AND SWAP3 AND SWAP1 DUP11 SWAP1 PUSH1 0x4 ADD PUSH2 0x12FE JUMP JUMPDEST PUSH2 0x100 PUSH1 0x40 MLOAD DUP1 DUP4 SUB DUP2 PUSH1 0x0 DUP8 GAS CALL ISZERO DUP1 ISZERO PUSH2 0xA80 JUMPI RETURNDATASIZE PUSH1 0x0 DUP1 RETURNDATACOPY RETURNDATASIZE PUSH1 0x0 REVERT JUMPDEST POP POP POP POP PUSH1 0x40 MLOAD RETURNDATASIZE PUSH1 0x1F NOT PUSH1 0x1F DUP3 ADD AND DUP3 ADD DUP1 PUSH1 0x40 MSTORE POP DUP2 ADD SWAP1 PUSH2 0xAA4 SWAP2 SWAP1 PUSH2 0x1328 JUMP JUMPDEST POP POP PUSH1 0x1 SLOAD PUSH1 0x5 SLOAD PUSH1 0x40 MLOAD PUSH4 0x70927369 PUSH1 0xE1 SHL DUP2 MSTORE SWAP8 SWAP9 POP PUSH2 0x2710 SWAP8 PUSH1 0x1 PUSH1 0x1 PUSH1 0xA0 SHL SUB SWAP3 DUP4 AND SWAP8 POP PUSH4 0xE124E6D2 SWAP7 POP PUSH2 0xAE7 SWAP6 POP SWAP2 AND SWAP3 POP PUSH1 0x4 ADD SWAP1 POP PUSH2 0x10E4 JUMP JUMPDEST PUSH1 0x20 PUSH1 0x40 MLOAD DUP1 DUP4 SUB DUP2 DUP7 GAS STATICCALL ISZERO DUP1 ISZERO PUSH2 0xB04 JUMPI RETURNDATASIZE PUSH1 0x0 DUP1 RETURNDATACOPY RETURNDATASIZE PUSH1 0x0 REVERT JUMPDEST POP POP POP POP PUSH1 0x40 MLOAD RETURNDATASIZE PUSH1 0x1F NOT PUSH1 0x1F DUP3 ADD AND DUP3 ADD DUP1 PUSH1 0x40 MSTORE POP DUP2 ADD SWAP1 PUSH2 0xB28 SWAP2 SWAP1 PUSH2 0x1236 JUMP JUMPDEST PUSH2 0x933 SWAP1 PUSH2 0x272E PUSH2 0x11D3 JUMP JUMPDEST PUSH2 0xB3C PUSH2 0xFDB JUMP JUMPDEST PUSH1 0x8 DUP1 SLOAD PUSH1 0x1 PUSH1 0x1 PUSH1 0xA0 SHL SUB NOT AND PUSH1 0x1 PUSH1 0x1 PUSH1 0xA0 SHL SUB SWAP3 SWAP1 SWAP3 AND SWAP2 SWAP1 SWAP2 OR SWAP1 SSTORE JUMP JUMPDEST PUSH1 0x8 SLOAD PUSH1 0x1 PUSH1 0x1 PUSH1 0xA0 SHL SUB AND CALLER EQ PUSH2 0xB88 JUMPI PUSH1 0x40 MLOAD PUSH3 0x461BCD PUSH1 0xE5 SHL DUP2 MSTORE PUSH1 0x4 ADD PUSH2 0x2E4 SWAP1 PUSH2 0x1193 JUMP JUMPDEST PUSH1 0x0 DUP1 PUSH1 0x64 PUSH2 0xB98 DUP6 PUSH1 0x6E PUSH2 0x11D3 JUMP JUMPDEST PUSH2 0xBA2 SWAP2 SWAP1 PUSH2 0x11FE JUMP JUMPDEST PUSH2 0xBB6 SWAP1 PUSH10 0xD3C21BCECCEDA1000000 PUSH2 0x11D3 JUMP JUMPDEST SWAP1 POP DUP3 ISZERO PUSH2 0xD84 JUMPI PUSH1 0x40 DUP1 MLOAD PUSH1 0x2 DUP1 DUP3 MSTORE PUSH1 0x60 DUP3 ADD DUP4 MSTORE PUSH1 0x0 SWAP3 PUSH1 0x20 DUP4 ADD SWAP1 DUP1 CALLDATASIZE DUP4 CALLDATACOPY POP POP PUSH1 0x5 SLOAD DUP3 MLOAD SWAP3 SWAP4 POP PUSH1 0x1 PUSH1 0x1 PUSH1 0xA0 SHL SUB AND SWAP2 DUP4 SWAP2 POP PUSH1 0x0 SWAP1 PUSH2 0xBFF JUMPI PUSH2 0xBFF PUSH2 0x1220 JUMP JUMPDEST PUSH1 0x1 PUSH1 0x1 PUSH1 0xA0 SHL SUB SWAP3 DUP4 AND PUSH1 0x20 SWAP2 DUP3 MUL SWAP3 SWAP1 SWAP3 ADD ADD MSTORE PUSH1 0x6 SLOAD DUP3 MLOAD SWAP2 AND SWAP1 DUP3 SWAP1 PUSH1 0x1 SWAP1 DUP2 LT PUSH2 0xC30 JUMPI PUSH2 0xC30 PUSH2 0x1220 JUMP JUMPDEST PUSH1 0x1 PUSH1 0x1 PUSH1 0xA0 SHL SUB SWAP3 DUP4 AND PUSH1 0x20 SWAP2 DUP3 MUL SWAP3 SWAP1 SWAP3 ADD ADD MSTORE PUSH1 0x1 SLOAD PUSH1 0x5 SLOAD PUSH1 0x40 MLOAD PUSH4 0x40D3096B PUSH1 0xE1 SHL DUP2 MSTORE PUSH2 0x2710 SWAP4 SWAP3 DUP4 AND SWAP3 PUSH4 0x81A612D6 SWAP3 PUSH2 0xC76 SWAP3 SWAP2 AND SWAP1 PUSH1 0x4 ADD PUSH2 0x10E4 JUMP JUMPDEST PUSH1 0x20 PUSH1 0x40 MLOAD DUP1 DUP4 SUB DUP2 DUP7 GAS STATICCALL ISZERO DUP1 ISZERO PUSH2 0xC93 JUMPI RETURNDATASIZE PUSH1 0x0 DUP1 RETURNDATACOPY RETURNDATASIZE PUSH1 0x0 REVERT JUMPDEST POP POP POP POP PUSH1 0x40 MLOAD RETURNDATASIZE PUSH1 0x1F NOT PUSH1 0x1F DUP3 ADD AND DUP3 ADD DUP1 PUSH1 0x40 MSTORE POP DUP2 ADD SWAP1 PUSH2 0xCB7 SWAP2 SWAP1 PUSH2 0x1236 JUMP JUMPDEST PUSH2 0xCC3 SWAP1 PUSH2 0x26F2 PUSH2 0x11D3 JUMP JUMPDEST PUSH2 0xCCD SWAP2 SWAP1 PUSH2 0x11FE JUMP JUMPDEST PUSH1 0x3 SLOAD PUSH1 0x5 SLOAD SWAP2 SWAP5 POP PUSH1 0x1 PUSH1 0x1 PUSH1 0xA0 SHL SUB SWAP1 DUP2 AND SWAP2 PUSH4 0x7BE7D141 SWAP2 CALLVALUE SWAP2 DUP6 SWAP2 AND PUSH2 0xD01 DUP11 PUSH10 0xD3C21BCECCEDA1000000 PUSH2 0x11D3 JUMP JUMPDEST DUP8 DUP11 DUP14 DUP12 PUSH1 0x0 PUSH6 0x5AF3107A4000 PUSH1 0x0 PUSH1 0x8 PUSH1 0x0 SWAP1 SLOAD SWAP1 PUSH2 0x100 EXP SWAP1 DIV PUSH1 0x1 PUSH1 0x1 PUSH1 0xA0 SHL SUB AND PUSH1 0x40 MLOAD DUP14 PUSH4 0xFFFFFFFF AND PUSH1 0xE0 SHL DUP2 MSTORE PUSH1 0x4 ADD PUSH2 0xD4C SWAP12 SWAP11 SWAP10 SWAP9 SWAP8 SWAP7 SWAP6 SWAP5 SWAP4 SWAP3 SWAP2 SWAP1 PUSH2 0x1392 JUMP JUMPDEST PUSH1 0x0 PUSH1 0x40 MLOAD DUP1 DUP4 SUB DUP2 DUP6 DUP9 DUP1 EXTCODESIZE ISZERO DUP1 ISZERO PUSH2 0xD65 JUMPI PUSH1 0x0 DUP1 REVERT JUMPDEST POP GAS CALL ISZERO DUP1 ISZERO PUSH2 0xD79 JUMPI RETURNDATASIZE PUSH1 0x0 DUP1 RETURNDATACOPY RETURNDATASIZE PUSH1 0x0 REVERT JUMPDEST POP POP POP POP POP POP PUSH2 0xF16 JUMP JUMPDEST PUSH1 0x40 DUP1 MLOAD PUSH1 0x1 DUP1 DUP3 MSTORE DUP2 DUP4 ADD SWAP1 SWAP3 MSTORE PUSH1 0x0 SWAP2 PUSH1 0x20 DUP1 DUP4 ADD SWAP1 DUP1 CALLDATASIZE DUP4 CALLDATACOPY POP POP PUSH1 0x6 SLOAD DUP3 MLOAD SWAP3 SWAP4 POP PUSH1 0x1 PUSH1 0x1 PUSH1 0xA0 SHL SUB AND SWAP2 DUP4 SWAP2 POP PUSH1 0x0 SWAP1 PUSH2 0xDC6 JUMPI PUSH2 0xDC6 PUSH2 0x1220 JUMP JUMPDEST PUSH1 0x1 PUSH1 0x1 PUSH1 0xA0 SHL SUB SWAP3 DUP4 AND PUSH1 0x20 SWAP2 DUP3 MUL SWAP3 SWAP1 SWAP3 ADD ADD MSTORE PUSH1 0x1 SLOAD PUSH1 0x5 SLOAD PUSH1 0x40 MLOAD PUSH4 0x70927369 PUSH1 0xE1 SHL DUP2 MSTORE PUSH2 0x2710 SWAP4 SWAP3 DUP4 AND SWAP3 PUSH4 0xE124E6D2 SWAP3 PUSH2 0xE0C SWAP3 SWAP2 AND SWAP1 PUSH1 0x4 ADD PUSH2 0x10E4 JUMP JUMPDEST PUSH1 0x20 PUSH1 0x40 MLOAD DUP1 DUP4 SUB DUP2 DUP7 GAS STATICCALL ISZERO DUP1 ISZERO PUSH2 0xE29 JUMPI RETURNDATASIZE PUSH1 0x0 DUP1 RETURNDATACOPY RETURNDATASIZE PUSH1 0x0 REVERT JUMPDEST POP POP POP POP PUSH1 0x40 MLOAD RETURNDATASIZE PUSH1 0x1F NOT PUSH1 0x1F DUP3 ADD AND DUP3 ADD DUP1 PUSH1 0x40 MSTORE POP DUP2 ADD SWAP1 PUSH2 0xE4D SWAP2 SWAP1 PUSH2 0x1236 JUMP JUMPDEST PUSH2 0xE59 SWAP1 PUSH2 0x272E PUSH2 0x11D3 JUMP JUMPDEST PUSH2 0xE63 SWAP2 SWAP1 PUSH2 0x11FE JUMP JUMPDEST PUSH1 0x3 SLOAD PUSH1 0x5 SLOAD SWAP2 SWAP5 POP PUSH1 0x1 PUSH1 0x1 PUSH1 0xA0 SHL SUB SWAP1 DUP2 AND SWAP2 PUSH4 0x7BE7D141 SWAP2 CALLVALUE SWAP2 DUP6 SWAP2 AND PUSH2 0xE97 DUP11 PUSH10 0xD3C21BCECCEDA1000000 PUSH2 0x11D3 JUMP JUMPDEST DUP8 DUP11 DUP14 DUP12 PUSH1 0x0 PUSH6 0x5AF3107A4000 PUSH1 0x0 PUSH1 0x8 PUSH1 0x0 SWAP1 SLOAD SWAP1 PUSH2 0x100 EXP SWAP1 DIV PUSH1 0x1 PUSH1 0x1 PUSH1 0xA0 SHL SUB AND PUSH1 0x40 MLOAD DUP14 PUSH4 0xFFFFFFFF AND PUSH1 0xE0 SHL DUP2 MSTORE PUSH1 0x4 ADD PUSH2 0xEE2 SWAP12 SWAP11 SWAP10 SWAP9 SWAP8 SWAP7 SWAP6 SWAP5 SWAP4 SWAP3 SWAP2 SWAP1 PUSH2 0x1392 JUMP JUMPDEST PUSH1 0x0 PUSH1 0x40 MLOAD DUP1 DUP4 SUB DUP2 DUP6 DUP9 DUP1 EXTCODESIZE ISZERO DUP1 ISZERO PUSH2 0xEFB JUMPI PUSH1 0x0 DUP1 REVERT JUMPDEST POP GAS CALL ISZERO DUP1 ISZERO PUSH2 0xF0F JUMPI RETURNDATASIZE PUSH1 0x0 DUP1 RETURNDATACOPY RETURNDATASIZE PUSH1 0x0 REVERT JUMPDEST POP POP POP POP POP POP JUMPDEST POP POP POP POP POP JUMP JUMPDEST PUSH2 0xF25 PUSH2 0xFDB JUMP JUMPDEST PUSH1 0x1 PUSH1 0x1 PUSH1 0xA0 SHL SUB DUP2 AND PUSH2 0xF8A JUMPI PUSH1 0x40 MLOAD PUSH3 0x461BCD PUSH1 0xE5 SHL DUP2 MSTORE PUSH1 0x20 PUSH1 0x4 DUP3 ADD MSTORE PUSH1 0x26 PUSH1 0x24 DUP3 ADD MSTORE PUSH32 0x4F776E61626C653A206E6577206F776E657220697320746865207A65726F2061 PUSH1 0x44 DUP3 ADD MSTORE PUSH6 0x646472657373 PUSH1 0xD0 SHL PUSH1 0x64 DUP3 ADD MSTORE PUSH1 0x84 ADD PUSH2 0x2E4 JUMP JUMPDEST PUSH2 0xF93 DUP2 PUSH2 0x1035 JUMP JUMPDEST POP JUMP JUMPDEST PUSH2 0xF93 DUP2 PUSH1 0x40 MLOAD PUSH1 0x24 ADD PUSH2 0xFAC SWAP2 DUP2 MSTORE PUSH1 0x20 ADD SWAP1 JUMP JUMPDEST PUSH1 0x40 DUP1 MLOAD PUSH1 0x1F NOT DUP2 DUP5 SUB ADD DUP2 MSTORE SWAP2 SWAP1 MSTORE PUSH1 0x20 DUP2 ADD DUP1 MLOAD PUSH1 0x1 PUSH1 0x1 PUSH1 0xE0 SHL SUB AND PUSH4 0xF82C50F1 PUSH1 0xE0 SHL OR SWAP1 MSTORE PUSH2 0x1085 JUMP JUMPDEST PUSH1 0x0 SLOAD PUSH1 0x1 PUSH1 0x1 PUSH1 0xA0 SHL SUB AND CALLER EQ PUSH2 0x76C JUMPI PUSH1 0x40 MLOAD PUSH3 0x461BCD PUSH1 0xE5 SHL DUP2 MSTORE PUSH1 0x20 PUSH1 0x4 DUP3 ADD DUP2 SWAP1 MSTORE PUSH1 0x24 DUP3 ADD MSTORE PUSH32 0x4F776E61626C653A2063616C6C6572206973206E6F7420746865206F776E6572 PUSH1 0x44 DUP3 ADD MSTORE PUSH1 0x64 ADD PUSH2 0x2E4 JUMP JUMPDEST PUSH1 0x0 DUP1 SLOAD PUSH1 0x1 PUSH1 0x1 PUSH1 0xA0 SHL SUB DUP4 DUP2 AND PUSH1 0x1 PUSH1 0x1 PUSH1 0xA0 SHL SUB NOT DUP4 AND DUP2 OR DUP5 SSTORE PUSH1 0x40 MLOAD SWAP2 SWAP1 SWAP3 AND SWAP3 DUP4 SWAP2 PUSH32 0x8BE0079C531659141344CD1FD0A4F28419497F9722A3DAAFE3B4186F6B6457E0 SWAP2 SWAP1 LOG3 POP POP JUMP JUMPDEST DUP1 MLOAD PUSH11 0x636F6E736F6C652E6C6F67 PUSH1 0x20 DUP4 ADD PUSH1 0x0 DUP1 DUP5 DUP4 DUP6 GAS STATICCALL POP POP POP POP POP JUMP JUMPDEST DUP1 ISZERO ISZERO DUP2 EQ PUSH2 0xF93 JUMPI PUSH1 0x0 DUP1 REVERT JUMPDEST PUSH1 0x0 DUP1 PUSH1 0x40 DUP4 DUP6 SUB SLT ISZERO PUSH2 0x10C7 JUMPI PUSH1 0x0 DUP1 REVERT JUMPDEST DUP3 CALLDATALOAD SWAP2 POP PUSH1 0x20 DUP4 ADD CALLDATALOAD PUSH2 0x10D9 DUP2 PUSH2 0x10A6 JUMP JUMPDEST DUP1 SWAP2 POP POP SWAP3 POP SWAP3 SWAP1 POP JUMP JUMPDEST PUSH1 0x1 PUSH1 0x1 PUSH1 0xA0 SHL SUB SWAP2 SWAP1 SWAP2 AND DUP2 MSTORE PUSH1 0x20 ADD SWAP1 JUMP JUMPDEST PUSH1 0x0 PUSH1 0x20 DUP3 DUP5 SUB SLT ISZERO PUSH2 0x110A JUMPI PUSH1 0x0 DUP1 REVERT JUMPDEST DUP2 CALLDATALOAD PUSH2 0x1115 DUP2 PUSH2 0x10A6 JUMP JUMPDEST SWAP4 SWAP3 POP POP POP JUMP JUMPDEST DUP1 CALLDATALOAD PUSH1 0x1 PUSH1 0x1 PUSH1 0xA0 SHL SUB DUP2 AND DUP2 EQ PUSH2 0x1133 JUMPI PUSH1 0x0 DUP1 REVERT JUMPDEST SWAP2 SWAP1 POP JUMP JUMPDEST PUSH1 0x0 PUSH1 0x20 DUP3 DUP5 SUB SLT ISZERO PUSH2 0x114A JUMPI PUSH1 0x0 DUP1 REVERT JUMPDEST PUSH2 0x1115 DUP3 PUSH2 0x111C JUMP JUMPDEST PUSH1 0x0 DUP1 PUSH1 0x0 PUSH1 0x60 DUP5 DUP7 SUB SLT ISZERO PUSH2 0x1168 JUMPI PUSH1 0x0 DUP1 REVERT JUMPDEST PUSH2 0x1171 DUP5 PUSH2 0x111C JUMP JUMPDEST SWAP3 POP PUSH1 0x20 DUP5 ADD CALLDATALOAD SWAP2 POP PUSH1 0x40 DUP5 ADD CALLDATALOAD PUSH2 0x1188 DUP2 PUSH2 0x10A6 JUMP JUMPDEST DUP1 SWAP2 POP POP SWAP3 POP SWAP3 POP SWAP3 JUMP JUMPDEST PUSH1 0x20 DUP1 DUP3 MSTORE PUSH1 0x9 SWAP1 DUP3 ADD MSTORE PUSH9 0x139BDD081D985D5B1D PUSH1 0xBA SHL PUSH1 0x40 DUP3 ADD MSTORE PUSH1 0x60 ADD SWAP1 JUMP JUMPDEST PUSH1 0x0 PUSH1 0x20 DUP3 DUP5 SUB SLT ISZERO PUSH2 0x11C8 JUMPI PUSH1 0x0 DUP1 REVERT JUMPDEST DUP2 MLOAD PUSH2 0x1115 DUP2 PUSH2 0x10A6 JUMP JUMPDEST DUP1 DUP3 MUL DUP2 ISZERO DUP3 DUP3 DIV DUP5 EQ OR PUSH2 0x11F8 JUMPI PUSH4 0x4E487B71 PUSH1 0xE0 SHL PUSH1 0x0 MSTORE PUSH1 0x11 PUSH1 0x4 MSTORE PUSH1 0x24 PUSH1 0x0 REVERT JUMPDEST SWAP3 SWAP2 POP POP JUMP JUMPDEST PUSH1 0x0 DUP3 PUSH2 0x121B JUMPI PUSH4 0x4E487B71 PUSH1 0xE0 SHL PUSH1 0x0 MSTORE PUSH1 0x12 PUSH1 0x4 MSTORE PUSH1 0x24 PUSH1 0x0 REVERT JUMPDEST POP DIV SWAP1 JUMP JUMPDEST PUSH4 0x4E487B71 PUSH1 0xE0 SHL PUSH1 0x0 MSTORE PUSH1 0x32 PUSH1 0x4 MSTORE PUSH1 0x24 PUSH1 0x0 REVERT JUMPDEST PUSH1 0x0 PUSH1 0x20 DUP3 DUP5 SUB SLT ISZERO PUSH2 0x1248 JUMPI PUSH1 0x0 DUP1 REVERT JUMPDEST POP MLOAD SWAP2 SWAP1 POP JUMP JUMPDEST PUSH1 0x0 DUP2 MLOAD DUP1 DUP5 MSTORE PUSH1 0x20 DUP1 DUP6 ADD SWAP5 POP DUP1 DUP5 ADD PUSH1 0x0 JUMPDEST DUP4 DUP2 LT ISZERO PUSH2 0x1288 JUMPI DUP2 MLOAD PUSH1 0x1 PUSH1 0x1 PUSH1 0xA0 SHL SUB AND DUP8 MSTORE SWAP6 DUP3 ADD SWAP6 SWAP1 DUP3 ADD SWAP1 PUSH1 0x1 ADD PUSH2 0x1263 JUMP JUMPDEST POP SWAP5 SWAP6 SWAP5 POP POP POP POP POP JUMP JUMPDEST PUSH1 0x0 PUSH2 0x140 DUP1 DUP4 MSTORE PUSH2 0x12A7 DUP2 DUP5 ADD DUP15 PUSH2 0x124F JUMP JUMPDEST PUSH1 0x1 PUSH1 0x1 PUSH1 0xA0 SHL SUB SWAP13 DUP14 AND PUSH1 0x20 DUP6 ADD MSTORE PUSH1 0x40 DUP5 ADD SWAP12 SWAP1 SWAP12 MSTORE POP POP PUSH1 0x60 DUP2 ADD SWAP8 SWAP1 SWAP8 MSTORE PUSH1 0x80 DUP8 ADD SWAP6 SWAP1 SWAP6 MSTORE SWAP3 ISZERO ISZERO PUSH1 0xA0 DUP7 ADD MSTORE PUSH1 0xC0 DUP6 ADD SWAP2 SWAP1 SWAP2 MSTORE PUSH1 0xE0 DUP5 ADD MSTORE PUSH2 0x100 DUP4 ADD MSTORE SWAP1 SWAP3 AND PUSH2 0x120 SWAP1 SWAP3 ADD SWAP2 SWAP1 SWAP2 MSTORE SWAP2 SWAP1 POP JUMP JUMPDEST PUSH1 0x1 PUSH1 0x1 PUSH1 0xA0 SHL SUB SWAP5 DUP6 AND DUP2 MSTORE SWAP3 DUP5 AND PUSH1 0x20 DUP5 ADD MSTORE SWAP3 AND PUSH1 0x40 DUP3 ADD MSTORE SWAP1 ISZERO ISZERO PUSH1 0x60 DUP3 ADD MSTORE PUSH1 0x80 ADD SWAP1 JUMP JUMPDEST PUSH1 0x0 DUP1 PUSH1 0x0 DUP1 PUSH1 0x0 DUP1 PUSH1 0x0 DUP1 PUSH2 0x100 DUP10 DUP12 SUB SLT ISZERO PUSH2 0x1345 JUMPI PUSH1 0x0 DUP1 REVERT JUMPDEST DUP9 MLOAD SWAP8 POP PUSH1 0x20 DUP10 ADD MLOAD SWAP7 POP PUSH1 0x40 DUP10 ADD MLOAD SWAP6 POP PUSH1 0x60 DUP10 ADD MLOAD SWAP5 POP PUSH1 0x80 DUP10 ADD MLOAD SWAP4 POP PUSH1 0xA0 DUP10 ADD MLOAD SWAP3 POP PUSH1 0xC0 DUP10 ADD MLOAD PUSH2 0x137A DUP2 PUSH2 0x10A6 JUMP JUMPDEST DUP1 SWAP3 POP POP PUSH1 0xE0 DUP10 ADD MLOAD SWAP1 POP SWAP3 SWAP6 SWAP9 POP SWAP3 SWAP6 SWAP9 SWAP1 SWAP4 SWAP7 POP JUMP JUMPDEST PUSH1 0x0 PUSH2 0x160 DUP1 DUP4 MSTORE PUSH2 0x13A6 DUP2 DUP5 ADD DUP16 PUSH2 0x124F JUMP JUMPDEST PUSH1 0x1 PUSH1 0x1 PUSH1 0xA0 SHL SUB SWAP14 DUP15 AND PUSH1 0x20 DUP6 ADD MSTORE PUSH1 0x40 DUP5 ADD SWAP13 SWAP1 SWAP13 MSTORE POP POP PUSH1 0x60 DUP2 ADD SWAP9 SWAP1 SWAP9 MSTORE SWAP6 ISZERO ISZERO PUSH1 0x80 DUP9 ADD MSTORE SWAP4 DUP9 AND PUSH1 0xA0 DUP8 ADD MSTORE PUSH1 0xC0 DUP7 ADD SWAP3 SWAP1 SWAP3 MSTORE PUSH1 0xE0 DUP6 ADD MSTORE PUSH2 0x100 DUP5 ADD MSTORE ISZERO ISZERO PUSH2 0x120 DUP4 ADD MSTORE SWAP1 SWAP3 AND PUSH2 0x140 SWAP1 SWAP3 ADD SWAP2 SWAP1 SWAP2 MSTORE SWAP2 SWAP1 POP JUMP INVALID LOG2 PUSH5 0x6970667358 0x22 SLT KECCAK256 DUP6 LOG2 0xD7 STATICCALL 0xC5 0x29 0xC8 MLOAD ISZERO 0xFB MSTORE8 MULMOD PUSH22 0xC1DC9A300D64D1D4C5F76248AD217DC04422E964736F PUSH13 0x63430008110033000000000000 "},"gasEstimates":{"creation":{"codeDepositCost":"1035800","executionCost":"infinite","totalCost":"infinite"},"external":{"GMXexecutionFee()":"2307","USDC()":"2494","WETH()":"2383","decreasePosition(address,uint256,bool)":"infinite","getVaultOwner()":"2355","gmxPositionRouter()":"2471","gmxReader()":"2427","gmxRouter()":"2406","gmxVault()":"2405","increasePosition(uint256,bool)":"infinite","liquidatePosition(bool)":"infinite","owner()":"2510","renounceOwnership()":"infinite","setVaultOwner(address)":"26846","transferOwnership(address)":"28465","vault()":"2515"}},"methodIdentifiers":{"GMXexecutionFee()":"434c0c75","USDC()":"89a30271","WETH()":"ad5c4648","decreasePosition(address,uint256,bool)":"c5dac33b","getVaultOwner()":"a44ca346","gmxPositionRouter()":"c657e7c2","gmxReader()":"be77cd32","gmxRouter()":"634e3180","gmxVault()":"b3b3453e","increasePosition(uint256,bool)":"1c5ecc06","liquidatePosition(bool)":"7cb17597","owner()":"8da5cb5b","renounceOwnership()":"715018a6","setVaultOwner(address)":"80b3631c","transferOwnership(address)":"f2fde38b","vault()":"fbfa77cf"}},"storageLayout":{"storage":[{"astId":9012,"contract":"contracts/GMX_controller.sol:GMX_controller","label":"_owner","offset":0,"slot":"0","type":"t_address"},{"astId":229,"contract":"contracts/GMX_controller.sol:GMX_controller","label":"gmxVault","offset":0,"slot":"1","type":"t_address"},{"astId":235,"contract":"contracts/GMX_controller.sol:GMX_controller","label":"gmxRouter","offset":0,"slot":"2","type":"t_address"},{"astId":241,"contract":"contracts/GMX_controller.sol:GMX_controller","label":"gmxPositionRouter","offset":0,"slot":"3","type":"t_address"},{"astId":247,"contract":"contracts/GMX_controller.sol:GMX_controller","label":"gmxReader","offset":0,"slot":"4","type":"t_address"},{"astId":250,"contract":"contracts/GMX_controller.sol:GMX_controller","label":"WETH","offset":0,"slot":"5","type":"t_address"},{"astId":253,"contract":"contracts/GMX_controller.sol:GMX_controller","label":"USDC","offset":0,"slot":"6","type":"t_address"},{"astId":255,"contract":"contracts/GMX_controller.sol:GMX_controller","label":"GMXexecutionFee","offset":0,"slot":"7","type":"t_uint256"},{"astId":257,"contract":"contracts/GMX_controller.sol:GMX_controller","label":"vault","offset":0,"slot":"8","type":"t_address"}],"types":{"t_address":{"encoding":"inplace","label":"address","numberOfBytes":"20"},"t_uint256":{"encoding":"inplace","label":"uint256","numberOfBytes":"32"}}},"userdoc":{"kind":"user","methods":{},"version":1}}}}