{"contracts/MyVault.sol":{"MyVault":{"abi":[{"inputs":[],"stateMutability":"nonpayable","type":"constructor"},{"anonymous":false,"inputs":[{"indexed":true,"internalType":"address","name":"owner","type":"address"},{"indexed":true,"internalType":"address","name":"spender","type":"address"},{"indexed":false,"internalType":"uint256","name":"value","type":"uint256"}],"name":"Approval","type":"event"},{"anonymous":false,"inputs":[{"indexed":false,"internalType":"address","name":"tokenAddress","type":"address"}],"name":"NewTokenAdded","type":"event"},{"anonymous":false,"inputs":[{"indexed":true,"internalType":"address","name":"previousOwner","type":"address"},{"indexed":true,"internalType":"address","name":"newOwner","type":"address"}],"name":"OwnershipTransferred","type":"event"},{"anonymous":false,"inputs":[{"indexed":false,"internalType":"address","name":"tokenAddress","type":"address"}],"name":"TokenRemoved","type":"event"},{"anonymous":false,"inputs":[{"indexed":true,"internalType":"address","name":"from","type":"address"},{"indexed":true,"internalType":"address","name":"to","type":"address"},{"indexed":false,"internalType":"uint256","name":"value","type":"uint256"}],"name":"Transfer","type":"event"},{"anonymous":false,"inputs":[{"indexed":true,"internalType":"address","name":"account","type":"address"},{"indexed":false,"internalType":"uint256","name":"when","type":"uint256"},{"indexed":false,"internalType":"address","name":"token_deposited","type":"address"},{"indexed":false,"internalType":"uint256","name":"amount","type":"uint256"},{"indexed":false,"internalType":"uint256","name":"PLPissued","type":"uint256"}],"name":"depositEvent","type":"event"},{"anonymous":false,"inputs":[{"indexed":false,"internalType":"uint256","name":"when","type":"uint256"},{"indexed":false,"internalType":"uint8","name":"oldexpo","type":"uint8"},{"indexed":false,"internalType":"uint8","name":"newexpo","type":"uint8"}],"name":"expoEvent","type":"event"},{"anonymous":false,"inputs":[{"indexed":false,"internalType":"uint256","name":"when","type":"uint256"},{"indexed":false,"internalType":"uint8","name":"exposition","type":"uint8"},{"indexed":false,"internalType":"uint256","name":"oldNAV","type":"uint256"},{"indexed":false,"internalType":"uint256","name":"NAV","type":"uint256"},{"indexed":false,"internalType":"uint256","name":"usdcNAV","type":"uint256"},{"indexed":false,"internalType":"uint256","name":"longNAV","type":"uint256"},{"indexed":false,"internalType":"uint256","name":"shortNAV","type":"uint256"},{"indexed":false,"internalType":"uint256","name":"totalsupply","type":"uint256"}],"name":"navEvent","type":"event"},{"anonymous":false,"inputs":[{"indexed":true,"internalType":"address","name":"account","type":"address"},{"indexed":false,"internalType":"uint256","name":"when","type":"uint256"},{"indexed":false,"internalType":"uint256","name":"amount","type":"uint256"},{"indexed":false,"internalType":"uint256","name":"nav","type":"uint256"},{"indexed":false,"internalType":"uint256","name":"preop_supply","type":"uint256"}],"name":"withdrawEvent","type":"event"},{"inputs":[],"name":"GMX_controller","outputs":[{"internalType":"address","name":"","type":"address"}],"stateMutability":"view","type":"function"},{"inputs":[],"name":"USDC","outputs":[{"internalType":"address","name":"","type":"address"}],"stateMutability":"view","type":"function"},{"inputs":[],"name":"WETH","outputs":[{"internalType":"address","name":"","type":"address"}],"stateMutability":"view","type":"function"},{"inputs":[{"internalType":"address","name":"tokenAddress","type":"address"}],"name":"acceptToken","outputs":[],"stateMutability":"nonpayable","type":"function"},{"inputs":[{"internalType":"address","name":"owner","type":"address"},{"internalType":"address","name":"spender","type":"address"}],"name":"allowance","outputs":[{"internalType":"uint256","name":"","type":"uint256"}],"stateMutability":"view","type":"function"},{"inputs":[{"internalType":"address","name":"spender","type":"address"},{"internalType":"uint256","name":"amount","type":"uint256"}],"name":"approve","outputs":[{"internalType":"bool","name":"","type":"bool"}],"stateMutability":"nonpayable","type":"function"},{"inputs":[{"internalType":"address","name":"account","type":"address"}],"name":"balanceOf","outputs":[{"internalType":"uint256","name":"","type":"uint256"}],"stateMutability":"view","type":"function"},{"inputs":[],"name":"decimals","outputs":[{"internalType":"uint8","name":"","type":"uint8"}],"stateMutability":"view","type":"function"},{"inputs":[{"internalType":"address","name":"spender","type":"address"},{"internalType":"uint256","name":"subtractedValue","type":"uint256"}],"name":"decreaseAllowance","outputs":[{"internalType":"bool","name":"","type":"bool"}],"stateMutability":"nonpayable","type":"function"},{"inputs":[{"internalType":"address","name":"tokenAddress","type":"address"},{"internalType":"uint256","name":"_amount","type":"uint256"}],"name":"deposit","outputs":[],"stateMutability":"payable","type":"function"},{"inputs":[],"name":"exposition","outputs":[{"internalType":"uint8","name":"","type":"uint8"}],"stateMutability":"view","type":"function"},{"inputs":[],"name":"getExposition","outputs":[{"internalType":"uint8","name":"","type":"uint8"}],"stateMutability":"view","type":"function"},{"inputs":[],"name":"getGMX_controller","outputs":[{"internalType":"address","name":"","type":"address"}],"stateMutability":"view","type":"function"},{"inputs":[],"name":"getNetAssetValue","outputs":[{"internalType":"uint256","name":"","type":"uint256"}],"stateMutability":"view","type":"function"},{"inputs":[],"name":"gmxVault","outputs":[{"internalType":"address","name":"","type":"address"}],"stateMutability":"view","type":"function"},{"inputs":[{"internalType":"address","name":"spender","type":"address"},{"internalType":"uint256","name":"addedValue","type":"uint256"}],"name":"increaseAllowance","outputs":[{"internalType":"bool","name":"","type":"bool"}],"stateMutability":"nonpayable","type":"function"},{"inputs":[{"internalType":"address","name":"tokenAddress","type":"address"}],"name":"isAccepted","outputs":[{"internalType":"bool","name":"","type":"bool"}],"stateMutability":"view","type":"function"},{"inputs":[],"name":"liquidateLongPositions","outputs":[],"stateMutability":"payable","type":"function"},{"inputs":[],"name":"liquidateShortPositions","outputs":[],"stateMutability":"payable","type":"function"},{"inputs":[],"name":"name","outputs":[{"internalType":"string","name":"","type":"string"}],"stateMutability":"view","type":"function"},{"inputs":[],"name":"netAssetValue","outputs":[{"internalType":"uint256","name":"","type":"uint256"}],"stateMutability":"view","type":"function"},{"inputs":[],"name":"openPosition","outputs":[],"stateMutability":"payable","type":"function"},{"inputs":[],"name":"owner","outputs":[{"internalType":"address","name":"","type":"address"}],"stateMutability":"view","type":"function"},{"inputs":[{"internalType":"address","name":"tokenAddress","type":"address"}],"name":"removeToken","outputs":[],"stateMutability":"nonpayable","type":"function"},{"inputs":[],"name":"renounceOwnership","outputs":[],"stateMutability":"nonpayable","type":"function"},{"inputs":[{"internalType":"uint8","name":"_exposition","type":"uint8"}],"name":"setExposition","outputs":[],"stateMutability":"nonpayable","type":"function"},{"inputs":[{"internalType":"address","name":"_addr","type":"address"}],"name":"setGMX_controller","outputs":[],"stateMutability":"nonpayable","type":"function"},{"inputs":[],"name":"symbol","outputs":[{"internalType":"string","name":"","type":"string"}],"stateMutability":"view","type":"function"},{"inputs":[{"internalType":"address","name":"","type":"address"}],"name":"tokenAccepted","outputs":[{"internalType":"bool","name":"","type":"bool"}],"stateMutability":"view","type":"function"},{"inputs":[],"name":"totalSupply","outputs":[{"internalType":"uint256","name":"","type":"uint256"}],"stateMutability":"view","type":"function"},{"inputs":[{"internalType":"address","name":"to","type":"address"},{"internalType":"uint256","name":"amount","type":"uint256"}],"name":"transfer","outputs":[{"internalType":"bool","name":"","type":"bool"}],"stateMutability":"nonpayable","type":"function"},{"inputs":[{"internalType":"address","name":"from","type":"address"},{"internalType":"address","name":"to","type":"address"},{"internalType":"uint256","name":"amount","type":"uint256"}],"name":"transferFrom","outputs":[{"internalType":"bool","name":"","type":"bool"}],"stateMutability":"nonpayable","type":"function"},{"inputs":[{"internalType":"address","name":"newOwner","type":"address"}],"name":"transferOwnership","outputs":[],"stateMutability":"nonpayable","type":"function"},{"inputs":[],"name":"updateNetAssetValue","outputs":[],"stateMutability":"nonpayable","type":"function"},{"inputs":[{"internalType":"uint256","name":"_amount","type":"uint256"}],"name":"withdraw","outputs":[],"stateMutability":"payable","type":"function"}],"devdoc":{"author":"Victor Gillibert","custom:experimental":"This is an experimental contract.","details":"Improvement to do :Add fees to compensate for transaction fees paid when position need to be modifiedAllow other token to be added","kind":"dev","methods":{"acceptToken(address)":{"details":"until now, only USDC deposit are handled","params":{"tokenAddress":"arbitrum address of the ERC20 token"}},"allowance(address,address)":{"details":"See {IERC20-allowance}."},"approve(address,uint256)":{"details":"See {IERC20-approve}. NOTE: If `amount` is the maximum `uint256`, the allowance is not updated on `transferFrom`. This is semantically equivalent to an infinite approval. Requirements: - `spender` cannot be the zero address."},"balanceOf(address)":{"details":"See {IERC20-balanceOf}."},"decimals()":{"details":"Returns the number of decimals used to get its user representation. For example, if `decimals` equals `2`, a balance of `505` tokens should be displayed to a user as `5.05` (`505 / 10 ** 2`). Tokens usually opt for a value of 18, imitating the relationship between Ether and Wei. This is the value {ERC20} uses, unless this function is overridden; NOTE: This information is only used for _display_ purposes: it in no way affects any of the arithmetic of the contract, including {IERC20-balanceOf} and {IERC20-transfer}."},"decreaseAllowance(address,uint256)":{"details":"Atomically decreases the allowance granted to `spender` by the caller. This is an alternative to {approve} that can be used as a mitigation for problems described in {IERC20-approve}. Emits an {Approval} event indicating the updated allowance. Requirements: - `spender` cannot be the zero address. - `spender` must have allowance for the caller of at least `subtractedValue`."},"deposit(address,uint256)":{"details":"take USDC and send back PLP according to current vault value and price per share;","params":{"_amount":"amount of USDC decimals 10**6","tokenAddress":"USDC address only for the moment, but keeping the possibility to add other token"}},"increaseAllowance(address,uint256)":{"details":"Atomically increases the allowance granted to `spender` by the caller. This is an alternative to {approve} that can be used as a mitigation for problems described in {IERC20-approve}. Emits an {Approval} event indicating the updated allowance. Requirements: - `spender` cannot be the zero address."},"name()":{"details":"Returns the name of the token."},"owner()":{"details":"Returns the address of the current owner."},"renounceOwnership()":{"details":"Leaves the contract without owner. It will not be possible to call `onlyOwner` functions anymore. Can only be called by the current owner. NOTE: Renouncing ownership will leave the contract without an owner, thereby removing any functionality that is only available to the owner."},"setExposition(uint8)":{"details":"only the owner can call this function","params":{"_exposition":"0 for neutral | 1 Long | 2 Short"}},"setGMX_controller(address)":{"details":"only the owner can call this function","params":{"_addr":"address of the controller to add"}},"symbol()":{"details":"Returns the symbol of the token, usually a shorter version of the name."},"totalSupply()":{"details":"See {IERC20-totalSupply}."},"transfer(address,uint256)":{"details":"See {IERC20-transfer}. Requirements: - `to` cannot be the zero address. - the caller must have a balance of at least `amount`."},"transferFrom(address,address,uint256)":{"details":"See {IERC20-transferFrom}. Emits an {Approval} event indicating the updated allowance. This is not required by the EIP. See the note at the beginning of {ERC20}. NOTE: Does not update the allowance if the current allowance is the maximum `uint256`. Requirements: - `from` and `to` cannot be the zero address. - `from` must have a balance of at least `amount`. - the caller must have allowance for ``from``'s tokens of at least `amount`."},"transferOwnership(address)":{"details":"Transfers ownership of the contract to a new account (`newOwner`). Can only be called by the current owner."},"withdraw(uint256)":{"details":"take PLP and send back USDC according to current price per share;","params":{"_amount":"amount of PLP decimals 10**18"}}},"title":"Vault contract to receive funds and rebalance on GMX thanks to controller according to exposition strategy","version":1},"evm":{"bytecode":{"linkReferences":{},"object":"6080604052600880546001600160a01b03199081167382af49447d8a07e3bd95bd0d56f35241523fbab11790915560098054821673ff970a61a04b1ca14834a43f5de4533ebddb5cc8179055600a805490911673489ee077994b6658eafa855c308275ead8097c4a1790553480156200007757600080fd5b5060405180604001604052806008815260200167506f6c79706c757360c01b815250604051806040016040528060038152602001620504c560ec1b815250620000cf620000c96200010960201b60201c565b6200010d565b6004620000dd838262000202565b506005620000ec828262000202565b505060016006819055600c805460ff19169055600b5550620002ce565b3390565b600080546001600160a01b038381166001600160a01b0319831681178455604051919092169283917f8be0079c531659141344cd1fd0a4f28419497f9722a3daafe3b4186f6b6457e09190a35050565b634e487b7160e01b600052604160045260246000fd5b600181811c908216806200018857607f821691505b602082108103620001a957634e487b7160e01b600052602260045260246000fd5b50919050565b601f821115620001fd57600081815260208120601f850160051c81016020861015620001d85750805b601f850160051c820191505b81811015620001f957828155600101620001e4565b5050505b505050565b81516001600160401b038111156200021e576200021e6200015d565b62000236816200022f845462000173565b84620001af565b602080601f8311600181146200026e5760008415620002555750858301515b600019600386901b1c1916600185901b178555620001f9565b600085815260208120601f198616915b828110156200029f578886015182559484019460019091019084016200027e565b5085821015620002be5787850151600019600388901b60f8161c191681555b5050505050600190811b01905550565b61237480620002de6000396000f3fe6080604052600436106101c45760003560e01c806370a08231116100f8578063a9059cbb11610090578063a9059cbb146104b3578063ad5c4648146104d3578063aedf795e146104f3578063b3b3453e14610523578063dd62ed3e14610543578063de9257cd14610563578063e6f091f91461057b578063ed61f4a1146105b4578063f2fde38b146105c957600080fd5b806370a082311461039f578063715018a6146103d557806389a30271146103ea5780638cd3f0641461040a5780638da5cb5b1461042a57806395d89b41146104485780639ecbfa421461045d578063a3673b381461047d578063a457c2d71461049357600080fd5b80632e1a7d4d1161016b5780632e1a7d4d146102e05780633027ac22146102f3578063313ce567146102fb578063350245c21461030f578063395093511461031757806347e7ef2414610337578063481d6ee91461034a5780635fa7b5841461036a5780636639a81d1461038a57600080fd5b80630677a2a5146101c957806306fdde03146101f9578063095ea7b31461021b57806311af7d951461024b57806318160ddd1461026d5780631cd2f7c81461028c57806323b872dd146102b857806328250e0d146102d8575b600080fd5b3480156101d557600080fd5b506007546001600160a01b03165b6040516101f09190611fe1565b60405180910390f35b34801561020557600080fd5b5061020e6105e9565b6040516101f09190611ff5565b34801561022757600080fd5b5061023b61023636600461205f565b61067b565b60405190151581526020016101f0565b34801561025757600080fd5b5061026b610266366004612089565b610695565b005b34801561027957600080fd5b506003545b6040519081526020016101f0565b34801561029857600080fd5b50600c546102a69060ff1681565b60405160ff90911681526020016101f0565b3480156102c457600080fd5b5061023b6102d33660046120ab565b6106bf565b61026b6106e3565b61026b6102ee3660046120e7565b61074e565b61026b610aa8565b34801561030757600080fd5b5060126102a6565b61026b610ae3565b34801561032357600080fd5b5061023b61033236600461205f565b610cc4565b61026b61034536600461205f565b610ce6565b34801561035657600080fd5b5061026b610365366004612100565b6111b6565b34801561037657600080fd5b5061026b610385366004612089565b611311565b34801561039657600080fd5b50600b5461027e565b3480156103ab57600080fd5b5061027e6103ba366004612089565b6001600160a01b031660009081526001602052604090205490565b3480156103e157600080fd5b5061026b6113d2565b3480156103f657600080fd5b506009546101e3906001600160a01b031681565b34801561041657600080fd5b5061026b610425366004612089565b6113e6565b34801561043657600080fd5b506000546001600160a01b03166101e3565b34801561045457600080fd5b5061020e6114a0565b34801561046957600080fd5b506007546101e3906001600160a01b031681565b34801561048957600080fd5b5061027e600b5481565b34801561049f57600080fd5b5061023b6104ae36600461205f565b6114af565b3480156104bf57600080fd5b5061023b6104ce36600461205f565b61152a565b3480156104df57600080fd5b506008546101e3906001600160a01b031681565b3480156104ff57600080fd5b5061023b61050e366004612089565b600d6020526000908152604090205460ff1681565b34801561052f57600080fd5b50600a546101e3906001600160a01b031681565b34801561054f57600080fd5b5061027e61055e366004612123565b611538565b34801561056f57600080fd5b50600c5460ff166102a6565b34801561058757600080fd5b5061023b610596366004612089565b6001600160a01b03166000908152600d602052604090205460ff1690565b3480156105c057600080fd5b5061026b611563565b3480156105d557600080fd5b5061026b6105e4366004612089565b611573565b6060600480546105f890612156565b80601f016020809104026020016040519081016040528092919081815260200182805461062490612156565b80156106715780601f1061064657610100808354040283529160200191610671565b820191906000526020600020905b81548152906001019060200180831161065457829003601f168201915b5050505050905090565b6000336106898185856115e9565b60019150505b92915050565b61069d61170e565b600780546001600160a01b0319166001600160a01b0392909216919091179055565b6000336106cd858285611768565b6106d88585856117e2565b506001949350505050565b6106eb61170e565b600754604051637cb1759760e01b8152600160048201526001600160a01b0390911690637cb175979034906024015b6000604051808303818588803b15801561073357600080fd5b505af1158015610747573d6000803e3d6000fd5b5050505050565b61075661197b565b6000811161076357600080fd5b6040516370a0823160e01b8152819030906370a0823190610788903390600401611fe1565b602060405180830381865afa1580156107a5573d6000803e3d6000fd5b505050506040513d601f19601f820116820180604052508101906107c99190612190565b10156108425760405162461bcd60e51b815260206004820152603a60248201527f53757270726973696e676c7920796f752063616e6e6f7420776974686472617760448201527f20746f6b656e20796f752068617665206e6f7420626f7567687400000000000060648201526084015b60405180910390fd5b600c5460009060ff1660011461085957600061085c565b60015b90506108666119d4565b6000306001600160a01b03166318160ddd6040518163ffffffff1660e01b8152600401602060405180830381865afa1580156108a6573d6000803e3d6000fd5b505050506040513d601f19601f820116820180604052508101906108ca9190612190565b90506108d63384611dc8565b600c5460ff16600003610996576009546001600160a01b031663a9059cbb3361090c846c0c9f2c9cd04674edea400000006121bf565b600b5461091c88620f42406121bf565b61092691906121bf565b61093091906121d6565b6040518363ffffffff1660e01b815260040161094d9291906121f8565b6020604051808303816000875af115801561096c573d6000803e3d6000fd5b505050506040513d601f19601f820116820180604052508101906109909190612221565b50610a4b565b6007546001600160a01b031663c5dac33b34336109c0856c0c9f2c9cd04674edea400000006121bf565b600b546109d089620f1b306121bf565b6109da91906121bf565b6109e491906121d6565b6040516001600160e01b031960e086901b1681526001600160a01b039092166004830152602482015285151560448201526064016000604051808303818588803b158015610a3157600080fd5b505af1158015610a45573d6000803e3d6000fd5b50505050505b600b546040805142815260208101869052908101919091526060810182905233907f7d655f729e74749ef66079e8380b356147309a7161212c83e699b8e7fb78781c9060800160405180910390a25050610aa56001600655565b50565b610ab061170e565b600754604051637cb1759760e01b8152600060048201526001600160a01b0390911690637cb1759790349060240161071a565b610aeb61170e565b600c5460009060ff16600114610b02576000610b05565b60015b6009546007546040516370a0823160e01b81529293506001600160a01b039182169263095ea7b3929091169083906370a0823190610b47903090600401611fe1565b602060405180830381865afa158015610b64573d6000803e3d6000fd5b505050506040513d601f19601f82011682018060405250810190610b889190612190565b6040518363ffffffff1660e01b8152600401610ba59291906121f8565b6020604051808303816000875af1158015610bc4573d6000803e3d6000fd5b505050506040513d601f19601f82011682018060405250810190610be89190612221565b506007546009546040516370a0823160e01b81526001600160a01b0392831692631c5ecc069234929116906370a0823190610c27903090600401611fe1565b602060405180830381865afa158015610c44573d6000803e3d6000fd5b505050506040513d601f19601f82011682018060405250810190610c689190612190565b6040516001600160e01b031960e085901b168152600481019190915284151560248201526044016000604051808303818588803b158015610ca857600080fd5b505af1158015610cbc573d6000803e3d6000fd5b505050505050565b600033610689818585610cd78383611538565b610ce1919061223c565b6115e9565b610cee61197b565b6001600160a01b0382166000908152600d602052604090205460ff16610d505760405162461bcd60e51b8152602060048201526017602482015276151bdad95b881b9bdd081e595d081cdd5c1c1bdc9d1959604a1b6044820152606401610839565b60008111610da05760405162461bcd60e51b815260206004820152601e60248201527f416d6f756e7420746f206465706f736974206973206d616e6461746f727900006044820152606401610839565b6000610dad6064836121d6565b610db7908361224f565b90506000306001600160a01b03166318160ddd6040518163ffffffff1660e01b8152600401602060405180830381865afa158015610df9573d6000803e3d6000fd5b505050506040513d601f19601f82011682018060405250810190610e1d9190612190565b600003610e3a57610e338364e8d4a510006121bf565b9050610f6c565b610e426119d4565b600c5460ff16600003610edc57600b54306001600160a01b03166318160ddd6040518163ffffffff1660e01b8152600401602060405180830381865afa158015610e90573d6000803e3d6000fd5b505050506040513d601f19601f82011682018060405250810190610eb49190612190565b610ec88569d3c21bcecceda10000006121bf565b610ed291906121bf565b610e3391906121d6565b600b54306001600160a01b03166318160ddd6040518163ffffffff1660e01b8152600401602060405180830381865afa158015610f1d573d6000803e3d6000fd5b505050506040513d601f19601f82011682018060405250810190610f419190612190565b610f558469d3c21bcecceda10000006121bf565b610f5f91906121bf565b610f6991906121d6565b90505b610f763382611ee2565b6040516323b872dd60e01b8152336004820152306024820152604481018490526001600160a01b038516906323b872dd906064016020604051808303816000875af1158015610fc9573d6000803e3d6000fd5b505050506040513d601f19601f82011682018060405250810190610fed9190612221565b5060075460405163095ea7b360e01b81526001600160a01b038681169263095ea7b392611022929091169087906004016121f8565b6020604051808303816000875af1158015611041573d6000803e3d6000fd5b505050506040513d601f19601f820116820180604052508101906110659190612221565b50600c5460ff166001036110df57600754604051630e2f660360e11b815260048101859052600160248201526001600160a01b0390911690631c5ecc069034906044016000604051808303818588803b1580156110c157600080fd5b505af11580156110d5573d6000803e3d6000fd5b5050505050611154565b600c5460ff1660020361115457600754604051630e2f660360e11b815260048101859052600060248201526001600160a01b0390911690631c5ecc069034906044016000604051808303818588803b15801561113a57600080fd5b505af115801561114e573d6000803e3d6000fd5b50505050505b604080514281526001600160a01b03861660208201529081018490526060810182905233907fc43285a6e98e6524bf49b1c1bdda72f38b968b31d2861d4422c0716e89b131819060800160405180910390a250506111b26001600655565b5050565b6111be61170e565b60ff811615806111d157508060ff166001145b806111df57508060ff166002145b61124a5760405162461bcd60e51b815260206004820152603660248201527f56616c7565206d757374206265203020666f72206e65757472616c2c203120666044820152751bdc88131bdb99c81bdc880c88199bdc8814da1bdc9d60521b6064820152608401610839565b600c5460ff8083169116036112b55760405162461bcd60e51b815260206004820152602b60248201527f52657665727465642062656361757365206578706f736974696f6e206861732060448201526a1b9bdd0818da185b99d95960aa1b6064820152608401610839565b600c805460ff19811660ff84811691821790935560408051428152939092166020840181905291830152907ffa0731d6f72a8f51cd2381cdd6778ccea1323c89d9b49a780eb07d809e4ce1699060600160405180910390a15050565b61131961170e565b6001600160a01b0381166000908152600d602052604090205460ff166113775760405162461bcd60e51b8152602060048201526013602482015272151bdad95b881b9bdd081e595d081859191959606a1b6044820152606401610839565b6001600160a01b0381166000908152600d602052604090819020805460ff19169055517f4c910b69fe65a61f7531b9c5042b2329ca7179c77290aa7e2eb3afa3c8511fd3906113c7908390611fe1565b60405180910390a150565b6113da61170e565b6113e46000611f91565b565b6113ee61170e565b6001600160a01b0381166000908152600d602052604090205460ff161561144d5760405162461bcd60e51b8152602060048201526013602482015272151bdad95b88185b1c9958591e481859191959606a1b6044820152606401610839565b6001600160a01b0381166000908152600d602052604090819020805460ff19166001179055517fae340411f33c346ae24187433a8df6e508be40cf0deb3949d51cea12df7fa021906113c7908390611fe1565b6060600580546105f890612156565b600033816114bd8286611538565b90508381101561151d5760405162461bcd60e51b815260206004820152602560248201527f45524332303a2064656372656173656420616c6c6f77616e63652062656c6f77604482015264207a65726f60d81b6064820152608401610839565b6106d882868684036115e9565b6000336106898185856117e2565b6001600160a01b03918216600090815260026020908152604080832093909416825291909152205490565b61156b61170e565b6113e46119d4565b61157b61170e565b6001600160a01b0381166115e05760405162461bcd60e51b815260206004820152602660248201527f4f776e61626c653a206e6577206f776e657220697320746865207a65726f206160448201526564647265737360d01b6064820152608401610839565b610aa581611f91565b6001600160a01b03831661164b5760405162461bcd60e51b8152602060048201526024808201527f45524332303a20617070726f76652066726f6d20746865207a65726f206164646044820152637265737360e01b6064820152608401610839565b6001600160a01b0382166116ac5760405162461bcd60e51b815260206004820152602260248201527f45524332303a20617070726f766520746f20746865207a65726f206164647265604482015261737360f01b6064820152608401610839565b6001600160a01b0383811660008181526002602090815260408083209487168084529482529182902085905590518481527f8c5be1e5ebec7d5bd14f71427d1e84f3dd0314c0f7b2291e5b200ac8c7c3b92591015b60405180910390a3505050565b6000546001600160a01b031633146113e45760405162461bcd60e51b815260206004820181905260248201527f4f776e61626c653a2063616c6c6572206973206e6f7420746865206f776e65726044820152606401610839565b60006117748484611538565b905060001981146117dc57818110156117cf5760405162461bcd60e51b815260206004820152601d60248201527f45524332303a20696e73756666696369656e7420616c6c6f77616e63650000006044820152606401610839565b6117dc84848484036115e9565b50505050565b6001600160a01b0383166118465760405162461bcd60e51b815260206004820152602560248201527f45524332303a207472616e736665722066726f6d20746865207a65726f206164604482015264647265737360d81b6064820152608401610839565b6001600160a01b0382166118a85760405162461bcd60e51b815260206004820152602360248201527f45524332303a207472616e7366657220746f20746865207a65726f206164647260448201526265737360e81b6064820152608401610839565b6001600160a01b038316600090815260016020526040902054818110156119205760405162461bcd60e51b815260206004820152602660248201527f45524332303a207472616e7366657220616d6f756e7420657863656564732062604482015265616c616e636560d01b6064820152608401610839565b6001600160a01b03808516600081815260016020526040808220868603905592861680825290839020805486019055915160008051602061231f8339815191529061196e9086815260200190565b60405180910390a36117dc565b6002600654036119cd5760405162461bcd60e51b815260206004820152601f60248201527f5265656e7472616e637947756172643a207265656e7472616e742063616c6c006044820152606401610839565b6002600655565b600b546009546040516370a0823160e01b8152600091829182916001600160a01b0316906370a0823190611a0c903090600401611fe1565b602060405180830381865afa158015611a29573d6000803e3d6000fd5b505050506040513d601f19601f82011682018060405250810190611a4d9190612190565b611a619069d3c21bcecceda10000006121bf565b600a54600754600854604051634a3f088d60e01b81529394506000936001600160a01b0393841693634a3f088d93611aa793908216929116908190600190600401612262565b610100604051808303816000875af1158015611ac7573d6000803e3d6000fd5b505050506040513d601f19601f82011682018060405250810190611aeb919061228c565b5050505050509150506000811115611b8357600a5460075460085460405163045a6f3760e41b81526001600160a01b03938416936345a6f37093611b3d93908216929116908190600190600401612262565b60408051808303816000875af1158015611b5b573d6000803e3d6000fd5b505050506040513d601f19601f82011682018060405250810190611b7f91906122f2565b9450505b6000611b8f858361223c565b600a54600754600954600854604051634a3f088d60e01b81529495506000946001600160a01b0394851694634a3f088d94611bd99490821693908216929116908790600401612262565b610100604051808303816000875af1158015611bf9573d6000803e3d6000fd5b505050506040513d601f19601f82011682018060405250810190611c1d919061228c565b5050505050509150506000811115611cba57600a5460075460095460085460405163045a6f3760e41b81526001600160a01b03948516946345a6f37094611c74949082169390821692911690600090600401612262565b60408051808303816000875af1158015611c92573d6000803e3d6000fd5b505050506040513d601f19601f82011682018060405250810190611cb691906122f2565b9550505b6000611cc6868361224f565b905080611cd3848761223c565b611cdd919061223c565b600b819055507f059d0701380a5813cc605b68bc8aae0c943d3aecbfa3d35e11f8396e056eb6cc42600c60009054906101000a900460ff168a600b54898887306001600160a01b03166318160ddd6040518163ffffffff1660e01b8152600401602060405180830381865afa158015611d5a573d6000803e3d6000fd5b505050506040513d601f19601f82011682018060405250810190611d7e9190612190565b6040805198895260ff9097166020890152958701949094526060860192909252608085015260a084015260c083015260e08201526101000160405180910390a15050505050505050565b6001600160a01b038216611e285760405162461bcd60e51b815260206004820152602160248201527f45524332303a206275726e2066726f6d20746865207a65726f206164647265736044820152607360f81b6064820152608401610839565b6001600160a01b03821660009081526001602052604090205481811015611e9c5760405162461bcd60e51b815260206004820152602260248201527f45524332303a206275726e20616d6f756e7420657863656564732062616c616e604482015261636560f01b6064820152608401610839565b6001600160a01b038316600081815260016020908152604080832086860390556003805487900390555185815291929160008051602061231f8339815191529101611701565b6001600160a01b038216611f385760405162461bcd60e51b815260206004820152601f60248201527f45524332303a206d696e7420746f20746865207a65726f2061646472657373006044820152606401610839565b8060036000828254611f4a919061223c565b90915550506001600160a01b03821660008181526001602090815260408083208054860190555184815260008051602061231f833981519152910160405180910390a35050565b600080546001600160a01b038381166001600160a01b0319831681178455604051919092169283917f8be0079c531659141344cd1fd0a4f28419497f9722a3daafe3b4186f6b6457e09190a35050565b6001600160a01b0391909116815260200190565b600060208083528351808285015260005b8181101561202257858101830151858201604001528201612006565b506000604082860101526040601f19601f8301168501019250505092915050565b80356001600160a01b038116811461205a57600080fd5b919050565b6000806040838503121561207257600080fd5b61207b83612043565b946020939093013593505050565b60006020828403121561209b57600080fd5b6120a482612043565b9392505050565b6000806000606084860312156120c057600080fd5b6120c984612043565b92506120d760208501612043565b9150604084013590509250925092565b6000602082840312156120f957600080fd5b5035919050565b60006020828403121561211257600080fd5b813560ff811681146120a457600080fd5b6000806040838503121561213657600080fd5b61213f83612043565b915061214d60208401612043565b90509250929050565b600181811c9082168061216a57607f821691505b60208210810361218a57634e487b7160e01b600052602260045260246000fd5b50919050565b6000602082840312156121a257600080fd5b5051919050565b634e487b7160e01b600052601160045260246000fd5b808202811582820484141761068f5761068f6121a9565b6000826121f357634e487b7160e01b600052601260045260246000fd5b500490565b6001600160a01b03929092168252602082015260400190565b8051801515811461205a57600080fd5b60006020828403121561223357600080fd5b6120a482612211565b8082018082111561068f5761068f6121a9565b8181038181111561068f5761068f6121a9565b6001600160a01b039485168152928416602084015292166040820152901515606082015260800190565b600080600080600080600080610100898b0312156122a957600080fd5b885197506020890151965060408901519550606089015194506080890151935060a089015192506122dc60c08a01612211565b915060e089015190509295985092959890939650565b6000806040838503121561230557600080fd5b61230e83612211565b915060208301519050925092905056feddf252ad1be2c89b69c2b068fc378daa952ba7f163c4a11628f55a4df523b3efa264697066735822122047b8c68e053c0b01a377d9dbfb08d147c5437f7b11c6444c87789e45468e78f164736f6c63430008110033","opcodes":"PUSH1 0x80 PUSH1 0x40 MSTORE PUSH1 0x8 DUP1 SLOAD PUSH1 0x1 PUSH1 0x1 PUSH1 0xA0 SHL SUB NOT SWAP1 DUP2 AND PUSH20 0x82AF49447D8A07E3BD95BD0D56F35241523FBAB1 OR SWAP1 SWAP2 SSTORE PUSH1 0x9 DUP1 SLOAD DUP3 AND PUSH20 0xFF970A61A04B1CA14834A43F5DE4533EBDDB5CC8 OR SWAP1 SSTORE PUSH1 0xA DUP1 SLOAD SWAP1 SWAP2 AND PUSH20 0x489EE077994B6658EAFA855C308275EAD8097C4A OR SWAP1 SSTORE CALLVALUE DUP1 ISZERO PUSH3 0x77 JUMPI PUSH1 0x0 DUP1 REVERT JUMPDEST POP PUSH1 0x40 MLOAD DUP1 PUSH1 0x40 ADD PUSH1 0x40 MSTORE DUP1 PUSH1 0x8 DUP2 MSTORE PUSH1 0x20 ADD PUSH8 0x506F6C79706C7573 PUSH1 0xC0 SHL DUP2 MSTORE POP PUSH1 0x40 MLOAD DUP1 PUSH1 0x40 ADD PUSH1 0x40 MSTORE DUP1 PUSH1 0x3 DUP2 MSTORE PUSH1 0x20 ADD PUSH3 0x504C5 PUSH1 0xEC SHL DUP2 MSTORE POP PUSH3 0xCF PUSH3 0xC9 PUSH3 0x109 PUSH1 0x20 SHL PUSH1 0x20 SHR JUMP JUMPDEST PUSH3 0x10D JUMP JUMPDEST PUSH1 0x4 PUSH3 0xDD DUP4 DUP3 PUSH3 0x202 JUMP JUMPDEST POP PUSH1 0x5 PUSH3 0xEC DUP3 DUP3 PUSH3 0x202 JUMP JUMPDEST POP POP PUSH1 0x1 PUSH1 0x6 DUP2 SWAP1 SSTORE PUSH1 0xC DUP1 SLOAD PUSH1 0xFF NOT AND SWAP1 SSTORE PUSH1 0xB SSTORE POP PUSH3 0x2CE JUMP JUMPDEST CALLER SWAP1 JUMP JUMPDEST PUSH1 0x0 DUP1 SLOAD PUSH1 0x1 PUSH1 0x1 PUSH1 0xA0 SHL SUB DUP4 DUP2 AND PUSH1 0x1 PUSH1 0x1 PUSH1 0xA0 SHL SUB NOT DUP4 AND DUP2 OR DUP5 SSTORE PUSH1 0x40 MLOAD SWAP2 SWAP1 SWAP3 AND SWAP3 DUP4 SWAP2 PUSH32 0x8BE0079C531659141344CD1FD0A4F28419497F9722A3DAAFE3B4186F6B6457E0 SWAP2 SWAP1 LOG3 POP POP JUMP JUMPDEST PUSH4 0x4E487B71 PUSH1 0xE0 SHL PUSH1 0x0 MSTORE PUSH1 0x41 PUSH1 0x4 MSTORE PUSH1 0x24 PUSH1 0x0 REVERT JUMPDEST PUSH1 0x1 DUP2 DUP2 SHR SWAP1 DUP3 AND DUP1 PUSH3 0x188 JUMPI PUSH1 0x7F DUP3 AND SWAP2 POP JUMPDEST PUSH1 0x20 DUP3 LT DUP2 SUB PUSH3 0x1A9 JUMPI PUSH4 0x4E487B71 PUSH1 0xE0 SHL PUSH1 0x0 MSTORE PUSH1 0x22 PUSH1 0x4 MSTORE PUSH1 0x24 PUSH1 0x0 REVERT JUMPDEST POP SWAP2 SWAP1 POP JUMP JUMPDEST PUSH1 0x1F DUP3 GT ISZERO PUSH3 0x1FD JUMPI PUSH1 0x0 DUP2 DUP2 MSTORE PUSH1 0x20 DUP2 KECCAK256 PUSH1 0x1F DUP6 ADD PUSH1 0x5 SHR DUP2 ADD PUSH1 0x20 DUP7 LT ISZERO PUSH3 0x1D8 JUMPI POP DUP1 JUMPDEST PUSH1 0x1F DUP6 ADD PUSH1 0x5 SHR DUP3 ADD SWAP2 POP JUMPDEST DUP2 DUP2 LT ISZERO PUSH3 0x1F9 JUMPI DUP3 DUP2 SSTORE PUSH1 0x1 ADD PUSH3 0x1E4 JUMP JUMPDEST POP POP POP JUMPDEST POP POP POP JUMP JUMPDEST DUP2 MLOAD PUSH1 0x1 PUSH1 0x1 PUSH1 0x40 SHL SUB DUP2 GT ISZERO PUSH3 0x21E JUMPI PUSH3 0x21E PUSH3 0x15D JUMP JUMPDEST PUSH3 0x236 DUP2 PUSH3 0x22F DUP5 SLOAD PUSH3 0x173 JUMP JUMPDEST DUP5 PUSH3 0x1AF JUMP JUMPDEST PUSH1 0x20 DUP1 PUSH1 0x1F DUP4 GT PUSH1 0x1 DUP2 EQ PUSH3 0x26E JUMPI PUSH1 0x0 DUP5 ISZERO PUSH3 0x255 JUMPI POP DUP6 DUP4 ADD MLOAD JUMPDEST PUSH1 0x0 NOT PUSH1 0x3 DUP7 SWAP1 SHL SHR NOT AND PUSH1 0x1 DUP6 SWAP1 SHL OR DUP6 SSTORE PUSH3 0x1F9 JUMP JUMPDEST PUSH1 0x0 DUP6 DUP2 MSTORE PUSH1 0x20 DUP2 KECCAK256 PUSH1 0x1F NOT DUP7 AND SWAP2 JUMPDEST DUP3 DUP2 LT ISZERO PUSH3 0x29F JUMPI DUP9 DUP7 ADD MLOAD DUP3 SSTORE SWAP5 DUP5 ADD SWAP5 PUSH1 0x1 SWAP1 SWAP2 ADD SWAP1 DUP5 ADD PUSH3 0x27E JUMP JUMPDEST POP DUP6 DUP3 LT ISZERO PUSH3 0x2BE JUMPI DUP8 DUP6 ADD MLOAD PUSH1 0x0 NOT PUSH1 0x3 DUP9 SWAP1 SHL PUSH1 0xF8 AND SHR NOT AND DUP2 SSTORE JUMPDEST POP POP POP POP POP PUSH1 0x1 SWAP1 DUP2 SHL ADD SWAP1 SSTORE POP JUMP JUMPDEST PUSH2 0x2374 DUP1 PUSH3 0x2DE PUSH1 0x0 CODECOPY PUSH1 0x0 RETURN INVALID PUSH1 0x80 PUSH1 0x40 MSTORE PUSH1 0x4 CALLDATASIZE LT PUSH2 0x1C4 JUMPI PUSH1 0x0 CALLDATALOAD PUSH1 0xE0 SHR DUP1 PUSH4 0x70A08231 GT PUSH2 0xF8 JUMPI DUP1 PUSH4 0xA9059CBB GT PUSH2 0x90 JUMPI DUP1 PUSH4 0xA9059CBB EQ PUSH2 0x4B3 JUMPI DUP1 PUSH4 0xAD5C4648 EQ PUSH2 0x4D3 JUMPI DUP1 PUSH4 0xAEDF795E EQ PUSH2 0x4F3 JUMPI DUP1 PUSH4 0xB3B3453E EQ PUSH2 0x523 JUMPI DUP1 PUSH4 0xDD62ED3E EQ PUSH2 0x543 JUMPI DUP1 PUSH4 0xDE9257CD EQ PUSH2 0x563 JUMPI DUP1 PUSH4 0xE6F091F9 EQ PUSH2 0x57B JUMPI DUP1 PUSH4 0xED61F4A1 EQ PUSH2 0x5B4 JUMPI DUP1 PUSH4 0xF2FDE38B EQ PUSH2 0x5C9 JUMPI PUSH1 0x0 DUP1 REVERT JUMPDEST DUP1 PUSH4 0x70A08231 EQ PUSH2 0x39F JUMPI DUP1 PUSH4 0x715018A6 EQ PUSH2 0x3D5 JUMPI DUP1 PUSH4 0x89A30271 EQ PUSH2 0x3EA JUMPI DUP1 PUSH4 0x8CD3F064 EQ PUSH2 0x40A JUMPI DUP1 PUSH4 0x8DA5CB5B EQ PUSH2 0x42A JUMPI DUP1 PUSH4 0x95D89B41 EQ PUSH2 0x448 JUMPI DUP1 PUSH4 0x9ECBFA42 EQ PUSH2 0x45D JUMPI DUP1 PUSH4 0xA3673B38 EQ PUSH2 0x47D JUMPI DUP1 PUSH4 0xA457C2D7 EQ PUSH2 0x493 JUMPI PUSH1 0x0 DUP1 REVERT JUMPDEST DUP1 PUSH4 0x2E1A7D4D GT PUSH2 0x16B JUMPI DUP1 PUSH4 0x2E1A7D4D EQ PUSH2 0x2E0 JUMPI DUP1 PUSH4 0x3027AC22 EQ PUSH2 0x2F3 JUMPI DUP1 PUSH4 0x313CE567 EQ PUSH2 0x2FB JUMPI DUP1 PUSH4 0x350245C2 EQ PUSH2 0x30F JUMPI DUP1 PUSH4 0x39509351 EQ PUSH2 0x317 JUMPI DUP1 PUSH4 0x47E7EF24 EQ PUSH2 0x337 JUMPI DUP1 PUSH4 0x481D6EE9 EQ PUSH2 0x34A JUMPI DUP1 PUSH4 0x5FA7B584 EQ PUSH2 0x36A JUMPI DUP1 PUSH4 0x6639A81D EQ PUSH2 0x38A JUMPI PUSH1 0x0 DUP1 REVERT JUMPDEST DUP1 PUSH4 0x677A2A5 EQ PUSH2 0x1C9 JUMPI DUP1 PUSH4 0x6FDDE03 EQ PUSH2 0x1F9 JUMPI DUP1 PUSH4 0x95EA7B3 EQ PUSH2 0x21B JUMPI DUP1 PUSH4 0x11AF7D95 EQ PUSH2 0x24B JUMPI DUP1 PUSH4 0x18160DDD EQ PUSH2 0x26D JUMPI DUP1 PUSH4 0x1CD2F7C8 EQ PUSH2 0x28C JUMPI DUP1 PUSH4 0x23B872DD EQ PUSH2 0x2B8 JUMPI DUP1 PUSH4 0x28250E0D EQ PUSH2 0x2D8 JUMPI JUMPDEST PUSH1 0x0 DUP1 REVERT JUMPDEST CALLVALUE DUP1 ISZERO PUSH2 0x1D5 JUMPI PUSH1 0x0 DUP1 REVERT JUMPDEST POP PUSH1 0x7 SLOAD PUSH1 0x1 PUSH1 0x1 PUSH1 0xA0 SHL SUB AND JUMPDEST PUSH1 0x40 MLOAD PUSH2 0x1F0 SWAP2 SWAP1 PUSH2 0x1FE1 JUMP JUMPDEST PUSH1 0x40 MLOAD DUP1 SWAP2 SUB SWAP1 RETURN JUMPDEST CALLVALUE DUP1 ISZERO PUSH2 0x205 JUMPI PUSH1 0x0 DUP1 REVERT JUMPDEST POP PUSH2 0x20E PUSH2 0x5E9 JUMP JUMPDEST PUSH1 0x40 MLOAD PUSH2 0x1F0 SWAP2 SWAP1 PUSH2 0x1FF5 JUMP JUMPDEST CALLVALUE DUP1 ISZERO PUSH2 0x227 JUMPI PUSH1 0x0 DUP1 REVERT JUMPDEST POP PUSH2 0x23B PUSH2 0x236 CALLDATASIZE PUSH1 0x4 PUSH2 0x205F JUMP JUMPDEST PUSH2 0x67B JUMP JUMPDEST PUSH1 0x40 MLOAD SWAP1 ISZERO ISZERO DUP2 MSTORE PUSH1 0x20 ADD PUSH2 0x1F0 JUMP JUMPDEST CALLVALUE DUP1 ISZERO PUSH2 0x257 JUMPI PUSH1 0x0 DUP1 REVERT JUMPDEST POP PUSH2 0x26B PUSH2 0x266 CALLDATASIZE PUSH1 0x4 PUSH2 0x2089 JUMP JUMPDEST PUSH2 0x695 JUMP JUMPDEST STOP JUMPDEST CALLVALUE DUP1 ISZERO PUSH2 0x279 JUMPI PUSH1 0x0 DUP1 REVERT JUMPDEST POP PUSH1 0x3 SLOAD JUMPDEST PUSH1 0x40 MLOAD SWAP1 DUP2 MSTORE PUSH1 0x20 ADD PUSH2 0x1F0 JUMP JUMPDEST CALLVALUE DUP1 ISZERO PUSH2 0x298 JUMPI PUSH1 0x0 DUP1 REVERT JUMPDEST POP PUSH1 0xC SLOAD PUSH2 0x2A6 SWAP1 PUSH1 0xFF AND DUP2 JUMP JUMPDEST PUSH1 0x40 MLOAD PUSH1 0xFF SWAP1 SWAP2 AND DUP2 MSTORE PUSH1 0x20 ADD PUSH2 0x1F0 JUMP JUMPDEST CALLVALUE DUP1 ISZERO PUSH2 0x2C4 JUMPI PUSH1 0x0 DUP1 REVERT JUMPDEST POP PUSH2 0x23B PUSH2 0x2D3 CALLDATASIZE PUSH1 0x4 PUSH2 0x20AB JUMP JUMPDEST PUSH2 0x6BF JUMP JUMPDEST PUSH2 0x26B PUSH2 0x6E3 JUMP JUMPDEST PUSH2 0x26B PUSH2 0x2EE CALLDATASIZE PUSH1 0x4 PUSH2 0x20E7 JUMP JUMPDEST PUSH2 0x74E JUMP JUMPDEST PUSH2 0x26B PUSH2 0xAA8 JUMP JUMPDEST CALLVALUE DUP1 ISZERO PUSH2 0x307 JUMPI PUSH1 0x0 DUP1 REVERT JUMPDEST POP PUSH1 0x12 PUSH2 0x2A6 JUMP JUMPDEST PUSH2 0x26B PUSH2 0xAE3 JUMP JUMPDEST CALLVALUE DUP1 ISZERO PUSH2 0x323 JUMPI PUSH1 0x0 DUP1 REVERT JUMPDEST POP PUSH2 0x23B PUSH2 0x332 CALLDATASIZE PUSH1 0x4 PUSH2 0x205F JUMP JUMPDEST PUSH2 0xCC4 JUMP JUMPDEST PUSH2 0x26B PUSH2 0x345 CALLDATASIZE PUSH1 0x4 PUSH2 0x205F JUMP JUMPDEST PUSH2 0xCE6 JUMP JUMPDEST CALLVALUE DUP1 ISZERO PUSH2 0x356 JUMPI PUSH1 0x0 DUP1 REVERT JUMPDEST POP PUSH2 0x26B PUSH2 0x365 CALLDATASIZE PUSH1 0x4 PUSH2 0x2100 JUMP JUMPDEST PUSH2 0x11B6 JUMP JUMPDEST CALLVALUE DUP1 ISZERO PUSH2 0x376 JUMPI PUSH1 0x0 DUP1 REVERT JUMPDEST POP PUSH2 0x26B PUSH2 0x385 CALLDATASIZE PUSH1 0x4 PUSH2 0x2089 JUMP JUMPDEST PUSH2 0x1311 JUMP JUMPDEST CALLVALUE DUP1 ISZERO PUSH2 0x396 JUMPI PUSH1 0x0 DUP1 REVERT JUMPDEST POP PUSH1 0xB SLOAD PUSH2 0x27E JUMP JUMPDEST CALLVALUE DUP1 ISZERO PUSH2 0x3AB JUMPI PUSH1 0x0 DUP1 REVERT JUMPDEST POP PUSH2 0x27E PUSH2 0x3BA CALLDATASIZE PUSH1 0x4 PUSH2 0x2089 JUMP JUMPDEST PUSH1 0x1 PUSH1 0x1 PUSH1 0xA0 SHL SUB AND PUSH1 0x0 SWAP1 DUP2 MSTORE PUSH1 0x1 PUSH1 0x20 MSTORE PUSH1 0x40 SWAP1 KECCAK256 SLOAD SWAP1 JUMP JUMPDEST CALLVALUE DUP1 ISZERO PUSH2 0x3E1 JUMPI PUSH1 0x0 DUP1 REVERT JUMPDEST POP PUSH2 0x26B PUSH2 0x13D2 JUMP JUMPDEST CALLVALUE DUP1 ISZERO PUSH2 0x3F6 JUMPI PUSH1 0x0 DUP1 REVERT JUMPDEST POP PUSH1 0x9 SLOAD PUSH2 0x1E3 SWAP1 PUSH1 0x1 PUSH1 0x1 PUSH1 0xA0 SHL SUB AND DUP2 JUMP JUMPDEST CALLVALUE DUP1 ISZERO PUSH2 0x416 JUMPI PUSH1 0x0 DUP1 REVERT JUMPDEST POP PUSH2 0x26B PUSH2 0x425 CALLDATASIZE PUSH1 0x4 PUSH2 0x2089 JUMP JUMPDEST PUSH2 0x13E6 JUMP JUMPDEST CALLVALUE DUP1 ISZERO PUSH2 0x436 JUMPI PUSH1 0x0 DUP1 REVERT JUMPDEST POP PUSH1 0x0 SLOAD PUSH1 0x1 PUSH1 0x1 PUSH1 0xA0 SHL SUB AND PUSH2 0x1E3 JUMP JUMPDEST CALLVALUE DUP1 ISZERO PUSH2 0x454 JUMPI PUSH1 0x0 DUP1 REVERT JUMPDEST POP PUSH2 0x20E PUSH2 0x14A0 JUMP JUMPDEST CALLVALUE DUP1 ISZERO PUSH2 0x469 JUMPI PUSH1 0x0 DUP1 REVERT JUMPDEST POP PUSH1 0x7 SLOAD PUSH2 0x1E3 SWAP1 PUSH1 0x1 PUSH1 0x1 PUSH1 0xA0 SHL SUB AND DUP2 JUMP JUMPDEST CALLVALUE DUP1 ISZERO PUSH2 0x489 JUMPI PUSH1 0x0 DUP1 REVERT JUMPDEST POP PUSH2 0x27E PUSH1 0xB SLOAD DUP2 JUMP JUMPDEST CALLVALUE DUP1 ISZERO PUSH2 0x49F JUMPI PUSH1 0x0 DUP1 REVERT JUMPDEST POP PUSH2 0x23B PUSH2 0x4AE CALLDATASIZE PUSH1 0x4 PUSH2 0x205F JUMP JUMPDEST PUSH2 0x14AF JUMP JUMPDEST CALLVALUE DUP1 ISZERO PUSH2 0x4BF JUMPI PUSH1 0x0 DUP1 REVERT JUMPDEST POP PUSH2 0x23B PUSH2 0x4CE CALLDATASIZE PUSH1 0x4 PUSH2 0x205F JUMP JUMPDEST PUSH2 0x152A JUMP JUMPDEST CALLVALUE DUP1 ISZERO PUSH2 0x4DF JUMPI PUSH1 0x0 DUP1 REVERT JUMPDEST POP PUSH1 0x8 SLOAD PUSH2 0x1E3 SWAP1 PUSH1 0x1 PUSH1 0x1 PUSH1 0xA0 SHL SUB AND DUP2 JUMP JUMPDEST CALLVALUE DUP1 ISZERO PUSH2 0x4FF JUMPI PUSH1 0x0 DUP1 REVERT JUMPDEST POP PUSH2 0x23B PUSH2 0x50E CALLDATASIZE PUSH1 0x4 PUSH2 0x2089 JUMP JUMPDEST PUSH1 0xD PUSH1 0x20 MSTORE PUSH1 0x0 SWAP1 DUP2 MSTORE PUSH1 0x40 SWAP1 KECCAK256 SLOAD PUSH1 0xFF AND DUP2 JUMP JUMPDEST CALLVALUE DUP1 ISZERO PUSH2 0x52F JUMPI PUSH1 0x0 DUP1 REVERT JUMPDEST POP PUSH1 0xA SLOAD PUSH2 0x1E3 SWAP1 PUSH1 0x1 PUSH1 0x1 PUSH1 0xA0 SHL SUB AND DUP2 JUMP JUMPDEST CALLVALUE DUP1 ISZERO PUSH2 0x54F JUMPI PUSH1 0x0 DUP1 REVERT JUMPDEST POP PUSH2 0x27E PUSH2 0x55E CALLDATASIZE PUSH1 0x4 PUSH2 0x2123 JUMP JUMPDEST PUSH2 0x1538 JUMP JUMPDEST CALLVALUE DUP1 ISZERO PUSH2 0x56F JUMPI PUSH1 0x0 DUP1 REVERT JUMPDEST POP PUSH1 0xC SLOAD PUSH1 0xFF AND PUSH2 0x2A6 JUMP JUMPDEST CALLVALUE DUP1 ISZERO PUSH2 0x587 JUMPI PUSH1 0x0 DUP1 REVERT JUMPDEST POP PUSH2 0x23B PUSH2 0x596 CALLDATASIZE PUSH1 0x4 PUSH2 0x2089 JUMP JUMPDEST PUSH1 0x1 PUSH1 0x1 PUSH1 0xA0 SHL SUB AND PUSH1 0x0 SWAP1 DUP2 MSTORE PUSH1 0xD PUSH1 0x20 MSTORE PUSH1 0x40 SWAP1 KECCAK256 SLOAD PUSH1 0xFF AND SWAP1 JUMP JUMPDEST CALLVALUE DUP1 ISZERO PUSH2 0x5C0 JUMPI PUSH1 0x0 DUP1 REVERT JUMPDEST POP PUSH2 0x26B PUSH2 0x1563 JUMP JUMPDEST CALLVALUE DUP1 ISZERO PUSH2 0x5D5 JUMPI PUSH1 0x0 DUP1 REVERT JUMPDEST POP PUSH2 0x26B PUSH2 0x5E4 CALLDATASIZE PUSH1 0x4 PUSH2 0x2089 JUMP JUMPDEST PUSH2 0x1573 JUMP JUMPDEST PUSH1 0x60 PUSH1 0x4 DUP1 SLOAD PUSH2 0x5F8 SWAP1 PUSH2 0x2156 JUMP JUMPDEST DUP1 PUSH1 0x1F ADD PUSH1 0x20 DUP1 SWAP2 DIV MUL PUSH1 0x20 ADD PUSH1 0x40 MLOAD SWAP1 DUP2 ADD PUSH1 0x40 MSTORE DUP1 SWAP3 SWAP2 SWAP1 DUP2 DUP2 MSTORE PUSH1 0x20 ADD DUP3 DUP1 SLOAD PUSH2 0x624 SWAP1 PUSH2 0x2156 JUMP JUMPDEST DUP1 ISZERO PUSH2 0x671 JUMPI DUP1 PUSH1 0x1F LT PUSH2 0x646 JUMPI PUSH2 0x100 DUP1 DUP4 SLOAD DIV MUL DUP4 MSTORE SWAP2 PUSH1 0x20 ADD SWAP2 PUSH2 0x671 JUMP JUMPDEST DUP3 ADD SWAP2 SWAP1 PUSH1 0x0 MSTORE PUSH1 0x20 PUSH1 0x0 KECCAK256 SWAP1 JUMPDEST DUP2 SLOAD DUP2 MSTORE SWAP1 PUSH1 0x1 ADD SWAP1 PUSH1 0x20 ADD DUP1 DUP4 GT PUSH2 0x654 JUMPI DUP3 SWAP1 SUB PUSH1 0x1F AND DUP3 ADD SWAP2 JUMPDEST POP POP POP POP POP SWAP1 POP SWAP1 JUMP JUMPDEST PUSH1 0x0 CALLER PUSH2 0x689 DUP2 DUP6 DUP6 PUSH2 0x15E9 JUMP JUMPDEST PUSH1 0x1 SWAP2 POP POP JUMPDEST SWAP3 SWAP2 POP POP JUMP JUMPDEST PUSH2 0x69D PUSH2 0x170E JUMP JUMPDEST PUSH1 0x7 DUP1 SLOAD PUSH1 0x1 PUSH1 0x1 PUSH1 0xA0 SHL SUB NOT AND PUSH1 0x1 PUSH1 0x1 PUSH1 0xA0 SHL SUB SWAP3 SWAP1 SWAP3 AND SWAP2 SWAP1 SWAP2 OR SWAP1 SSTORE JUMP JUMPDEST PUSH1 0x0 CALLER PUSH2 0x6CD DUP6 DUP3 DUP6 PUSH2 0x1768 JUMP JUMPDEST PUSH2 0x6D8 DUP6 DUP6 DUP6 PUSH2 0x17E2 JUMP JUMPDEST POP PUSH1 0x1 SWAP5 SWAP4 POP POP POP POP JUMP JUMPDEST PUSH2 0x6EB PUSH2 0x170E JUMP JUMPDEST PUSH1 0x7 SLOAD PUSH1 0x40 MLOAD PUSH4 0x7CB17597 PUSH1 0xE0 SHL DUP2 MSTORE PUSH1 0x1 PUSH1 0x4 DUP3 ADD MSTORE PUSH1 0x1 PUSH1 0x1 PUSH1 0xA0 SHL SUB SWAP1 SWAP2 AND SWAP1 PUSH4 0x7CB17597 SWAP1 CALLVALUE SWAP1 PUSH1 0x24 ADD JUMPDEST PUSH1 0x0 PUSH1 0x40 MLOAD DUP1 DUP4 SUB DUP2 DUP6 DUP9 DUP1 EXTCODESIZE ISZERO DUP1 ISZERO PUSH2 0x733 JUMPI PUSH1 0x0 DUP1 REVERT JUMPDEST POP GAS CALL ISZERO DUP1 ISZERO PUSH2 0x747 JUMPI RETURNDATASIZE PUSH1 0x0 DUP1 RETURNDATACOPY RETURNDATASIZE PUSH1 0x0 REVERT JUMPDEST POP POP POP POP POP JUMP JUMPDEST PUSH2 0x756 PUSH2 0x197B JUMP JUMPDEST PUSH1 0x0 DUP2 GT PUSH2 0x763 JUMPI PUSH1 0x0 DUP1 REVERT JUMPDEST PUSH1 0x40 MLOAD PUSH4 0x70A08231 PUSH1 0xE0 SHL DUP2 MSTORE DUP2 SWAP1 ADDRESS SWAP1 PUSH4 0x70A08231 SWAP1 PUSH2 0x788 SWAP1 CALLER SWAP1 PUSH1 0x4 ADD PUSH2 0x1FE1 JUMP JUMPDEST PUSH1 0x20 PUSH1 0x40 MLOAD DUP1 DUP4 SUB DUP2 DUP7 GAS STATICCALL ISZERO DUP1 ISZERO PUSH2 0x7A5 JUMPI RETURNDATASIZE PUSH1 0x0 DUP1 RETURNDATACOPY RETURNDATASIZE PUSH1 0x0 REVERT JUMPDEST POP POP POP POP PUSH1 0x40 MLOAD RETURNDATASIZE PUSH1 0x1F NOT PUSH1 0x1F DUP3 ADD AND DUP3 ADD DUP1 PUSH1 0x40 MSTORE POP DUP2 ADD SWAP1 PUSH2 0x7C9 SWAP2 SWAP1 PUSH2 0x2190 JUMP JUMPDEST LT ISZERO PUSH2 0x842 JUMPI PUSH1 0x40 MLOAD PUSH3 0x461BCD PUSH1 0xE5 SHL DUP2 MSTORE PUSH1 0x20 PUSH1 0x4 DUP3 ADD MSTORE PUSH1 0x3A PUSH1 0x24 DUP3 ADD MSTORE PUSH32 0x53757270726973696E676C7920796F752063616E6E6F74207769746864726177 PUSH1 0x44 DUP3 ADD MSTORE PUSH32 0x20746F6B656E20796F752068617665206E6F7420626F75676874000000000000 PUSH1 0x64 DUP3 ADD MSTORE PUSH1 0x84 ADD JUMPDEST PUSH1 0x40 MLOAD DUP1 SWAP2 SUB SWAP1 REVERT JUMPDEST PUSH1 0xC SLOAD PUSH1 0x0 SWAP1 PUSH1 0xFF AND PUSH1 0x1 EQ PUSH2 0x859 JUMPI PUSH1 0x0 PUSH2 0x85C JUMP JUMPDEST PUSH1 0x1 JUMPDEST SWAP1 POP PUSH2 0x866 PUSH2 0x19D4 JUMP JUMPDEST PUSH1 0x0 ADDRESS PUSH1 0x1 PUSH1 0x1 PUSH1 0xA0 SHL SUB AND PUSH4 0x18160DDD PUSH1 0x40 MLOAD DUP2 PUSH4 0xFFFFFFFF AND PUSH1 0xE0 SHL DUP2 MSTORE PUSH1 0x4 ADD PUSH1 0x20 PUSH1 0x40 MLOAD DUP1 DUP4 SUB DUP2 DUP7 GAS STATICCALL ISZERO DUP1 ISZERO PUSH2 0x8A6 JUMPI RETURNDATASIZE PUSH1 0x0 DUP1 RETURNDATACOPY RETURNDATASIZE PUSH1 0x0 REVERT JUMPDEST POP POP POP POP PUSH1 0x40 MLOAD RETURNDATASIZE PUSH1 0x1F NOT PUSH1 0x1F DUP3 ADD AND DUP3 ADD DUP1 PUSH1 0x40 MSTORE POP DUP2 ADD SWAP1 PUSH2 0x8CA SWAP2 SWAP1 PUSH2 0x2190 JUMP JUMPDEST SWAP1 POP PUSH2 0x8D6 CALLER DUP5 PUSH2 0x1DC8 JUMP JUMPDEST PUSH1 0xC SLOAD PUSH1 0xFF AND PUSH1 0x0 SUB PUSH2 0x996 JUMPI PUSH1 0x9 SLOAD PUSH1 0x1 PUSH1 0x1 PUSH1 0xA0 SHL SUB AND PUSH4 0xA9059CBB CALLER PUSH2 0x90C DUP5 PUSH13 0xC9F2C9CD04674EDEA40000000 PUSH2 0x21BF JUMP JUMPDEST PUSH1 0xB SLOAD PUSH2 0x91C DUP9 PUSH3 0xF4240 PUSH2 0x21BF JUMP JUMPDEST PUSH2 0x926 SWAP2 SWAP1 PUSH2 0x21BF JUMP JUMPDEST PUSH2 0x930 SWAP2 SWAP1 PUSH2 0x21D6 JUMP JUMPDEST PUSH1 0x40 MLOAD DUP4 PUSH4 0xFFFFFFFF AND PUSH1 0xE0 SHL DUP2 MSTORE PUSH1 0x4 ADD PUSH2 0x94D SWAP3 SWAP2 SWAP1 PUSH2 0x21F8 JUMP JUMPDEST PUSH1 0x20 PUSH1 0x40 MLOAD DUP1 DUP4 SUB DUP2 PUSH1 0x0 DUP8 GAS CALL ISZERO DUP1 ISZERO PUSH2 0x96C JUMPI RETURNDATASIZE PUSH1 0x0 DUP1 RETURNDATACOPY RETURNDATASIZE PUSH1 0x0 REVERT JUMPDEST POP POP POP POP PUSH1 0x40 MLOAD RETURNDATASIZE PUSH1 0x1F NOT PUSH1 0x1F DUP3 ADD AND DUP3 ADD DUP1 PUSH1 0x40 MSTORE POP DUP2 ADD SWAP1 PUSH2 0x990 SWAP2 SWAP1 PUSH2 0x2221 JUMP JUMPDEST POP PUSH2 0xA4B JUMP JUMPDEST PUSH1 0x7 SLOAD PUSH1 0x1 PUSH1 0x1 PUSH1 0xA0 SHL SUB AND PUSH4 0xC5DAC33B CALLVALUE CALLER PUSH2 0x9C0 DUP6 PUSH13 0xC9F2C9CD04674EDEA40000000 PUSH2 0x21BF JUMP JUMPDEST PUSH1 0xB SLOAD PUSH2 0x9D0 DUP10 PUSH3 0xF1B30 PUSH2 0x21BF JUMP JUMPDEST PUSH2 0x9DA SWAP2 SWAP1 PUSH2 0x21BF JUMP JUMPDEST PUSH2 0x9E4 SWAP2 SWAP1 PUSH2 0x21D6 JUMP JUMPDEST PUSH1 0x40 MLOAD PUSH1 0x1 PUSH1 0x1 PUSH1 0xE0 SHL SUB NOT PUSH1 0xE0 DUP7 SWAP1 SHL AND DUP2 MSTORE PUSH1 0x1 PUSH1 0x1 PUSH1 0xA0 SHL SUB SWAP1 SWAP3 AND PUSH1 0x4 DUP4 ADD MSTORE PUSH1 0x24 DUP3 ADD MSTORE DUP6 ISZERO ISZERO PUSH1 0x44 DUP3 ADD MSTORE PUSH1 0x64 ADD PUSH1 0x0 PUSH1 0x40 MLOAD DUP1 DUP4 SUB DUP2 DUP6 DUP9 DUP1 EXTCODESIZE ISZERO DUP1 ISZERO PUSH2 0xA31 JUMPI PUSH1 0x0 DUP1 REVERT JUMPDEST POP GAS CALL ISZERO DUP1 ISZERO PUSH2 0xA45 JUMPI RETURNDATASIZE PUSH1 0x0 DUP1 RETURNDATACOPY RETURNDATASIZE PUSH1 0x0 REVERT JUMPDEST POP POP POP POP POP JUMPDEST PUSH1 0xB SLOAD PUSH1 0x40 DUP1 MLOAD TIMESTAMP DUP2 MSTORE PUSH1 0x20 DUP2 ADD DUP7 SWAP1 MSTORE SWAP1 DUP2 ADD SWAP2 SWAP1 SWAP2 MSTORE PUSH1 0x60 DUP2 ADD DUP3 SWAP1 MSTORE CALLER SWAP1 PUSH32 0x7D655F729E74749EF66079E8380B356147309A7161212C83E699B8E7FB78781C SWAP1 PUSH1 0x80 ADD PUSH1 0x40 MLOAD DUP1 SWAP2 SUB SWAP1 LOG2 POP POP PUSH2 0xAA5 PUSH1 0x1 PUSH1 0x6 SSTORE JUMP JUMPDEST POP JUMP JUMPDEST PUSH2 0xAB0 PUSH2 0x170E JUMP JUMPDEST PUSH1 0x7 SLOAD PUSH1 0x40 MLOAD PUSH4 0x7CB17597 PUSH1 0xE0 SHL DUP2 MSTORE PUSH1 0x0 PUSH1 0x4 DUP3 ADD MSTORE PUSH1 0x1 PUSH1 0x1 PUSH1 0xA0 SHL SUB SWAP1 SWAP2 AND SWAP1 PUSH4 0x7CB17597 SWAP1 CALLVALUE SWAP1 PUSH1 0x24 ADD PUSH2 0x71A JUMP JUMPDEST PUSH2 0xAEB PUSH2 0x170E JUMP JUMPDEST PUSH1 0xC SLOAD PUSH1 0x0 SWAP1 PUSH1 0xFF AND PUSH1 0x1 EQ PUSH2 0xB02 JUMPI PUSH1 0x0 PUSH2 0xB05 JUMP JUMPDEST PUSH1 0x1 JUMPDEST PUSH1 0x9 SLOAD PUSH1 0x7 SLOAD PUSH1 0x40 MLOAD PUSH4 0x70A08231 PUSH1 0xE0 SHL DUP2 MSTORE SWAP3 SWAP4 POP PUSH1 0x1 PUSH1 0x1 PUSH1 0xA0 SHL SUB SWAP2 DUP3 AND SWAP3 PUSH4 0x95EA7B3 SWAP3 SWAP1 SWAP2 AND SWAP1 DUP4 SWAP1 PUSH4 0x70A08231 SWAP1 PUSH2 0xB47 SWAP1 ADDRESS SWAP1 PUSH1 0x4 ADD PUSH2 0x1FE1 JUMP JUMPDEST PUSH1 0x20 PUSH1 0x40 MLOAD DUP1 DUP4 SUB DUP2 DUP7 GAS STATICCALL ISZERO DUP1 ISZERO PUSH2 0xB64 JUMPI RETURNDATASIZE PUSH1 0x0 DUP1 RETURNDATACOPY RETURNDATASIZE PUSH1 0x0 REVERT JUMPDEST POP POP POP POP PUSH1 0x40 MLOAD RETURNDATASIZE PUSH1 0x1F NOT PUSH1 0x1F DUP3 ADD AND DUP3 ADD DUP1 PUSH1 0x40 MSTORE POP DUP2 ADD SWAP1 PUSH2 0xB88 SWAP2 SWAP1 PUSH2 0x2190 JUMP JUMPDEST PUSH1 0x40 MLOAD DUP4 PUSH4 0xFFFFFFFF AND PUSH1 0xE0 SHL DUP2 MSTORE PUSH1 0x4 ADD PUSH2 0xBA5 SWAP3 SWAP2 SWAP1 PUSH2 0x21F8 JUMP JUMPDEST PUSH1 0x20 PUSH1 0x40 MLOAD DUP1 DUP4 SUB DUP2 PUSH1 0x0 DUP8 GAS CALL ISZERO DUP1 ISZERO PUSH2 0xBC4 JUMPI RETURNDATASIZE PUSH1 0x0 DUP1 RETURNDATACOPY RETURNDATASIZE PUSH1 0x0 REVERT JUMPDEST POP POP POP POP PUSH1 0x40 MLOAD RETURNDATASIZE PUSH1 0x1F NOT PUSH1 0x1F DUP3 ADD AND DUP3 ADD DUP1 PUSH1 0x40 MSTORE POP DUP2 ADD SWAP1 PUSH2 0xBE8 SWAP2 SWAP1 PUSH2 0x2221 JUMP JUMPDEST POP PUSH1 0x7 SLOAD PUSH1 0x9 SLOAD PUSH1 0x40 MLOAD PUSH4 0x70A08231 PUSH1 0xE0 SHL DUP2 MSTORE PUSH1 0x1 PUSH1 0x1 PUSH1 0xA0 SHL SUB SWAP3 DUP4 AND SWAP3 PUSH4 0x1C5ECC06 SWAP3 CALLVALUE SWAP3 SWAP2 AND SWAP1 PUSH4 0x70A08231 SWAP1 PUSH2 0xC27 SWAP1 ADDRESS SWAP1 PUSH1 0x4 ADD PUSH2 0x1FE1 JUMP JUMPDEST PUSH1 0x20 PUSH1 0x40 MLOAD DUP1 DUP4 SUB DUP2 DUP7 GAS STATICCALL ISZERO DUP1 ISZERO PUSH2 0xC44 JUMPI RETURNDATASIZE PUSH1 0x0 DUP1 RETURNDATACOPY RETURNDATASIZE PUSH1 0x0 REVERT JUMPDEST POP POP POP POP PUSH1 0x40 MLOAD RETURNDATASIZE PUSH1 0x1F NOT PUSH1 0x1F DUP3 ADD AND DUP3 ADD DUP1 PUSH1 0x40 MSTORE POP DUP2 ADD SWAP1 PUSH2 0xC68 SWAP2 SWAP1 PUSH2 0x2190 JUMP JUMPDEST PUSH1 0x40 MLOAD PUSH1 0x1 PUSH1 0x1 PUSH1 0xE0 SHL SUB NOT PUSH1 0xE0 DUP6 SWAP1 SHL AND DUP2 MSTORE PUSH1 0x4 DUP2 ADD SWAP2 SWAP1 SWAP2 MSTORE DUP5 ISZERO ISZERO PUSH1 0x24 DUP3 ADD MSTORE PUSH1 0x44 ADD PUSH1 0x0 PUSH1 0x40 MLOAD DUP1 DUP4 SUB DUP2 DUP6 DUP9 DUP1 EXTCODESIZE ISZERO DUP1 ISZERO PUSH2 0xCA8 JUMPI PUSH1 0x0 DUP1 REVERT JUMPDEST POP GAS CALL ISZERO DUP1 ISZERO PUSH2 0xCBC JUMPI RETURNDATASIZE PUSH1 0x0 DUP1 RETURNDATACOPY RETURNDATASIZE PUSH1 0x0 REVERT JUMPDEST POP POP POP POP POP POP JUMP JUMPDEST PUSH1 0x0 CALLER PUSH2 0x689 DUP2 DUP6 DUP6 PUSH2 0xCD7 DUP4 DUP4 PUSH2 0x1538 JUMP JUMPDEST PUSH2 0xCE1 SWAP2 SWAP1 PUSH2 0x223C JUMP JUMPDEST PUSH2 0x15E9 JUMP JUMPDEST PUSH2 0xCEE PUSH2 0x197B JUMP JUMPDEST PUSH1 0x1 PUSH1 0x1 PUSH1 0xA0 SHL SUB DUP3 AND PUSH1 0x0 SWAP1 DUP2 MSTORE PUSH1 0xD PUSH1 0x20 MSTORE PUSH1 0x40 SWAP1 KECCAK256 SLOAD PUSH1 0xFF AND PUSH2 0xD50 JUMPI PUSH1 0x40 MLOAD PUSH3 0x461BCD PUSH1 0xE5 SHL DUP2 MSTORE PUSH1 0x20 PUSH1 0x4 DUP3 ADD MSTORE PUSH1 0x17 PUSH1 0x24 DUP3 ADD MSTORE PUSH23 0x151BDAD95B881B9BDD081E595D081CDD5C1C1BDC9D1959 PUSH1 0x4A SHL PUSH1 0x44 DUP3 ADD MSTORE PUSH1 0x64 ADD PUSH2 0x839 JUMP JUMPDEST PUSH1 0x0 DUP2 GT PUSH2 0xDA0 JUMPI PUSH1 0x40 MLOAD PUSH3 0x461BCD PUSH1 0xE5 SHL DUP2 MSTORE PUSH1 0x20 PUSH1 0x4 DUP3 ADD MSTORE PUSH1 0x1E PUSH1 0x24 DUP3 ADD MSTORE PUSH32 0x416D6F756E7420746F206465706F736974206973206D616E6461746F72790000 PUSH1 0x44 DUP3 ADD MSTORE PUSH1 0x64 ADD PUSH2 0x839 JUMP JUMPDEST PUSH1 0x0 PUSH2 0xDAD PUSH1 0x64 DUP4 PUSH2 0x21D6 JUMP JUMPDEST PUSH2 0xDB7 SWAP1 DUP4 PUSH2 0x224F JUMP JUMPDEST SWAP1 POP PUSH1 0x0 ADDRESS PUSH1 0x1 PUSH1 0x1 PUSH1 0xA0 SHL SUB AND PUSH4 0x18160DDD PUSH1 0x40 MLOAD DUP2 PUSH4 0xFFFFFFFF AND PUSH1 0xE0 SHL DUP2 MSTORE PUSH1 0x4 ADD PUSH1 0x20 PUSH1 0x40 MLOAD DUP1 DUP4 SUB DUP2 DUP7 GAS STATICCALL ISZERO DUP1 ISZERO PUSH2 0xDF9 JUMPI RETURNDATASIZE PUSH1 0x0 DUP1 RETURNDATACOPY RETURNDATASIZE PUSH1 0x0 REVERT JUMPDEST POP POP POP POP PUSH1 0x40 MLOAD RETURNDATASIZE PUSH1 0x1F NOT PUSH1 0x1F DUP3 ADD AND DUP3 ADD DUP1 PUSH1 0x40 MSTORE POP DUP2 ADD SWAP1 PUSH2 0xE1D SWAP2 SWAP1 PUSH2 0x2190 JUMP JUMPDEST PUSH1 0x0 SUB PUSH2 0xE3A JUMPI PUSH2 0xE33 DUP4 PUSH5 0xE8D4A51000 PUSH2 0x21BF JUMP JUMPDEST SWAP1 POP PUSH2 0xF6C JUMP JUMPDEST PUSH2 0xE42 PUSH2 0x19D4 JUMP JUMPDEST PUSH1 0xC SLOAD PUSH1 0xFF AND PUSH1 0x0 SUB PUSH2 0xEDC JUMPI PUSH1 0xB SLOAD ADDRESS PUSH1 0x1 PUSH1 0x1 PUSH1 0xA0 SHL SUB AND PUSH4 0x18160DDD PUSH1 0x40 MLOAD DUP2 PUSH4 0xFFFFFFFF AND PUSH1 0xE0 SHL DUP2 MSTORE PUSH1 0x4 ADD PUSH1 0x20 PUSH1 0x40 MLOAD DUP1 DUP4 SUB DUP2 DUP7 GAS STATICCALL ISZERO DUP1 ISZERO PUSH2 0xE90 JUMPI RETURNDATASIZE PUSH1 0x0 DUP1 RETURNDATACOPY RETURNDATASIZE PUSH1 0x0 REVERT JUMPDEST POP POP POP POP PUSH1 0x40 MLOAD RETURNDATASIZE PUSH1 0x1F NOT PUSH1 0x1F DUP3 ADD AND DUP3 ADD DUP1 PUSH1 0x40 MSTORE POP DUP2 ADD SWAP1 PUSH2 0xEB4 SWAP2 SWAP1 PUSH2 0x2190 JUMP JUMPDEST PUSH2 0xEC8 DUP6 PUSH10 0xD3C21BCECCEDA1000000 PUSH2 0x21BF JUMP JUMPDEST PUSH2 0xED2 SWAP2 SWAP1 PUSH2 0x21BF JUMP JUMPDEST PUSH2 0xE33 SWAP2 SWAP1 PUSH2 0x21D6 JUMP JUMPDEST PUSH1 0xB SLOAD ADDRESS PUSH1 0x1 PUSH1 0x1 PUSH1 0xA0 SHL SUB AND PUSH4 0x18160DDD PUSH1 0x40 MLOAD DUP2 PUSH4 0xFFFFFFFF AND PUSH1 0xE0 SHL DUP2 MSTORE PUSH1 0x4 ADD PUSH1 0x20 PUSH1 0x40 MLOAD DUP1 DUP4 SUB DUP2 DUP7 GAS STATICCALL ISZERO DUP1 ISZERO PUSH2 0xF1D JUMPI RETURNDATASIZE PUSH1 0x0 DUP1 RETURNDATACOPY RETURNDATASIZE PUSH1 0x0 REVERT JUMPDEST POP POP POP POP PUSH1 0x40 MLOAD RETURNDATASIZE PUSH1 0x1F NOT PUSH1 0x1F DUP3 ADD AND DUP3 ADD DUP1 PUSH1 0x40 MSTORE POP DUP2 ADD SWAP1 PUSH2 0xF41 SWAP2 SWAP1 PUSH2 0x2190 JUMP JUMPDEST PUSH2 0xF55 DUP5 PUSH10 0xD3C21BCECCEDA1000000 PUSH2 0x21BF JUMP JUMPDEST PUSH2 0xF5F SWAP2 SWAP1 PUSH2 0x21BF JUMP JUMPDEST PUSH2 0xF69 SWAP2 SWAP1 PUSH2 0x21D6 JUMP JUMPDEST SWAP1 POP JUMPDEST PUSH2 0xF76 CALLER DUP3 PUSH2 0x1EE2 JUMP JUMPDEST PUSH1 0x40 MLOAD PUSH4 0x23B872DD PUSH1 0xE0 SHL DUP2 MSTORE CALLER PUSH1 0x4 DUP3 ADD MSTORE ADDRESS PUSH1 0x24 DUP3 ADD MSTORE PUSH1 0x44 DUP2 ADD DUP5 SWAP1 MSTORE PUSH1 0x1 PUSH1 0x1 PUSH1 0xA0 SHL SUB DUP6 AND SWAP1 PUSH4 0x23B872DD SWAP1 PUSH1 0x64 ADD PUSH1 0x20 PUSH1 0x40 MLOAD DUP1 DUP4 SUB DUP2 PUSH1 0x0 DUP8 GAS CALL ISZERO DUP1 ISZERO PUSH2 0xFC9 JUMPI RETURNDATASIZE PUSH1 0x0 DUP1 RETURNDATACOPY RETURNDATASIZE PUSH1 0x0 REVERT JUMPDEST POP POP POP POP PUSH1 0x40 MLOAD RETURNDATASIZE PUSH1 0x1F NOT PUSH1 0x1F DUP3 ADD AND DUP3 ADD DUP1 PUSH1 0x40 MSTORE POP DUP2 ADD SWAP1 PUSH2 0xFED SWAP2 SWAP1 PUSH2 0x2221 JUMP JUMPDEST POP PUSH1 0x7 SLOAD PUSH1 0x40 MLOAD PUSH4 0x95EA7B3 PUSH1 0xE0 SHL DUP2 MSTORE PUSH1 0x1 PUSH1 0x1 PUSH1 0xA0 SHL SUB DUP7 DUP2 AND SWAP3 PUSH4 0x95EA7B3 SWAP3 PUSH2 0x1022 SWAP3 SWAP1 SWAP2 AND SWAP1 DUP8 SWAP1 PUSH1 0x4 ADD PUSH2 0x21F8 JUMP JUMPDEST PUSH1 0x20 PUSH1 0x40 MLOAD DUP1 DUP4 SUB DUP2 PUSH1 0x0 DUP8 GAS CALL ISZERO DUP1 ISZERO PUSH2 0x1041 JUMPI RETURNDATASIZE PUSH1 0x0 DUP1 RETURNDATACOPY RETURNDATASIZE PUSH1 0x0 REVERT JUMPDEST POP POP POP POP PUSH1 0x40 MLOAD RETURNDATASIZE PUSH1 0x1F NOT PUSH1 0x1F DUP3 ADD AND DUP3 ADD DUP1 PUSH1 0x40 MSTORE POP DUP2 ADD SWAP1 PUSH2 0x1065 SWAP2 SWAP1 PUSH2 0x2221 JUMP JUMPDEST POP PUSH1 0xC SLOAD PUSH1 0xFF AND PUSH1 0x1 SUB PUSH2 0x10DF JUMPI PUSH1 0x7 SLOAD PUSH1 0x40 MLOAD PUSH4 0xE2F6603 PUSH1 0xE1 SHL DUP2 MSTORE PUSH1 0x4 DUP2 ADD DUP6 SWAP1 MSTORE PUSH1 0x1 PUSH1 0x24 DUP3 ADD MSTORE PUSH1 0x1 PUSH1 0x1 PUSH1 0xA0 SHL SUB SWAP1 SWAP2 AND SWAP1 PUSH4 0x1C5ECC06 SWAP1 CALLVALUE SWAP1 PUSH1 0x44 ADD PUSH1 0x0 PUSH1 0x40 MLOAD DUP1 DUP4 SUB DUP2 DUP6 DUP9 DUP1 EXTCODESIZE ISZERO DUP1 ISZERO PUSH2 0x10C1 JUMPI PUSH1 0x0 DUP1 REVERT JUMPDEST POP GAS CALL ISZERO DUP1 ISZERO PUSH2 0x10D5 JUMPI RETURNDATASIZE PUSH1 0x0 DUP1 RETURNDATACOPY RETURNDATASIZE PUSH1 0x0 REVERT JUMPDEST POP POP POP POP POP PUSH2 0x1154 JUMP JUMPDEST PUSH1 0xC SLOAD PUSH1 0xFF AND PUSH1 0x2 SUB PUSH2 0x1154 JUMPI PUSH1 0x7 SLOAD PUSH1 0x40 MLOAD PUSH4 0xE2F6603 PUSH1 0xE1 SHL DUP2 MSTORE PUSH1 0x4 DUP2 ADD DUP6 SWAP1 MSTORE PUSH1 0x0 PUSH1 0x24 DUP3 ADD MSTORE PUSH1 0x1 PUSH1 0x1 PUSH1 0xA0 SHL SUB SWAP1 SWAP2 AND SWAP1 PUSH4 0x1C5ECC06 SWAP1 CALLVALUE SWAP1 PUSH1 0x44 ADD PUSH1 0x0 PUSH1 0x40 MLOAD DUP1 DUP4 SUB DUP2 DUP6 DUP9 DUP1 EXTCODESIZE ISZERO DUP1 ISZERO PUSH2 0x113A JUMPI PUSH1 0x0 DUP1 REVERT JUMPDEST POP GAS CALL ISZERO DUP1 ISZERO PUSH2 0x114E JUMPI RETURNDATASIZE PUSH1 0x0 DUP1 RETURNDATACOPY RETURNDATASIZE PUSH1 0x0 REVERT JUMPDEST POP POP POP POP POP JUMPDEST PUSH1 0x40 DUP1 MLOAD TIMESTAMP DUP2 MSTORE PUSH1 0x1 PUSH1 0x1 PUSH1 0xA0 SHL SUB DUP7 AND PUSH1 0x20 DUP3 ADD MSTORE SWAP1 DUP2 ADD DUP5 SWAP1 MSTORE PUSH1 0x60 DUP2 ADD DUP3 SWAP1 MSTORE CALLER SWAP1 PUSH32 0xC43285A6E98E6524BF49B1C1BDDA72F38B968B31D2861D4422C0716E89B13181 SWAP1 PUSH1 0x80 ADD PUSH1 0x40 MLOAD DUP1 SWAP2 SUB SWAP1 LOG2 POP POP PUSH2 0x11B2 PUSH1 0x1 PUSH1 0x6 SSTORE JUMP JUMPDEST POP POP JUMP JUMPDEST PUSH2 0x11BE PUSH2 0x170E JUMP JUMPDEST PUSH1 0xFF DUP2 AND ISZERO DUP1 PUSH2 0x11D1 JUMPI POP DUP1 PUSH1 0xFF AND PUSH1 0x1 EQ JUMPDEST DUP1 PUSH2 0x11DF JUMPI POP DUP1 PUSH1 0xFF AND PUSH1 0x2 EQ JUMPDEST PUSH2 0x124A JUMPI PUSH1 0x40 MLOAD PUSH3 0x461BCD PUSH1 0xE5 SHL DUP2 MSTORE PUSH1 0x20 PUSH1 0x4 DUP3 ADD MSTORE PUSH1 0x36 PUSH1 0x24 DUP3 ADD MSTORE PUSH32 0x56616C7565206D757374206265203020666F72206E65757472616C2C20312066 PUSH1 0x44 DUP3 ADD MSTORE PUSH22 0x1BDC88131BDB99C81BDC880C88199BDC8814DA1BDC9D PUSH1 0x52 SHL PUSH1 0x64 DUP3 ADD MSTORE PUSH1 0x84 ADD PUSH2 0x839 JUMP JUMPDEST PUSH1 0xC SLOAD PUSH1 0xFF DUP1 DUP4 AND SWAP2 AND SUB PUSH2 0x12B5 JUMPI PUSH1 0x40 MLOAD PUSH3 0x461BCD PUSH1 0xE5 SHL DUP2 MSTORE PUSH1 0x20 PUSH1 0x4 DUP3 ADD MSTORE PUSH1 0x2B PUSH1 0x24 DUP3 ADD MSTORE PUSH32 0x52657665727465642062656361757365206578706F736974696F6E2068617320 PUSH1 0x44 DUP3 ADD MSTORE PUSH11 0x1B9BDD0818DA185B99D959 PUSH1 0xAA SHL PUSH1 0x64 DUP3 ADD MSTORE PUSH1 0x84 ADD PUSH2 0x839 JUMP JUMPDEST PUSH1 0xC DUP1 SLOAD PUSH1 0xFF NOT DUP2 AND PUSH1 0xFF DUP5 DUP2 AND SWAP2 DUP3 OR SWAP1 SWAP4 SSTORE PUSH1 0x40 DUP1 MLOAD TIMESTAMP DUP2 MSTORE SWAP4 SWAP1 SWAP3 AND PUSH1 0x20 DUP5 ADD DUP2 SWAP1 MSTORE SWAP2 DUP4 ADD MSTORE SWAP1 PUSH32 0xFA0731D6F72A8F51CD2381CDD6778CCEA1323C89D9B49A780EB07D809E4CE169 SWAP1 PUSH1 0x60 ADD PUSH1 0x40 MLOAD DUP1 SWAP2 SUB SWAP1 LOG1 POP POP JUMP JUMPDEST PUSH2 0x1319 PUSH2 0x170E JUMP JUMPDEST PUSH1 0x1 PUSH1 0x1 PUSH1 0xA0 SHL SUB DUP2 AND PUSH1 0x0 SWAP1 DUP2 MSTORE PUSH1 0xD PUSH1 0x20 MSTORE PUSH1 0x40 SWAP1 KECCAK256 SLOAD PUSH1 0xFF AND PUSH2 0x1377 JUMPI PUSH1 0x40 MLOAD PUSH3 0x461BCD PUSH1 0xE5 SHL DUP2 MSTORE PUSH1 0x20 PUSH1 0x4 DUP3 ADD MSTORE PUSH1 0x13 PUSH1 0x24 DUP3 ADD MSTORE PUSH19 0x151BDAD95B881B9BDD081E595D081859191959 PUSH1 0x6A SHL PUSH1 0x44 DUP3 ADD MSTORE PUSH1 0x64 ADD PUSH2 0x839 JUMP JUMPDEST PUSH1 0x1 PUSH1 0x1 PUSH1 0xA0 SHL SUB DUP2 AND PUSH1 0x0 SWAP1 DUP2 MSTORE PUSH1 0xD PUSH1 0x20 MSTORE PUSH1 0x40 SWAP1 DUP2 SWAP1 KECCAK256 DUP1 SLOAD PUSH1 0xFF NOT AND SWAP1 SSTORE MLOAD PUSH32 0x4C910B69FE65A61F7531B9C5042B2329CA7179C77290AA7E2EB3AFA3C8511FD3 SWAP1 PUSH2 0x13C7 SWAP1 DUP4 SWAP1 PUSH2 0x1FE1 JUMP JUMPDEST PUSH1 0x40 MLOAD DUP1 SWAP2 SUB SWAP1 LOG1 POP JUMP JUMPDEST PUSH2 0x13DA PUSH2 0x170E JUMP JUMPDEST PUSH2 0x13E4 PUSH1 0x0 PUSH2 0x1F91 JUMP JUMPDEST JUMP JUMPDEST PUSH2 0x13EE PUSH2 0x170E JUMP JUMPDEST PUSH1 0x1 PUSH1 0x1 PUSH1 0xA0 SHL SUB DUP2 AND PUSH1 0x0 SWAP1 DUP2 MSTORE PUSH1 0xD PUSH1 0x20 MSTORE PUSH1 0x40 SWAP1 KECCAK256 SLOAD PUSH1 0xFF AND ISZERO PUSH2 0x144D JUMPI PUSH1 0x40 MLOAD PUSH3 0x461BCD PUSH1 0xE5 SHL DUP2 MSTORE PUSH1 0x20 PUSH1 0x4 DUP3 ADD MSTORE PUSH1 0x13 PUSH1 0x24 DUP3 ADD MSTORE PUSH19 0x151BDAD95B88185B1C9958591E481859191959 PUSH1 0x6A SHL PUSH1 0x44 DUP3 ADD MSTORE PUSH1 0x64 ADD PUSH2 0x839 JUMP JUMPDEST PUSH1 0x1 PUSH1 0x1 PUSH1 0xA0 SHL SUB DUP2 AND PUSH1 0x0 SWAP1 DUP2 MSTORE PUSH1 0xD PUSH1 0x20 MSTORE PUSH1 0x40 SWAP1 DUP2 SWAP1 KECCAK256 DUP1 SLOAD PUSH1 0xFF NOT AND PUSH1 0x1 OR SWAP1 SSTORE MLOAD PUSH32 0xAE340411F33C346AE24187433A8DF6E508BE40CF0DEB3949D51CEA12DF7FA021 SWAP1 PUSH2 0x13C7 SWAP1 DUP4 SWAP1 PUSH2 0x1FE1 JUMP JUMPDEST PUSH1 0x60 PUSH1 0x5 DUP1 SLOAD PUSH2 0x5F8 SWAP1 PUSH2 0x2156 JUMP JUMPDEST PUSH1 0x0 CALLER DUP2 PUSH2 0x14BD DUP3 DUP7 PUSH2 0x1538 JUMP JUMPDEST SWAP1 POP DUP4 DUP2 LT ISZERO PUSH2 0x151D JUMPI PUSH1 0x40 MLOAD PUSH3 0x461BCD PUSH1 0xE5 SHL DUP2 MSTORE PUSH1 0x20 PUSH1 0x4 DUP3 ADD MSTORE PUSH1 0x25 PUSH1 0x24 DUP3 ADD MSTORE PUSH32 0x45524332303A2064656372656173656420616C6C6F77616E63652062656C6F77 PUSH1 0x44 DUP3 ADD MSTORE PUSH5 0x207A65726F PUSH1 0xD8 SHL PUSH1 0x64 DUP3 ADD MSTORE PUSH1 0x84 ADD PUSH2 0x839 JUMP JUMPDEST PUSH2 0x6D8 DUP3 DUP7 DUP7 DUP5 SUB PUSH2 0x15E9 JUMP JUMPDEST PUSH1 0x0 CALLER PUSH2 0x689 DUP2 DUP6 DUP6 PUSH2 0x17E2 JUMP JUMPDEST PUSH1 0x1 PUSH1 0x1 PUSH1 0xA0 SHL SUB SWAP2 DUP3 AND PUSH1 0x0 SWAP1 DUP2 MSTORE PUSH1 0x2 PUSH1 0x20 SWAP1 DUP2 MSTORE PUSH1 0x40 DUP1 DUP4 KECCAK256 SWAP4 SWAP1 SWAP5 AND DUP3 MSTORE SWAP2 SWAP1 SWAP2 MSTORE KECCAK256 SLOAD SWAP1 JUMP JUMPDEST PUSH2 0x156B PUSH2 0x170E JUMP JUMPDEST PUSH2 0x13E4 PUSH2 0x19D4 JUMP JUMPDEST PUSH2 0x157B PUSH2 0x170E JUMP JUMPDEST PUSH1 0x1 PUSH1 0x1 PUSH1 0xA0 SHL SUB DUP2 AND PUSH2 0x15E0 JUMPI PUSH1 0x40 MLOAD PUSH3 0x461BCD PUSH1 0xE5 SHL DUP2 MSTORE PUSH1 0x20 PUSH1 0x4 DUP3 ADD MSTORE PUSH1 0x26 PUSH1 0x24 DUP3 ADD MSTORE PUSH32 0x4F776E61626C653A206E6577206F776E657220697320746865207A65726F2061 PUSH1 0x44 DUP3 ADD MSTORE PUSH6 0x646472657373 PUSH1 0xD0 SHL PUSH1 0x64 DUP3 ADD MSTORE PUSH1 0x84 ADD PUSH2 0x839 JUMP JUMPDEST PUSH2 0xAA5 DUP2 PUSH2 0x1F91 JUMP JUMPDEST PUSH1 0x1 PUSH1 0x1 PUSH1 0xA0 SHL SUB DUP4 AND PUSH2 0x164B JUMPI PUSH1 0x40 MLOAD PUSH3 0x461BCD PUSH1 0xE5 SHL DUP2 MSTORE PUSH1 0x20 PUSH1 0x4 DUP3 ADD MSTORE PUSH1 0x24 DUP1 DUP3 ADD MSTORE PUSH32 0x45524332303A20617070726F76652066726F6D20746865207A65726F20616464 PUSH1 0x44 DUP3 ADD MSTORE PUSH4 0x72657373 PUSH1 0xE0 SHL PUSH1 0x64 DUP3 ADD MSTORE PUSH1 0x84 ADD PUSH2 0x839 JUMP JUMPDEST PUSH1 0x1 PUSH1 0x1 PUSH1 0xA0 SHL SUB DUP3 AND PUSH2 0x16AC JUMPI PUSH1 0x40 MLOAD PUSH3 0x461BCD PUSH1 0xE5 SHL DUP2 MSTORE PUSH1 0x20 PUSH1 0x4 DUP3 ADD MSTORE PUSH1 0x22 PUSH1 0x24 DUP3 ADD MSTORE PUSH32 0x45524332303A20617070726F766520746F20746865207A65726F206164647265 PUSH1 0x44 DUP3 ADD MSTORE PUSH2 0x7373 PUSH1 0xF0 SHL PUSH1 0x64 DUP3 ADD MSTORE PUSH1 0x84 ADD PUSH2 0x839 JUMP JUMPDEST PUSH1 0x1 PUSH1 0x1 PUSH1 0xA0 SHL SUB DUP4 DUP2 AND PUSH1 0x0 DUP2 DUP2 MSTORE PUSH1 0x2 PUSH1 0x20 SWAP1 DUP2 MSTORE PUSH1 0x40 DUP1 DUP4 KECCAK256 SWAP5 DUP8 AND DUP1 DUP5 MSTORE SWAP5 DUP3 MSTORE SWAP2 DUP3 SWAP1 KECCAK256 DUP6 SWAP1 SSTORE SWAP1 MLOAD DUP5 DUP2 MSTORE PUSH32 0x8C5BE1E5EBEC7D5BD14F71427D1E84F3DD0314C0F7B2291E5B200AC8C7C3B925 SWAP2 ADD JUMPDEST PUSH1 0x40 MLOAD DUP1 SWAP2 SUB SWAP1 LOG3 POP POP POP JUMP JUMPDEST PUSH1 0x0 SLOAD PUSH1 0x1 PUSH1 0x1 PUSH1 0xA0 SHL SUB AND CALLER EQ PUSH2 0x13E4 JUMPI PUSH1 0x40 MLOAD PUSH3 0x461BCD PUSH1 0xE5 SHL DUP2 MSTORE PUSH1 0x20 PUSH1 0x4 DUP3 ADD DUP2 SWAP1 MSTORE PUSH1 0x24 DUP3 ADD MSTORE PUSH32 0x4F776E61626C653A2063616C6C6572206973206E6F7420746865206F776E6572 PUSH1 0x44 DUP3 ADD MSTORE PUSH1 0x64 ADD PUSH2 0x839 JUMP JUMPDEST PUSH1 0x0 PUSH2 0x1774 DUP5 DUP5 PUSH2 0x1538 JUMP JUMPDEST SWAP1 POP PUSH1 0x0 NOT DUP2 EQ PUSH2 0x17DC JUMPI DUP2 DUP2 LT ISZERO PUSH2 0x17CF JUMPI PUSH1 0x40 MLOAD PUSH3 0x461BCD PUSH1 0xE5 SHL DUP2 MSTORE PUSH1 0x20 PUSH1 0x4 DUP3 ADD MSTORE PUSH1 0x1D PUSH1 0x24 DUP3 ADD MSTORE PUSH32 0x45524332303A20696E73756666696369656E7420616C6C6F77616E6365000000 PUSH1 0x44 DUP3 ADD MSTORE PUSH1 0x64 ADD PUSH2 0x839 JUMP JUMPDEST PUSH2 0x17DC DUP5 DUP5 DUP5 DUP5 SUB PUSH2 0x15E9 JUMP JUMPDEST POP POP POP POP JUMP JUMPDEST PUSH1 0x1 PUSH1 0x1 PUSH1 0xA0 SHL SUB DUP4 AND PUSH2 0x1846 JUMPI PUSH1 0x40 MLOAD PUSH3 0x461BCD PUSH1 0xE5 SHL DUP2 MSTORE PUSH1 0x20 PUSH1 0x4 DUP3 ADD MSTORE PUSH1 0x25 PUSH1 0x24 DUP3 ADD MSTORE PUSH32 0x45524332303A207472616E736665722066726F6D20746865207A65726F206164 PUSH1 0x44 DUP3 ADD MSTORE PUSH5 0x6472657373 PUSH1 0xD8 SHL PUSH1 0x64 DUP3 ADD MSTORE PUSH1 0x84 ADD PUSH2 0x839 JUMP JUMPDEST PUSH1 0x1 PUSH1 0x1 PUSH1 0xA0 SHL SUB DUP3 AND PUSH2 0x18A8 JUMPI PUSH1 0x40 MLOAD PUSH3 0x461BCD PUSH1 0xE5 SHL DUP2 MSTORE PUSH1 0x20 PUSH1 0x4 DUP3 ADD MSTORE PUSH1 0x23 PUSH1 0x24 DUP3 ADD MSTORE PUSH32 0x45524332303A207472616E7366657220746F20746865207A65726F2061646472 PUSH1 0x44 DUP3 ADD MSTORE PUSH3 0x657373 PUSH1 0xE8 SHL PUSH1 0x64 DUP3 ADD MSTORE PUSH1 0x84 ADD PUSH2 0x839 JUMP JUMPDEST PUSH1 0x1 PUSH1 0x1 PUSH1 0xA0 SHL SUB DUP4 AND PUSH1 0x0 SWAP1 DUP2 MSTORE PUSH1 0x1 PUSH1 0x20 MSTORE PUSH1 0x40 SWAP1 KECCAK256 SLOAD DUP2 DUP2 LT ISZERO PUSH2 0x1920 JUMPI PUSH1 0x40 MLOAD PUSH3 0x461BCD PUSH1 0xE5 SHL DUP2 MSTORE PUSH1 0x20 PUSH1 0x4 DUP3 ADD MSTORE PUSH1 0x26 PUSH1 0x24 DUP3 ADD MSTORE PUSH32 0x45524332303A207472616E7366657220616D6F756E7420657863656564732062 PUSH1 0x44 DUP3 ADD MSTORE PUSH6 0x616C616E6365 PUSH1 0xD0 SHL PUSH1 0x64 DUP3 ADD MSTORE PUSH1 0x84 ADD PUSH2 0x839 JUMP JUMPDEST PUSH1 0x1 PUSH1 0x1 PUSH1 0xA0 SHL SUB DUP1 DUP6 AND PUSH1 0x0 DUP2 DUP2 MSTORE PUSH1 0x1 PUSH1 0x20 MSTORE PUSH1 0x40 DUP1 DUP3 KECCAK256 DUP7 DUP7 SUB SWAP1 SSTORE SWAP3 DUP7 AND DUP1 DUP3 MSTORE SWAP1 DUP4 SWAP1 KECCAK256 DUP1 SLOAD DUP7 ADD SWAP1 SSTORE SWAP2 MLOAD PUSH1 0x0 DUP1 MLOAD PUSH1 0x20 PUSH2 0x231F DUP4 CODECOPY DUP2 MLOAD SWAP2 MSTORE SWAP1 PUSH2 0x196E SWAP1 DUP7 DUP2 MSTORE PUSH1 0x20 ADD SWAP1 JUMP JUMPDEST PUSH1 0x40 MLOAD DUP1 SWAP2 SUB SWAP1 LOG3 PUSH2 0x17DC JUMP JUMPDEST PUSH1 0x2 PUSH1 0x6 SLOAD SUB PUSH2 0x19CD JUMPI PUSH1 0x40 MLOAD PUSH3 0x461BCD PUSH1 0xE5 SHL DUP2 MSTORE PUSH1 0x20 PUSH1 0x4 DUP3 ADD MSTORE PUSH1 0x1F PUSH1 0x24 DUP3 ADD MSTORE PUSH32 0x5265656E7472616E637947756172643A207265656E7472616E742063616C6C00 PUSH1 0x44 DUP3 ADD MSTORE PUSH1 0x64 ADD PUSH2 0x839 JUMP JUMPDEST PUSH1 0x2 PUSH1 0x6 SSTORE JUMP JUMPDEST PUSH1 0xB SLOAD PUSH1 0x9 SLOAD PUSH1 0x40 MLOAD PUSH4 0x70A08231 PUSH1 0xE0 SHL DUP2 MSTORE PUSH1 0x0 SWAP2 DUP3 SWAP2 DUP3 SWAP2 PUSH1 0x1 PUSH1 0x1 PUSH1 0xA0 SHL SUB AND SWAP1 PUSH4 0x70A08231 SWAP1 PUSH2 0x1A0C SWAP1 ADDRESS SWAP1 PUSH1 0x4 ADD PUSH2 0x1FE1 JUMP JUMPDEST PUSH1 0x20 PUSH1 0x40 MLOAD DUP1 DUP4 SUB DUP2 DUP7 GAS STATICCALL ISZERO DUP1 ISZERO PUSH2 0x1A29 JUMPI RETURNDATASIZE PUSH1 0x0 DUP1 RETURNDATACOPY RETURNDATASIZE PUSH1 0x0 REVERT JUMPDEST POP POP POP POP PUSH1 0x40 MLOAD RETURNDATASIZE PUSH1 0x1F NOT PUSH1 0x1F DUP3 ADD AND DUP3 ADD DUP1 PUSH1 0x40 MSTORE POP DUP2 ADD SWAP1 PUSH2 0x1A4D SWAP2 SWAP1 PUSH2 0x2190 JUMP JUMPDEST PUSH2 0x1A61 SWAP1 PUSH10 0xD3C21BCECCEDA1000000 PUSH2 0x21BF JUMP JUMPDEST PUSH1 0xA SLOAD PUSH1 0x7 SLOAD PUSH1 0x8 SLOAD PUSH1 0x40 MLOAD PUSH4 0x4A3F088D PUSH1 0xE0 SHL DUP2 MSTORE SWAP4 SWAP5 POP PUSH1 0x0 SWAP4 PUSH1 0x1 PUSH1 0x1 PUSH1 0xA0 SHL SUB SWAP4 DUP5 AND SWAP4 PUSH4 0x4A3F088D SWAP4 PUSH2 0x1AA7 SWAP4 SWAP1 DUP3 AND SWAP3 SWAP2 AND SWAP1 DUP2 SWAP1 PUSH1 0x1 SWAP1 PUSH1 0x4 ADD PUSH2 0x2262 JUMP JUMPDEST PUSH2 0x100 PUSH1 0x40 MLOAD DUP1 DUP4 SUB DUP2 PUSH1 0x0 DUP8 GAS CALL ISZERO DUP1 ISZERO PUSH2 0x1AC7 JUMPI RETURNDATASIZE PUSH1 0x0 DUP1 RETURNDATACOPY RETURNDATASIZE PUSH1 0x0 REVERT JUMPDEST POP POP POP POP PUSH1 0x40 MLOAD RETURNDATASIZE PUSH1 0x1F NOT PUSH1 0x1F DUP3 ADD AND DUP3 ADD DUP1 PUSH1 0x40 MSTORE POP DUP2 ADD SWAP1 PUSH2 0x1AEB SWAP2 SWAP1 PUSH2 0x228C JUMP JUMPDEST POP POP POP POP POP POP SWAP2 POP POP PUSH1 0x0 DUP2 GT ISZERO PUSH2 0x1B83 JUMPI PUSH1 0xA SLOAD PUSH1 0x7 SLOAD PUSH1 0x8 SLOAD PUSH1 0x40 MLOAD PUSH4 0x45A6F37 PUSH1 0xE4 SHL DUP2 MSTORE PUSH1 0x1 PUSH1 0x1 PUSH1 0xA0 SHL SUB SWAP4 DUP5 AND SWAP4 PUSH4 0x45A6F370 SWAP4 PUSH2 0x1B3D SWAP4 SWAP1 DUP3 AND SWAP3 SWAP2 AND SWAP1 DUP2 SWAP1 PUSH1 0x1 SWAP1 PUSH1 0x4 ADD PUSH2 0x2262 JUMP JUMPDEST PUSH1 0x40 DUP1 MLOAD DUP1 DUP4 SUB DUP2 PUSH1 0x0 DUP8 GAS CALL ISZERO DUP1 ISZERO PUSH2 0x1B5B JUMPI RETURNDATASIZE PUSH1 0x0 DUP1 RETURNDATACOPY RETURNDATASIZE PUSH1 0x0 REVERT JUMPDEST POP POP POP POP PUSH1 0x40 MLOAD RETURNDATASIZE PUSH1 0x1F NOT PUSH1 0x1F DUP3 ADD AND DUP3 ADD DUP1 PUSH1 0x40 MSTORE POP DUP2 ADD SWAP1 PUSH2 0x1B7F SWAP2 SWAP1 PUSH2 0x22F2 JUMP JUMPDEST SWAP5 POP POP JUMPDEST PUSH1 0x0 PUSH2 0x1B8F DUP6 DUP4 PUSH2 0x223C JUMP JUMPDEST PUSH1 0xA SLOAD PUSH1 0x7 SLOAD PUSH1 0x9 SLOAD PUSH1 0x8 SLOAD PUSH1 0x40 MLOAD PUSH4 0x4A3F088D PUSH1 0xE0 SHL DUP2 MSTORE SWAP5 SWAP6 POP PUSH1 0x0 SWAP5 PUSH1 0x1 PUSH1 0x1 PUSH1 0xA0 SHL SUB SWAP5 DUP6 AND SWAP5 PUSH4 0x4A3F088D SWAP5 PUSH2 0x1BD9 SWAP5 SWAP1 DUP3 AND SWAP4 SWAP1 DUP3 AND SWAP3 SWAP2 AND SWAP1 DUP8 SWAP1 PUSH1 0x4 ADD PUSH2 0x2262 JUMP JUMPDEST PUSH2 0x100 PUSH1 0x40 MLOAD DUP1 DUP4 SUB DUP2 PUSH1 0x0 DUP8 GAS CALL ISZERO DUP1 ISZERO PUSH2 0x1BF9 JUMPI RETURNDATASIZE PUSH1 0x0 DUP1 RETURNDATACOPY RETURNDATASIZE PUSH1 0x0 REVERT JUMPDEST POP POP POP POP PUSH1 0x40 MLOAD RETURNDATASIZE PUSH1 0x1F NOT PUSH1 0x1F DUP3 ADD AND DUP3 ADD DUP1 PUSH1 0x40 MSTORE POP DUP2 ADD SWAP1 PUSH2 0x1C1D SWAP2 SWAP1 PUSH2 0x228C JUMP JUMPDEST POP POP POP POP POP POP SWAP2 POP POP PUSH1 0x0 DUP2 GT ISZERO PUSH2 0x1CBA JUMPI PUSH1 0xA SLOAD PUSH1 0x7 SLOAD PUSH1 0x9 SLOAD PUSH1 0x8 SLOAD PUSH1 0x40 MLOAD PUSH4 0x45A6F37 PUSH1 0xE4 SHL DUP2 MSTORE PUSH1 0x1 PUSH1 0x1 PUSH1 0xA0 SHL SUB SWAP5 DUP6 AND SWAP5 PUSH4 0x45A6F370 SWAP5 PUSH2 0x1C74 SWAP5 SWAP1 DUP3 AND SWAP4 SWAP1 DUP3 AND SWAP3 SWAP2 AND SWAP1 PUSH1 0x0 SWAP1 PUSH1 0x4 ADD PUSH2 0x2262 JUMP JUMPDEST PUSH1 0x40 DUP1 MLOAD DUP1 DUP4 SUB DUP2 PUSH1 0x0 DUP8 GAS CALL ISZERO DUP1 ISZERO PUSH2 0x1C92 JUMPI RETURNDATASIZE PUSH1 0x0 DUP1 RETURNDATACOPY RETURNDATASIZE PUSH1 0x0 REVERT JUMPDEST POP POP POP POP PUSH1 0x40 MLOAD RETURNDATASIZE PUSH1 0x1F NOT PUSH1 0x1F DUP3 ADD AND DUP3 ADD DUP1 PUSH1 0x40 MSTORE POP DUP2 ADD SWAP1 PUSH2 0x1CB6 SWAP2 SWAP1 PUSH2 0x22F2 JUMP JUMPDEST SWAP6 POP POP JUMPDEST PUSH1 0x0 PUSH2 0x1CC6 DUP7 DUP4 PUSH2 0x224F JUMP JUMPDEST SWAP1 POP DUP1 PUSH2 0x1CD3 DUP5 DUP8 PUSH2 0x223C JUMP JUMPDEST PUSH2 0x1CDD SWAP2 SWAP1 PUSH2 0x223C JUMP JUMPDEST PUSH1 0xB DUP2 SWAP1 SSTORE POP PUSH32 0x59D0701380A5813CC605B68BC8AAE0C943D3AECBFA3D35E11F8396E056EB6CC TIMESTAMP PUSH1 0xC PUSH1 0x0 SWAP1 SLOAD SWAP1 PUSH2 0x100 EXP SWAP1 DIV PUSH1 0xFF AND DUP11 PUSH1 0xB SLOAD DUP10 DUP9 DUP8 ADDRESS PUSH1 0x1 PUSH1 0x1 PUSH1 0xA0 SHL SUB AND PUSH4 0x18160DDD PUSH1 0x40 MLOAD DUP2 PUSH4 0xFFFFFFFF AND PUSH1 0xE0 SHL DUP2 MSTORE PUSH1 0x4 ADD PUSH1 0x20 PUSH1 0x40 MLOAD DUP1 DUP4 SUB DUP2 DUP7 GAS STATICCALL ISZERO DUP1 ISZERO PUSH2 0x1D5A JUMPI RETURNDATASIZE PUSH1 0x0 DUP1 RETURNDATACOPY RETURNDATASIZE PUSH1 0x0 REVERT JUMPDEST POP POP POP POP PUSH1 0x40 MLOAD RETURNDATASIZE PUSH1 0x1F NOT PUSH1 0x1F DUP3 ADD AND DUP3 ADD DUP1 PUSH1 0x40 MSTORE POP DUP2 ADD SWAP1 PUSH2 0x1D7E SWAP2 SWAP1 PUSH2 0x2190 JUMP JUMPDEST PUSH1 0x40 DUP1 MLOAD SWAP9 DUP10 MSTORE PUSH1 0xFF SWAP1 SWAP8 AND PUSH1 0x20 DUP10 ADD MSTORE SWAP6 DUP8 ADD SWAP5 SWAP1 SWAP5 MSTORE PUSH1 0x60 DUP7 ADD SWAP3 SWAP1 SWAP3 MSTORE PUSH1 0x80 DUP6 ADD MSTORE PUSH1 0xA0 DUP5 ADD MSTORE PUSH1 0xC0 DUP4 ADD MSTORE PUSH1 0xE0 DUP3 ADD MSTORE PUSH2 0x100 ADD PUSH1 0x40 MLOAD DUP1 SWAP2 SUB SWAP1 LOG1 POP POP POP POP POP POP POP POP JUMP JUMPDEST PUSH1 0x1 PUSH1 0x1 PUSH1 0xA0 SHL SUB DUP3 AND PUSH2 0x1E28 JUMPI PUSH1 0x40 MLOAD PUSH3 0x461BCD PUSH1 0xE5 SHL DUP2 MSTORE PUSH1 0x20 PUSH1 0x4 DUP3 ADD MSTORE PUSH1 0x21 PUSH1 0x24 DUP3 ADD MSTORE PUSH32 0x45524332303A206275726E2066726F6D20746865207A65726F20616464726573 PUSH1 0x44 DUP3 ADD MSTORE PUSH1 0x73 PUSH1 0xF8 SHL PUSH1 0x64 DUP3 ADD MSTORE PUSH1 0x84 ADD PUSH2 0x839 JUMP JUMPDEST PUSH1 0x1 PUSH1 0x1 PUSH1 0xA0 SHL SUB DUP3 AND PUSH1 0x0 SWAP1 DUP2 MSTORE PUSH1 0x1 PUSH1 0x20 MSTORE PUSH1 0x40 SWAP1 KECCAK256 SLOAD DUP2 DUP2 LT ISZERO PUSH2 0x1E9C JUMPI PUSH1 0x40 MLOAD PUSH3 0x461BCD PUSH1 0xE5 SHL DUP2 MSTORE PUSH1 0x20 PUSH1 0x4 DUP3 ADD MSTORE PUSH1 0x22 PUSH1 0x24 DUP3 ADD MSTORE PUSH32 0x45524332303A206275726E20616D6F756E7420657863656564732062616C616E PUSH1 0x44 DUP3 ADD MSTORE PUSH2 0x6365 PUSH1 0xF0 SHL PUSH1 0x64 DUP3 ADD MSTORE PUSH1 0x84 ADD PUSH2 0x839 JUMP JUMPDEST PUSH1 0x1 PUSH1 0x1 PUSH1 0xA0 SHL SUB DUP4 AND PUSH1 0x0 DUP2 DUP2 MSTORE PUSH1 0x1 PUSH1 0x20 SWAP1 DUP2 MSTORE PUSH1 0x40 DUP1 DUP4 KECCAK256 DUP7 DUP7 SUB SWAP1 SSTORE PUSH1 0x3 DUP1 SLOAD DUP8 SWAP1 SUB SWAP1 SSTORE MLOAD DUP6 DUP2 MSTORE SWAP2 SWAP3 SWAP2 PUSH1 0x0 DUP1 MLOAD PUSH1 0x20 PUSH2 0x231F DUP4 CODECOPY DUP2 MLOAD SWAP2 MSTORE SWAP2 ADD PUSH2 0x1701 JUMP JUMPDEST PUSH1 0x1 PUSH1 0x1 PUSH1 0xA0 SHL SUB DUP3 AND PUSH2 0x1F38 JUMPI PUSH1 0x40 MLOAD PUSH3 0x461BCD PUSH1 0xE5 SHL DUP2 MSTORE PUSH1 0x20 PUSH1 0x4 DUP3 ADD MSTORE PUSH1 0x1F PUSH1 0x24 DUP3 ADD MSTORE PUSH32 0x45524332303A206D696E7420746F20746865207A65726F206164647265737300 PUSH1 0x44 DUP3 ADD MSTORE PUSH1 0x64 ADD PUSH2 0x839 JUMP JUMPDEST DUP1 PUSH1 0x3 PUSH1 0x0 DUP3 DUP3 SLOAD PUSH2 0x1F4A SWAP2 SWAP1 PUSH2 0x223C JUMP JUMPDEST SWAP1 SWAP2 SSTORE POP POP PUSH1 0x1 PUSH1 0x1 PUSH1 0xA0 SHL SUB DUP3 AND PUSH1 0x0 DUP2 DUP2 MSTORE PUSH1 0x1 PUSH1 0x20 SWAP1 DUP2 MSTORE PUSH1 0x40 DUP1 DUP4 KECCAK256 DUP1 SLOAD DUP7 ADD SWAP1 SSTORE MLOAD DUP5 DUP2 MSTORE PUSH1 0x0 DUP1 MLOAD PUSH1 0x20 PUSH2 0x231F DUP4 CODECOPY DUP2 MLOAD SWAP2 MSTORE SWAP2 ADD PUSH1 0x40 MLOAD DUP1 SWAP2 SUB SWAP1 LOG3 POP POP JUMP JUMPDEST PUSH1 0x0 DUP1 SLOAD PUSH1 0x1 PUSH1 0x1 PUSH1 0xA0 SHL SUB DUP4 DUP2 AND PUSH1 0x1 PUSH1 0x1 PUSH1 0xA0 SHL SUB NOT DUP4 AND DUP2 OR DUP5 SSTORE PUSH1 0x40 MLOAD SWAP2 SWAP1 SWAP3 AND SWAP3 DUP4 SWAP2 PUSH32 0x8BE0079C531659141344CD1FD0A4F28419497F9722A3DAAFE3B4186F6B6457E0 SWAP2 SWAP1 LOG3 POP POP JUMP JUMPDEST PUSH1 0x1 PUSH1 0x1 PUSH1 0xA0 SHL SUB SWAP2 SWAP1 SWAP2 AND DUP2 MSTORE PUSH1 0x20 ADD SWAP1 JUMP JUMPDEST PUSH1 0x0 PUSH1 0x20 DUP1 DUP4 MSTORE DUP4 MLOAD DUP1 DUP3 DUP6 ADD MSTORE PUSH1 0x0 JUMPDEST DUP2 DUP2 LT ISZERO PUSH2 0x2022 JUMPI DUP6 DUP2 ADD DUP4 ADD MLOAD DUP6 DUP3 ADD PUSH1 0x40 ADD MSTORE DUP3 ADD PUSH2 0x2006 JUMP JUMPDEST POP PUSH1 0x0 PUSH1 0x40 DUP3 DUP7 ADD ADD MSTORE PUSH1 0x40 PUSH1 0x1F NOT PUSH1 0x1F DUP4 ADD AND DUP6 ADD ADD SWAP3 POP POP POP SWAP3 SWAP2 POP POP JUMP JUMPDEST DUP1 CALLDATALOAD PUSH1 0x1 PUSH1 0x1 PUSH1 0xA0 SHL SUB DUP2 AND DUP2 EQ PUSH2 0x205A JUMPI PUSH1 0x0 DUP1 REVERT JUMPDEST SWAP2 SWAP1 POP JUMP JUMPDEST PUSH1 0x0 DUP1 PUSH1 0x40 DUP4 DUP6 SUB SLT ISZERO PUSH2 0x2072 JUMPI PUSH1 0x0 DUP1 REVERT JUMPDEST PUSH2 0x207B DUP4 PUSH2 0x2043 JUMP JUMPDEST SWAP5 PUSH1 0x20 SWAP4 SWAP1 SWAP4 ADD CALLDATALOAD SWAP4 POP POP POP JUMP JUMPDEST PUSH1 0x0 PUSH1 0x20 DUP3 DUP5 SUB SLT ISZERO PUSH2 0x209B JUMPI PUSH1 0x0 DUP1 REVERT JUMPDEST PUSH2 0x20A4 DUP3 PUSH2 0x2043 JUMP JUMPDEST SWAP4 SWAP3 POP POP POP JUMP JUMPDEST PUSH1 0x0 DUP1 PUSH1 0x0 PUSH1 0x60 DUP5 DUP7 SUB SLT ISZERO PUSH2 0x20C0 JUMPI PUSH1 0x0 DUP1 REVERT JUMPDEST PUSH2 0x20C9 DUP5 PUSH2 0x2043 JUMP JUMPDEST SWAP3 POP PUSH2 0x20D7 PUSH1 0x20 DUP6 ADD PUSH2 0x2043 JUMP JUMPDEST SWAP2 POP PUSH1 0x40 DUP5 ADD CALLDATALOAD SWAP1 POP SWAP3 POP SWAP3 POP SWAP3 JUMP JUMPDEST PUSH1 0x0 PUSH1 0x20 DUP3 DUP5 SUB SLT ISZERO PUSH2 0x20F9 JUMPI PUSH1 0x0 DUP1 REVERT JUMPDEST POP CALLDATALOAD SWAP2 SWAP1 POP JUMP JUMPDEST PUSH1 0x0 PUSH1 0x20 DUP3 DUP5 SUB SLT ISZERO PUSH2 0x2112 JUMPI PUSH1 0x0 DUP1 REVERT JUMPDEST DUP2 CALLDATALOAD PUSH1 0xFF DUP2 AND DUP2 EQ PUSH2 0x20A4 JUMPI PUSH1 0x0 DUP1 REVERT JUMPDEST PUSH1 0x0 DUP1 PUSH1 0x40 DUP4 DUP6 SUB SLT ISZERO PUSH2 0x2136 JUMPI PUSH1 0x0 DUP1 REVERT JUMPDEST PUSH2 0x213F DUP4 PUSH2 0x2043 JUMP JUMPDEST SWAP2 POP PUSH2 0x214D PUSH1 0x20 DUP5 ADD PUSH2 0x2043 JUMP JUMPDEST SWAP1 POP SWAP3 POP SWAP3 SWAP1 POP JUMP JUMPDEST PUSH1 0x1 DUP2 DUP2 SHR SWAP1 DUP3 AND DUP1 PUSH2 0x216A JUMPI PUSH1 0x7F DUP3 AND SWAP2 POP JUMPDEST PUSH1 0x20 DUP3 LT DUP2 SUB PUSH2 0x218A JUMPI PUSH4 0x4E487B71 PUSH1 0xE0 SHL PUSH1 0x0 MSTORE PUSH1 0x22 PUSH1 0x4 MSTORE PUSH1 0x24 PUSH1 0x0 REVERT JUMPDEST POP SWAP2 SWAP1 POP JUMP JUMPDEST PUSH1 0x0 PUSH1 0x20 DUP3 DUP5 SUB SLT ISZERO PUSH2 0x21A2 JUMPI PUSH1 0x0 DUP1 REVERT JUMPDEST POP MLOAD SWAP2 SWAP1 POP JUMP JUMPDEST PUSH4 0x4E487B71 PUSH1 0xE0 SHL PUSH1 0x0 MSTORE PUSH1 0x11 PUSH1 0x4 MSTORE PUSH1 0x24 PUSH1 0x0 REVERT JUMPDEST DUP1 DUP3 MUL DUP2 ISZERO DUP3 DUP3 DIV DUP5 EQ OR PUSH2 0x68F JUMPI PUSH2 0x68F PUSH2 0x21A9 JUMP JUMPDEST PUSH1 0x0 DUP3 PUSH2 0x21F3 JUMPI PUSH4 0x4E487B71 PUSH1 0xE0 SHL PUSH1 0x0 MSTORE PUSH1 0x12 PUSH1 0x4 MSTORE PUSH1 0x24 PUSH1 0x0 REVERT JUMPDEST POP DIV SWAP1 JUMP JUMPDEST PUSH1 0x1 PUSH1 0x1 PUSH1 0xA0 SHL SUB SWAP3 SWAP1 SWAP3 AND DUP3 MSTORE PUSH1 0x20 DUP3 ADD MSTORE PUSH1 0x40 ADD SWAP1 JUMP JUMPDEST DUP1 MLOAD DUP1 ISZERO ISZERO DUP2 EQ PUSH2 0x205A JUMPI PUSH1 0x0 DUP1 REVERT JUMPDEST PUSH1 0x0 PUSH1 0x20 DUP3 DUP5 SUB SLT ISZERO PUSH2 0x2233 JUMPI PUSH1 0x0 DUP1 REVERT JUMPDEST PUSH2 0x20A4 DUP3 PUSH2 0x2211 JUMP JUMPDEST DUP1 DUP3 ADD DUP1 DUP3 GT ISZERO PUSH2 0x68F JUMPI PUSH2 0x68F PUSH2 0x21A9 JUMP JUMPDEST DUP2 DUP2 SUB DUP2 DUP2 GT ISZERO PUSH2 0x68F JUMPI PUSH2 0x68F PUSH2 0x21A9 JUMP JUMPDEST PUSH1 0x1 PUSH1 0x1 PUSH1 0xA0 SHL SUB SWAP5 DUP6 AND DUP2 MSTORE SWAP3 DUP5 AND PUSH1 0x20 DUP5 ADD MSTORE SWAP3 AND PUSH1 0x40 DUP3 ADD MSTORE SWAP1 ISZERO ISZERO PUSH1 0x60 DUP3 ADD MSTORE PUSH1 0x80 ADD SWAP1 JUMP JUMPDEST PUSH1 0x0 DUP1 PUSH1 0x0 DUP1 PUSH1 0x0 DUP1 PUSH1 0x0 DUP1 PUSH2 0x100 DUP10 DUP12 SUB SLT ISZERO PUSH2 0x22A9 JUMPI PUSH1 0x0 DUP1 REVERT JUMPDEST DUP9 MLOAD SWAP8 POP PUSH1 0x20 DUP10 ADD MLOAD SWAP7 POP PUSH1 0x40 DUP10 ADD MLOAD SWAP6 POP PUSH1 0x60 DUP10 ADD MLOAD SWAP5 POP PUSH1 0x80 DUP10 ADD MLOAD SWAP4 POP PUSH1 0xA0 DUP10 ADD MLOAD SWAP3 POP PUSH2 0x22DC PUSH1 0xC0 DUP11 ADD PUSH2 0x2211 JUMP JUMPDEST SWAP2 POP PUSH1 0xE0 DUP10 ADD MLOAD SWAP1 POP SWAP3 SWAP6 SWAP9 POP SWAP3 SWAP6 SWAP9 SWAP1 SWAP4 SWAP7 POP JUMP JUMPDEST PUSH1 0x0 DUP1 PUSH1 0x40 DUP4 DUP6 SUB SLT ISZERO PUSH2 0x2305 JUMPI PUSH1 0x0 DUP1 REVERT JUMPDEST PUSH2 0x230E DUP4 PUSH2 0x2211 JUMP JUMPDEST SWAP2 POP PUSH1 0x20 DUP4 ADD MLOAD SWAP1 POP SWAP3 POP SWAP3 SWAP1 POP JUMP INVALID 0xDD CALLCODE MSTORE 0xAD SHL 0xE2 0xC8 SWAP12 PUSH10 0xC2B068FC378DAA952BA7 CALL PUSH4 0xC4A11628 CREATE2 GAS 0x4D CREATE2 0x23 0xB3 0xEF LOG2 PUSH5 0x6970667358 0x22 SLT KECCAK256 SELFBALANCE 0xB8 0xC6 DUP15 SDIV EXTCODECOPY SIGNEXTEND ADD LOG3 PUSH24 0xD9DBFB08D147C5437F7B11C6444C87789E45468E78F16473 PUSH16 0x6C634300081100330000000000000000 "},"gasEstimates":{"creation":{"codeDepositCost":"1815200","executionCost":"infinite","totalCost":"infinite"},"external":{"GMX_controller()":"2516","USDC()":"2428","WETH()":"2405","acceptToken(address)":"30201","allowance(address,address)":"infinite","approve(address,uint256)":"24674","balanceOf(address)":"2560","decimals()":"268","decreaseAllowance(address,uint256)":"27150","deposit(address,uint256)":"infinite","exposition()":"2447","getExposition()":"2439","getGMX_controller()":"2368","getNetAssetValue()":"2491","gmxVault()":"2449","increaseAllowance(address,uint256)":"infinite","isAccepted(address)":"2703","liquidateLongPositions()":"infinite","liquidateShortPositions()":"infinite","name()":"infinite","netAssetValue()":"2472","openPosition()":"infinite","owner()":"2466","removeToken(address)":"30280","renounceOwnership()":"infinite","setExposition(uint8)":"30677","setGMX_controller(address)":"26825","symbol()":"infinite","tokenAccepted(address)":"2597","totalSupply()":"2393","transfer(address,uint256)":"infinite","transferFrom(address,address,uint256)":"infinite","transferOwnership(address)":"28531","updateNetAssetValue()":"infinite","withdraw(uint256)":"infinite"},"internal":{"_updateNAV()":"infinite"}},"methodIdentifiers":{"GMX_controller()":"9ecbfa42","USDC()":"89a30271","WETH()":"ad5c4648","acceptToken(address)":"8cd3f064","allowance(address,address)":"dd62ed3e","approve(address,uint256)":"095ea7b3","balanceOf(address)":"70a08231","decimals()":"313ce567","decreaseAllowance(address,uint256)":"a457c2d7","deposit(address,uint256)":"47e7ef24","exposition()":"1cd2f7c8","getExposition()":"de9257cd","getGMX_controller()":"0677a2a5","getNetAssetValue()":"6639a81d","gmxVault()":"b3b3453e","increaseAllowance(address,uint256)":"39509351","isAccepted(address)":"e6f091f9","liquidateLongPositions()":"28250e0d","liquidateShortPositions()":"3027ac22","name()":"06fdde03","netAssetValue()":"a3673b38","openPosition()":"350245c2","owner()":"8da5cb5b","removeToken(address)":"5fa7b584","renounceOwnership()":"715018a6","setExposition(uint8)":"481d6ee9","setGMX_controller(address)":"11af7d95","symbol()":"95d89b41","tokenAccepted(address)":"aedf795e","totalSupply()":"18160ddd","transfer(address,uint256)":"a9059cbb","transferFrom(address,address,uint256)":"23b872dd","transferOwnership(address)":"f2fde38b","updateNetAssetValue()":"ed61f4a1","withdraw(uint256)":"2e1a7d4d"}},"storageLayout":{"storage":[{"astId":2447,"contract":"contracts/MyVault.sol:MyVault","label":"_owner","offset":0,"slot":"0","type":"t_address"},{"astId":2700,"contract":"contracts/MyVault.sol:MyVault","label":"_balances","offset":0,"slot":"1","type":"t_mapping(t_address,t_uint256)"},{"astId":2706,"contract":"contracts/MyVault.sol:MyVault","label":"_allowances","offset":0,"slot":"2","type":"t_mapping(t_address,t_mapping(t_address,t_uint256))"},{"astId":2708,"contract":"contracts/MyVault.sol:MyVault","label":"_totalSupply","offset":0,"slot":"3","type":"t_uint256"},{"astId":2710,"contract":"contracts/MyVault.sol:MyVault","label":"_name","offset":0,"slot":"4","type":"t_string_storage"},{"astId":2712,"contract":"contracts/MyVault.sol:MyVault","label":"_symbol","offset":0,"slot":"5","type":"t_string_storage"},{"astId":2641,"contract":"contracts/MyVault.sol:MyVault","label":"_status","offset":0,"slot":"6","type":"t_uint256"},{"astId":1696,"contract":"contracts/MyVault.sol:MyVault","label":"GMX_controller","offset":0,"slot":"7","type":"t_address"},{"astId":1699,"contract":"contracts/MyVault.sol:MyVault","label":"WETH","offset":0,"slot":"8","type":"t_address"},{"astId":1702,"contract":"contracts/MyVault.sol:MyVault","label":"USDC","offset":0,"slot":"9","type":"t_address"},{"astId":1705,"contract":"contracts/MyVault.sol:MyVault","label":"gmxVault","offset":0,"slot":"10","type":"t_address"},{"astId":1707,"contract":"contracts/MyVault.sol:MyVault","label":"netAssetValue","offset":0,"slot":"11","type":"t_uint256"},{"astId":1709,"contract":"contracts/MyVault.sol:MyVault","label":"exposition","offset":0,"slot":"12","type":"t_uint8"},{"astId":1713,"contract":"contracts/MyVault.sol:MyVault","label":"tokenAccepted","offset":0,"slot":"13","type":"t_mapping(t_address,t_bool)"}],"types":{"t_address":{"encoding":"inplace","label":"address","numberOfBytes":"20"},"t_bool":{"encoding":"inplace","label":"bool","numberOfBytes":"1"},"t_mapping(t_address,t_bool)":{"encoding":"mapping","key":"t_address","label":"mapping(address => bool)","numberOfBytes":"32","value":"t_bool"},"t_mapping(t_address,t_mapping(t_address,t_uint256))":{"encoding":"mapping","key":"t_address","label":"mapping(address => mapping(address => uint256))","numberOfBytes":"32","value":"t_mapping(t_address,t_uint256)"},"t_mapping(t_address,t_uint256)":{"encoding":"mapping","key":"t_address","label":"mapping(address => uint256)","numberOfBytes":"32","value":"t_uint256"},"t_string_storage":{"encoding":"bytes","label":"string","numberOfBytes":"32"},"t_uint256":{"encoding":"inplace","label":"uint256","numberOfBytes":"32"},"t_uint8":{"encoding":"inplace","label":"uint8","numberOfBytes":"1"}}},"userdoc":{"kind":"user","methods":{"acceptToken(address)":{"notice":"whitelist the token accepted in the vault, allow a better control"},"deposit(address,uint256)":{"notice":"Function that handles the deposit of fund in USDC and sent back PLP token "},"setExposition(uint8)":{"notice":"function that sets the exposition of the contract (Long Short or Neutral and rebalance assets accordingly)"},"setGMX_controller(address)":{"notice":"function that sets the exposition of the contract (Long Short or Neutral and rebalance assets accordingly)"},"withdraw(uint256)":{"notice":"Function to withdraw funds from the vaultFunction that handles the withdraw of fund"}},"notice":"It works as a fund manager, send token as shares of the vault according to the value in it, send back USDC when token are given back","version":1}}}}