{"contracts/GMX_controller.sol":{"GMX_controller":{"abi":[{"inputs":[{"internalType":"address","name":"_vault","type":"address"}],"stateMutability":"nonpayable","type":"constructor"},{"anonymous":false,"inputs":[{"indexed":true,"internalType":"address","name":"previousOwner","type":"address"},{"indexed":true,"internalType":"address","name":"newOwner","type":"address"}],"name":"OwnershipTransferred","type":"event"},{"inputs":[],"name":"GMXexecutionFee","outputs":[{"internalType":"uint256","name":"","type":"uint256"}],"stateMutability":"view","type":"function"},{"inputs":[],"name":"USDC","outputs":[{"internalType":"address","name":"","type":"address"}],"stateMutability":"view","type":"function"},{"inputs":[],"name":"WETH","outputs":[{"internalType":"address","name":"","type":"address"}],"stateMutability":"view","type":"function"},{"inputs":[{"internalType":"address","name":"_to","type":"address"},{"internalType":"uint256","name":"tokenAmount","type":"uint256"},{"internalType":"bool","name":"isLong","type":"bool"}],"name":"decreasePosition","outputs":[],"stateMutability":"payable","type":"function"},{"inputs":[],"name":"getGMXexecutionFees","outputs":[{"internalType":"uint256","name":"","type":"uint256"}],"stateMutability":"view","type":"function"},{"inputs":[],"name":"getVaultOwner","outputs":[{"internalType":"address","name":"","type":"address"}],"stateMutability":"view","type":"function"},{"inputs":[],"name":"gmxPositionRouter","outputs":[{"internalType":"address","name":"","type":"address"}],"stateMutability":"view","type":"function"},{"inputs":[],"name":"gmxRouter","outputs":[{"internalType":"address","name":"","type":"address"}],"stateMutability":"view","type":"function"},{"inputs":[],"name":"gmxVault","outputs":[{"internalType":"address","name":"","type":"address"}],"stateMutability":"view","type":"function"},{"inputs":[{"internalType":"uint256","name":"tokenAmount","type":"uint256"},{"internalType":"bool","name":"isLong","type":"bool"}],"name":"increasePosition","outputs":[],"stateMutability":"payable","type":"function"},{"inputs":[{"internalType":"bool","name":"isLong","type":"bool"}],"name":"liquidatePosition","outputs":[],"stateMutability":"payable","type":"function"},{"inputs":[],"name":"owner","outputs":[{"internalType":"address","name":"","type":"address"}],"stateMutability":"view","type":"function"},{"inputs":[],"name":"renounceOwnership","outputs":[],"stateMutability":"nonpayable","type":"function"},{"inputs":[{"internalType":"uint256","name":"_newFees","type":"uint256"}],"name":"setGMXexecutionFees","outputs":[],"stateMutability":"nonpayable","type":"function"},{"inputs":[{"internalType":"address","name":"_addr","type":"address"}],"name":"setVaultOwner","outputs":[],"stateMutability":"nonpayable","type":"function"},{"inputs":[{"internalType":"address","name":"newOwner","type":"address"}],"name":"transferOwnership","outputs":[],"stateMutability":"nonpayable","type":"function"},{"inputs":[],"name":"vault","outputs":[{"internalType":"address","name":"","type":"address"}],"stateMutability":"view","type":"function"}],"devdoc":{"author":"Victor Gillibert","custom:experimental":"This is an experimental contract.","details":"Improvement to do :Allow not only USDC and create functions to handle tokens authorized Allow to modify leverage See if oracle price works better on mainnet","kind":"dev","methods":{"decreasePosition(address,uint256,bool)":{"details":"USDC only -> see if on public net better to use oracle -> // (,int price,,,) = AggregatorV3Interface(0x5f4eC3Df9cbd43714FE2740f5E3616155c5b8419).latestRoundData();","params":{"_to":"receiver of the funds ","isLong":"true for Long, False for Short","tokenAmount":"amount to withdraw in USDC [10**6]"}},"increasePosition(uint256,bool)":{"details":"USDC only -> see if on public net better to use oracle -> // (,int price,,,) = AggregatorV3Interface(0x5f4eC3Df9cbd43714FE2740f5E3616155c5b8419).latestRoundData();","params":{"isLong":"true for Long, False for Short","tokenAmount":"amount to withdraw in USDC [10**6]"}},"liquidatePosition(bool)":{"details":"USDC only -> see if on public net better to use oracle -> // (,int price,,,) = AggregatorV3Interface(0x5f4eC3Df9cbd43714FE2740f5E3616155c5b8419).latestRoundData();","params":{"isLong":"true for Long, False for Short"}},"owner()":{"details":"Returns the address of the current owner."},"renounceOwnership()":{"details":"Leaves the contract without owner. It will not be possible to call `onlyOwner` functions anymore. Can only be called by the current owner. NOTE: Renouncing ownership will leave the contract without an owner, thereby removing any functionality that is only available to the owner."},"transferOwnership(address)":{"details":"Transfers ownership of the contract to a new account (`newOwner`). Can only be called by the current owner."}},"title":"Contract controlled by the vault that interacts with GMX perpetual exchange on Arbitrum network ","version":1},"evm":{"bytecode":{"linkReferences":{},"object":"6080604052600180546001600160a01b031990811673489ee077994b6658eafa855c308275ead8097c4a1790915560028054821673abbc5f99639c9b6bcb58544ddf04efa6802f406417905560038054821673b87a436b93ffe9d75c5cfa7bacfff96430b098681790556004805482167382af49447d8a07e3bd95bd0d56f35241523fbab11790556005805490911673ff970a61a04b1ca14834a43f5de4533ebddb5cc8179055348015620000b357600080fd5b506040516200163738038062001637833981016040819052620000d69162000230565b620000e133620001e0565b600780546001600160a01b0319166001600160a01b03838116919091179091556002546003546040516338c74dd960e01b815290831660048201529116906338c74dd990602401600060405180830381600087803b1580156200014357600080fd5b505af115801562000158573d6000803e3d6000fd5b50505050600360009054906101000a90046001600160a01b03166001600160a01b03166363ae21036040518163ffffffff1660e01b8152600401602060405180830381865afa158015620001b0573d6000803e3d6000fd5b505050506040513d601f19601f82011682018060405250810190620001d6919062000262565b600655506200027c565b600080546001600160a01b038381166001600160a01b0319831681178455604051919092169283917f8be0079c531659141344cd1fd0a4f28419497f9722a3daafe3b4186f6b6457e09190a35050565b6000602082840312156200024357600080fd5b81516001600160a01b03811681146200025b57600080fd5b9392505050565b6000602082840312156200027557600080fd5b5051919050565b6113ab806200028c6000396000f3fe6080604052600436106100de5760003560e01c806389a302711161008557806389a30271146101c75780638da5cb5b146101e7578063a44ca34614610205578063ad5c464814610223578063b3b3453e14610243578063c5dac33b14610263578063c657e7c214610276578063f2fde38b14610296578063fbfa77cf146102b657600080fd5b80631c5ecc06146100e35780632c908916146100f8578063434c0c751461011c578063634e318014610132578063715018a61461015f57806379db7ef1146101745780637cb175971461019457806380b3631c146101a7575b600080fd5b6100f66100f136600461100b565b6102d6565b005b34801561010457600080fd5b506006545b6040519081526020015b60405180910390f35b34801561012857600080fd5b5061010960065481565b34801561013e57600080fd5b50600254610152906001600160a01b031681565b604051610113919061103b565b34801561016b57600080fd5b506100f661074b565b34801561018057600080fd5b506100f661018f36600461104f565b61075f565b6100f66101a2366004611068565b61076c565b3480156101b357600080fd5b506100f66101c23660046110a8565b610b23565b3480156101d357600080fd5b50600554610152906001600160a01b031681565b3480156101f357600080fd5b506000546001600160a01b0316610152565b34801561021157600080fd5b506007546001600160a01b0316610152565b34801561022f57600080fd5b50600454610152906001600160a01b031681565b34801561024f57600080fd5b50600154610152906001600160a01b031681565b6100f66102713660046110c3565b610b4d565b34801561028257600080fd5b50600354610152906001600160a01b031681565b3480156102a257600080fd5b506100f66102b13660046110a8565b610eda565b3480156102c257600080fd5b50600754610152906001600160a01b031681565b6007546001600160a01b031633146103095760405162461bcd60e51b815260040161030090611103565b60405180910390fd5b6005546007546040516323b872dd60e01b81526001600160a01b039182166004820152306024820152604481018590529116906323b872dd906064016020604051808303816000875af1158015610364573d6000803e3d6000fd5b505050506040513d601f19601f820116820180604052508101906103889190611126565b5060055460025460405163095ea7b360e01b81526001600160a01b0391821660048201526024810185905291169063095ea7b3906044016020604051808303816000875af11580156103de573d6000803e3d6000fd5b505050506040513d601f19601f820116820180604052508101906104029190611126565b506000606461041b8469d3c21bcecceda1000000611143565b61042690606e611143565b610430919061116e565b9050600082156105e457604080516002808252606082018352600092602083019080368337505060055482519293506001600160a01b03169183915060009061047b5761047b611190565b6001600160a01b0392831660209182029290920101526004548251911690829060019081106104ac576104ac611190565b6001600160a01b03928316602091820292909201015260015460048054604051637092736960e11b8152612710949384169363e124e6d2936104f293909116910161103b565b602060405180830381865afa15801561050f573d6000803e3d6000fd5b505050506040513d601f19601f8201168201806040525081019061053391906111a6565b61053f9061272e611143565b610549919061116e565b6003546004805460065460405163f2ae372f60e01b81529496506001600160a01b039384169463f2ae372f9434946105ac9489949216928d926000928d928f928e929091716d79726566657272616c4d6176696e69676960701b91879101611203565b6000604051808303818588803b1580156105c557600080fd5b505af11580156105d9573d6000803e3d6000fd5b505050505050610745565b60408051600180825281830190925260009160208083019080368337505060055482519293506001600160a01b03169183915060009061062657610626611190565b6001600160a01b039283166020918202929092010152600154600480546040516340d3096b60e11b815261271094938416936381a612d69361066c93909116910161103b565b602060405180830381865afa158015610689573d6000803e3d6000fd5b505050506040513d601f19601f820116820180604052508101906106ad91906111a6565b6106b9906126f2611143565b6106c3919061116e565b6003546004805460065460405163f2ae372f60e01b81529496506001600160a01b039384169463f2ae372f9434946107119489949216928d926000928d928f928e9290918691829101611203565b6000604051808303818588803b15801561072a57600080fd5b505af115801561073e573d6000803e3d6000fd5b5050505050505b50505050565b610753610f53565b61075d6000610fad565b565b610767610f53565b600655565b6007546001600160a01b031633146107965760405162461bcd60e51b815260040161030090611103565b600081156109bd57604080516002808252606082018352600092602083019080368337505060045482519293506001600160a01b0316918391506000906107df576107df611190565b6001600160a01b03928316602091820292909201015260055482519116908290600190811061081057610810611190565b6001600160a01b03928316602091820292909201015260015460048054604051634a3f088d60e01b815260009493841693634a3f088d9361085a93309392169182918b910161126e565b610100604051808303816000875af115801561087a573d6000803e3d6000fd5b505050506040513d601f19601f8201168201806040525081019061089e9190611298565b5050600154600480546040516340d3096b60e11b8152989950612710986001600160a01b0393841698506381a612d697506108e096509216935001905061103b565b602060405180830381865afa1580156108fd573d6000803e3d6000fd5b505050506040513d601f19601f8201168201806040525081019061092191906111a6565b61092d906126f2611143565b610937919061116e565b60035460048054600654604051637be7d14160e01b81529497506001600160a01b0393841694637be7d141943494610985948a949216926000928a928e9233928f9287928391829101611302565b6000604051808303818588803b15801561099e57600080fd5b505af11580156109b2573d6000803e3d6000fd5b505050505050505050565b60408051600180825281830190925260009160208083019080368337505060055482519293506001600160a01b0316918391506000906109ff576109ff611190565b6001600160a01b03928316602091820292909201015260015460055460048054604051634a3f088d60e01b815260009594851694634a3f088d94610a509430949183169391909216918b910161126e565b610100604051808303816000875af1158015610a70573d6000803e3d6000fd5b505050506040513d601f19601f82011682018060405250810190610a949190611298565b505060015460048054604051637092736960e11b8152989950612710986001600160a01b03938416985063e124e6d29750610ad696509216935001905061103b565b602060405180830381865afa158015610af3573d6000803e3d6000fd5b505050506040513d601f19601f82011682018060405250810190610b1791906111a6565b61092d9061272e611143565b610b2b610f53565b600780546001600160a01b0319166001600160a01b0392909216919091179055565b6007546001600160a01b03163314610b775760405162461bcd60e51b815260040161030090611103565b6000806064610b908569d3c21bcecceda1000000611143565b610b9b90606e611143565b610ba5919061116e565b90508215610d5a57604080516002808252606082018352600092602083019080368337505060045482519293506001600160a01b031691839150600090610bee57610bee611190565b6001600160a01b039283166020918202929092010152600554825191169082906001908110610c1f57610c1f611190565b6001600160a01b039283166020918202929092010152600154600480546040516340d3096b60e11b815261271094938416936381a612d693610c6593909116910161103b565b602060405180830381865afa158015610c82573d6000803e3d6000fd5b505050506040513d601f19601f82011682018060405250810190610ca691906111a6565b610cb2906126f2611143565b610cbc919061116e565b6003546004549194506001600160a01b0390811691637be7d141913491859116610cf08a69d3c21bcecceda1000000611143565b878a8d8b60006006546000806040518d63ffffffff1660e01b8152600401610d229b9a99989796959493929190611302565b6000604051808303818588803b158015610d3b57600080fd5b505af1158015610d4f573d6000803e3d6000fd5b505050505050610ed3565b60408051600180825281830190925260009160208083019080368337505060055482519293506001600160a01b031691839150600090610d9c57610d9c611190565b6001600160a01b03928316602091820292909201015260015460048054604051637092736960e11b8152612710949384169363e124e6d293610de293909116910161103b565b602060405180830381865afa158015610dff573d6000803e3d6000fd5b505050506040513d601f19601f82011682018060405250810190610e2391906111a6565b610e2f9061272e611143565b610e39919061116e565b6003546004549194506001600160a01b0390811691637be7d141913491859116610e6d8a69d3c21bcecceda1000000611143565b878a8d8b60006006546000806040518d63ffffffff1660e01b8152600401610e9f9b9a99989796959493929190611302565b6000604051808303818588803b158015610eb857600080fd5b505af1158015610ecc573d6000803e3d6000fd5b5050505050505b5050505050565b610ee2610f53565b6001600160a01b038116610f475760405162461bcd60e51b815260206004820152602660248201527f4f776e61626c653a206e6577206f776e657220697320746865207a65726f206160448201526564647265737360d01b6064820152608401610300565b610f5081610fad565b50565b6000546001600160a01b0316331461075d5760405162461bcd60e51b815260206004820181905260248201527f4f776e61626c653a2063616c6c6572206973206e6f7420746865206f776e65726044820152606401610300565b600080546001600160a01b038381166001600160a01b0319831681178455604051919092169283917f8be0079c531659141344cd1fd0a4f28419497f9722a3daafe3b4186f6b6457e09190a35050565b8015158114610f5057600080fd5b6000806040838503121561101e57600080fd5b82359150602083013561103081610ffd565b809150509250929050565b6001600160a01b0391909116815260200190565b60006020828403121561106157600080fd5b5035919050565b60006020828403121561107a57600080fd5b813561108581610ffd565b9392505050565b80356001600160a01b03811681146110a357600080fd5b919050565b6000602082840312156110ba57600080fd5b6110858261108c565b6000806000606084860312156110d857600080fd5b6110e18461108c565b92506020840135915060408401356110f881610ffd565b809150509250925092565b602080825260099082015268139bdd081d985d5b1d60ba1b604082015260600190565b60006020828403121561113857600080fd5b815161108581610ffd565b808202811582820484141761116857634e487b7160e01b600052601160045260246000fd5b92915050565b60008261118b57634e487b7160e01b600052601260045260246000fd5b500490565b634e487b7160e01b600052603260045260246000fd5b6000602082840312156111b857600080fd5b5051919050565b600081518084526020808501945080840160005b838110156111f85781516001600160a01b0316875295820195908201906001016111d3565b509495945050505050565b60006101408083526112178184018e6111bf565b6001600160a01b039c8d166020850152604084019b909b5250506060810197909752608087019590955292151560a086015260c085019190915260e084015261010083015290921661012090920191909152919050565b6001600160a01b039485168152928416602084015292166040820152901515606082015260800190565b600080600080600080600080610100898b0312156112b557600080fd5b885197506020890151965060408901519550606089015194506080890151935060a0890151925060c08901516112ea81610ffd565b8092505060e089015190509295985092959890939650565b60006101608083526113168184018f6111bf565b6001600160a01b039d8e166020850152604084019c909c5250506060810198909852951515608088015293881660a087015260c086019290925260e085015261010084015215156101208301529092166101409092019190915291905056fea2646970667358221220b9639155ef009ec2069a56a6030373215034f15cf89e2f9b99ebead0db4a9d9564736f6c63430008110033","opcodes":"PUSH1 0x80 PUSH1 0x40 MSTORE PUSH1 0x1 DUP1 SLOAD PUSH1 0x1 PUSH1 0x1 PUSH1 0xA0 SHL SUB NOT SWAP1 DUP2 AND PUSH20 0x489EE077994B6658EAFA855C308275EAD8097C4A OR SWAP1 SWAP2 SSTORE PUSH1 0x2 DUP1 SLOAD DUP3 AND PUSH20 0xABBC5F99639C9B6BCB58544DDF04EFA6802F4064 OR SWAP1 SSTORE PUSH1 0x3 DUP1 SLOAD DUP3 AND PUSH20 0xB87A436B93FFE9D75C5CFA7BACFFF96430B09868 OR SWAP1 SSTORE PUSH1 0x4 DUP1 SLOAD DUP3 AND PUSH20 0x82AF49447D8A07E3BD95BD0D56F35241523FBAB1 OR SWAP1 SSTORE PUSH1 0x5 DUP1 SLOAD SWAP1 SWAP2 AND PUSH20 0xFF970A61A04B1CA14834A43F5DE4533EBDDB5CC8 OR SWAP1 SSTORE CALLVALUE DUP1 ISZERO PUSH3 0xB3 JUMPI PUSH1 0x0 DUP1 REVERT JUMPDEST POP PUSH1 0x40 MLOAD PUSH3 0x1637 CODESIZE SUB DUP1 PUSH3 0x1637 DUP4 CODECOPY DUP2 ADD PUSH1 0x40 DUP2 SWAP1 MSTORE PUSH3 0xD6 SWAP2 PUSH3 0x230 JUMP JUMPDEST PUSH3 0xE1 CALLER PUSH3 0x1E0 JUMP JUMPDEST PUSH1 0x7 DUP1 SLOAD PUSH1 0x1 PUSH1 0x1 PUSH1 0xA0 SHL SUB NOT AND PUSH1 0x1 PUSH1 0x1 PUSH1 0xA0 SHL SUB DUP4 DUP2 AND SWAP2 SWAP1 SWAP2 OR SWAP1 SWAP2 SSTORE PUSH1 0x2 SLOAD PUSH1 0x3 SLOAD PUSH1 0x40 MLOAD PUSH4 0x38C74DD9 PUSH1 0xE0 SHL DUP2 MSTORE SWAP1 DUP4 AND PUSH1 0x4 DUP3 ADD MSTORE SWAP2 AND SWAP1 PUSH4 0x38C74DD9 SWAP1 PUSH1 0x24 ADD PUSH1 0x0 PUSH1 0x40 MLOAD DUP1 DUP4 SUB DUP2 PUSH1 0x0 DUP8 DUP1 EXTCODESIZE ISZERO DUP1 ISZERO PUSH3 0x143 JUMPI PUSH1 0x0 DUP1 REVERT JUMPDEST POP GAS CALL ISZERO DUP1 ISZERO PUSH3 0x158 JUMPI RETURNDATASIZE PUSH1 0x0 DUP1 RETURNDATACOPY RETURNDATASIZE PUSH1 0x0 REVERT JUMPDEST POP POP POP POP PUSH1 0x3 PUSH1 0x0 SWAP1 SLOAD SWAP1 PUSH2 0x100 EXP SWAP1 DIV PUSH1 0x1 PUSH1 0x1 PUSH1 0xA0 SHL SUB AND PUSH1 0x1 PUSH1 0x1 PUSH1 0xA0 SHL SUB AND PUSH4 0x63AE2103 PUSH1 0x40 MLOAD DUP2 PUSH4 0xFFFFFFFF AND PUSH1 0xE0 SHL DUP2 MSTORE PUSH1 0x4 ADD PUSH1 0x20 PUSH1 0x40 MLOAD DUP1 DUP4 SUB DUP2 DUP7 GAS STATICCALL ISZERO DUP1 ISZERO PUSH3 0x1B0 JUMPI RETURNDATASIZE PUSH1 0x0 DUP1 RETURNDATACOPY RETURNDATASIZE PUSH1 0x0 REVERT JUMPDEST POP POP POP POP PUSH1 0x40 MLOAD RETURNDATASIZE PUSH1 0x1F NOT PUSH1 0x1F DUP3 ADD AND DUP3 ADD DUP1 PUSH1 0x40 MSTORE POP DUP2 ADD SWAP1 PUSH3 0x1D6 SWAP2 SWAP1 PUSH3 0x262 JUMP JUMPDEST PUSH1 0x6 SSTORE POP PUSH3 0x27C JUMP JUMPDEST PUSH1 0x0 DUP1 SLOAD PUSH1 0x1 PUSH1 0x1 PUSH1 0xA0 SHL SUB DUP4 DUP2 AND PUSH1 0x1 PUSH1 0x1 PUSH1 0xA0 SHL SUB NOT DUP4 AND DUP2 OR DUP5 SSTORE PUSH1 0x40 MLOAD SWAP2 SWAP1 SWAP3 AND SWAP3 DUP4 SWAP2 PUSH32 0x8BE0079C531659141344CD1FD0A4F28419497F9722A3DAAFE3B4186F6B6457E0 SWAP2 SWAP1 LOG3 POP POP JUMP JUMPDEST PUSH1 0x0 PUSH1 0x20 DUP3 DUP5 SUB SLT ISZERO PUSH3 0x243 JUMPI PUSH1 0x0 DUP1 REVERT JUMPDEST DUP2 MLOAD PUSH1 0x1 PUSH1 0x1 PUSH1 0xA0 SHL SUB DUP2 AND DUP2 EQ PUSH3 0x25B JUMPI PUSH1 0x0 DUP1 REVERT JUMPDEST SWAP4 SWAP3 POP POP POP JUMP JUMPDEST PUSH1 0x0 PUSH1 0x20 DUP3 DUP5 SUB SLT ISZERO PUSH3 0x275 JUMPI PUSH1 0x0 DUP1 REVERT JUMPDEST POP MLOAD SWAP2 SWAP1 POP JUMP JUMPDEST PUSH2 0x13AB DUP1 PUSH3 0x28C PUSH1 0x0 CODECOPY PUSH1 0x0 RETURN INVALID PUSH1 0x80 PUSH1 0x40 MSTORE PUSH1 0x4 CALLDATASIZE LT PUSH2 0xDE JUMPI PUSH1 0x0 CALLDATALOAD PUSH1 0xE0 SHR DUP1 PUSH4 0x89A30271 GT PUSH2 0x85 JUMPI DUP1 PUSH4 0x89A30271 EQ PUSH2 0x1C7 JUMPI DUP1 PUSH4 0x8DA5CB5B EQ PUSH2 0x1E7 JUMPI DUP1 PUSH4 0xA44CA346 EQ PUSH2 0x205 JUMPI DUP1 PUSH4 0xAD5C4648 EQ PUSH2 0x223 JUMPI DUP1 PUSH4 0xB3B3453E EQ PUSH2 0x243 JUMPI DUP1 PUSH4 0xC5DAC33B EQ PUSH2 0x263 JUMPI DUP1 PUSH4 0xC657E7C2 EQ PUSH2 0x276 JUMPI DUP1 PUSH4 0xF2FDE38B EQ PUSH2 0x296 JUMPI DUP1 PUSH4 0xFBFA77CF EQ PUSH2 0x2B6 JUMPI PUSH1 0x0 DUP1 REVERT JUMPDEST DUP1 PUSH4 0x1C5ECC06 EQ PUSH2 0xE3 JUMPI DUP1 PUSH4 0x2C908916 EQ PUSH2 0xF8 JUMPI DUP1 PUSH4 0x434C0C75 EQ PUSH2 0x11C JUMPI DUP1 PUSH4 0x634E3180 EQ PUSH2 0x132 JUMPI DUP1 PUSH4 0x715018A6 EQ PUSH2 0x15F JUMPI DUP1 PUSH4 0x79DB7EF1 EQ PUSH2 0x174 JUMPI DUP1 PUSH4 0x7CB17597 EQ PUSH2 0x194 JUMPI DUP1 PUSH4 0x80B3631C EQ PUSH2 0x1A7 JUMPI JUMPDEST PUSH1 0x0 DUP1 REVERT JUMPDEST PUSH2 0xF6 PUSH2 0xF1 CALLDATASIZE PUSH1 0x4 PUSH2 0x100B JUMP JUMPDEST PUSH2 0x2D6 JUMP JUMPDEST STOP JUMPDEST CALLVALUE DUP1 ISZERO PUSH2 0x104 JUMPI PUSH1 0x0 DUP1 REVERT JUMPDEST POP PUSH1 0x6 SLOAD JUMPDEST PUSH1 0x40 MLOAD SWAP1 DUP2 MSTORE PUSH1 0x20 ADD JUMPDEST PUSH1 0x40 MLOAD DUP1 SWAP2 SUB SWAP1 RETURN JUMPDEST CALLVALUE DUP1 ISZERO PUSH2 0x128 JUMPI PUSH1 0x0 DUP1 REVERT JUMPDEST POP PUSH2 0x109 PUSH1 0x6 SLOAD DUP2 JUMP JUMPDEST CALLVALUE DUP1 ISZERO PUSH2 0x13E JUMPI PUSH1 0x0 DUP1 REVERT JUMPDEST POP PUSH1 0x2 SLOAD PUSH2 0x152 SWAP1 PUSH1 0x1 PUSH1 0x1 PUSH1 0xA0 SHL SUB AND DUP2 JUMP JUMPDEST PUSH1 0x40 MLOAD PUSH2 0x113 SWAP2 SWAP1 PUSH2 0x103B JUMP JUMPDEST CALLVALUE DUP1 ISZERO PUSH2 0x16B JUMPI PUSH1 0x0 DUP1 REVERT JUMPDEST POP PUSH2 0xF6 PUSH2 0x74B JUMP JUMPDEST CALLVALUE DUP1 ISZERO PUSH2 0x180 JUMPI PUSH1 0x0 DUP1 REVERT JUMPDEST POP PUSH2 0xF6 PUSH2 0x18F CALLDATASIZE PUSH1 0x4 PUSH2 0x104F JUMP JUMPDEST PUSH2 0x75F JUMP JUMPDEST PUSH2 0xF6 PUSH2 0x1A2 CALLDATASIZE PUSH1 0x4 PUSH2 0x1068 JUMP JUMPDEST PUSH2 0x76C JUMP JUMPDEST CALLVALUE DUP1 ISZERO PUSH2 0x1B3 JUMPI PUSH1 0x0 DUP1 REVERT JUMPDEST POP PUSH2 0xF6 PUSH2 0x1C2 CALLDATASIZE PUSH1 0x4 PUSH2 0x10A8 JUMP JUMPDEST PUSH2 0xB23 JUMP JUMPDEST CALLVALUE DUP1 ISZERO PUSH2 0x1D3 JUMPI PUSH1 0x0 DUP1 REVERT JUMPDEST POP PUSH1 0x5 SLOAD PUSH2 0x152 SWAP1 PUSH1 0x1 PUSH1 0x1 PUSH1 0xA0 SHL SUB AND DUP2 JUMP JUMPDEST CALLVALUE DUP1 ISZERO PUSH2 0x1F3 JUMPI PUSH1 0x0 DUP1 REVERT JUMPDEST POP PUSH1 0x0 SLOAD PUSH1 0x1 PUSH1 0x1 PUSH1 0xA0 SHL SUB AND PUSH2 0x152 JUMP JUMPDEST CALLVALUE DUP1 ISZERO PUSH2 0x211 JUMPI PUSH1 0x0 DUP1 REVERT JUMPDEST POP PUSH1 0x7 SLOAD PUSH1 0x1 PUSH1 0x1 PUSH1 0xA0 SHL SUB AND PUSH2 0x152 JUMP JUMPDEST CALLVALUE DUP1 ISZERO PUSH2 0x22F JUMPI PUSH1 0x0 DUP1 REVERT JUMPDEST POP PUSH1 0x4 SLOAD PUSH2 0x152 SWAP1 PUSH1 0x1 PUSH1 0x1 PUSH1 0xA0 SHL SUB AND DUP2 JUMP JUMPDEST CALLVALUE DUP1 ISZERO PUSH2 0x24F JUMPI PUSH1 0x0 DUP1 REVERT JUMPDEST POP PUSH1 0x1 SLOAD PUSH2 0x152 SWAP1 PUSH1 0x1 PUSH1 0x1 PUSH1 0xA0 SHL SUB AND DUP2 JUMP JUMPDEST PUSH2 0xF6 PUSH2 0x271 CALLDATASIZE PUSH1 0x4 PUSH2 0x10C3 JUMP JUMPDEST PUSH2 0xB4D JUMP JUMPDEST CALLVALUE DUP1 ISZERO PUSH2 0x282 JUMPI PUSH1 0x0 DUP1 REVERT JUMPDEST POP PUSH1 0x3 SLOAD PUSH2 0x152 SWAP1 PUSH1 0x1 PUSH1 0x1 PUSH1 0xA0 SHL SUB AND DUP2 JUMP JUMPDEST CALLVALUE DUP1 ISZERO PUSH2 0x2A2 JUMPI PUSH1 0x0 DUP1 REVERT JUMPDEST POP PUSH2 0xF6 PUSH2 0x2B1 CALLDATASIZE PUSH1 0x4 PUSH2 0x10A8 JUMP JUMPDEST PUSH2 0xEDA JUMP JUMPDEST CALLVALUE DUP1 ISZERO PUSH2 0x2C2 JUMPI PUSH1 0x0 DUP1 REVERT JUMPDEST POP PUSH1 0x7 SLOAD PUSH2 0x152 SWAP1 PUSH1 0x1 PUSH1 0x1 PUSH1 0xA0 SHL SUB AND DUP2 JUMP JUMPDEST PUSH1 0x7 SLOAD PUSH1 0x1 PUSH1 0x1 PUSH1 0xA0 SHL SUB AND CALLER EQ PUSH2 0x309 JUMPI PUSH1 0x40 MLOAD PUSH3 0x461BCD PUSH1 0xE5 SHL DUP2 MSTORE PUSH1 0x4 ADD PUSH2 0x300 SWAP1 PUSH2 0x1103 JUMP JUMPDEST PUSH1 0x40 MLOAD DUP1 SWAP2 SUB SWAP1 REVERT JUMPDEST PUSH1 0x5 SLOAD PUSH1 0x7 SLOAD PUSH1 0x40 MLOAD PUSH4 0x23B872DD PUSH1 0xE0 SHL DUP2 MSTORE PUSH1 0x1 PUSH1 0x1 PUSH1 0xA0 SHL SUB SWAP2 DUP3 AND PUSH1 0x4 DUP3 ADD MSTORE ADDRESS PUSH1 0x24 DUP3 ADD MSTORE PUSH1 0x44 DUP2 ADD DUP6 SWAP1 MSTORE SWAP2 AND SWAP1 PUSH4 0x23B872DD SWAP1 PUSH1 0x64 ADD PUSH1 0x20 PUSH1 0x40 MLOAD DUP1 DUP4 SUB DUP2 PUSH1 0x0 DUP8 GAS CALL ISZERO DUP1 ISZERO PUSH2 0x364 JUMPI RETURNDATASIZE PUSH1 0x0 DUP1 RETURNDATACOPY RETURNDATASIZE PUSH1 0x0 REVERT JUMPDEST POP POP POP POP PUSH1 0x40 MLOAD RETURNDATASIZE PUSH1 0x1F NOT PUSH1 0x1F DUP3 ADD AND DUP3 ADD DUP1 PUSH1 0x40 MSTORE POP DUP2 ADD SWAP1 PUSH2 0x388 SWAP2 SWAP1 PUSH2 0x1126 JUMP JUMPDEST POP PUSH1 0x5 SLOAD PUSH1 0x2 SLOAD PUSH1 0x40 MLOAD PUSH4 0x95EA7B3 PUSH1 0xE0 SHL DUP2 MSTORE PUSH1 0x1 PUSH1 0x1 PUSH1 0xA0 SHL SUB SWAP2 DUP3 AND PUSH1 0x4 DUP3 ADD MSTORE PUSH1 0x24 DUP2 ADD DUP6 SWAP1 MSTORE SWAP2 AND SWAP1 PUSH4 0x95EA7B3 SWAP1 PUSH1 0x44 ADD PUSH1 0x20 PUSH1 0x40 MLOAD DUP1 DUP4 SUB DUP2 PUSH1 0x0 DUP8 GAS CALL ISZERO DUP1 ISZERO PUSH2 0x3DE JUMPI RETURNDATASIZE PUSH1 0x0 DUP1 RETURNDATACOPY RETURNDATASIZE PUSH1 0x0 REVERT JUMPDEST POP POP POP POP PUSH1 0x40 MLOAD RETURNDATASIZE PUSH1 0x1F NOT PUSH1 0x1F DUP3 ADD AND DUP3 ADD DUP1 PUSH1 0x40 MSTORE POP DUP2 ADD SWAP1 PUSH2 0x402 SWAP2 SWAP1 PUSH2 0x1126 JUMP JUMPDEST POP PUSH1 0x0 PUSH1 0x64 PUSH2 0x41B DUP5 PUSH10 0xD3C21BCECCEDA1000000 PUSH2 0x1143 JUMP JUMPDEST PUSH2 0x426 SWAP1 PUSH1 0x6E PUSH2 0x1143 JUMP JUMPDEST PUSH2 0x430 SWAP2 SWAP1 PUSH2 0x116E JUMP JUMPDEST SWAP1 POP PUSH1 0x0 DUP3 ISZERO PUSH2 0x5E4 JUMPI PUSH1 0x40 DUP1 MLOAD PUSH1 0x2 DUP1 DUP3 MSTORE PUSH1 0x60 DUP3 ADD DUP4 MSTORE PUSH1 0x0 SWAP3 PUSH1 0x20 DUP4 ADD SWAP1 DUP1 CALLDATASIZE DUP4 CALLDATACOPY POP POP PUSH1 0x5 SLOAD DUP3 MLOAD SWAP3 SWAP4 POP PUSH1 0x1 PUSH1 0x1 PUSH1 0xA0 SHL SUB AND SWAP2 DUP4 SWAP2 POP PUSH1 0x0 SWAP1 PUSH2 0x47B JUMPI PUSH2 0x47B PUSH2 0x1190 JUMP JUMPDEST PUSH1 0x1 PUSH1 0x1 PUSH1 0xA0 SHL SUB SWAP3 DUP4 AND PUSH1 0x20 SWAP2 DUP3 MUL SWAP3 SWAP1 SWAP3 ADD ADD MSTORE PUSH1 0x4 SLOAD DUP3 MLOAD SWAP2 AND SWAP1 DUP3 SWAP1 PUSH1 0x1 SWAP1 DUP2 LT PUSH2 0x4AC JUMPI PUSH2 0x4AC PUSH2 0x1190 JUMP JUMPDEST PUSH1 0x1 PUSH1 0x1 PUSH1 0xA0 SHL SUB SWAP3 DUP4 AND PUSH1 0x20 SWAP2 DUP3 MUL SWAP3 SWAP1 SWAP3 ADD ADD MSTORE PUSH1 0x1 SLOAD PUSH1 0x4 DUP1 SLOAD PUSH1 0x40 MLOAD PUSH4 0x70927369 PUSH1 0xE1 SHL DUP2 MSTORE PUSH2 0x2710 SWAP5 SWAP4 DUP5 AND SWAP4 PUSH4 0xE124E6D2 SWAP4 PUSH2 0x4F2 SWAP4 SWAP1 SWAP2 AND SWAP2 ADD PUSH2 0x103B JUMP JUMPDEST PUSH1 0x20 PUSH1 0x40 MLOAD DUP1 DUP4 SUB DUP2 DUP7 GAS STATICCALL ISZERO DUP1 ISZERO PUSH2 0x50F JUMPI RETURNDATASIZE PUSH1 0x0 DUP1 RETURNDATACOPY RETURNDATASIZE PUSH1 0x0 REVERT JUMPDEST POP POP POP POP PUSH1 0x40 MLOAD RETURNDATASIZE PUSH1 0x1F NOT PUSH1 0x1F DUP3 ADD AND DUP3 ADD DUP1 PUSH1 0x40 MSTORE POP DUP2 ADD SWAP1 PUSH2 0x533 SWAP2 SWAP1 PUSH2 0x11A6 JUMP JUMPDEST PUSH2 0x53F SWAP1 PUSH2 0x272E PUSH2 0x1143 JUMP JUMPDEST PUSH2 0x549 SWAP2 SWAP1 PUSH2 0x116E JUMP JUMPDEST PUSH1 0x3 SLOAD PUSH1 0x4 DUP1 SLOAD PUSH1 0x6 SLOAD PUSH1 0x40 MLOAD PUSH4 0xF2AE372F PUSH1 0xE0 SHL DUP2 MSTORE SWAP5 SWAP7 POP PUSH1 0x1 PUSH1 0x1 PUSH1 0xA0 SHL SUB SWAP4 DUP5 AND SWAP5 PUSH4 0xF2AE372F SWAP5 CALLVALUE SWAP5 PUSH2 0x5AC SWAP5 DUP10 SWAP5 SWAP3 AND SWAP3 DUP14 SWAP3 PUSH1 0x0 SWAP3 DUP14 SWAP3 DUP16 SWAP3 DUP15 SWAP3 SWAP1 SWAP2 PUSH18 0x6D79726566657272616C4D6176696E696769 PUSH1 0x70 SHL SWAP2 DUP8 SWAP2 ADD PUSH2 0x1203 JUMP JUMPDEST PUSH1 0x0 PUSH1 0x40 MLOAD DUP1 DUP4 SUB DUP2 DUP6 DUP9 DUP1 EXTCODESIZE ISZERO DUP1 ISZERO PUSH2 0x5C5 JUMPI PUSH1 0x0 DUP1 REVERT JUMPDEST POP GAS CALL ISZERO DUP1 ISZERO PUSH2 0x5D9 JUMPI RETURNDATASIZE PUSH1 0x0 DUP1 RETURNDATACOPY RETURNDATASIZE PUSH1 0x0 REVERT JUMPDEST POP POP POP POP POP POP PUSH2 0x745 JUMP JUMPDEST PUSH1 0x40 DUP1 MLOAD PUSH1 0x1 DUP1 DUP3 MSTORE DUP2 DUP4 ADD SWAP1 SWAP3 MSTORE PUSH1 0x0 SWAP2 PUSH1 0x20 DUP1 DUP4 ADD SWAP1 DUP1 CALLDATASIZE DUP4 CALLDATACOPY POP POP PUSH1 0x5 SLOAD DUP3 MLOAD SWAP3 SWAP4 POP PUSH1 0x1 PUSH1 0x1 PUSH1 0xA0 SHL SUB AND SWAP2 DUP4 SWAP2 POP PUSH1 0x0 SWAP1 PUSH2 0x626 JUMPI PUSH2 0x626 PUSH2 0x1190 JUMP JUMPDEST PUSH1 0x1 PUSH1 0x1 PUSH1 0xA0 SHL SUB SWAP3 DUP4 AND PUSH1 0x20 SWAP2 DUP3 MUL SWAP3 SWAP1 SWAP3 ADD ADD MSTORE PUSH1 0x1 SLOAD PUSH1 0x4 DUP1 SLOAD PUSH1 0x40 MLOAD PUSH4 0x40D3096B PUSH1 0xE1 SHL DUP2 MSTORE PUSH2 0x2710 SWAP5 SWAP4 DUP5 AND SWAP4 PUSH4 0x81A612D6 SWAP4 PUSH2 0x66C SWAP4 SWAP1 SWAP2 AND SWAP2 ADD PUSH2 0x103B JUMP JUMPDEST PUSH1 0x20 PUSH1 0x40 MLOAD DUP1 DUP4 SUB DUP2 DUP7 GAS STATICCALL ISZERO DUP1 ISZERO PUSH2 0x689 JUMPI RETURNDATASIZE PUSH1 0x0 DUP1 RETURNDATACOPY RETURNDATASIZE PUSH1 0x0 REVERT JUMPDEST POP POP POP POP PUSH1 0x40 MLOAD RETURNDATASIZE PUSH1 0x1F NOT PUSH1 0x1F DUP3 ADD AND DUP3 ADD DUP1 PUSH1 0x40 MSTORE POP DUP2 ADD SWAP1 PUSH2 0x6AD SWAP2 SWAP1 PUSH2 0x11A6 JUMP JUMPDEST PUSH2 0x6B9 SWAP1 PUSH2 0x26F2 PUSH2 0x1143 JUMP JUMPDEST PUSH2 0x6C3 SWAP2 SWAP1 PUSH2 0x116E JUMP JUMPDEST PUSH1 0x3 SLOAD PUSH1 0x4 DUP1 SLOAD PUSH1 0x6 SLOAD PUSH1 0x40 MLOAD PUSH4 0xF2AE372F PUSH1 0xE0 SHL DUP2 MSTORE SWAP5 SWAP7 POP PUSH1 0x1 PUSH1 0x1 PUSH1 0xA0 SHL SUB SWAP4 DUP5 AND SWAP5 PUSH4 0xF2AE372F SWAP5 CALLVALUE SWAP5 PUSH2 0x711 SWAP5 DUP10 SWAP5 SWAP3 AND SWAP3 DUP14 SWAP3 PUSH1 0x0 SWAP3 DUP14 SWAP3 DUP16 SWAP3 DUP15 SWAP3 SWAP1 SWAP2 DUP7 SWAP2 DUP3 SWAP2 ADD PUSH2 0x1203 JUMP JUMPDEST PUSH1 0x0 PUSH1 0x40 MLOAD DUP1 DUP4 SUB DUP2 DUP6 DUP9 DUP1 EXTCODESIZE ISZERO DUP1 ISZERO PUSH2 0x72A JUMPI PUSH1 0x0 DUP1 REVERT JUMPDEST POP GAS CALL ISZERO DUP1 ISZERO PUSH2 0x73E JUMPI RETURNDATASIZE PUSH1 0x0 DUP1 RETURNDATACOPY RETURNDATASIZE PUSH1 0x0 REVERT JUMPDEST POP POP POP POP POP POP JUMPDEST POP POP POP POP JUMP JUMPDEST PUSH2 0x753 PUSH2 0xF53 JUMP JUMPDEST PUSH2 0x75D PUSH1 0x0 PUSH2 0xFAD JUMP JUMPDEST JUMP JUMPDEST PUSH2 0x767 PUSH2 0xF53 JUMP JUMPDEST PUSH1 0x6 SSTORE JUMP JUMPDEST PUSH1 0x7 SLOAD PUSH1 0x1 PUSH1 0x1 PUSH1 0xA0 SHL SUB AND CALLER EQ PUSH2 0x796 JUMPI PUSH1 0x40 MLOAD PUSH3 0x461BCD PUSH1 0xE5 SHL DUP2 MSTORE PUSH1 0x4 ADD PUSH2 0x300 SWAP1 PUSH2 0x1103 JUMP JUMPDEST PUSH1 0x0 DUP2 ISZERO PUSH2 0x9BD JUMPI PUSH1 0x40 DUP1 MLOAD PUSH1 0x2 DUP1 DUP3 MSTORE PUSH1 0x60 DUP3 ADD DUP4 MSTORE PUSH1 0x0 SWAP3 PUSH1 0x20 DUP4 ADD SWAP1 DUP1 CALLDATASIZE DUP4 CALLDATACOPY POP POP PUSH1 0x4 SLOAD DUP3 MLOAD SWAP3 SWAP4 POP PUSH1 0x1 PUSH1 0x1 PUSH1 0xA0 SHL SUB AND SWAP2 DUP4 SWAP2 POP PUSH1 0x0 SWAP1 PUSH2 0x7DF JUMPI PUSH2 0x7DF PUSH2 0x1190 JUMP JUMPDEST PUSH1 0x1 PUSH1 0x1 PUSH1 0xA0 SHL SUB SWAP3 DUP4 AND PUSH1 0x20 SWAP2 DUP3 MUL SWAP3 SWAP1 SWAP3 ADD ADD MSTORE PUSH1 0x5 SLOAD DUP3 MLOAD SWAP2 AND SWAP1 DUP3 SWAP1 PUSH1 0x1 SWAP1 DUP2 LT PUSH2 0x810 JUMPI PUSH2 0x810 PUSH2 0x1190 JUMP JUMPDEST PUSH1 0x1 PUSH1 0x1 PUSH1 0xA0 SHL SUB SWAP3 DUP4 AND PUSH1 0x20 SWAP2 DUP3 MUL SWAP3 SWAP1 SWAP3 ADD ADD MSTORE PUSH1 0x1 SLOAD PUSH1 0x4 DUP1 SLOAD PUSH1 0x40 MLOAD PUSH4 0x4A3F088D PUSH1 0xE0 SHL DUP2 MSTORE PUSH1 0x0 SWAP5 SWAP4 DUP5 AND SWAP4 PUSH4 0x4A3F088D SWAP4 PUSH2 0x85A SWAP4 ADDRESS SWAP4 SWAP3 AND SWAP2 DUP3 SWAP2 DUP12 SWAP2 ADD PUSH2 0x126E JUMP JUMPDEST PUSH2 0x100 PUSH1 0x40 MLOAD DUP1 DUP4 SUB DUP2 PUSH1 0x0 DUP8 GAS CALL ISZERO DUP1 ISZERO PUSH2 0x87A JUMPI RETURNDATASIZE PUSH1 0x0 DUP1 RETURNDATACOPY RETURNDATASIZE PUSH1 0x0 REVERT JUMPDEST POP POP POP POP PUSH1 0x40 MLOAD RETURNDATASIZE PUSH1 0x1F NOT PUSH1 0x1F DUP3 ADD AND DUP3 ADD DUP1 PUSH1 0x40 MSTORE POP DUP2 ADD SWAP1 PUSH2 0x89E SWAP2 SWAP1 PUSH2 0x1298 JUMP JUMPDEST POP POP PUSH1 0x1 SLOAD PUSH1 0x4 DUP1 SLOAD PUSH1 0x40 MLOAD PUSH4 0x40D3096B PUSH1 0xE1 SHL DUP2 MSTORE SWAP9 SWAP10 POP PUSH2 0x2710 SWAP9 PUSH1 0x1 PUSH1 0x1 PUSH1 0xA0 SHL SUB SWAP4 DUP5 AND SWAP9 POP PUSH4 0x81A612D6 SWAP8 POP PUSH2 0x8E0 SWAP7 POP SWAP3 AND SWAP4 POP ADD SWAP1 POP PUSH2 0x103B JUMP JUMPDEST PUSH1 0x20 PUSH1 0x40 MLOAD DUP1 DUP4 SUB DUP2 DUP7 GAS STATICCALL ISZERO DUP1 ISZERO PUSH2 0x8FD JUMPI RETURNDATASIZE PUSH1 0x0 DUP1 RETURNDATACOPY RETURNDATASIZE PUSH1 0x0 REVERT JUMPDEST POP POP POP POP PUSH1 0x40 MLOAD RETURNDATASIZE PUSH1 0x1F NOT PUSH1 0x1F DUP3 ADD AND DUP3 ADD DUP1 PUSH1 0x40 MSTORE POP DUP2 ADD SWAP1 PUSH2 0x921 SWAP2 SWAP1 PUSH2 0x11A6 JUMP JUMPDEST PUSH2 0x92D SWAP1 PUSH2 0x26F2 PUSH2 0x1143 JUMP JUMPDEST PUSH2 0x937 SWAP2 SWAP1 PUSH2 0x116E JUMP JUMPDEST PUSH1 0x3 SLOAD PUSH1 0x4 DUP1 SLOAD PUSH1 0x6 SLOAD PUSH1 0x40 MLOAD PUSH4 0x7BE7D141 PUSH1 0xE0 SHL DUP2 MSTORE SWAP5 SWAP8 POP PUSH1 0x1 PUSH1 0x1 PUSH1 0xA0 SHL SUB SWAP4 DUP5 AND SWAP5 PUSH4 0x7BE7D141 SWAP5 CALLVALUE SWAP5 PUSH2 0x985 SWAP5 DUP11 SWAP5 SWAP3 AND SWAP3 PUSH1 0x0 SWAP3 DUP11 SWAP3 DUP15 SWAP3 CALLER SWAP3 DUP16 SWAP3 DUP8 SWAP3 DUP4 SWAP2 DUP3 SWAP2 ADD PUSH2 0x1302 JUMP JUMPDEST PUSH1 0x0 PUSH1 0x40 MLOAD DUP1 DUP4 SUB DUP2 DUP6 DUP9 DUP1 EXTCODESIZE ISZERO DUP1 ISZERO PUSH2 0x99E JUMPI PUSH1 0x0 DUP1 REVERT JUMPDEST POP GAS CALL ISZERO DUP1 ISZERO PUSH2 0x9B2 JUMPI RETURNDATASIZE PUSH1 0x0 DUP1 RETURNDATACOPY RETURNDATASIZE PUSH1 0x0 REVERT JUMPDEST POP POP POP POP POP POP POP POP POP JUMP JUMPDEST PUSH1 0x40 DUP1 MLOAD PUSH1 0x1 DUP1 DUP3 MSTORE DUP2 DUP4 ADD SWAP1 SWAP3 MSTORE PUSH1 0x0 SWAP2 PUSH1 0x20 DUP1 DUP4 ADD SWAP1 DUP1 CALLDATASIZE DUP4 CALLDATACOPY POP POP PUSH1 0x5 SLOAD DUP3 MLOAD SWAP3 SWAP4 POP PUSH1 0x1 PUSH1 0x1 PUSH1 0xA0 SHL SUB AND SWAP2 DUP4 SWAP2 POP PUSH1 0x0 SWAP1 PUSH2 0x9FF JUMPI PUSH2 0x9FF PUSH2 0x1190 JUMP JUMPDEST PUSH1 0x1 PUSH1 0x1 PUSH1 0xA0 SHL SUB SWAP3 DUP4 AND PUSH1 0x20 SWAP2 DUP3 MUL SWAP3 SWAP1 SWAP3 ADD ADD MSTORE PUSH1 0x1 SLOAD PUSH1 0x5 SLOAD PUSH1 0x4 DUP1 SLOAD PUSH1 0x40 MLOAD PUSH4 0x4A3F088D PUSH1 0xE0 SHL DUP2 MSTORE PUSH1 0x0 SWAP6 SWAP5 DUP6 AND SWAP5 PUSH4 0x4A3F088D SWAP5 PUSH2 0xA50 SWAP5 ADDRESS SWAP5 SWAP2 DUP4 AND SWAP4 SWAP2 SWAP1 SWAP3 AND SWAP2 DUP12 SWAP2 ADD PUSH2 0x126E JUMP JUMPDEST PUSH2 0x100 PUSH1 0x40 MLOAD DUP1 DUP4 SUB DUP2 PUSH1 0x0 DUP8 GAS CALL ISZERO DUP1 ISZERO PUSH2 0xA70 JUMPI RETURNDATASIZE PUSH1 0x0 DUP1 RETURNDATACOPY RETURNDATASIZE PUSH1 0x0 REVERT JUMPDEST POP POP POP POP PUSH1 0x40 MLOAD RETURNDATASIZE PUSH1 0x1F NOT PUSH1 0x1F DUP3 ADD AND DUP3 ADD DUP1 PUSH1 0x40 MSTORE POP DUP2 ADD SWAP1 PUSH2 0xA94 SWAP2 SWAP1 PUSH2 0x1298 JUMP JUMPDEST POP POP PUSH1 0x1 SLOAD PUSH1 0x4 DUP1 SLOAD PUSH1 0x40 MLOAD PUSH4 0x70927369 PUSH1 0xE1 SHL DUP2 MSTORE SWAP9 SWAP10 POP PUSH2 0x2710 SWAP9 PUSH1 0x1 PUSH1 0x1 PUSH1 0xA0 SHL SUB SWAP4 DUP5 AND SWAP9 POP PUSH4 0xE124E6D2 SWAP8 POP PUSH2 0xAD6 SWAP7 POP SWAP3 AND SWAP4 POP ADD SWAP1 POP PUSH2 0x103B JUMP JUMPDEST PUSH1 0x20 PUSH1 0x40 MLOAD DUP1 DUP4 SUB DUP2 DUP7 GAS STATICCALL ISZERO DUP1 ISZERO PUSH2 0xAF3 JUMPI RETURNDATASIZE PUSH1 0x0 DUP1 RETURNDATACOPY RETURNDATASIZE PUSH1 0x0 REVERT JUMPDEST POP POP POP POP PUSH1 0x40 MLOAD RETURNDATASIZE PUSH1 0x1F NOT PUSH1 0x1F DUP3 ADD AND DUP3 ADD DUP1 PUSH1 0x40 MSTORE POP DUP2 ADD SWAP1 PUSH2 0xB17 SWAP2 SWAP1 PUSH2 0x11A6 JUMP JUMPDEST PUSH2 0x92D SWAP1 PUSH2 0x272E PUSH2 0x1143 JUMP JUMPDEST PUSH2 0xB2B PUSH2 0xF53 JUMP JUMPDEST PUSH1 0x7 DUP1 SLOAD PUSH1 0x1 PUSH1 0x1 PUSH1 0xA0 SHL SUB NOT AND PUSH1 0x1 PUSH1 0x1 PUSH1 0xA0 SHL SUB SWAP3 SWAP1 SWAP3 AND SWAP2 SWAP1 SWAP2 OR SWAP1 SSTORE JUMP JUMPDEST PUSH1 0x7 SLOAD PUSH1 0x1 PUSH1 0x1 PUSH1 0xA0 SHL SUB AND CALLER EQ PUSH2 0xB77 JUMPI PUSH1 0x40 MLOAD PUSH3 0x461BCD PUSH1 0xE5 SHL DUP2 MSTORE PUSH1 0x4 ADD PUSH2 0x300 SWAP1 PUSH2 0x1103 JUMP JUMPDEST PUSH1 0x0 DUP1 PUSH1 0x64 PUSH2 0xB90 DUP6 PUSH10 0xD3C21BCECCEDA1000000 PUSH2 0x1143 JUMP JUMPDEST PUSH2 0xB9B SWAP1 PUSH1 0x6E PUSH2 0x1143 JUMP JUMPDEST PUSH2 0xBA5 SWAP2 SWAP1 PUSH2 0x116E JUMP JUMPDEST SWAP1 POP DUP3 ISZERO PUSH2 0xD5A JUMPI PUSH1 0x40 DUP1 MLOAD PUSH1 0x2 DUP1 DUP3 MSTORE PUSH1 0x60 DUP3 ADD DUP4 MSTORE PUSH1 0x0 SWAP3 PUSH1 0x20 DUP4 ADD SWAP1 DUP1 CALLDATASIZE DUP4 CALLDATACOPY POP POP PUSH1 0x4 SLOAD DUP3 MLOAD SWAP3 SWAP4 POP PUSH1 0x1 PUSH1 0x1 PUSH1 0xA0 SHL SUB AND SWAP2 DUP4 SWAP2 POP PUSH1 0x0 SWAP1 PUSH2 0xBEE JUMPI PUSH2 0xBEE PUSH2 0x1190 JUMP JUMPDEST PUSH1 0x1 PUSH1 0x1 PUSH1 0xA0 SHL SUB SWAP3 DUP4 AND PUSH1 0x20 SWAP2 DUP3 MUL SWAP3 SWAP1 SWAP3 ADD ADD MSTORE PUSH1 0x5 SLOAD DUP3 MLOAD SWAP2 AND SWAP1 DUP3 SWAP1 PUSH1 0x1 SWAP1 DUP2 LT PUSH2 0xC1F JUMPI PUSH2 0xC1F PUSH2 0x1190 JUMP JUMPDEST PUSH1 0x1 PUSH1 0x1 PUSH1 0xA0 SHL SUB SWAP3 DUP4 AND PUSH1 0x20 SWAP2 DUP3 MUL SWAP3 SWAP1 SWAP3 ADD ADD MSTORE PUSH1 0x1 SLOAD PUSH1 0x4 DUP1 SLOAD PUSH1 0x40 MLOAD PUSH4 0x40D3096B PUSH1 0xE1 SHL DUP2 MSTORE PUSH2 0x2710 SWAP5 SWAP4 DUP5 AND SWAP4 PUSH4 0x81A612D6 SWAP4 PUSH2 0xC65 SWAP4 SWAP1 SWAP2 AND SWAP2 ADD PUSH2 0x103B JUMP JUMPDEST PUSH1 0x20 PUSH1 0x40 MLOAD DUP1 DUP4 SUB DUP2 DUP7 GAS STATICCALL ISZERO DUP1 ISZERO PUSH2 0xC82 JUMPI RETURNDATASIZE PUSH1 0x0 DUP1 RETURNDATACOPY RETURNDATASIZE PUSH1 0x0 REVERT JUMPDEST POP POP POP POP PUSH1 0x40 MLOAD RETURNDATASIZE PUSH1 0x1F NOT PUSH1 0x1F DUP3 ADD AND DUP3 ADD DUP1 PUSH1 0x40 MSTORE POP DUP2 ADD SWAP1 PUSH2 0xCA6 SWAP2 SWAP1 PUSH2 0x11A6 JUMP JUMPDEST PUSH2 0xCB2 SWAP1 PUSH2 0x26F2 PUSH2 0x1143 JUMP JUMPDEST PUSH2 0xCBC SWAP2 SWAP1 PUSH2 0x116E JUMP JUMPDEST PUSH1 0x3 SLOAD PUSH1 0x4 SLOAD SWAP2 SWAP5 POP PUSH1 0x1 PUSH1 0x1 PUSH1 0xA0 SHL SUB SWAP1 DUP2 AND SWAP2 PUSH4 0x7BE7D141 SWAP2 CALLVALUE SWAP2 DUP6 SWAP2 AND PUSH2 0xCF0 DUP11 PUSH10 0xD3C21BCECCEDA1000000 PUSH2 0x1143 JUMP JUMPDEST DUP8 DUP11 DUP14 DUP12 PUSH1 0x0 PUSH1 0x6 SLOAD PUSH1 0x0 DUP1 PUSH1 0x40 MLOAD DUP14 PUSH4 0xFFFFFFFF AND PUSH1 0xE0 SHL DUP2 MSTORE PUSH1 0x4 ADD PUSH2 0xD22 SWAP12 SWAP11 SWAP10 SWAP9 SWAP8 SWAP7 SWAP6 SWAP5 SWAP4 SWAP3 SWAP2 SWAP1 PUSH2 0x1302 JUMP JUMPDEST PUSH1 0x0 PUSH1 0x40 MLOAD DUP1 DUP4 SUB DUP2 DUP6 DUP9 DUP1 EXTCODESIZE ISZERO DUP1 ISZERO PUSH2 0xD3B JUMPI PUSH1 0x0 DUP1 REVERT JUMPDEST POP GAS CALL ISZERO DUP1 ISZERO PUSH2 0xD4F JUMPI RETURNDATASIZE PUSH1 0x0 DUP1 RETURNDATACOPY RETURNDATASIZE PUSH1 0x0 REVERT JUMPDEST POP POP POP POP POP POP PUSH2 0xED3 JUMP JUMPDEST PUSH1 0x40 DUP1 MLOAD PUSH1 0x1 DUP1 DUP3 MSTORE DUP2 DUP4 ADD SWAP1 SWAP3 MSTORE PUSH1 0x0 SWAP2 PUSH1 0x20 DUP1 DUP4 ADD SWAP1 DUP1 CALLDATASIZE DUP4 CALLDATACOPY POP POP PUSH1 0x5 SLOAD DUP3 MLOAD SWAP3 SWAP4 POP PUSH1 0x1 PUSH1 0x1 PUSH1 0xA0 SHL SUB AND SWAP2 DUP4 SWAP2 POP PUSH1 0x0 SWAP1 PUSH2 0xD9C JUMPI PUSH2 0xD9C PUSH2 0x1190 JUMP JUMPDEST PUSH1 0x1 PUSH1 0x1 PUSH1 0xA0 SHL SUB SWAP3 DUP4 AND PUSH1 0x20 SWAP2 DUP3 MUL SWAP3 SWAP1 SWAP3 ADD ADD MSTORE PUSH1 0x1 SLOAD PUSH1 0x4 DUP1 SLOAD PUSH1 0x40 MLOAD PUSH4 0x70927369 PUSH1 0xE1 SHL DUP2 MSTORE PUSH2 0x2710 SWAP5 SWAP4 DUP5 AND SWAP4 PUSH4 0xE124E6D2 SWAP4 PUSH2 0xDE2 SWAP4 SWAP1 SWAP2 AND SWAP2 ADD PUSH2 0x103B JUMP JUMPDEST PUSH1 0x20 PUSH1 0x40 MLOAD DUP1 DUP4 SUB DUP2 DUP7 GAS STATICCALL ISZERO DUP1 ISZERO PUSH2 0xDFF JUMPI RETURNDATASIZE PUSH1 0x0 DUP1 RETURNDATACOPY RETURNDATASIZE PUSH1 0x0 REVERT JUMPDEST POP POP POP POP PUSH1 0x40 MLOAD RETURNDATASIZE PUSH1 0x1F NOT PUSH1 0x1F DUP3 ADD AND DUP3 ADD DUP1 PUSH1 0x40 MSTORE POP DUP2 ADD SWAP1 PUSH2 0xE23 SWAP2 SWAP1 PUSH2 0x11A6 JUMP JUMPDEST PUSH2 0xE2F SWAP1 PUSH2 0x272E PUSH2 0x1143 JUMP JUMPDEST PUSH2 0xE39 SWAP2 SWAP1 PUSH2 0x116E JUMP JUMPDEST PUSH1 0x3 SLOAD PUSH1 0x4 SLOAD SWAP2 SWAP5 POP PUSH1 0x1 PUSH1 0x1 PUSH1 0xA0 SHL SUB SWAP1 DUP2 AND SWAP2 PUSH4 0x7BE7D141 SWAP2 CALLVALUE SWAP2 DUP6 SWAP2 AND PUSH2 0xE6D DUP11 PUSH10 0xD3C21BCECCEDA1000000 PUSH2 0x1143 JUMP JUMPDEST DUP8 DUP11 DUP14 DUP12 PUSH1 0x0 PUSH1 0x6 SLOAD PUSH1 0x0 DUP1 PUSH1 0x40 MLOAD DUP14 PUSH4 0xFFFFFFFF AND PUSH1 0xE0 SHL DUP2 MSTORE PUSH1 0x4 ADD PUSH2 0xE9F SWAP12 SWAP11 SWAP10 SWAP9 SWAP8 SWAP7 SWAP6 SWAP5 SWAP4 SWAP3 SWAP2 SWAP1 PUSH2 0x1302 JUMP JUMPDEST PUSH1 0x0 PUSH1 0x40 MLOAD DUP1 DUP4 SUB DUP2 DUP6 DUP9 DUP1 EXTCODESIZE ISZERO DUP1 ISZERO PUSH2 0xEB8 JUMPI PUSH1 0x0 DUP1 REVERT JUMPDEST POP GAS CALL ISZERO DUP1 ISZERO PUSH2 0xECC JUMPI RETURNDATASIZE PUSH1 0x0 DUP1 RETURNDATACOPY RETURNDATASIZE PUSH1 0x0 REVERT JUMPDEST POP POP POP POP POP POP JUMPDEST POP POP POP POP POP JUMP JUMPDEST PUSH2 0xEE2 PUSH2 0xF53 JUMP JUMPDEST PUSH1 0x1 PUSH1 0x1 PUSH1 0xA0 SHL SUB DUP2 AND PUSH2 0xF47 JUMPI PUSH1 0x40 MLOAD PUSH3 0x461BCD PUSH1 0xE5 SHL DUP2 MSTORE PUSH1 0x20 PUSH1 0x4 DUP3 ADD MSTORE PUSH1 0x26 PUSH1 0x24 DUP3 ADD MSTORE PUSH32 0x4F776E61626C653A206E6577206F776E657220697320746865207A65726F2061 PUSH1 0x44 DUP3 ADD MSTORE PUSH6 0x646472657373 PUSH1 0xD0 SHL PUSH1 0x64 DUP3 ADD MSTORE PUSH1 0x84 ADD PUSH2 0x300 JUMP JUMPDEST PUSH2 0xF50 DUP2 PUSH2 0xFAD JUMP JUMPDEST POP JUMP JUMPDEST PUSH1 0x0 SLOAD PUSH1 0x1 PUSH1 0x1 PUSH1 0xA0 SHL SUB AND CALLER EQ PUSH2 0x75D JUMPI PUSH1 0x40 MLOAD PUSH3 0x461BCD PUSH1 0xE5 SHL DUP2 MSTORE PUSH1 0x20 PUSH1 0x4 DUP3 ADD DUP2 SWAP1 MSTORE PUSH1 0x24 DUP3 ADD MSTORE PUSH32 0x4F776E61626C653A2063616C6C6572206973206E6F7420746865206F776E6572 PUSH1 0x44 DUP3 ADD MSTORE PUSH1 0x64 ADD PUSH2 0x300 JUMP JUMPDEST PUSH1 0x0 DUP1 SLOAD PUSH1 0x1 PUSH1 0x1 PUSH1 0xA0 SHL SUB DUP4 DUP2 AND PUSH1 0x1 PUSH1 0x1 PUSH1 0xA0 SHL SUB NOT DUP4 AND DUP2 OR DUP5 SSTORE PUSH1 0x40 MLOAD SWAP2 SWAP1 SWAP3 AND SWAP3 DUP4 SWAP2 PUSH32 0x8BE0079C531659141344CD1FD0A4F28419497F9722A3DAAFE3B4186F6B6457E0 SWAP2 SWAP1 LOG3 POP POP JUMP JUMPDEST DUP1 ISZERO ISZERO DUP2 EQ PUSH2 0xF50 JUMPI PUSH1 0x0 DUP1 REVERT JUMPDEST PUSH1 0x0 DUP1 PUSH1 0x40 DUP4 DUP6 SUB SLT ISZERO PUSH2 0x101E JUMPI PUSH1 0x0 DUP1 REVERT JUMPDEST DUP3 CALLDATALOAD SWAP2 POP PUSH1 0x20 DUP4 ADD CALLDATALOAD PUSH2 0x1030 DUP2 PUSH2 0xFFD JUMP JUMPDEST DUP1 SWAP2 POP POP SWAP3 POP SWAP3 SWAP1 POP JUMP JUMPDEST PUSH1 0x1 PUSH1 0x1 PUSH1 0xA0 SHL SUB SWAP2 SWAP1 SWAP2 AND DUP2 MSTORE PUSH1 0x20 ADD SWAP1 JUMP JUMPDEST PUSH1 0x0 PUSH1 0x20 DUP3 DUP5 SUB SLT ISZERO PUSH2 0x1061 JUMPI PUSH1 0x0 DUP1 REVERT JUMPDEST POP CALLDATALOAD SWAP2 SWAP1 POP JUMP JUMPDEST PUSH1 0x0 PUSH1 0x20 DUP3 DUP5 SUB SLT ISZERO PUSH2 0x107A JUMPI PUSH1 0x0 DUP1 REVERT JUMPDEST DUP2 CALLDATALOAD PUSH2 0x1085 DUP2 PUSH2 0xFFD JUMP JUMPDEST SWAP4 SWAP3 POP POP POP JUMP JUMPDEST DUP1 CALLDATALOAD PUSH1 0x1 PUSH1 0x1 PUSH1 0xA0 SHL SUB DUP2 AND DUP2 EQ PUSH2 0x10A3 JUMPI PUSH1 0x0 DUP1 REVERT JUMPDEST SWAP2 SWAP1 POP JUMP JUMPDEST PUSH1 0x0 PUSH1 0x20 DUP3 DUP5 SUB SLT ISZERO PUSH2 0x10BA JUMPI PUSH1 0x0 DUP1 REVERT JUMPDEST PUSH2 0x1085 DUP3 PUSH2 0x108C JUMP JUMPDEST PUSH1 0x0 DUP1 PUSH1 0x0 PUSH1 0x60 DUP5 DUP7 SUB SLT ISZERO PUSH2 0x10D8 JUMPI PUSH1 0x0 DUP1 REVERT JUMPDEST PUSH2 0x10E1 DUP5 PUSH2 0x108C JUMP JUMPDEST SWAP3 POP PUSH1 0x20 DUP5 ADD CALLDATALOAD SWAP2 POP PUSH1 0x40 DUP5 ADD CALLDATALOAD PUSH2 0x10F8 DUP2 PUSH2 0xFFD JUMP JUMPDEST DUP1 SWAP2 POP POP SWAP3 POP SWAP3 POP SWAP3 JUMP JUMPDEST PUSH1 0x20 DUP1 DUP3 MSTORE PUSH1 0x9 SWAP1 DUP3 ADD MSTORE PUSH9 0x139BDD081D985D5B1D PUSH1 0xBA SHL PUSH1 0x40 DUP3 ADD MSTORE PUSH1 0x60 ADD SWAP1 JUMP JUMPDEST PUSH1 0x0 PUSH1 0x20 DUP3 DUP5 SUB SLT ISZERO PUSH2 0x1138 JUMPI PUSH1 0x0 DUP1 REVERT JUMPDEST DUP2 MLOAD PUSH2 0x1085 DUP2 PUSH2 0xFFD JUMP JUMPDEST DUP1 DUP3 MUL DUP2 ISZERO DUP3 DUP3 DIV DUP5 EQ OR PUSH2 0x1168 JUMPI PUSH4 0x4E487B71 PUSH1 0xE0 SHL PUSH1 0x0 MSTORE PUSH1 0x11 PUSH1 0x4 MSTORE PUSH1 0x24 PUSH1 0x0 REVERT JUMPDEST SWAP3 SWAP2 POP POP JUMP JUMPDEST PUSH1 0x0 DUP3 PUSH2 0x118B JUMPI PUSH4 0x4E487B71 PUSH1 0xE0 SHL PUSH1 0x0 MSTORE PUSH1 0x12 PUSH1 0x4 MSTORE PUSH1 0x24 PUSH1 0x0 REVERT JUMPDEST POP DIV SWAP1 JUMP JUMPDEST PUSH4 0x4E487B71 PUSH1 0xE0 SHL PUSH1 0x0 MSTORE PUSH1 0x32 PUSH1 0x4 MSTORE PUSH1 0x24 PUSH1 0x0 REVERT JUMPDEST PUSH1 0x0 PUSH1 0x20 DUP3 DUP5 SUB SLT ISZERO PUSH2 0x11B8 JUMPI PUSH1 0x0 DUP1 REVERT JUMPDEST POP MLOAD SWAP2 SWAP1 POP JUMP JUMPDEST PUSH1 0x0 DUP2 MLOAD DUP1 DUP5 MSTORE PUSH1 0x20 DUP1 DUP6 ADD SWAP5 POP DUP1 DUP5 ADD PUSH1 0x0 JUMPDEST DUP4 DUP2 LT ISZERO PUSH2 0x11F8 JUMPI DUP2 MLOAD PUSH1 0x1 PUSH1 0x1 PUSH1 0xA0 SHL SUB AND DUP8 MSTORE SWAP6 DUP3 ADD SWAP6 SWAP1 DUP3 ADD SWAP1 PUSH1 0x1 ADD PUSH2 0x11D3 JUMP JUMPDEST POP SWAP5 SWAP6 SWAP5 POP POP POP POP POP JUMP JUMPDEST PUSH1 0x0 PUSH2 0x140 DUP1 DUP4 MSTORE PUSH2 0x1217 DUP2 DUP5 ADD DUP15 PUSH2 0x11BF JUMP JUMPDEST PUSH1 0x1 PUSH1 0x1 PUSH1 0xA0 SHL SUB SWAP13 DUP14 AND PUSH1 0x20 DUP6 ADD MSTORE PUSH1 0x40 DUP5 ADD SWAP12 SWAP1 SWAP12 MSTORE POP POP PUSH1 0x60 DUP2 ADD SWAP8 SWAP1 SWAP8 MSTORE PUSH1 0x80 DUP8 ADD SWAP6 SWAP1 SWAP6 MSTORE SWAP3 ISZERO ISZERO PUSH1 0xA0 DUP7 ADD MSTORE PUSH1 0xC0 DUP6 ADD SWAP2 SWAP1 SWAP2 MSTORE PUSH1 0xE0 DUP5 ADD MSTORE PUSH2 0x100 DUP4 ADD MSTORE SWAP1 SWAP3 AND PUSH2 0x120 SWAP1 SWAP3 ADD SWAP2 SWAP1 SWAP2 MSTORE SWAP2 SWAP1 POP JUMP JUMPDEST PUSH1 0x1 PUSH1 0x1 PUSH1 0xA0 SHL SUB SWAP5 DUP6 AND DUP2 MSTORE SWAP3 DUP5 AND PUSH1 0x20 DUP5 ADD MSTORE SWAP3 AND PUSH1 0x40 DUP3 ADD MSTORE SWAP1 ISZERO ISZERO PUSH1 0x60 DUP3 ADD MSTORE PUSH1 0x80 ADD SWAP1 JUMP JUMPDEST PUSH1 0x0 DUP1 PUSH1 0x0 DUP1 PUSH1 0x0 DUP1 PUSH1 0x0 DUP1 PUSH2 0x100 DUP10 DUP12 SUB SLT ISZERO PUSH2 0x12B5 JUMPI PUSH1 0x0 DUP1 REVERT JUMPDEST DUP9 MLOAD SWAP8 POP PUSH1 0x20 DUP10 ADD MLOAD SWAP7 POP PUSH1 0x40 DUP10 ADD MLOAD SWAP6 POP PUSH1 0x60 DUP10 ADD MLOAD SWAP5 POP PUSH1 0x80 DUP10 ADD MLOAD SWAP4 POP PUSH1 0xA0 DUP10 ADD MLOAD SWAP3 POP PUSH1 0xC0 DUP10 ADD MLOAD PUSH2 0x12EA DUP2 PUSH2 0xFFD JUMP JUMPDEST DUP1 SWAP3 POP POP PUSH1 0xE0 DUP10 ADD MLOAD SWAP1 POP SWAP3 SWAP6 SWAP9 POP SWAP3 SWAP6 SWAP9 SWAP1 SWAP4 SWAP7 POP JUMP JUMPDEST PUSH1 0x0 PUSH2 0x160 DUP1 DUP4 MSTORE PUSH2 0x1316 DUP2 DUP5 ADD DUP16 PUSH2 0x11BF JUMP JUMPDEST PUSH1 0x1 PUSH1 0x1 PUSH1 0xA0 SHL SUB SWAP14 DUP15 AND PUSH1 0x20 DUP6 ADD MSTORE PUSH1 0x40 DUP5 ADD SWAP13 SWAP1 SWAP13 MSTORE POP POP PUSH1 0x60 DUP2 ADD SWAP9 SWAP1 SWAP9 MSTORE SWAP6 ISZERO ISZERO PUSH1 0x80 DUP9 ADD MSTORE SWAP4 DUP9 AND PUSH1 0xA0 DUP8 ADD MSTORE PUSH1 0xC0 DUP7 ADD SWAP3 SWAP1 SWAP3 MSTORE PUSH1 0xE0 DUP6 ADD MSTORE PUSH2 0x100 DUP5 ADD MSTORE ISZERO ISZERO PUSH2 0x120 DUP4 ADD MSTORE SWAP1 SWAP3 AND PUSH2 0x140 SWAP1 SWAP3 ADD SWAP2 SWAP1 SWAP2 MSTORE SWAP2 SWAP1 POP JUMP INVALID LOG2 PUSH5 0x6970667358 0x22 SLT KECCAK256 0xB9 PUSH4 0x9155EF00 SWAP15 0xC2 MOD SWAP11 JUMP 0xA6 SUB SUB PUSH20 0x215034F15CF89E2F9B99EBEAD0DB4A9D9564736F PUSH13 0x63430008110033000000000000 "},"gasEstimates":{"creation":{"codeDepositCost":"1007000","executionCost":"infinite","totalCost":"infinite"},"external":{"GMXexecutionFee()":"2329","USDC()":"2361","WETH()":"2427","decreasePosition(address,uint256,bool)":"infinite","getGMXexecutionFees()":"2293","getVaultOwner()":"2399","gmxPositionRouter()":"2493","gmxRouter()":"2428","gmxVault()":"2449","increasePosition(uint256,bool)":"infinite","liquidatePosition(bool)":"infinite","owner()":"2377","renounceOwnership()":"infinite","setGMXexecutionFees(uint256)":"24599","setVaultOwner(address)":"26890","transferOwnership(address)":"28487","vault()":"2537"}},"methodIdentifiers":{"GMXexecutionFee()":"434c0c75","USDC()":"89a30271","WETH()":"ad5c4648","decreasePosition(address,uint256,bool)":"c5dac33b","getGMXexecutionFees()":"2c908916","getVaultOwner()":"a44ca346","gmxPositionRouter()":"c657e7c2","gmxRouter()":"634e3180","gmxVault()":"b3b3453e","increasePosition(uint256,bool)":"1c5ecc06","liquidatePosition(bool)":"7cb17597","owner()":"8da5cb5b","renounceOwnership()":"715018a6","setGMXexecutionFees(uint256)":"79db7ef1","setVaultOwner(address)":"80b3631c","transferOwnership(address)":"f2fde38b","vault()":"fbfa77cf"}},"storageLayout":{"storage":[{"astId":2447,"contract":"contracts/GMX_controller.sol:GMX_controller","label":"_owner","offset":0,"slot":"0","type":"t_address"},{"astId":1037,"contract":"contracts/GMX_controller.sol:GMX_controller","label":"gmxVault","offset":0,"slot":"1","type":"t_address"},{"astId":1040,"contract":"contracts/GMX_controller.sol:GMX_controller","label":"gmxRouter","offset":0,"slot":"2","type":"t_address"},{"astId":1043,"contract":"contracts/GMX_controller.sol:GMX_controller","label":"gmxPositionRouter","offset":0,"slot":"3","type":"t_address"},{"astId":1046,"contract":"contracts/GMX_controller.sol:GMX_controller","label":"WETH","offset":0,"slot":"4","type":"t_address"},{"astId":1049,"contract":"contracts/GMX_controller.sol:GMX_controller","label":"USDC","offset":0,"slot":"5","type":"t_address"},{"astId":1051,"contract":"contracts/GMX_controller.sol:GMX_controller","label":"GMXexecutionFee","offset":0,"slot":"6","type":"t_uint256"},{"astId":1053,"contract":"contracts/GMX_controller.sol:GMX_controller","label":"vault","offset":0,"slot":"7","type":"t_address"}],"types":{"t_address":{"encoding":"inplace","label":"address","numberOfBytes":"20"},"t_uint256":{"encoding":"inplace","label":"uint256","numberOfBytes":"32"}}},"userdoc":{"kind":"user","methods":{"decreasePosition(address,uint256,bool)":{"notice":"Decrease positions on GMX - only the vault can call this function"},"increasePosition(uint256,bool)":{"notice":"Increase positions on GMX - only the vault can call this function"},"liquidatePosition(bool)":{"notice":"Liquidates positions on GMX - only the vault can call this function"}},"notice":"This contract should work with any vault on Arbitrum network","version":1}}}}