{
  "_format": "hh-sol-artifact-1",
  "contractName": "GMX_controller",
  "sourceName": "contracts/GMX_controller.sol",
  "abi": [
    {
      "inputs": [
        {
          "internalType": "address",
          "name": "_vault",
          "type": "address"
        }
      ],
      "stateMutability": "nonpayable",
      "type": "constructor"
    },
    {
      "anonymous": false,
      "inputs": [
        {
          "indexed": true,
          "internalType": "address",
          "name": "previousOwner",
          "type": "address"
        },
        {
          "indexed": true,
          "internalType": "address",
          "name": "newOwner",
          "type": "address"
        }
      ],
      "name": "OwnershipTransferred",
      "type": "event"
    },
    {
      "inputs": [],
      "name": "GMXexecutionFee",
      "outputs": [
        {
          "internalType": "uint256",
          "name": "",
          "type": "uint256"
        }
      ],
      "stateMutability": "view",
      "type": "function"
    },
    {
      "inputs": [],
      "name": "USDC",
      "outputs": [
        {
          "internalType": "address",
          "name": "",
          "type": "address"
        }
      ],
      "stateMutability": "view",
      "type": "function"
    },
    {
      "inputs": [],
      "name": "WETH",
      "outputs": [
        {
          "internalType": "address",
          "name": "",
          "type": "address"
        }
      ],
      "stateMutability": "view",
      "type": "function"
    },
    {
      "inputs": [
        {
          "internalType": "address",
          "name": "_to",
          "type": "address"
        },
        {
          "internalType": "uint256",
          "name": "tokenAmount",
          "type": "uint256"
        },
        {
          "internalType": "bool",
          "name": "isLong",
          "type": "bool"
        }
      ],
      "name": "decreasePosition",
      "outputs": [],
      "stateMutability": "payable",
      "type": "function"
    },
    {
      "inputs": [],
      "name": "getVaultOwner",
      "outputs": [
        {
          "internalType": "address",
          "name": "",
          "type": "address"
        }
      ],
      "stateMutability": "view",
      "type": "function"
    },
    {
      "inputs": [],
      "name": "gmxPositionRouter",
      "outputs": [
        {
          "internalType": "address",
          "name": "",
          "type": "address"
        }
      ],
      "stateMutability": "view",
      "type": "function"
    },
    {
      "inputs": [],
      "name": "gmxReader",
      "outputs": [
        {
          "internalType": "address",
          "name": "",
          "type": "address"
        }
      ],
      "stateMutability": "view",
      "type": "function"
    },
    {
      "inputs": [],
      "name": "gmxRouter",
      "outputs": [
        {
          "internalType": "address",
          "name": "",
          "type": "address"
        }
      ],
      "stateMutability": "view",
      "type": "function"
    },
    {
      "inputs": [],
      "name": "gmxVault",
      "outputs": [
        {
          "internalType": "address",
          "name": "",
          "type": "address"
        }
      ],
      "stateMutability": "view",
      "type": "function"
    },
    {
      "inputs": [
        {
          "internalType": "uint256",
          "name": "tokenAmount",
          "type": "uint256"
        },
        {
          "internalType": "bool",
          "name": "isLong",
          "type": "bool"
        }
      ],
      "name": "increasePosition",
      "outputs": [],
      "stateMutability": "payable",
      "type": "function"
    },
    {
      "inputs": [
        {
          "internalType": "bool",
          "name": "isLong",
          "type": "bool"
        }
      ],
      "name": "liquidatePosition",
      "outputs": [],
      "stateMutability": "payable",
      "type": "function"
    },
    {
      "inputs": [],
      "name": "owner",
      "outputs": [
        {
          "internalType": "address",
          "name": "",
          "type": "address"
        }
      ],
      "stateMutability": "view",
      "type": "function"
    },
    {
      "inputs": [],
      "name": "renounceOwnership",
      "outputs": [],
      "stateMutability": "nonpayable",
      "type": "function"
    },
    {
      "inputs": [
        {
          "internalType": "address",
          "name": "_addr",
          "type": "address"
        }
      ],
      "name": "setVaultOwner",
      "outputs": [],
      "stateMutability": "nonpayable",
      "type": "function"
    },
    {
      "inputs": [
        {
          "internalType": "address",
          "name": "newOwner",
          "type": "address"
        }
      ],
      "name": "transferOwnership",
      "outputs": [],
      "stateMutability": "nonpayable",
      "type": "function"
    },
    {
      "inputs": [],
      "name": "vault",
      "outputs": [
        {
          "internalType": "address",
          "name": "",
          "type": "address"
        }
      ],
      "stateMutability": "view",
      "type": "function"
    }
  ],
  "bytecode": "0x6080604052600180546001600160a01b031990811673489ee077994b6658eafa855c308275ead8097c4a1790915560028054821673abbc5f99639c9b6bcb58544ddf04efa6802f406417905560038054821673b87a436b93ffe9d75c5cfa7bacfff96430b098681790556004805482167322199a49a999c351ef7927602cfb187ec3cae4891790556005805482167382af49447d8a07e3bd95bd0d56f35241523fbab11790556006805490911673ff970a61a04b1ca14834a43f5de4533ebddb5cc8179055348015620000d157600080fd5b506040516200162f3803806200162f833981016040819052620000f4916200024e565b620000ff33620001fe565b600880546001600160a01b0319166001600160a01b03838116919091179091556002546003546040516338c74dd960e01b815290831660048201529116906338c74dd990602401600060405180830381600087803b1580156200016157600080fd5b505af115801562000176573d6000803e3d6000fd5b50505050600360009054906101000a90046001600160a01b03166001600160a01b03166363ae21036040518163ffffffff1660e01b8152600401602060405180830381865afa158015620001ce573d6000803e3d6000fd5b505050506040513d601f19601f82011682018060405250810190620001f4919062000280565b600755506200029a565b600080546001600160a01b038381166001600160a01b0319831681178455604051919092169283917f8be0079c531659141344cd1fd0a4f28419497f9722a3daafe3b4186f6b6457e09190a35050565b6000602082840312156200026157600080fd5b81516001600160a01b03811681146200027957600080fd5b9392505050565b6000602082840312156200029357600080fd5b5051919050565b61138580620002aa6000396000f3fe6080604052600436106100d35760003560e01c8063a44ca3461161007a578063a44ca346146101c9578063ad5c4648146101e7578063b3b3453e14610207578063be77cd3214610227578063c5dac33b14610247578063c657e7c21461025a578063f2fde38b1461027a578063fbfa77cf1461029a57600080fd5b80631c5ecc06146100d8578063434c0c75146100ed578063634e318014610116578063715018a6146101435780637cb175971461015857806380b3631c1461016b57806389a302711461018b5780638da5cb5b146101ab575b600080fd5b6100eb6100e6366004610ffe565b6102ba565b005b3480156100f957600080fd5b5061010360075481565b6040519081526020015b60405180910390f35b34801561012257600080fd5b50600254610136906001600160a01b031681565b60405161010d919061102e565b34801561014f57600080fd5b506100eb610739565b6100eb610166366004611042565b61074d565b34801561017757600080fd5b506100eb610186366004611082565b610b0e565b34801561019757600080fd5b50600654610136906001600160a01b031681565b3480156101b757600080fd5b506000546001600160a01b0316610136565b3480156101d557600080fd5b506008546001600160a01b0316610136565b3480156101f357600080fd5b50600554610136906001600160a01b031681565b34801561021357600080fd5b50600154610136906001600160a01b031681565b34801561023357600080fd5b50600454610136906001600160a01b031681565b6100eb61025536600461109d565b610b38565b34801561026657600080fd5b50600354610136906001600160a01b031681565b34801561028657600080fd5b506100eb610295366004611082565b610ecd565b3480156102a657600080fd5b50600854610136906001600160a01b031681565b6008546001600160a01b031633146102ed5760405162461bcd60e51b81526004016102e4906110dd565b60405180910390fd5b6006546008546040516323b872dd60e01b81526001600160a01b039182166004820152306024820152604481018590529116906323b872dd906064016020604051808303816000875af1158015610348573d6000803e3d6000fd5b505050506040513d601f19601f8201168201806040525081019061036c9190611100565b5060065460025460405163095ea7b360e01b81526001600160a01b0391821660048201526024810185905291169063095ea7b3906044016020604051808303816000875af11580156103c2573d6000803e3d6000fd5b505050506040513d601f19601f820116820180604052508101906103e69190611100565b50600060646103f684606e61111d565b6104009190611148565b6104149069d3c21bcecceda100000061111d565b9050600082156105cd57604080516002808252606082018352600092602083019080368337505060065482519293506001600160a01b03169183915060009061045f5761045f61116a565b6001600160a01b0392831660209182029290920101526005548251911690829060019081106104905761049061116a565b6001600160a01b039283166020918202929092010152600154600554604051637092736960e11b8152612710939283169263e124e6d2926104d69291169060040161102e565b602060405180830381865afa1580156104f3573d6000803e3d6000fd5b505050506040513d601f19601f820116820180604052508101906105179190611180565b6105239061272e61111d565b61052d9190611148565b60035460055460405163f2ae372f60e01b81529294506001600160a01b039182169263f2ae372f923492610595928792909116908b906000908b908d908c90655af3107a400090716d79726566657272616c4d6176696e69676960701b9086906004016111dd565b6000604051808303818588803b1580156105ae57600080fd5b505af11580156105c2573d6000803e3d6000fd5b505050505050610733565b60408051600180825281830190925260009160208083019080368337505060065482519293506001600160a01b03169183915060009061060f5761060f61116a565b6001600160a01b0392831660209182029290920101526001546005546040516340d3096b60e11b815261271093928316926381a612d6926106559291169060040161102e565b602060405180830381865afa158015610672573d6000803e3d6000fd5b505050506040513d601f19601f820116820180604052508101906106969190611180565b6106a2906126f261111d565b6106ac9190611148565b60035460055460405163f2ae372f60e01b81529294506001600160a01b039182169263f2ae372f9234926106ff928792909116908b906000908b908d908c90655af3107a400090859081906004016111dd565b6000604051808303818588803b15801561071857600080fd5b505af115801561072c573d6000803e3d6000fd5b5050505050505b50505050565b610741610f46565b61074b6000610fa0565b565b6008546001600160a01b031633146107775760405162461bcd60e51b81526004016102e4906110dd565b600081156109a957604080516002808252606082018352600092602083019080368337505060055482519293506001600160a01b0316918391506000906107c0576107c061116a565b6001600160a01b0392831660209182029290920101526006548251911690829060019081106107f1576107f161116a565b6001600160a01b039283166020918202929092010152600154600554604051634a3f088d60e01b815260009392831692634a3f088d9261083e923092919091169081908a90600401611248565b610100604051808303816000875af115801561085e573d6000803e3d6000fd5b505050506040513d601f19601f820116820180604052508101906108829190611272565b50506001546005546040516340d3096b60e11b8152979850612710976001600160a01b0392831697506381a612d696506108c5955091169250600401905061102e565b602060405180830381865afa1580156108e2573d6000803e3d6000fd5b505050506040513d601f19601f820116820180604052508101906109069190611180565b610912906126f261111d565b61091c9190611148565b600354600554604051637be7d14160e01b81529295506001600160a01b0391821692637be7d1419234926109719288929091169060009088908c9033908d908590655af3107a400090829081906004016112dc565b6000604051808303818588803b15801561098a57600080fd5b505af115801561099e573d6000803e3d6000fd5b505050505050505050565b60408051600180825281830190925260009160208083019080368337505060065482519293506001600160a01b0316918391506000906109eb576109eb61116a565b6001600160a01b039283166020918202929092010152600154600654600554604051634a3f088d60e01b815260009493841693634a3f088d93610a3a9330939183169216908a90600401611248565b610100604051808303816000875af1158015610a5a573d6000803e3d6000fd5b505050506040513d601f19601f82011682018060405250810190610a7e9190611272565b5050600154600554604051637092736960e11b8152979850612710976001600160a01b03928316975063e124e6d29650610ac1955091169250600401905061102e565b602060405180830381865afa158015610ade573d6000803e3d6000fd5b505050506040513d601f19601f82011682018060405250810190610b029190611180565b6109129061272e61111d565b610b16610f46565b600880546001600160a01b0319166001600160a01b0392909216919091179055565b6008546001600160a01b03163314610b625760405162461bcd60e51b81526004016102e4906110dd565b6000806064610b7285606e61111d565b610b7c9190611148565b610b909069d3c21bcecceda100000061111d565b90508215610d4957604080516002808252606082018352600092602083019080368337505060055482519293506001600160a01b031691839150600090610bd957610bd961116a565b6001600160a01b039283166020918202929092010152600654825191169082906001908110610c0a57610c0a61116a565b6001600160a01b0392831660209182029290920101526001546005546040516340d3096b60e11b815261271093928316926381a612d692610c509291169060040161102e565b602060405180830381865afa158015610c6d573d6000803e3d6000fd5b505050506040513d601f19601f82011682018060405250810190610c919190611180565b610c9d906126f261111d565b610ca79190611148565b6003546005549194506001600160a01b0390811691637be7d141913491859116610cdb8a69d3c21bcecceda100000061111d565b878a8d8b6000655af3107a40006000806040518d63ffffffff1660e01b8152600401610d119b9a999897969594939291906112dc565b6000604051808303818588803b158015610d2a57600080fd5b505af1158015610d3e573d6000803e3d6000fd5b505050505050610ec6565b60408051600180825281830190925260009160208083019080368337505060065482519293506001600160a01b031691839150600090610d8b57610d8b61116a565b6001600160a01b039283166020918202929092010152600154600554604051637092736960e11b8152612710939283169263e124e6d292610dd19291169060040161102e565b602060405180830381865afa158015610dee573d6000803e3d6000fd5b505050506040513d601f19601f82011682018060405250810190610e129190611180565b610e1e9061272e61111d565b610e289190611148565b6003546005549194506001600160a01b0390811691637be7d141913491859116610e5c8a69d3c21bcecceda100000061111d565b878a8d8b6000655af3107a40006000806040518d63ffffffff1660e01b8152600401610e929b9a999897969594939291906112dc565b6000604051808303818588803b158015610eab57600080fd5b505af1158015610ebf573d6000803e3d6000fd5b5050505050505b5050505050565b610ed5610f46565b6001600160a01b038116610f3a5760405162461bcd60e51b815260206004820152602660248201527f4f776e61626c653a206e6577206f776e657220697320746865207a65726f206160448201526564647265737360d01b60648201526084016102e4565b610f4381610fa0565b50565b6000546001600160a01b0316331461074b5760405162461bcd60e51b815260206004820181905260248201527f4f776e61626c653a2063616c6c6572206973206e6f7420746865206f776e657260448201526064016102e4565b600080546001600160a01b038381166001600160a01b0319831681178455604051919092169283917f8be0079c531659141344cd1fd0a4f28419497f9722a3daafe3b4186f6b6457e09190a35050565b8015158114610f4357600080fd5b6000806040838503121561101157600080fd5b82359150602083013561102381610ff0565b809150509250929050565b6001600160a01b0391909116815260200190565b60006020828403121561105457600080fd5b813561105f81610ff0565b9392505050565b80356001600160a01b038116811461107d57600080fd5b919050565b60006020828403121561109457600080fd5b61105f82611066565b6000806000606084860312156110b257600080fd5b6110bb84611066565b92506020840135915060408401356110d281610ff0565b809150509250925092565b602080825260099082015268139bdd081d985d5b1d60ba1b604082015260600190565b60006020828403121561111257600080fd5b815161105f81610ff0565b808202811582820484141761114257634e487b7160e01b600052601160045260246000fd5b92915050565b60008261116557634e487b7160e01b600052601260045260246000fd5b500490565b634e487b7160e01b600052603260045260246000fd5b60006020828403121561119257600080fd5b5051919050565b600081518084526020808501945080840160005b838110156111d25781516001600160a01b0316875295820195908201906001016111ad565b509495945050505050565b60006101408083526111f18184018e611199565b6001600160a01b039c8d166020850152604084019b909b5250506060810197909752608087019590955292151560a086015260c085019190915260e084015261010083015290921661012090920191909152919050565b6001600160a01b039485168152928416602084015292166040820152901515606082015260800190565b600080600080600080600080610100898b03121561128f57600080fd5b885197506020890151965060408901519550606089015194506080890151935060a0890151925060c08901516112c481610ff0565b8092505060e089015190509295985092959890939650565b60006101608083526112f08184018f611199565b6001600160a01b039d8e166020850152604084019c909c5250506060810198909852951515608088015293881660a087015260c086019290925260e085015261010084015215156101208301529092166101409092019190915291905056fea26469706673582212203c3320a69102e3301f662232120a471ab69ae3b0c65968b1a8fe75c641274c9f64736f6c63430008110033",
  "linkReferences": {},
  "deployedLinkReferences": {}
}