{
  "_format": "hh-sol-artifact-1",
  "contractName": "GMX_controller",
  "sourceName": "contracts/GMX_controller.sol",
  "abi": [
    {
      "inputs": [
        {
          "internalType": "address",
          "name": "_vault",
          "type": "address"
        }
      ],
      "stateMutability": "nonpayable",
      "type": "constructor"
    },
    {
      "anonymous": false,
      "inputs": [
        {
          "indexed": true,
          "internalType": "address",
          "name": "previousOwner",
          "type": "address"
        },
        {
          "indexed": true,
          "internalType": "address",
          "name": "newOwner",
          "type": "address"
        }
      ],
      "name": "OwnershipTransferred",
      "type": "event"
    },
    {
      "inputs": [],
      "name": "GMXexecutionFee",
      "outputs": [
        {
          "internalType": "uint256",
          "name": "",
          "type": "uint256"
        }
      ],
      "stateMutability": "view",
      "type": "function"
    },
    {
      "inputs": [],
      "name": "USDC",
      "outputs": [
        {
          "internalType": "address",
          "name": "",
          "type": "address"
        }
      ],
      "stateMutability": "view",
      "type": "function"
    },
    {
      "inputs": [],
      "name": "WETH",
      "outputs": [
        {
          "internalType": "address",
          "name": "",
          "type": "address"
        }
      ],
      "stateMutability": "view",
      "type": "function"
    },
    {
      "inputs": [
        {
          "internalType": "address",
          "name": "_to",
          "type": "address"
        },
        {
          "internalType": "uint256",
          "name": "tokenAmount",
          "type": "uint256"
        },
        {
          "internalType": "bool",
          "name": "isLong",
          "type": "bool"
        }
      ],
      "name": "decreasePosition",
      "outputs": [],
      "stateMutability": "payable",
      "type": "function"
    },
    {
      "inputs": [],
      "name": "getGMXexecutionFees",
      "outputs": [
        {
          "internalType": "uint256",
          "name": "",
          "type": "uint256"
        }
      ],
      "stateMutability": "view",
      "type": "function"
    },
    {
      "inputs": [],
      "name": "getVaultOwner",
      "outputs": [
        {
          "internalType": "address",
          "name": "",
          "type": "address"
        }
      ],
      "stateMutability": "view",
      "type": "function"
    },
    {
      "inputs": [],
      "name": "gmxPositionRouter",
      "outputs": [
        {
          "internalType": "address",
          "name": "",
          "type": "address"
        }
      ],
      "stateMutability": "view",
      "type": "function"
    },
    {
      "inputs": [],
      "name": "gmxRouter",
      "outputs": [
        {
          "internalType": "address",
          "name": "",
          "type": "address"
        }
      ],
      "stateMutability": "view",
      "type": "function"
    },
    {
      "inputs": [],
      "name": "gmxVault",
      "outputs": [
        {
          "internalType": "address",
          "name": "",
          "type": "address"
        }
      ],
      "stateMutability": "view",
      "type": "function"
    },
    {
      "inputs": [
        {
          "internalType": "uint256",
          "name": "tokenAmount",
          "type": "uint256"
        },
        {
          "internalType": "bool",
          "name": "isLong",
          "type": "bool"
        }
      ],
      "name": "increasePosition",
      "outputs": [],
      "stateMutability": "payable",
      "type": "function"
    },
    {
      "inputs": [
        {
          "internalType": "bool",
          "name": "isLong",
          "type": "bool"
        }
      ],
      "name": "liquidatePosition",
      "outputs": [],
      "stateMutability": "payable",
      "type": "function"
    },
    {
      "inputs": [],
      "name": "owner",
      "outputs": [
        {
          "internalType": "address",
          "name": "",
          "type": "address"
        }
      ],
      "stateMutability": "view",
      "type": "function"
    },
    {
      "inputs": [],
      "name": "renounceOwnership",
      "outputs": [],
      "stateMutability": "nonpayable",
      "type": "function"
    },
    {
      "inputs": [
        {
          "internalType": "uint256",
          "name": "_newFees",
          "type": "uint256"
        }
      ],
      "name": "setGMXexecutionFees",
      "outputs": [],
      "stateMutability": "nonpayable",
      "type": "function"
    },
    {
      "inputs": [
        {
          "internalType": "address",
          "name": "_addr",
          "type": "address"
        }
      ],
      "name": "setVaultOwner",
      "outputs": [],
      "stateMutability": "nonpayable",
      "type": "function"
    },
    {
      "inputs": [
        {
          "internalType": "address",
          "name": "newOwner",
          "type": "address"
        }
      ],
      "name": "transferOwnership",
      "outputs": [],
      "stateMutability": "nonpayable",
      "type": "function"
    },
    {
      "inputs": [],
      "name": "vault",
      "outputs": [
        {
          "internalType": "address",
          "name": "",
          "type": "address"
        }
      ],
      "stateMutability": "view",
      "type": "function"
    }
  ],
  "bytecode": "0x608060405273489ee077994b6658eafa855c308275ead8097c4a600160006101000a81548173ffffffffffffffffffffffffffffffffffffffff021916908373ffffffffffffffffffffffffffffffffffffffff16021790555073abbc5f99639c9b6bcb58544ddf04efa6802f4064600260006101000a81548173ffffffffffffffffffffffffffffffffffffffff021916908373ffffffffffffffffffffffffffffffffffffffff16021790555073b87a436b93ffe9d75c5cfa7bacfff96430b09868600360006101000a81548173ffffffffffffffffffffffffffffffffffffffff021916908373ffffffffffffffffffffffffffffffffffffffff1602179055507382af49447d8a07e3bd95bd0d56f35241523fbab1600460006101000a81548173ffffffffffffffffffffffffffffffffffffffff021916908373ffffffffffffffffffffffffffffffffffffffff16021790555073ff970a61a04b1ca14834a43f5de4533ebddb5cc8600560006101000a81548173ffffffffffffffffffffffffffffffffffffffff021916908373ffffffffffffffffffffffffffffffffffffffff160217905550348015620001ba57600080fd5b50604051620036b4380380620036b48339818101604052810190620001e091906200055a565b62000200620001f46200042160201b60201c565b6200042960201b60201c565b6200021c672dbe763bf0521f7760c01b620004ed60201b60201c565b62000238670e6db2e1f251c55260c01b620004ed60201b60201c565b80600760006101000a81548173ffffffffffffffffffffffffffffffffffffffff021916908373ffffffffffffffffffffffffffffffffffffffff16021790555062000295676607426c526b92fd60c01b620004ed60201b60201c565b620002b16745855cca6eac6b6c60c01b620004ed60201b60201c565b600260009054906101000a900473ffffffffffffffffffffffffffffffffffffffff1673ffffffffffffffffffffffffffffffffffffffff166338c74dd9600360009054906101000a900473ffffffffffffffffffffffffffffffffffffffff166040518263ffffffff1660e01b81526004016200033091906200059d565b600060405180830381600087803b1580156200034b57600080fd5b505af115801562000360573d6000803e3d6000fd5b5050505062000380676d963929820ba3e660c01b620004ed60201b60201c565b600360009054906101000a900473ffffffffffffffffffffffffffffffffffffffff1673ffffffffffffffffffffffffffffffffffffffff166363ae21036040518163ffffffff1660e01b8152600401602060405180830381865afa158015620003ee573d6000803e3d6000fd5b505050506040513d601f19601f82011682018060405250810190620004149190620005f5565b6006819055505062000627565b600033905090565b60008060009054906101000a900473ffffffffffffffffffffffffffffffffffffffff169050816000806101000a81548173ffffffffffffffffffffffffffffffffffffffff021916908373ffffffffffffffffffffffffffffffffffffffff1602179055508173ffffffffffffffffffffffffffffffffffffffff168173ffffffffffffffffffffffffffffffffffffffff167f8be0079c531659141344cd1fd0a4f28419497f9722a3daafe3b4186f6b6457e060405160405180910390a35050565b50565b600080fd5b600073ffffffffffffffffffffffffffffffffffffffff82169050919050565b60006200052282620004f5565b9050919050565b620005348162000515565b81146200054057600080fd5b50565b600081519050620005548162000529565b92915050565b600060208284031215620005735762000572620004f0565b5b6000620005838482850162000543565b91505092915050565b620005978162000515565b82525050565b6000602082019050620005b460008301846200058c565b92915050565b6000819050919050565b620005cf81620005ba565b8114620005db57600080fd5b50565b600081519050620005ef81620005c4565b92915050565b6000602082840312156200060e576200060d620004f0565b5b60006200061e84828501620005de565b91505092915050565b61307d80620006376000396000f3fe6080604052600436106100de5760003560e01c806389a302711161008557806389a30271146102055780638da5cb5b14610230578063a44ca3461461025b578063ad5c464814610286578063b3b3453e146102b1578063c5dac33b146102dc578063c657e7c2146102f8578063f2fde38b14610323578063fbfa77cf1461034c576100de565b80631c5ecc06146100e35780632c908916146100ff578063434c0c751461012a578063634e318014610155578063715018a61461018057806379db7ef1146101975780637cb17597146101c057806380b3631c146101dc575b600080fd5b6100fd60048036038101906100f891906125b3565b610377565b005b34801561010b57600080fd5b50610114610dce565b6040516101219190612602565b60405180910390f35b34801561013657600080fd5b5061013f610e14565b60405161014c9190612602565b60405180910390f35b34801561016157600080fd5b5061016a610e1a565b604051610177919061265e565b60405180910390f35b34801561018c57600080fd5b50610195610e40565b005b3480156101a357600080fd5b506101be60048036038101906101b99190612679565b610e54565b005b6101da60048036038101906101d591906126a6565b610eb6565b005b3480156101e857600080fd5b5061020360048036038101906101fe91906126ff565b6118f9565b005b34801561021157600080fd5b5061021a611995565b604051610227919061265e565b60405180910390f35b34801561023c57600080fd5b506102456119bb565b604051610252919061265e565b60405180910390f35b34801561026757600080fd5b506102706119e4565b60405161027d919061265e565b60405180910390f35b34801561029257600080fd5b5061029b611a4a565b6040516102a8919061265e565b60405180910390f35b3480156102bd57600080fd5b506102c6611a70565b6040516102d3919061265e565b60405180910390f35b6102f660048036038101906102f1919061272c565b611a96565b005b34801561030457600080fd5b5061030d612324565b60405161031a919061265e565b60405180910390f35b34801561032f57600080fd5b5061034a600480360381019061034591906126ff565b61234a565b005b34801561035857600080fd5b506103616123cd565b60405161036e919061265e565b60405180910390f35b61038b671553ffd31c74c81e60c01b6123f3565b61039f6736a32309b9222df160c01b6123f3565b6103b36766d81538fff8437360c01b6123f3565b6103c76708ee46326d7fb06560c01b6123f3565b6103db673fc5c24bd18a08a860c01b6123f3565b600760009054906101000a900473ffffffffffffffffffffffffffffffffffffffff1673ffffffffffffffffffffffffffffffffffffffff163373ffffffffffffffffffffffffffffffffffffffff161461046b576040517f08c379a0000000000000000000000000000000000000000000000000000000008152600401610462906127dc565b60405180910390fd5b61047f67c01af79bc57fb80260c01b6123f3565b61049367a8d86946a9d03c4b60c01b6123f3565b6104a7677e844d1e30e2108a60c01b6123f3565b6104bb67f40d17dc73d8c7ae60c01b6123f3565b6104cf67206f2d2b9074b0c560c01b6123f3565b6104e36703eff4c557f3580a60c01b6123f3565b600560009054906101000a900473ffffffffffffffffffffffffffffffffffffffff1673ffffffffffffffffffffffffffffffffffffffff166323b872dd600760009054906101000a900473ffffffffffffffffffffffffffffffffffffffff1630856040518463ffffffff1660e01b8152600401610564939291906127fc565b6020604051808303816000875af1158015610583573d6000803e3d6000fd5b505050506040513d601f19601f820116820180604052508101906105a79190612848565b506105bc673a68f175724c8b4a60c01b6123f3565b6105d067ea71f8a5066e5a1560c01b6123f3565b600560009054906101000a900473ffffffffffffffffffffffffffffffffffffffff1673ffffffffffffffffffffffffffffffffffffffff1663095ea7b3600260009054906101000a900473ffffffffffffffffffffffffffffffffffffffff16846040518363ffffffff1660e01b815260040161064f929190612875565b6020604051808303816000875af115801561066e573d6000803e3d6000fd5b505050506040513d601f19601f820116820180604052508101906106929190612848565b506106a7675479db7026163f0460c01b6123f3565b6106bb67cf01da945018afb760c01b6123f3565b60006064606e69d3c21bcecceda1000000856106d791906128cd565b6106e191906128cd565b6106eb919061293e565b905061070167d6a4f06c3d22d7a160c01b6123f3565b61071567dec70ad60c5d210a60c01b6123f3565b600061072b675d6e90f8f2adeb6c60c01b6123f3565b61073f67a12876802e972cb460c01b6123f3565b8215610adb5761075967b479f82d7e8e75c360c01b6123f3565b61076d6787fa0c00248c063d60c01b6123f3565b61078167f00d09ca87507dda60c01b6123f3565b6000600267ffffffffffffffff81111561079e5761079d61296f565b5b6040519080825280602002602001820160405280156107cc5781602001602082028036833780820191505090505b5090506107e367ef816e1277e0c56e60c01b6123f3565b600560009054906101000a900473ffffffffffffffffffffffffffffffffffffffff168160008151811061081a5761081961299e565b5b602002602001019073ffffffffffffffffffffffffffffffffffffffff16908173ffffffffffffffffffffffffffffffffffffffff168152505061086867e86c42e023b259b060c01b6123f3565b600460009054906101000a900473ffffffffffffffffffffffffffffffffffffffff168160018151811061089f5761089e61299e565b5b602002602001019073ffffffffffffffffffffffffffffffffffffffff16908173ffffffffffffffffffffffffffffffffffffffff16815250506108ed67e734a57e6ab365e560c01b6123f3565b61271061272e600160009054906101000a900473ffffffffffffffffffffffffffffffffffffffff1673ffffffffffffffffffffffffffffffffffffffff1663e124e6d2600460009054906101000a900473ffffffffffffffffffffffffffffffffffffffff166040518263ffffffff1660e01b8152600401610970919061265e565b602060405180830381865afa15801561098d573d6000803e3d6000fd5b505050506040513d601f19601f820116820180604052508101906109b191906129e2565b6109bb91906128cd565b6109c5919061293e565b91506109db67378f1445143d69de60c01b6123f3565b6109ef6710b89684857b94db60c01b6123f3565b600360009054906101000a900473ffffffffffffffffffffffffffffffffffffffff1673ffffffffffffffffffffffffffffffffffffffff1663f2ae372f3483600460009054906101000a900473ffffffffffffffffffffffffffffffffffffffff16896000898b8a6006547f6d79726566657272616c4d6176696e696769000000000000000000000000000060006040518c63ffffffff1660e01b8152600401610aa39a99989796959493929190612b73565b6000604051808303818588803b158015610abc57600080fd5b505af1158015610ad0573d6000803e3d6000fd5b505050505050610dc8565b610aef670e1f89f856110e1f60c01b6123f3565b610b036751844d4f6ee0f1e660c01b6123f3565b610b176724e22610752dab5960c01b6123f3565b6000600167ffffffffffffffff811115610b3457610b3361296f565b5b604051908082528060200260200182016040528015610b625781602001602082028036833780820191505090505b509050610b796715b6c517800dfec460c01b6123f3565b600560009054906101000a900473ffffffffffffffffffffffffffffffffffffffff1681600081518110610bb057610baf61299e565b5b602002602001019073ffffffffffffffffffffffffffffffffffffffff16908173ffffffffffffffffffffffffffffffffffffffff1681525050610bfe679c4ddd374681def560c01b6123f3565b6127106126f2600160009054906101000a900473ffffffffffffffffffffffffffffffffffffffff1673ffffffffffffffffffffffffffffffffffffffff166381a612d6600460009054906101000a900473ffffffffffffffffffffffffffffffffffffffff166040518263ffffffff1660e01b8152600401610c81919061265e565b602060405180830381865afa158015610c9e573d6000803e3d6000fd5b505050506040513d601f19601f82011682018060405250810190610cc291906129e2565b610ccc91906128cd565b610cd6919061293e565b9150610cec6790f025f76c3d453960c01b6123f3565b610d0067cca908015141a64760c01b6123f3565b600360009054906101000a900473ffffffffffffffffffffffffffffffffffffffff1673ffffffffffffffffffffffffffffffffffffffff1663f2ae372f3483600460009054906101000a900473ffffffffffffffffffffffffffffffffffffffff16896000898b8a6006546000806040518c63ffffffff1660e01b8152600401610d949a99989796959493929190612c47565b6000604051808303818588803b158015610dad57600080fd5b505af1158015610dc1573d6000803e3d6000fd5b5050505050505b50505050565b6000610de467658f1d8c5d2568ad60c01b6123f3565b610df8679caaddd1901eca9e60c01b6123f3565b610e0c674b6831b2f549d9c160c01b6123f3565b600654905090565b60065481565b600260009054906101000a900473ffffffffffffffffffffffffffffffffffffffff1681565b610e486123f6565b610e526000612474565b565b610e6867be22391ce45edce460c01b6123f3565b610e706123f6565b610e8467a6d93a2108cb411b60c01b6123f3565b610e9867c2c067e571d55b4260c01b6123f3565b610eac67e8f0b11f079034c860c01b6123f3565b8060068190555050565b610eca67541b326ff05ec70460c01b6123f3565b610ede6736a32309b9222df160c01b6123f3565b610ef26766d81538fff8437360c01b6123f3565b610f066708ee46326d7fb06560c01b6123f3565b610f1a673fc5c24bd18a08a860c01b6123f3565b600760009054906101000a900473ffffffffffffffffffffffffffffffffffffffff1673ffffffffffffffffffffffffffffffffffffffff163373ffffffffffffffffffffffffffffffffffffffff1614610faa576040517f08c379a0000000000000000000000000000000000000000000000000000000008152600401610fa1906127dc565b60405180910390fd5b610fbe67c01af79bc57fb80260c01b6123f3565b610fd267a8d86946a9d03c4b60c01b6123f3565b610fe667157003bb8096dfae60c01b6123f3565b610ffa6720617779615ab21260c01b6123f3565b61100e671afa78798c49b0a060c01b6123f3565b611022675f0cd7816eedd49860c01b6123f3565b600061103867ef1c88ab6d58966660c01b6123f3565b61104c67e0496f9dc5d7895360c01b6123f3565b81156114e8576110666778b14ade977f8f9260c01b6123f3565b61107a6792546aa97513e1cb60c01b6123f3565b61108e6702bcdd008c59786960c01b6123f3565b6000600267ffffffffffffffff8111156110ab576110aa61296f565b5b6040519080825280602002602001820160405280156110d95781602001602082028036833780820191505090505b5090506110f067d6a40d5acd88ad4860c01b6123f3565b600460009054906101000a900473ffffffffffffffffffffffffffffffffffffffff16816000815181106111275761112661299e565b5b602002602001019073ffffffffffffffffffffffffffffffffffffffff16908173ffffffffffffffffffffffffffffffffffffffff1681525050611175677a15c3a9ef1068ea60c01b6123f3565b600560009054906101000a900473ffffffffffffffffffffffffffffffffffffffff16816001815181106111ac576111ab61299e565b5b602002602001019073ffffffffffffffffffffffffffffffffffffffff16908173ffffffffffffffffffffffffffffffffffffffff16815250506111fa6733802205e8dedfb760c01b6123f3565b61120e67d667df8e75ba9a7460c01b6123f3565b6000600160009054906101000a900473ffffffffffffffffffffffffffffffffffffffff1673ffffffffffffffffffffffffffffffffffffffff16634a3f088d30600460009054906101000a900473ffffffffffffffffffffffffffffffffffffffff16600460009054906101000a900473ffffffffffffffffffffffffffffffffffffffff16886040518563ffffffff1660e01b81526004016112b59493929190612cea565b610100604051808303816000875af11580156112d5573d6000803e3d6000fd5b505050506040513d601f19601f820116820180604052508101906112f99190612d2f565b505050505050509050611316670fc086f4a8793b3d60c01b6123f3565b6127106126f2600160009054906101000a900473ffffffffffffffffffffffffffffffffffffffff1673ffffffffffffffffffffffffffffffffffffffff166381a612d6600460009054906101000a900473ffffffffffffffffffffffffffffffffffffffff166040518263ffffffff1660e01b8152600401611399919061265e565b602060405180830381865afa1580156113b6573d6000803e3d6000fd5b505050506040513d601f19601f820116820180604052508101906113da91906129e2565b6113e491906128cd565b6113ee919061293e565b925061140467ab6380d5ffd1cfbc60c01b6123f3565b611418676983cdd5e6d1e2ae60c01b6123f3565b600360009054906101000a900473ffffffffffffffffffffffffffffffffffffffff1673ffffffffffffffffffffffffffffffffffffffff16637be7d1413484600460009054906101000a900473ffffffffffffffffffffffffffffffffffffffff166000868a338b60006006546000806040518d63ffffffff1660e01b81526004016114af9b9a99989796959493929190612de5565b6000604051808303818588803b1580156114c857600080fd5b505af11580156114dc573d6000803e3d6000fd5b505050505050506118f5565b6114fc670edcd19268fcba5d60c01b6123f3565b61151067fc6bf86706d6e9ee60c01b6123f3565b6115246781ca735161f3fdfc60c01b6123f3565b6000600167ffffffffffffffff8111156115415761154061296f565b5b60405190808252806020026020018201604052801561156f5781602001602082028036833780820191505090505b50905061158667b10cffe6a115529b60c01b6123f3565b600560009054906101000a900473ffffffffffffffffffffffffffffffffffffffff16816000815181106115bd576115bc61299e565b5b602002602001019073ffffffffffffffffffffffffffffffffffffffff16908173ffffffffffffffffffffffffffffffffffffffff168152505061160b67ef7753341c33871b60c01b6123f3565b61161f6780639155c039508760c01b6123f3565b6000600160009054906101000a900473ffffffffffffffffffffffffffffffffffffffff1673ffffffffffffffffffffffffffffffffffffffff16634a3f088d30600560009054906101000a900473ffffffffffffffffffffffffffffffffffffffff16600460009054906101000a900473ffffffffffffffffffffffffffffffffffffffff16886040518563ffffffff1660e01b81526004016116c69493929190612cea565b610100604051808303816000875af11580156116e6573d6000803e3d6000fd5b505050506040513d601f19601f8201168201806040525081019061170a9190612d2f565b50505050505050905061172767fa0ff1f80240575d60c01b6123f3565b61271061272e600160009054906101000a900473ffffffffffffffffffffffffffffffffffffffff1673ffffffffffffffffffffffffffffffffffffffff1663e124e6d2600460009054906101000a900473ffffffffffffffffffffffffffffffffffffffff166040518263ffffffff1660e01b81526004016117aa919061265e565b602060405180830381865afa1580156117c7573d6000803e3d6000fd5b505050506040513d601f19601f820116820180604052508101906117eb91906129e2565b6117f591906128cd565b6117ff919061293e565b9250611815676e78189e13a6a40160c01b6123f3565b611829670dc1dcf734e9186760c01b6123f3565b600360009054906101000a900473ffffffffffffffffffffffffffffffffffffffff1673ffffffffffffffffffffffffffffffffffffffff16637be7d1413484600460009054906101000a900473ffffffffffffffffffffffffffffffffffffffff166000868a338b60006006546000806040518d63ffffffff1660e01b81526004016118c09b9a99989796959493929190612de5565b6000604051808303818588803b1580156118d957600080fd5b505af11580156118ed573d6000803e3d6000fd5b505050505050505b5050565b61190d674e87e51e4bcc28cc60c01b6123f3565b6119156123f6565b611929677a848bca5454329960c01b6123f3565b61193d67ee4e5aa144b33feb60c01b6123f3565b61195167cbb54fb70efc30a560c01b6123f3565b80600760006101000a81548173ffffffffffffffffffffffffffffffffffffffff021916908373ffffffffffffffffffffffffffffffffffffffff16021790555050565b600560009054906101000a900473ffffffffffffffffffffffffffffffffffffffff1681565b60008060009054906101000a900473ffffffffffffffffffffffffffffffffffffffff16905090565b60006119fa67988b7c24b8d0bbd660c01b6123f3565b611a0e6743c2cb69ba4419c660c01b6123f3565b611a22676035a21cf5484e5960c01b6123f3565b600760009054906101000a900473ffffffffffffffffffffffffffffffffffffffff16905090565b600460009054906101000a900473ffffffffffffffffffffffffffffffffffffffff1681565b600160009054906101000a900473ffffffffffffffffffffffffffffffffffffffff1681565b611aaa67b5c4ffc91009787c60c01b6123f3565b611abe6736a32309b9222df160c01b6123f3565b611ad26766d81538fff8437360c01b6123f3565b611ae66708ee46326d7fb06560c01b6123f3565b611afa673fc5c24bd18a08a860c01b6123f3565b600760009054906101000a900473ffffffffffffffffffffffffffffffffffffffff1673ffffffffffffffffffffffffffffffffffffffff163373ffffffffffffffffffffffffffffffffffffffff1614611b8a576040517f08c379a0000000000000000000000000000000000000000000000000000000008152600401611b81906127dc565b60405180910390fd5b611b9e67c01af79bc57fb80260c01b6123f3565b611bb267a8d86946a9d03c4b60c01b6123f3565b611bc6677995902f82fd5e1260c01b6123f3565b611bda67f6867ed3f053794960c01b6123f3565b611bee6711f9b60e14718c8760c01b6123f3565b611c0267093401ea0b00509660c01b6123f3565b6000611c1867d8deab08e8b253be60c01b6123f3565b611c2c676f3ed6b1647896f960c01b6123f3565b60006064606e69d3c21bcecceda100000086611c4891906128cd565b611c5291906128cd565b611c5c919061293e565b9050611c72675bd9ba6f7736cd6960c01b6123f3565b611c86675e7ff7da2a4f277b60c01b6123f3565b821561201957611ca067e19d8f750d933c4860c01b6123f3565b611cb46703afddbb14621bd960c01b6123f3565b611cc86786dfbd5396dab2f260c01b6123f3565b6000600267ffffffffffffffff811115611ce557611ce461296f565b5b604051908082528060200260200182016040528015611d135781602001602082028036833780820191505090505b509050611d2a67b80ba6d905d38c4560c01b6123f3565b600460009054906101000a900473ffffffffffffffffffffffffffffffffffffffff1681600081518110611d6157611d6061299e565b5b602002602001019073ffffffffffffffffffffffffffffffffffffffff16908173ffffffffffffffffffffffffffffffffffffffff1681525050611daf670d53fccc7d673fe060c01b6123f3565b600560009054906101000a900473ffffffffffffffffffffffffffffffffffffffff1681600181518110611de657611de561299e565b5b602002602001019073ffffffffffffffffffffffffffffffffffffffff16908173ffffffffffffffffffffffffffffffffffffffff1681525050611e34675d71f8fabfd2142f60c01b6123f3565b6127106126f2600160009054906101000a900473ffffffffffffffffffffffffffffffffffffffff1673ffffffffffffffffffffffffffffffffffffffff166381a612d6600460009054906101000a900473ffffffffffffffffffffffffffffffffffffffff166040518263ffffffff1660e01b8152600401611eb7919061265e565b602060405180830381865afa158015611ed4573d6000803e3d6000fd5b505050506040513d601f19601f82011682018060405250810190611ef891906129e2565b611f0291906128cd565b611f0c919061293e565b9250611f2267db832fe5eb6ea54d60c01b6123f3565b611f36676319a53b805d1ff360c01b6123f3565b600360009054906101000a900473ffffffffffffffffffffffffffffffffffffffff1673ffffffffffffffffffffffffffffffffffffffff16637be7d1413483600460009054906101000a900473ffffffffffffffffffffffffffffffffffffffff1669d3c21bcecceda10000008a611faf91906128cd565b878a8d8b60006006546000806040518d63ffffffff1660e01b8152600401611fe19b9a99989796959493929190612e97565b6000604051808303818588803b158015611ffa57600080fd5b505af115801561200e573d6000803e3d6000fd5b50505050505061231d565b61202d67a2f4ad0cb421bf5160c01b6123f3565b612041674bf427ae2c4413a660c01b6123f3565b612055671362a3b05819dfe760c01b6123f3565b6000600167ffffffffffffffff8111156120725761207161296f565b5b6040519080825280602002602001820160405280156120a05781602001602082028036833780820191505090505b5090506120b767e2651fb36b868cde60c01b6123f3565b600560009054906101000a900473ffffffffffffffffffffffffffffffffffffffff16816000815181106120ee576120ed61299e565b5b602002602001019073ffffffffffffffffffffffffffffffffffffffff16908173ffffffffffffffffffffffffffffffffffffffff168152505061213c6728c7a8de09890f2360c01b6123f3565b61271061272e600160009054906101000a900473ffffffffffffffffffffffffffffffffffffffff1673ffffffffffffffffffffffffffffffffffffffff1663e124e6d2600460009054906101000a900473ffffffffffffffffffffffffffffffffffffffff166040518263ffffffff1660e01b81526004016121bf919061265e565b602060405180830381865afa1580156121dc573d6000803e3d6000fd5b505050506040513d601f19601f8201168201806040525081019061220091906129e2565b61220a91906128cd565b612214919061293e565b925061222a670b43feaa380e34bd60c01b6123f3565b61223e679c40201030ebe6a160c01b6123f3565b600360009054906101000a900473ffffffffffffffffffffffffffffffffffffffff1673ffffffffffffffffffffffffffffffffffffffff16637be7d1413483600460009054906101000a900473ffffffffffffffffffffffffffffffffffffffff1669d3c21bcecceda10000008a6122b791906128cd565b878a8d8b60006006546000806040518d63ffffffff1660e01b81526004016122e99b9a99989796959493929190612e97565b6000604051808303818588803b15801561230257600080fd5b505af1158015612316573d6000803e3d6000fd5b5050505050505b5050505050565b600360009054906101000a900473ffffffffffffffffffffffffffffffffffffffff1681565b6123526123f6565b600073ffffffffffffffffffffffffffffffffffffffff168173ffffffffffffffffffffffffffffffffffffffff16036123c1576040517f08c379a00000000000000000000000000000000000000000000000000000000081526004016123b890612fbb565b60405180910390fd5b6123ca81612474565b50565b600760009054906101000a900473ffffffffffffffffffffffffffffffffffffffff1681565b50565b6123fe612538565b73ffffffffffffffffffffffffffffffffffffffff1661241c6119bb565b73ffffffffffffffffffffffffffffffffffffffff1614612472576040517f08c379a000000000000000000000000000000000000000000000000000000000815260040161246990613027565b60405180910390fd5b565b60008060009054906101000a900473ffffffffffffffffffffffffffffffffffffffff169050816000806101000a81548173ffffffffffffffffffffffffffffffffffffffff021916908373ffffffffffffffffffffffffffffffffffffffff1602179055508173ffffffffffffffffffffffffffffffffffffffff168173ffffffffffffffffffffffffffffffffffffffff167f8be0079c531659141344cd1fd0a4f28419497f9722a3daafe3b4186f6b6457e060405160405180910390a35050565b600033905090565b600080fd5b6000819050919050565b61255881612545565b811461256357600080fd5b50565b6000813590506125758161254f565b92915050565b60008115159050919050565b6125908161257b565b811461259b57600080fd5b50565b6000813590506125ad81612587565b92915050565b600080604083850312156125ca576125c9612540565b5b60006125d885828601612566565b92505060206125e98582860161259e565b9150509250929050565b6125fc81612545565b82525050565b600060208201905061261760008301846125f3565b92915050565b600073ffffffffffffffffffffffffffffffffffffffff82169050919050565b60006126488261261d565b9050919050565b6126588161263d565b82525050565b6000602082019050612673600083018461264f565b92915050565b60006020828403121561268f5761268e612540565b5b600061269d84828501612566565b91505092915050565b6000602082840312156126bc576126bb612540565b5b60006126ca8482850161259e565b91505092915050565b6126dc8161263d565b81146126e757600080fd5b50565b6000813590506126f9816126d3565b92915050565b60006020828403121561271557612714612540565b5b6000612723848285016126ea565b91505092915050565b60008060006060848603121561274557612744612540565b5b6000612753868287016126ea565b935050602061276486828701612566565b92505060406127758682870161259e565b9150509250925092565b600082825260208201905092915050565b7f4e6f74207661756c740000000000000000000000000000000000000000000000600082015250565b60006127c660098361277f565b91506127d182612790565b602082019050919050565b600060208201905081810360008301526127f5816127b9565b9050919050565b6000606082019050612811600083018661264f565b61281e602083018561264f565b61282b60408301846125f3565b949350505050565b60008151905061284281612587565b92915050565b60006020828403121561285e5761285d612540565b5b600061286c84828501612833565b91505092915050565b600060408201905061288a600083018561264f565b61289760208301846125f3565b9392505050565b7f4e487b7100000000000000000000000000000000000000000000000000000000600052601160045260246000fd5b60006128d882612545565b91506128e383612545565b92508282026128f181612545565b915082820484148315176129085761290761289e565b5b5092915050565b7f4e487b7100000000000000000000000000000000000000000000000000000000600052601260045260246000fd5b600061294982612545565b915061295483612545565b9250826129645761296361290f565b5b828204905092915050565b7f4e487b7100000000000000000000000000000000000000000000000000000000600052604160045260246000fd5b7f4e487b7100000000000000000000000000000000000000000000000000000000600052603260045260246000fd5b6000815190506129dc8161254f565b92915050565b6000602082840312156129f8576129f7612540565b5b6000612a06848285016129cd565b91505092915050565b600081519050919050565b600082825260208201905092915050565b6000819050602082019050919050565b612a448161263d565b82525050565b6000612a568383612a3b565b60208301905092915050565b6000602082019050919050565b6000612a7a82612a0f565b612a848185612a1a565b9350612a8f83612a2b565b8060005b83811015612ac0578151612aa78882612a4a565b9750612ab283612a62565b925050600181019050612a93565b5085935050505092915050565b6000819050919050565b6000819050919050565b6000612afc612af7612af284612acd565b612ad7565b612545565b9050919050565b612b0c81612ae1565b82525050565b612b1b8161257b565b82525050565b6000819050919050565b6000819050919050565b60008160001b9050919050565b6000612b5d612b58612b5384612b21565b612b35565b612b2b565b9050919050565b612b6d81612b42565b82525050565b6000610140820190508181036000830152612b8e818d612a6f565b9050612b9d602083018c61264f565b612baa604083018b6125f3565b612bb7606083018a612b03565b612bc460808301896125f3565b612bd160a0830188612b12565b612bde60c08301876125f3565b612beb60e08301866125f3565b612bf9610100830185612b64565b612c0761012083018461264f565b9b9a5050505050505050505050565b6000612c31612c2c612c2784612acd565b612b35565b612b2b565b9050919050565b612c4181612c16565b82525050565b6000610140820190508181036000830152612c62818d612a6f565b9050612c71602083018c61264f565b612c7e604083018b6125f3565b612c8b606083018a612b03565b612c9860808301896125f3565b612ca560a0830188612b12565b612cb260c08301876125f3565b612cbf60e08301866125f3565b612ccd610100830185612c38565b612cdb61012083018461264f565b9b9a5050505050505050505050565b6000608082019050612cff600083018761264f565b612d0c602083018661264f565b612d19604083018561264f565b612d266060830184612b12565b95945050505050565b600080600080600080600080610100898b031215612d5057612d4f612540565b5b6000612d5e8b828c016129cd565b9850506020612d6f8b828c016129cd565b9750506040612d808b828c016129cd565b9650506060612d918b828c016129cd565b9550506080612da28b828c016129cd565b94505060a0612db38b828c016129cd565b93505060c0612dc48b828c01612833565b92505060e0612dd58b828c016129cd565b9150509295985092959890939650565b6000610160820190508181036000830152612e00818e612a6f565b9050612e0f602083018d61264f565b612e1c604083018c612b03565b612e29606083018b6125f3565b612e36608083018a612b12565b612e4360a083018961264f565b612e5060c08301886125f3565b612e5d60e0830187612b03565b612e6b6101008301866125f3565b612e79610120830185612b12565b612e8761014083018461264f565b9c9b505050505050505050505050565b6000610160820190508181036000830152612eb2818e612a6f565b9050612ec1602083018d61264f565b612ece604083018c6125f3565b612edb606083018b6125f3565b612ee8608083018a612b12565b612ef560a083018961264f565b612f0260c08301886125f3565b612f0f60e0830187612b03565b612f1d6101008301866125f3565b612f2b610120830185612b12565b612f3961014083018461264f565b9c9b505050505050505050505050565b7f4f776e61626c653a206e6577206f776e657220697320746865207a65726f206160008201527f6464726573730000000000000000000000000000000000000000000000000000602082015250565b6000612fa560268361277f565b9150612fb082612f49565b604082019050919050565b60006020820190508181036000830152612fd481612f98565b9050919050565b7f4f776e61626c653a2063616c6c6572206973206e6f7420746865206f776e6572600082015250565b600061301160208361277f565b915061301c82612fdb565b602082019050919050565b6000602082019050818103600083015261304081613004565b905091905056fea264697066735822122057c8b0286afdc26fe046c273476155e088fc8b96cb96dfd69d2192043c96457264736f6c63430008110033",
  "linkReferences": {},
  "deployedLinkReferences": {}
}