{
  "_format": "hh-sol-artifact-1",
  "contractName": "GMX_controller",
  "sourceName": "contracts/GMX_controller.sol",
  "abi": [
    {
      "inputs": [
        {
          "internalType": "address",
          "name": "_vault",
          "type": "address"
        }
      ],
      "stateMutability": "nonpayable",
      "type": "constructor"
    },
    {
      "anonymous": false,
      "inputs": [
        {
          "indexed": true,
          "internalType": "address",
          "name": "previousOwner",
          "type": "address"
        },
        {
          "indexed": true,
          "internalType": "address",
          "name": "newOwner",
          "type": "address"
        }
      ],
      "name": "OwnershipTransferred",
      "type": "event"
    },
    {
      "inputs": [],
      "name": "GMXexecutionFee",
      "outputs": [
        {
          "internalType": "uint256",
          "name": "",
          "type": "uint256"
        }
      ],
      "stateMutability": "view",
      "type": "function"
    },
    {
      "inputs": [],
      "name": "USDC",
      "outputs": [
        {
          "internalType": "address",
          "name": "",
          "type": "address"
        }
      ],
      "stateMutability": "view",
      "type": "function"
    },
    {
      "inputs": [],
      "name": "WETH",
      "outputs": [
        {
          "internalType": "address",
          "name": "",
          "type": "address"
        }
      ],
      "stateMutability": "view",
      "type": "function"
    },
    {
      "inputs": [
        {
          "internalType": "address",
          "name": "_to",
          "type": "address"
        },
        {
          "internalType": "uint256",
          "name": "tokenAmount",
          "type": "uint256"
        },
        {
          "internalType": "bool",
          "name": "isLong",
          "type": "bool"
        }
      ],
      "name": "decreasePosition",
      "outputs": [],
      "stateMutability": "payable",
      "type": "function"
    },
    {
      "inputs": [],
      "name": "getVaultOwner",
      "outputs": [
        {
          "internalType": "address",
          "name": "",
          "type": "address"
        }
      ],
      "stateMutability": "view",
      "type": "function"
    },
    {
      "inputs": [],
      "name": "gmxPositionRouter",
      "outputs": [
        {
          "internalType": "address",
          "name": "",
          "type": "address"
        }
      ],
      "stateMutability": "view",
      "type": "function"
    },
    {
      "inputs": [],
      "name": "gmxReader",
      "outputs": [
        {
          "internalType": "address",
          "name": "",
          "type": "address"
        }
      ],
      "stateMutability": "view",
      "type": "function"
    },
    {
      "inputs": [],
      "name": "gmxRouter",
      "outputs": [
        {
          "internalType": "address",
          "name": "",
          "type": "address"
        }
      ],
      "stateMutability": "view",
      "type": "function"
    },
    {
      "inputs": [],
      "name": "gmxVault",
      "outputs": [
        {
          "internalType": "address",
          "name": "",
          "type": "address"
        }
      ],
      "stateMutability": "view",
      "type": "function"
    },
    {
      "inputs": [
        {
          "internalType": "uint256",
          "name": "tokenAmount",
          "type": "uint256"
        },
        {
          "internalType": "bool",
          "name": "isLong",
          "type": "bool"
        }
      ],
      "name": "increasePosition",
      "outputs": [],
      "stateMutability": "payable",
      "type": "function"
    },
    {
      "inputs": [
        {
          "internalType": "bool",
          "name": "isLong",
          "type": "bool"
        }
      ],
      "name": "liquidatePosition",
      "outputs": [],
      "stateMutability": "payable",
      "type": "function"
    },
    {
      "inputs": [],
      "name": "owner",
      "outputs": [
        {
          "internalType": "address",
          "name": "",
          "type": "address"
        }
      ],
      "stateMutability": "view",
      "type": "function"
    },
    {
      "inputs": [],
      "name": "renounceOwnership",
      "outputs": [],
      "stateMutability": "nonpayable",
      "type": "function"
    },
    {
      "inputs": [
        {
          "internalType": "address",
          "name": "_addr",
          "type": "address"
        }
      ],
      "name": "setVaultOwner",
      "outputs": [],
      "stateMutability": "nonpayable",
      "type": "function"
    },
    {
      "inputs": [
        {
          "internalType": "address",
          "name": "newOwner",
          "type": "address"
        }
      ],
      "name": "transferOwnership",
      "outputs": [],
      "stateMutability": "nonpayable",
      "type": "function"
    },
    {
      "inputs": [],
      "name": "vault",
      "outputs": [
        {
          "internalType": "address",
          "name": "",
          "type": "address"
        }
      ],
      "stateMutability": "view",
      "type": "function"
    }
  ],
  "bytecode": "0x6080604052600180546001600160a01b031990811673489ee077994b6658eafa855c308275ead8097c4a1790915560028054821673abbc5f99639c9b6bcb58544ddf04efa6802f406417905560038054821673b87a436b93ffe9d75c5cfa7bacfff96430b098681790556004805482167322199a49a999c351ef7927602cfb187ec3cae4891790556005805482167382af49447d8a07e3bd95bd0d56f35241523fbab11790556006805490911673ff970a61a04b1ca14834a43f5de4533ebddb5cc8179055348015620000d157600080fd5b50604051620016e5380380620016e5833981016040819052620000f4916200024e565b620000ff33620001fe565b600880546001600160a01b0319166001600160a01b03838116919091179091556002546003546040516338c74dd960e01b815290831660048201529116906338c74dd990602401600060405180830381600087803b1580156200016157600080fd5b505af115801562000176573d6000803e3d6000fd5b50505050600360009054906101000a90046001600160a01b03166001600160a01b03166363ae21036040518163ffffffff1660e01b8152600401602060405180830381865afa158015620001ce573d6000803e3d6000fd5b505050506040513d601f19601f82011682018060405250810190620001f4919062000280565b600755506200029a565b600080546001600160a01b038381166001600160a01b0319831681178455604051919092169283917f8be0079c531659141344cd1fd0a4f28419497f9722a3daafe3b4186f6b6457e09190a35050565b6000602082840312156200026157600080fd5b81516001600160a01b03811681146200027957600080fd5b9392505050565b6000602082840312156200029357600080fd5b5051919050565b61143b80620002aa6000396000f3fe6080604052600436106100d35760003560e01c8063a44ca3461161007a578063a44ca346146101c9578063ad5c4648146101e7578063b3b3453e14610207578063be77cd3214610227578063c5dac33b14610247578063c657e7c21461025a578063f2fde38b1461027a578063fbfa77cf1461029a57600080fd5b80631c5ecc06146100d8578063434c0c75146100ed578063634e318014610116578063715018a6146101435780637cb175971461015857806380b3631c1461016b57806389a302711461018b5780638da5cb5b146101ab575b600080fd5b6100eb6100e63660046110b4565b6102ba565b005b3480156100f957600080fd5b5061010360075481565b6040519081526020015b60405180910390f35b34801561012257600080fd5b50600254610136906001600160a01b031681565b60405161010d91906110e4565b34801561014f57600080fd5b506100eb61075a565b6100eb6101663660046110f8565b61076e565b34801561017757600080fd5b506100eb610186366004611138565b610b34565b34801561019757600080fd5b50600654610136906001600160a01b031681565b3480156101b757600080fd5b506000546001600160a01b0316610136565b3480156101d557600080fd5b506008546001600160a01b0316610136565b3480156101f357600080fd5b50600554610136906001600160a01b031681565b34801561021357600080fd5b50600154610136906001600160a01b031681565b34801561023357600080fd5b50600454610136906001600160a01b031681565b6100eb610255366004611153565b610b5e565b34801561026657600080fd5b50600354610136906001600160a01b031681565b34801561028657600080fd5b506100eb610295366004611138565b610f1d565b3480156102a657600080fd5b50600854610136906001600160a01b031681565b6008546001600160a01b031633146102ed5760405162461bcd60e51b81526004016102e490611193565b60405180910390fd5b6006546008546040516323b872dd60e01b81526001600160a01b039182166004820152306024820152604481018590529116906323b872dd906064016020604051808303816000875af1158015610348573d6000803e3d6000fd5b505050506040513d601f19601f8201168201806040525081019061036c91906111b6565b5060065460025460405163095ea7b360e01b81526001600160a01b0391821660048201526024810185905291169063095ea7b3906044016020604051808303816000875af11580156103c2573d6000803e3d6000fd5b505050506040513d601f19601f820116820180604052508101906103e691906111b6565b50600060646103f684606e6111d3565b61040091906111fe565b6104149069d3c21bcecceda10000006111d3565b9050600082156105ea57604080516002808252606082018352600092602083019080368337505060065482519293506001600160a01b03169183915060009061045f5761045f611220565b6001600160a01b03928316602091820292909201015260055482519116908290600190811061049057610490611220565b6001600160a01b039283166020918202929092010152600154600554604051637092736960e11b8152612710939283169263e124e6d2926104d6929116906004016110e4565b602060405180830381865afa1580156104f3573d6000803e3d6000fd5b505050506040513d601f19601f820116820180604052508101906105179190611236565b6105239061272e6111d3565b61052d91906111fe565b915061053882610f96565b61054185610f96565b61054a83610f96565b60035460055460085460405163f2ae372f60e01b81526001600160a01b039384169363f2ae372f9334936105b2938893928316928d926000928d928f928e92655af3107a400092716d79726566657272616c4d6176696e69676960701b921690600401611293565b6000604051808303818588803b1580156105cb57600080fd5b505af11580156105df573d6000803e3d6000fd5b505050505050610754565b60408051600180825281830190925260009160208083019080368337505060065482519293506001600160a01b03169183915060009061062c5761062c611220565b6001600160a01b0392831660209182029290920101526001546005546040516340d3096b60e11b815261271093928316926381a612d692610672929116906004016110e4565b602060405180830381865afa15801561068f573d6000803e3d6000fd5b505050506040513d601f19601f820116820180604052508101906106b39190611236565b6106bf906126f26111d3565b6106c991906111fe565b60035460055460085460405163f2ae372f60e01b81529395506001600160a01b039283169363f2ae372f933493610720938893918316928d926000928d928f928e92655af3107a4000928792911690600401611293565b6000604051808303818588803b15801561073957600080fd5b505af115801561074d573d6000803e3d6000fd5b5050505050505b50505050565b610762610fdb565b61076c6000611035565b565b6008546001600160a01b031633146107985760405162461bcd60e51b81526004016102e490611193565b600081156109cf57604080516002808252606082018352600092602083019080368337505060055482519293506001600160a01b0316918391506000906107e1576107e1611220565b6001600160a01b03928316602091820292909201015260065482519116908290600190811061081257610812611220565b6001600160a01b039283166020918202929092010152600154600554604051634a3f088d60e01b815260009392831692634a3f088d9261085f923092919091169081908a906004016112fe565b610100604051808303816000875af115801561087f573d6000803e3d6000fd5b505050506040513d601f19601f820116820180604052508101906108a39190611328565b50506001546005546040516340d3096b60e11b8152979850612710976001600160a01b0392831697506381a612d696506108e695509116925060040190506110e4565b602060405180830381865afa158015610903573d6000803e3d6000fd5b505050506040513d601f19601f820116820180604052508101906109279190611236565b610933906126f26111d3565b61093d91906111fe565b600354600554600854604051637be7d14160e01b81529396506001600160a01b0392831693637be7d141933493610997938993918316926000928a928e9233928f928792655af3107a400092849290911690600401611392565b6000604051808303818588803b1580156109b057600080fd5b505af11580156109c4573d6000803e3d6000fd5b505050505050505050565b60408051600180825281830190925260009160208083019080368337505060065482519293506001600160a01b031691839150600090610a1157610a11611220565b6001600160a01b039283166020918202929092010152600154600654600554604051634a3f088d60e01b815260009493841693634a3f088d93610a609330939183169216908a906004016112fe565b610100604051808303816000875af1158015610a80573d6000803e3d6000fd5b505050506040513d601f19601f82011682018060405250810190610aa49190611328565b5050600154600554604051637092736960e11b8152979850612710976001600160a01b03928316975063e124e6d29650610ae795509116925060040190506110e4565b602060405180830381865afa158015610b04573d6000803e3d6000fd5b505050506040513d601f19601f82011682018060405250810190610b289190611236565b6109339061272e6111d3565b610b3c610fdb565b600880546001600160a01b0319166001600160a01b0392909216919091179055565b6008546001600160a01b03163314610b885760405162461bcd60e51b81526004016102e490611193565b6000806064610b9885606e6111d3565b610ba291906111fe565b610bb69069d3c21bcecceda10000006111d3565b90508215610d8457604080516002808252606082018352600092602083019080368337505060055482519293506001600160a01b031691839150600090610bff57610bff611220565b6001600160a01b039283166020918202929092010152600654825191169082906001908110610c3057610c30611220565b6001600160a01b0392831660209182029290920101526001546005546040516340d3096b60e11b815261271093928316926381a612d692610c76929116906004016110e4565b602060405180830381865afa158015610c93573d6000803e3d6000fd5b505050506040513d601f19601f82011682018060405250810190610cb79190611236565b610cc3906126f26111d3565b610ccd91906111fe565b6003546005549194506001600160a01b0390811691637be7d141913491859116610d018a69d3c21bcecceda10000006111d3565b878a8d8b6000655af3107a40006000600860009054906101000a90046001600160a01b03166040518d63ffffffff1660e01b8152600401610d4c9b9a99989796959493929190611392565b6000604051808303818588803b158015610d6557600080fd5b505af1158015610d79573d6000803e3d6000fd5b505050505050610f16565b60408051600180825281830190925260009160208083019080368337505060065482519293506001600160a01b031691839150600090610dc657610dc6611220565b6001600160a01b039283166020918202929092010152600154600554604051637092736960e11b8152612710939283169263e124e6d292610e0c929116906004016110e4565b602060405180830381865afa158015610e29573d6000803e3d6000fd5b505050506040513d601f19601f82011682018060405250810190610e4d9190611236565b610e599061272e6111d3565b610e6391906111fe565b6003546005549194506001600160a01b0390811691637be7d141913491859116610e978a69d3c21bcecceda10000006111d3565b878a8d8b6000655af3107a40006000600860009054906101000a90046001600160a01b03166040518d63ffffffff1660e01b8152600401610ee29b9a99989796959493929190611392565b6000604051808303818588803b158015610efb57600080fd5b505af1158015610f0f573d6000803e3d6000fd5b5050505050505b5050505050565b610f25610fdb565b6001600160a01b038116610f8a5760405162461bcd60e51b815260206004820152602660248201527f4f776e61626c653a206e6577206f776e657220697320746865207a65726f206160448201526564647265737360d01b60648201526084016102e4565b610f9381611035565b50565b610f9381604051602401610fac91815260200190565b60408051601f198184030181529190526020810180516001600160e01b031663f82c50f160e01b179052611085565b6000546001600160a01b0316331461076c5760405162461bcd60e51b815260206004820181905260248201527f4f776e61626c653a2063616c6c6572206973206e6f7420746865206f776e657260448201526064016102e4565b600080546001600160a01b038381166001600160a01b0319831681178455604051919092169283917f8be0079c531659141344cd1fd0a4f28419497f9722a3daafe3b4186f6b6457e09190a35050565b80516a636f6e736f6c652e6c6f67602083016000808483855afa5050505050565b8015158114610f9357600080fd5b600080604083850312156110c757600080fd5b8235915060208301356110d9816110a6565b809150509250929050565b6001600160a01b0391909116815260200190565b60006020828403121561110a57600080fd5b8135611115816110a6565b9392505050565b80356001600160a01b038116811461113357600080fd5b919050565b60006020828403121561114a57600080fd5b6111158261111c565b60008060006060848603121561116857600080fd5b6111718461111c565b9250602084013591506040840135611188816110a6565b809150509250925092565b602080825260099082015268139bdd081d985d5b1d60ba1b604082015260600190565b6000602082840312156111c857600080fd5b8151611115816110a6565b80820281158282048414176111f857634e487b7160e01b600052601160045260246000fd5b92915050565b60008261121b57634e487b7160e01b600052601260045260246000fd5b500490565b634e487b7160e01b600052603260045260246000fd5b60006020828403121561124857600080fd5b5051919050565b600081518084526020808501945080840160005b838110156112885781516001600160a01b031687529582019590820190600101611263565b509495945050505050565b60006101408083526112a78184018e61124f565b6001600160a01b039c8d166020850152604084019b909b5250506060810197909752608087019590955292151560a086015260c085019190915260e084015261010083015290921661012090920191909152919050565b6001600160a01b039485168152928416602084015292166040820152901515606082015260800190565b600080600080600080600080610100898b03121561134557600080fd5b885197506020890151965060408901519550606089015194506080890151935060a0890151925060c089015161137a816110a6565b8092505060e089015190509295985092959890939650565b60006101608083526113a68184018f61124f565b6001600160a01b039d8e166020850152604084019c909c5250506060810198909852951515608088015293881660a087015260c086019290925260e085015261010084015215156101208301529092166101409092019190915291905056fea264697066735822122085a2d7fac529c85115fb530975c1dc9a300d64d1d4c5f76248ad217dc04422e964736f6c63430008110033",
  "linkReferences": {},
  "deployedLinkReferences": {}
}