{
  "_format": "hh-sol-artifact-1",
  "contractName": "MyVault",
  "sourceName": "contracts/MyVault.sol",
  "abi": [
    {
      "inputs": [],
      "stateMutability": "nonpayable",
      "type": "constructor"
    },
    {
      "anonymous": false,
      "inputs": [
        {
          "indexed": true,
          "internalType": "address",
          "name": "owner",
          "type": "address"
        },
        {
          "indexed": true,
          "internalType": "address",
          "name": "spender",
          "type": "address"
        },
        {
          "indexed": false,
          "internalType": "uint256",
          "name": "value",
          "type": "uint256"
        }
      ],
      "name": "Approval",
      "type": "event"
    },
    {
      "anonymous": false,
      "inputs": [
        {
          "indexed": false,
          "internalType": "address",
          "name": "tokenAddress",
          "type": "address"
        }
      ],
      "name": "NewTokenAdded",
      "type": "event"
    },
    {
      "anonymous": false,
      "inputs": [
        {
          "indexed": true,
          "internalType": "address",
          "name": "previousOwner",
          "type": "address"
        },
        {
          "indexed": true,
          "internalType": "address",
          "name": "newOwner",
          "type": "address"
        }
      ],
      "name": "OwnershipTransferred",
      "type": "event"
    },
    {
      "anonymous": false,
      "inputs": [
        {
          "indexed": false,
          "internalType": "address",
          "name": "tokenAddress",
          "type": "address"
        }
      ],
      "name": "TokenRemoved",
      "type": "event"
    },
    {
      "anonymous": false,
      "inputs": [
        {
          "indexed": true,
          "internalType": "address",
          "name": "from",
          "type": "address"
        },
        {
          "indexed": true,
          "internalType": "address",
          "name": "to",
          "type": "address"
        },
        {
          "indexed": false,
          "internalType": "uint256",
          "name": "value",
          "type": "uint256"
        }
      ],
      "name": "Transfer",
      "type": "event"
    },
    {
      "anonymous": false,
      "inputs": [
        {
          "indexed": true,
          "internalType": "address",
          "name": "account",
          "type": "address"
        },
        {
          "indexed": false,
          "internalType": "uint256",
          "name": "when",
          "type": "uint256"
        },
        {
          "indexed": false,
          "internalType": "address",
          "name": "token_deposited",
          "type": "address"
        },
        {
          "indexed": false,
          "internalType": "uint256",
          "name": "amount",
          "type": "uint256"
        },
        {
          "indexed": false,
          "internalType": "uint256",
          "name": "PLPissued",
          "type": "uint256"
        }
      ],
      "name": "depositEvent",
      "type": "event"
    },
    {
      "anonymous": false,
      "inputs": [
        {
          "indexed": false,
          "internalType": "uint256",
          "name": "when",
          "type": "uint256"
        },
        {
          "indexed": false,
          "internalType": "uint8",
          "name": "oldexpo",
          "type": "uint8"
        },
        {
          "indexed": false,
          "internalType": "uint8",
          "name": "newexpo",
          "type": "uint8"
        }
      ],
      "name": "expoEvent",
      "type": "event"
    },
    {
      "anonymous": false,
      "inputs": [
        {
          "indexed": false,
          "internalType": "uint256",
          "name": "when",
          "type": "uint256"
        },
        {
          "indexed": false,
          "internalType": "uint8",
          "name": "exposition",
          "type": "uint8"
        },
        {
          "indexed": false,
          "internalType": "uint256",
          "name": "oldNAV",
          "type": "uint256"
        },
        {
          "indexed": false,
          "internalType": "uint256",
          "name": "NAV",
          "type": "uint256"
        },
        {
          "indexed": false,
          "internalType": "uint256",
          "name": "usdcNAV",
          "type": "uint256"
        },
        {
          "indexed": false,
          "internalType": "uint256",
          "name": "longNAV",
          "type": "uint256"
        },
        {
          "indexed": false,
          "internalType": "uint256",
          "name": "shortNAV",
          "type": "uint256"
        },
        {
          "indexed": false,
          "internalType": "uint256",
          "name": "totalsupply",
          "type": "uint256"
        }
      ],
      "name": "navEvent",
      "type": "event"
    },
    {
      "anonymous": false,
      "inputs": [
        {
          "indexed": true,
          "internalType": "address",
          "name": "account",
          "type": "address"
        },
        {
          "indexed": false,
          "internalType": "uint256",
          "name": "when",
          "type": "uint256"
        },
        {
          "indexed": false,
          "internalType": "uint256",
          "name": "amount",
          "type": "uint256"
        },
        {
          "indexed": false,
          "internalType": "uint256",
          "name": "unitprice",
          "type": "uint256"
        }
      ],
      "name": "withdrawEvent",
      "type": "event"
    },
    {
      "inputs": [],
      "name": "GMX_controller",
      "outputs": [
        {
          "internalType": "address",
          "name": "",
          "type": "address"
        }
      ],
      "stateMutability": "view",
      "type": "function"
    },
    {
      "inputs": [],
      "name": "USDC",
      "outputs": [
        {
          "internalType": "address",
          "name": "",
          "type": "address"
        }
      ],
      "stateMutability": "view",
      "type": "function"
    },
    {
      "inputs": [],
      "name": "WETH",
      "outputs": [
        {
          "internalType": "address",
          "name": "",
          "type": "address"
        }
      ],
      "stateMutability": "view",
      "type": "function"
    },
    {
      "inputs": [
        {
          "internalType": "address",
          "name": "tokenAddress",
          "type": "address"
        }
      ],
      "name": "acceptToken",
      "outputs": [],
      "stateMutability": "nonpayable",
      "type": "function"
    },
    {
      "inputs": [
        {
          "internalType": "address",
          "name": "owner",
          "type": "address"
        },
        {
          "internalType": "address",
          "name": "spender",
          "type": "address"
        }
      ],
      "name": "allowance",
      "outputs": [
        {
          "internalType": "uint256",
          "name": "",
          "type": "uint256"
        }
      ],
      "stateMutability": "view",
      "type": "function"
    },
    {
      "inputs": [
        {
          "internalType": "address",
          "name": "spender",
          "type": "address"
        },
        {
          "internalType": "uint256",
          "name": "amount",
          "type": "uint256"
        }
      ],
      "name": "approve",
      "outputs": [
        {
          "internalType": "bool",
          "name": "",
          "type": "bool"
        }
      ],
      "stateMutability": "nonpayable",
      "type": "function"
    },
    {
      "inputs": [
        {
          "internalType": "address",
          "name": "account",
          "type": "address"
        }
      ],
      "name": "balanceOf",
      "outputs": [
        {
          "internalType": "uint256",
          "name": "",
          "type": "uint256"
        }
      ],
      "stateMutability": "view",
      "type": "function"
    },
    {
      "inputs": [],
      "name": "decimals",
      "outputs": [
        {
          "internalType": "uint8",
          "name": "",
          "type": "uint8"
        }
      ],
      "stateMutability": "view",
      "type": "function"
    },
    {
      "inputs": [
        {
          "internalType": "address",
          "name": "spender",
          "type": "address"
        },
        {
          "internalType": "uint256",
          "name": "subtractedValue",
          "type": "uint256"
        }
      ],
      "name": "decreaseAllowance",
      "outputs": [
        {
          "internalType": "bool",
          "name": "",
          "type": "bool"
        }
      ],
      "stateMutability": "nonpayable",
      "type": "function"
    },
    {
      "inputs": [
        {
          "internalType": "address",
          "name": "tokenAddress",
          "type": "address"
        },
        {
          "internalType": "uint256",
          "name": "_amount",
          "type": "uint256"
        }
      ],
      "name": "deposit",
      "outputs": [],
      "stateMutability": "payable",
      "type": "function"
    },
    {
      "inputs": [],
      "name": "exposition",
      "outputs": [
        {
          "internalType": "uint8",
          "name": "",
          "type": "uint8"
        }
      ],
      "stateMutability": "view",
      "type": "function"
    },
    {
      "inputs": [],
      "name": "fees",
      "outputs": [
        {
          "internalType": "uint8",
          "name": "",
          "type": "uint8"
        }
      ],
      "stateMutability": "view",
      "type": "function"
    },
    {
      "inputs": [],
      "name": "getExposition",
      "outputs": [
        {
          "internalType": "uint8",
          "name": "",
          "type": "uint8"
        }
      ],
      "stateMutability": "view",
      "type": "function"
    },
    {
      "inputs": [],
      "name": "getGMX_controller",
      "outputs": [
        {
          "internalType": "address",
          "name": "",
          "type": "address"
        }
      ],
      "stateMutability": "view",
      "type": "function"
    },
    {
      "inputs": [],
      "name": "getNetAssetValue",
      "outputs": [
        {
          "internalType": "uint256",
          "name": "",
          "type": "uint256"
        }
      ],
      "stateMutability": "view",
      "type": "function"
    },
    {
      "inputs": [],
      "name": "gmxVault",
      "outputs": [
        {
          "internalType": "address",
          "name": "",
          "type": "address"
        }
      ],
      "stateMutability": "view",
      "type": "function"
    },
    {
      "inputs": [
        {
          "internalType": "address",
          "name": "spender",
          "type": "address"
        },
        {
          "internalType": "uint256",
          "name": "addedValue",
          "type": "uint256"
        }
      ],
      "name": "increaseAllowance",
      "outputs": [
        {
          "internalType": "bool",
          "name": "",
          "type": "bool"
        }
      ],
      "stateMutability": "nonpayable",
      "type": "function"
    },
    {
      "inputs": [
        {
          "internalType": "address",
          "name": "tokenAddress",
          "type": "address"
        }
      ],
      "name": "isAccepted",
      "outputs": [
        {
          "internalType": "bool",
          "name": "",
          "type": "bool"
        }
      ],
      "stateMutability": "view",
      "type": "function"
    },
    {
      "inputs": [],
      "name": "liquidateLongPositions",
      "outputs": [],
      "stateMutability": "payable",
      "type": "function"
    },
    {
      "inputs": [],
      "name": "liquidateShortPositions",
      "outputs": [],
      "stateMutability": "payable",
      "type": "function"
    },
    {
      "inputs": [],
      "name": "name",
      "outputs": [
        {
          "internalType": "string",
          "name": "",
          "type": "string"
        }
      ],
      "stateMutability": "view",
      "type": "function"
    },
    {
      "inputs": [],
      "name": "netAssetValue",
      "outputs": [
        {
          "internalType": "uint256",
          "name": "",
          "type": "uint256"
        }
      ],
      "stateMutability": "view",
      "type": "function"
    },
    {
      "inputs": [],
      "name": "openPosition",
      "outputs": [],
      "stateMutability": "payable",
      "type": "function"
    },
    {
      "inputs": [],
      "name": "owner",
      "outputs": [
        {
          "internalType": "address",
          "name": "",
          "type": "address"
        }
      ],
      "stateMutability": "view",
      "type": "function"
    },
    {
      "inputs": [
        {
          "internalType": "address",
          "name": "tokenAddress",
          "type": "address"
        }
      ],
      "name": "removeToken",
      "outputs": [],
      "stateMutability": "nonpayable",
      "type": "function"
    },
    {
      "inputs": [],
      "name": "renounceOwnership",
      "outputs": [],
      "stateMutability": "nonpayable",
      "type": "function"
    },
    {
      "inputs": [
        {
          "internalType": "uint8",
          "name": "_exposition",
          "type": "uint8"
        }
      ],
      "name": "setExposition",
      "outputs": [],
      "stateMutability": "nonpayable",
      "type": "function"
    },
    {
      "inputs": [
        {
          "internalType": "address",
          "name": "_addr",
          "type": "address"
        }
      ],
      "name": "setGMX_controller",
      "outputs": [],
      "stateMutability": "nonpayable",
      "type": "function"
    },
    {
      "inputs": [],
      "name": "symbol",
      "outputs": [
        {
          "internalType": "string",
          "name": "",
          "type": "string"
        }
      ],
      "stateMutability": "view",
      "type": "function"
    },
    {
      "inputs": [
        {
          "internalType": "address",
          "name": "",
          "type": "address"
        }
      ],
      "name": "tokenAccepted",
      "outputs": [
        {
          "internalType": "bool",
          "name": "",
          "type": "bool"
        }
      ],
      "stateMutability": "view",
      "type": "function"
    },
    {
      "inputs": [],
      "name": "totalSupply",
      "outputs": [
        {
          "internalType": "uint256",
          "name": "",
          "type": "uint256"
        }
      ],
      "stateMutability": "view",
      "type": "function"
    },
    {
      "inputs": [
        {
          "internalType": "address",
          "name": "to",
          "type": "address"
        },
        {
          "internalType": "uint256",
          "name": "amount",
          "type": "uint256"
        }
      ],
      "name": "transfer",
      "outputs": [
        {
          "internalType": "bool",
          "name": "",
          "type": "bool"
        }
      ],
      "stateMutability": "nonpayable",
      "type": "function"
    },
    {
      "inputs": [
        {
          "internalType": "address",
          "name": "from",
          "type": "address"
        },
        {
          "internalType": "address",
          "name": "to",
          "type": "address"
        },
        {
          "internalType": "uint256",
          "name": "amount",
          "type": "uint256"
        }
      ],
      "name": "transferFrom",
      "outputs": [
        {
          "internalType": "bool",
          "name": "",
          "type": "bool"
        }
      ],
      "stateMutability": "nonpayable",
      "type": "function"
    },
    {
      "inputs": [
        {
          "internalType": "address",
          "name": "newOwner",
          "type": "address"
        }
      ],
      "name": "transferOwnership",
      "outputs": [],
      "stateMutability": "nonpayable",
      "type": "function"
    },
    {
      "inputs": [],
      "name": "updateNetAssetValue",
      "outputs": [],
      "stateMutability": "nonpayable",
      "type": "function"
    },
    {
      "inputs": [
        {
          "internalType": "uint256",
          "name": "_amount",
          "type": "uint256"
        }
      ],
      "name": "withdraw",
      "outputs": [],
      "stateMutability": "payable",
      "type": "function"
    }
  ],
  "bytecode": "0x6080604052600780546001600160a01b03199081167382af49447d8a07e3bd95bd0d56f35241523fbab11790915560088054821673ff970a61a04b1ca14834a43f5de4533ebddb5cc81790556009805490911673489ee077994b6658eafa855c308275ead8097c4a1790553480156200007757600080fd5b5060405180604001604052806008815260200167506f6c79706c757360c01b815250604051806040016040528060038152602001620504c560ec1b815250620000cf620000c96200010660201b60201c565b6200010a565b6004620000dd8382620001ff565b506005620000ec8282620001ff565b5050600b80546001600a5562ff00ff1916905550620002cb565b3390565b600080546001600160a01b038381166001600160a01b0319831681178455604051919092169283917f8be0079c531659141344cd1fd0a4f28419497f9722a3daafe3b4186f6b6457e09190a35050565b634e487b7160e01b600052604160045260246000fd5b600181811c908216806200018557607f821691505b602082108103620001a657634e487b7160e01b600052602260045260246000fd5b50919050565b601f821115620001fa57600081815260208120601f850160051c81016020861015620001d55750805b601f850160051c820191505b81811015620001f657828155600101620001e1565b5050505b505050565b81516001600160401b038111156200021b576200021b6200015a565b62000233816200022c845462000170565b84620001ac565b602080601f8311600181146200026b5760008415620002525750858301515b600019600386901b1c1916600185901b178555620001f6565b600085815260208120601f198616915b828110156200029c578886015182559484019460019091019084016200027b565b5085821015620002bb5787850151600019600388901b60f8161c191681555b5050505050600190811b01905550565b61277280620002db6000396000f3fe6080604052600436106101cf5760003560e01c8063715018a6116100f8578063a9059cbb11610090578063a9059cbb146104dd578063ad5c4648146104fd578063aedf795e1461051d578063b3b3453e1461054d578063dd62ed3e1461056d578063de9257cd1461058d578063e6f091f9146105a5578063ed61f4a1146105de578063f2fde38b146105f357600080fd5b8063715018a6146103e057806389a30271146103f55780638cd3f064146104155780638da5cb5b1461043557806395d89b41146104535780639af1d35a146104685780639ecbfa4214610487578063a3673b38146104a7578063a457c2d7146104bd57600080fd5b80633027ac221161016b5780633027ac22146102fe578063313ce56714610306578063350245c21461031a578063395093511461032257806347e7ef2414610342578063481d6ee9146103555780635fa7b584146103755780636639a81d1461039557806370a08231146103aa57600080fd5b80630677a2a5146101d457806306fdde0314610204578063095ea7b31461022657806311af7d951461025657806318160ddd146102785780631cd2f7c81461029757806323b872dd146102c357806328250e0d146102e35780632e1a7d4d146102eb575b600080fd5b3480156101e057600080fd5b506006546001600160a01b03165b6040516101fb919061238f565b60405180910390f35b34801561021057600080fd5b50610219610613565b6040516101fb91906123e9565b34801561023257600080fd5b5061024661024136600461241f565b6106a5565b60405190151581526020016101fb565b34801561026257600080fd5b50610276610271366004612449565b6106bf565b005b34801561028457600080fd5b506003545b6040519081526020016101fb565b3480156102a357600080fd5b50600b546102b19060ff1681565b60405160ff90911681526020016101fb565b3480156102cf57600080fd5b506102466102de366004612464565b6106fb565b61027661071f565b6102766102f93660046124a0565b61078a565b610276610ca0565b34801561031257600080fd5b5060126102b1565b610276610cdb565b34801561032e57600080fd5b5061024661033d36600461241f565b610ebc565b61027661035036600461241f565b610ede565b34801561036157600080fd5b506102766103703660046124b9565b61150d565b34801561038157600080fd5b50610276610390366004612449565b611668565b3480156103a157600080fd5b50600a54610289565b3480156103b657600080fd5b506102896103c5366004612449565b6001600160a01b031660009081526001602052604090205490565b3480156103ec57600080fd5b50610276611729565b34801561040157600080fd5b506008546101ee906001600160a01b031681565b34801561042157600080fd5b50610276610430366004612449565b61173d565b34801561044157600080fd5b506000546001600160a01b03166101ee565b34801561045f57600080fd5b506102196117f7565b34801561047457600080fd5b50600b546102b190610100900460ff1681565b34801561049357600080fd5b506006546101ee906001600160a01b031681565b3480156104b357600080fd5b50610289600a5481565b3480156104c957600080fd5b506102466104d836600461241f565b611806565b3480156104e957600080fd5b506102466104f836600461241f565b611881565b34801561050957600080fd5b506007546101ee906001600160a01b031681565b34801561052957600080fd5b50610246610538366004612449565b600c6020526000908152604090205460ff1681565b34801561055957600080fd5b506009546101ee906001600160a01b031681565b34801561057957600080fd5b506102896105883660046124dc565b61188f565b34801561059957600080fd5b50600b5460ff166102b1565b3480156105b157600080fd5b506102466105c0366004612449565b6001600160a01b03166000908152600c602052604090205460ff1690565b3480156105ea57600080fd5b506102766118ba565b3480156105ff57600080fd5b5061027661060e366004612449565b6118ca565b6060600480546106229061250f565b80601f016020809104026020016040519081016040528092919081815260200182805461064e9061250f565b801561069b5780601f106106705761010080835404028352916020019161069b565b820191906000526020600020905b81548152906001019060200180831161067e57829003601f168201915b5050505050905090565b6000336106b3818585611943565b60019150505b92915050565b6106c7611a68565b600680546001600160a01b039092166001600160a01b0319909216919091179055600b805462ff0000191662010000179055565b600033610709858285611ac2565b610714858585611b3c565b506001949350505050565b610727611a68565b600654604051637cb1759760e01b8152600160048201526001600160a01b0390911690637cb175979034906024015b6000604051808303818588803b15801561076f57600080fd5b505af1158015610783573d6000803e3d6000fd5b5050505050565b6000811161079757600080fd5b6040516370a0823160e01b8152819030906370a08231906107bc90339060040161238f565b602060405180830381865afa1580156107d9573d6000803e3d6000fd5b505050506040513d601f19601f820116820180604052508101906107fd9190612549565b10156108765760405162461bcd60e51b815260206004820152603a60248201527f53757270726973696e676c7920796f752063616e6e6f7420776974686472617760448201527f20746f6b656e20796f752068617665206e6f7420626f7567687400000000000060648201526084015b60405180910390fd5b61089f60405180604001604052806008815260200167576974686472617760c01b815250611cd5565b6108c96040518060400160405280600881526020016720b6b7bab73a101d60c11b81525082611d18565b6108ff604051806040016040528060128152602001712730bb103132b337b932903ab83230ba329d60711b815250600a54611d18565b610907611d61565b610930604051806040016040528060058152602001642730bb101d60d91b815250600a54611d18565b6109b7604051806040016040528060048152602001632a29901d60e11b815250306001600160a01b03166318160ddd6040518163ffffffff1660e01b8152600401602060405180830381865afa15801561098e573d6000803e3d6000fd5b505050506040513d601f19601f820116820180604052508101906109b29190612549565b611d18565b600064e8d4a51000306001600160a01b03166318160ddd6040518163ffffffff1660e01b8152600401602060405180830381865afa1580156109fd573d6000803e3d6000fd5b505050506040513d601f19601f82011682018060405250810190610a219190612549565b600a54610a2e9190612578565b610a389190612578565b9050610a686040518060400160405280600c81526020016b29b430b932b83934b1b2901d60a11b81525082611d18565b610a723383612155565b6000610a7f606484612578565b610a89908461259a565b9050610abb6040518060400160405280600e81526020016d20b6b7bab73a103a37b5b2b7101d60911b81525082611d18565b600b5460ff16600003610b5a576008546001600160a01b031663a9059cbb3384610aea64e8d4a5100088612578565b610af491906125ad565b6040518363ffffffff1660e01b8152600401610b119291906125c4565b6020604051808303816000875af1158015610b30573d6000803e3d6000fd5b505050506040513d601f19601f82011682018060405250810190610b5491906125ed565b50610c58565b600b5460ff16600103610bdb576006546001600160a01b031663c5dac33b3433610b8486866125ad565b60016040518563ffffffff1660e01b8152600401610ba493929190612608565b6000604051808303818588803b158015610bbd57600080fd5b505af1158015610bd1573d6000803e3d6000fd5b5050505050610c58565b600b5460ff16600203610c58576006546001600160a01b031663c5dac33b3433610c0586866125ad565b60006040518563ffffffff1660e01b8152600401610c2593929190612608565b6000604051808303818588803b158015610c3e57600080fd5b505af1158015610c52573d6000803e3d6000fd5b50505050505b604080514281526020810185905290810183905233907f55b6b6c484caa4fe51b6b82b0531afe069b1c2d151713cc6d9746b6db96986419060600160405180910390a2505050565b610ca8611a68565b600654604051637cb1759760e01b8152600060048201526001600160a01b0390911690637cb17597903490602401610756565b610ce3611a68565b600b5460009060ff16600114610cfa576000610cfd565b60015b6008546006546040516370a0823160e01b81529293506001600160a01b039182169263095ea7b3929091169083906370a0823190610d3f90309060040161238f565b602060405180830381865afa158015610d5c573d6000803e3d6000fd5b505050506040513d601f19601f82011682018060405250810190610d809190612549565b6040518363ffffffff1660e01b8152600401610d9d9291906125c4565b6020604051808303816000875af1158015610dbc573d6000803e3d6000fd5b505050506040513d601f19601f82011682018060405250810190610de091906125ed565b506006546008546040516370a0823160e01b81526001600160a01b0392831692631c5ecc069234929116906370a0823190610e1f90309060040161238f565b602060405180830381865afa158015610e3c573d6000803e3d6000fd5b505050506040513d601f19601f82011682018060405250810190610e609190612549565b6040516001600160e01b031960e085901b168152600481019190915284151560248201526044016000604051808303818588803b158015610ea057600080fd5b505af1158015610eb4573d6000803e3d6000fd5b505050505050565b6000336106b3818585610ecf838361188f565b610ed9919061262b565b611943565b6001600160a01b0382166000908152600c602052604090205460ff16610f405760405162461bcd60e51b8152602060048201526017602482015276151bdad95b881b9bdd081e595d081cdd5c1c1bdc9d1959604a1b604482015260640161086d565b60008111610f905760405162461bcd60e51b815260206004820152601e60248201527f416d6f756e7420746f206465706f736974206973206d616e6461746f72790000604482015260640161086d565b6000610f9d606483612578565b610fa7908361259a565b90506000610fd36040518060400160405280600781526020016611195c1bdcda5d60ca1b815250611cd5565b610ffd6040518060400160405280600881526020016720b6b7bab73a101d60c11b81525084611d18565b611037604051806040016040528060168152602001752730bb103132b337b9329037b832b930ba34b7b7101d60511b815250600a54611d18565b306001600160a01b03166318160ddd6040518163ffffffff1660e01b8152600401602060405180830381865afa158015611075573d6000803e3d6000fd5b505050506040513d601f19601f820116820180604052508101906110999190612549565b6000036110b6576110af8364e8d4a510006125ad565b90506111e8565b6110be611d61565b600b5460ff1660000361115857600a54306001600160a01b03166318160ddd6040518163ffffffff1660e01b8152600401602060405180830381865afa15801561110c573d6000803e3d6000fd5b505050506040513d601f19601f820116820180604052508101906111309190612549565b6111448569d3c21bcecceda10000006125ad565b61114e91906125ad565b6110af9190612578565b600a54306001600160a01b03166318160ddd6040518163ffffffff1660e01b8152600401602060405180830381865afa158015611199573d6000803e3d6000fd5b505050506040513d601f19601f820116820180604052508101906111bd9190612549565b6111d18469d3c21bcecceda10000006125ad565b6111db91906125ad565b6111e59190612578565b90505b6112186040518060400160405280600c81526020016b2730bb103ab83230ba32b21d60a11b815250600a54611d18565b611276604051806040016040528060048152602001632a29901d60e11b815250306001600160a01b03166318160ddd6040518163ffffffff1660e01b8152600401602060405180830381865afa15801561098e573d6000803e3d6000fd5b61129d60405180604001604052806005815260200164282628101d60d91b81525082611d18565b6112cd6040518060400160405280600e81526020016d20b6b7bab73a103a37b5b2b7101d60911b81525083611d18565b6112d7338261226f565b6040516323b872dd60e01b8152336004820152306024820152604481018490526001600160a01b038516906323b872dd906064016020604051808303816000875af115801561132a573d6000803e3d6000fd5b505050506040513d601f19601f8201168201806040525081019061134e91906125ed565b5060065460405163095ea7b360e01b81526001600160a01b038681169263095ea7b392611383929091169087906004016125c4565b6020604051808303816000875af11580156113a2573d6000803e3d6000fd5b505050506040513d601f19601f820116820180604052508101906113c691906125ed565b50600b5460ff1660010361144057600654604051630e2f660360e11b815260048101859052600160248201526001600160a01b0390911690631c5ecc069034906044016000604051808303818588803b15801561142257600080fd5b505af1158015611436573d6000803e3d6000fd5b50505050506114b5565b600b5460ff166002036114b557600654604051630e2f660360e11b815260048101859052600060248201526001600160a01b0390911690631c5ecc069034906044016000604051808303818588803b15801561149b57600080fd5b505af11580156114af573d6000803e3d6000fd5b50505050505b604080514281526001600160a01b03861660208201529081018490526060810182905233907fc43285a6e98e6524bf49b1c1bdda72f38b968b31d2861d4422c0716e89b131819060800160405180910390a250505050565b611515611a68565b60ff8116158061152857508060ff166001145b8061153657508060ff166002145b6115a15760405162461bcd60e51b815260206004820152603660248201527f56616c7565206d757374206265203020666f72206e65757472616c2c203120666044820152751bdc88131bdb99c81bdc880c88199bdc8814da1bdc9d60521b606482015260840161086d565b600b5460ff80831691160361160c5760405162461bcd60e51b815260206004820152602b60248201527f52657665727465642062656361757365206578706f736974696f6e206861732060448201526a1b9bdd0818da185b99d95960aa1b606482015260840161086d565b600b805460ff19811660ff84811691821790935560408051428152939092166020840181905291830152907ffa0731d6f72a8f51cd2381cdd6778ccea1323c89d9b49a780eb07d809e4ce1699060600160405180910390a15050565b611670611a68565b6001600160a01b0381166000908152600c602052604090205460ff166116ce5760405162461bcd60e51b8152602060048201526013602482015272151bdad95b881b9bdd081e595d081859191959606a1b604482015260640161086d565b6001600160a01b0381166000908152600c602052604090819020805460ff19169055517f4c910b69fe65a61f7531b9c5042b2329ca7179c77290aa7e2eb3afa3c8511fd39061171e90839061238f565b60405180910390a150565b611731611a68565b61173b600061231e565b565b611745611a68565b6001600160a01b0381166000908152600c602052604090205460ff16156117a45760405162461bcd60e51b8152602060048201526013602482015272151bdad95b88185b1c9958591e481859191959606a1b604482015260640161086d565b6001600160a01b0381166000908152600c602052604090819020805460ff19166001179055517fae340411f33c346ae24187433a8df6e508be40cf0deb3949d51cea12df7fa0219061171e90839061238f565b6060600580546106229061250f565b60003381611814828661188f565b9050838110156118745760405162461bcd60e51b815260206004820152602560248201527f45524332303a2064656372656173656420616c6c6f77616e63652062656c6f77604482015264207a65726f60d81b606482015260840161086d565b6107148286868403611943565b6000336106b3818585611b3c565b6001600160a01b03918216600090815260026020908152604080832093909416825291909152205490565b6118c2611a68565b61173b611d61565b6118d2611a68565b6001600160a01b0381166119375760405162461bcd60e51b815260206004820152602660248201527f4f776e61626c653a206e6577206f776e657220697320746865207a65726f206160448201526564647265737360d01b606482015260840161086d565b6119408161231e565b50565b6001600160a01b0383166119a55760405162461bcd60e51b8152602060048201526024808201527f45524332303a20617070726f76652066726f6d20746865207a65726f206164646044820152637265737360e01b606482015260840161086d565b6001600160a01b038216611a065760405162461bcd60e51b815260206004820152602260248201527f45524332303a20617070726f766520746f20746865207a65726f206164647265604482015261737360f01b606482015260840161086d565b6001600160a01b0383811660008181526002602090815260408083209487168084529482529182902085905590518481527f8c5be1e5ebec7d5bd14f71427d1e84f3dd0314c0f7b2291e5b200ac8c7c3b92591015b60405180910390a3505050565b6000546001600160a01b0316331461173b5760405162461bcd60e51b815260206004820181905260248201527f4f776e61626c653a2063616c6c6572206973206e6f7420746865206f776e6572604482015260640161086d565b6000611ace848461188f565b90506000198114611b365781811015611b295760405162461bcd60e51b815260206004820152601d60248201527f45524332303a20696e73756666696369656e7420616c6c6f77616e6365000000604482015260640161086d565b611b368484848403611943565b50505050565b6001600160a01b038316611ba05760405162461bcd60e51b815260206004820152602560248201527f45524332303a207472616e736665722066726f6d20746865207a65726f206164604482015264647265737360d81b606482015260840161086d565b6001600160a01b038216611c025760405162461bcd60e51b815260206004820152602360248201527f45524332303a207472616e7366657220746f20746865207a65726f206164647260448201526265737360e81b606482015260840161086d565b6001600160a01b03831660009081526001602052604090205481811015611c7a5760405162461bcd60e51b815260206004820152602660248201527f45524332303a207472616e7366657220616d6f756e7420657863656564732062604482015265616c616e636560d01b606482015260840161086d565b6001600160a01b03808516600081815260016020526040808220868603905592861680825290839020805486019055915160008051602061271d83398151915290611cc89086815260200190565b60405180910390a3611b36565b61194081604051602401611ce991906123e9565b60408051601f198184030181529190526020810180516001600160e01b031663104c13eb60e21b17905261236e565b611d5d8282604051602401611d2e92919061263e565b60408051601f198184030181529190526020810180516001600160e01b0316632d839cb360e21b17905261236e565b5050565b600a546008546040516370a0823160e01b8152600091829182916001600160a01b0316906370a0823190611d9990309060040161238f565b602060405180830381865afa158015611db6573d6000803e3d6000fd5b505050506040513d601f19601f82011682018060405250810190611dda9190612549565b611dee9069d3c21bcecceda10000006125ad565b600954600654600754604051634a3f088d60e01b81529394506000936001600160a01b0393841693634a3f088d93611e3493908216929116908190600190600401612660565b610100604051808303816000875af1158015611e54573d6000803e3d6000fd5b505050506040513d601f19601f82011682018060405250810190611e78919061268a565b5050505050509150506000811115611f105760095460065460075460405163045a6f3760e41b81526001600160a01b03938416936345a6f37093611eca93908216929116908190600190600401612660565b60408051808303816000875af1158015611ee8573d6000803e3d6000fd5b505050506040513d601f19601f82011682018060405250810190611f0c91906126f0565b9450505b6000611f1c858361262b565b600954600654600854600754604051634a3f088d60e01b81529495506000946001600160a01b0394851694634a3f088d94611f669490821693908216929116908790600401612660565b610100604051808303816000875af1158015611f86573d6000803e3d6000fd5b505050506040513d601f19601f82011682018060405250810190611faa919061268a565b50505050505091505060008111156120475760095460065460085460075460405163045a6f3760e41b81526001600160a01b03948516946345a6f37094612001949082169390821692911690600090600401612660565b60408051808303816000875af115801561201f573d6000803e3d6000fd5b505050506040513d601f19601f8201168201806040525081019061204391906126f0565b9550505b6000612053868361259a565b905080612060848761262b565b61206a919061262b565b600a819055507f059d0701380a5813cc605b68bc8aae0c943d3aecbfa3d35e11f8396e056eb6cc42600b60009054906101000a900460ff168a600a54898887306001600160a01b03166318160ddd6040518163ffffffff1660e01b8152600401602060405180830381865afa1580156120e7573d6000803e3d6000fd5b505050506040513d601f19601f8201168201806040525081019061210b9190612549565b6040805198895260ff9097166020890152958701949094526060860192909252608085015260a084015260c083015260e08201526101000160405180910390a15050505050505050565b6001600160a01b0382166121b55760405162461bcd60e51b815260206004820152602160248201527f45524332303a206275726e2066726f6d20746865207a65726f206164647265736044820152607360f81b606482015260840161086d565b6001600160a01b038216600090815260016020526040902054818110156122295760405162461bcd60e51b815260206004820152602260248201527f45524332303a206275726e20616d6f756e7420657863656564732062616c616e604482015261636560f01b606482015260840161086d565b6001600160a01b038316600081815260016020908152604080832086860390556003805487900390555185815291929160008051602061271d8339815191529101611a5b565b6001600160a01b0382166122c55760405162461bcd60e51b815260206004820152601f60248201527f45524332303a206d696e7420746f20746865207a65726f206164647265737300604482015260640161086d565b80600360008282546122d7919061262b565b90915550506001600160a01b03821660008181526001602090815260408083208054860190555184815260008051602061271d833981519152910160405180910390a35050565b600080546001600160a01b038381166001600160a01b0319831681178455604051919092169283917f8be0079c531659141344cd1fd0a4f28419497f9722a3daafe3b4186f6b6457e09190a35050565b80516a636f6e736f6c652e6c6f67602083016000808483855afa5050505050565b6001600160a01b0391909116815260200190565b6000815180845260005b818110156123c9576020818501810151868301820152016123ad565b506000602082860101526020601f19601f83011685010191505092915050565b6020815260006123fc60208301846123a3565b9392505050565b80356001600160a01b038116811461241a57600080fd5b919050565b6000806040838503121561243257600080fd5b61243b83612403565b946020939093013593505050565b60006020828403121561245b57600080fd5b6123fc82612403565b60008060006060848603121561247957600080fd5b61248284612403565b925061249060208501612403565b9150604084013590509250925092565b6000602082840312156124b257600080fd5b5035919050565b6000602082840312156124cb57600080fd5b813560ff811681146123fc57600080fd5b600080604083850312156124ef57600080fd5b6124f883612403565b915061250660208401612403565b90509250929050565b600181811c9082168061252357607f821691505b60208210810361254357634e487b7160e01b600052602260045260246000fd5b50919050565b60006020828403121561255b57600080fd5b5051919050565b634e487b7160e01b600052601160045260246000fd5b60008261259557634e487b7160e01b600052601260045260246000fd5b500490565b818103818111156106b9576106b9612562565b80820281158282048414176106b9576106b9612562565b6001600160a01b03929092168252602082015260400190565b8051801515811461241a57600080fd5b6000602082840312156125ff57600080fd5b6123fc826125dd565b6001600160a01b0393909316835260208301919091521515604082015260600190565b808201808211156106b9576106b9612562565b60408152600061265160408301856123a3565b90508260208301529392505050565b6001600160a01b039485168152928416602084015292166040820152901515606082015260800190565b600080600080600080600080610100898b0312156126a757600080fd5b885197506020890151965060408901519550606089015194506080890151935060a089015192506126da60c08a016125dd565b915060e089015190509295985092959890939650565b6000806040838503121561270357600080fd5b61270c836125dd565b915060208301519050925092905056feddf252ad1be2c89b69c2b068fc378daa952ba7f163c4a11628f55a4df523b3efa26469706673582212202d8d0d7ce7869c224e62a2183639db16d1954d10271b9c6c8bd5d70621c8d0c764736f6c63430008110033",
  "linkReferences": {},
  "deployedLinkReferences": {}
}