{
  "_format": "hh-sol-artifact-1",
  "contractName": "MyVault",
  "sourceName": "contracts/MyVault.sol",
  "abi": [
    {
      "inputs": [],
      "stateMutability": "nonpayable",
      "type": "constructor"
    },
    {
      "anonymous": false,
      "inputs": [
        {
          "indexed": true,
          "internalType": "address",
          "name": "owner",
          "type": "address"
        },
        {
          "indexed": true,
          "internalType": "address",
          "name": "spender",
          "type": "address"
        },
        {
          "indexed": false,
          "internalType": "uint256",
          "name": "value",
          "type": "uint256"
        }
      ],
      "name": "Approval",
      "type": "event"
    },
    {
      "anonymous": false,
      "inputs": [
        {
          "indexed": false,
          "internalType": "address",
          "name": "tokenAddress",
          "type": "address"
        }
      ],
      "name": "NewTokenAdded",
      "type": "event"
    },
    {
      "anonymous": false,
      "inputs": [
        {
          "indexed": true,
          "internalType": "address",
          "name": "previousOwner",
          "type": "address"
        },
        {
          "indexed": true,
          "internalType": "address",
          "name": "newOwner",
          "type": "address"
        }
      ],
      "name": "OwnershipTransferred",
      "type": "event"
    },
    {
      "anonymous": false,
      "inputs": [
        {
          "indexed": false,
          "internalType": "address",
          "name": "tokenAddress",
          "type": "address"
        }
      ],
      "name": "TokenRemoved",
      "type": "event"
    },
    {
      "anonymous": false,
      "inputs": [
        {
          "indexed": true,
          "internalType": "address",
          "name": "from",
          "type": "address"
        },
        {
          "indexed": true,
          "internalType": "address",
          "name": "to",
          "type": "address"
        },
        {
          "indexed": false,
          "internalType": "uint256",
          "name": "value",
          "type": "uint256"
        }
      ],
      "name": "Transfer",
      "type": "event"
    },
    {
      "anonymous": false,
      "inputs": [
        {
          "indexed": true,
          "internalType": "address",
          "name": "account",
          "type": "address"
        },
        {
          "indexed": false,
          "internalType": "uint256",
          "name": "when",
          "type": "uint256"
        },
        {
          "indexed": false,
          "internalType": "address",
          "name": "token_deposited",
          "type": "address"
        },
        {
          "indexed": false,
          "internalType": "uint256",
          "name": "amount",
          "type": "uint256"
        },
        {
          "indexed": false,
          "internalType": "uint256",
          "name": "PLPissued",
          "type": "uint256"
        }
      ],
      "name": "depositEvent",
      "type": "event"
    },
    {
      "anonymous": false,
      "inputs": [
        {
          "indexed": false,
          "internalType": "uint256",
          "name": "when",
          "type": "uint256"
        },
        {
          "indexed": false,
          "internalType": "uint8",
          "name": "oldexpo",
          "type": "uint8"
        },
        {
          "indexed": false,
          "internalType": "uint8",
          "name": "newexpo",
          "type": "uint8"
        }
      ],
      "name": "expoEvent",
      "type": "event"
    },
    {
      "anonymous": false,
      "inputs": [
        {
          "indexed": false,
          "internalType": "uint256",
          "name": "when",
          "type": "uint256"
        },
        {
          "indexed": false,
          "internalType": "uint8",
          "name": "exposition",
          "type": "uint8"
        },
        {
          "indexed": false,
          "internalType": "uint256",
          "name": "oldNAV",
          "type": "uint256"
        },
        {
          "indexed": false,
          "internalType": "uint256",
          "name": "NAV",
          "type": "uint256"
        },
        {
          "indexed": false,
          "internalType": "uint256",
          "name": "usdcNAV",
          "type": "uint256"
        },
        {
          "indexed": false,
          "internalType": "uint256",
          "name": "longNAV",
          "type": "uint256"
        },
        {
          "indexed": false,
          "internalType": "uint256",
          "name": "shortNAV",
          "type": "uint256"
        },
        {
          "indexed": false,
          "internalType": "uint256",
          "name": "totalsupply",
          "type": "uint256"
        }
      ],
      "name": "navEvent",
      "type": "event"
    },
    {
      "anonymous": false,
      "inputs": [
        {
          "indexed": true,
          "internalType": "address",
          "name": "account",
          "type": "address"
        },
        {
          "indexed": false,
          "internalType": "uint256",
          "name": "when",
          "type": "uint256"
        },
        {
          "indexed": false,
          "internalType": "uint256",
          "name": "amount",
          "type": "uint256"
        },
        {
          "indexed": false,
          "internalType": "uint256",
          "name": "nav",
          "type": "uint256"
        },
        {
          "indexed": false,
          "internalType": "uint256",
          "name": "preop_supply",
          "type": "uint256"
        }
      ],
      "name": "withdrawEvent",
      "type": "event"
    },
    {
      "inputs": [],
      "name": "GMX_controller",
      "outputs": [
        {
          "internalType": "address",
          "name": "",
          "type": "address"
        }
      ],
      "stateMutability": "view",
      "type": "function"
    },
    {
      "inputs": [],
      "name": "USDC",
      "outputs": [
        {
          "internalType": "address",
          "name": "",
          "type": "address"
        }
      ],
      "stateMutability": "view",
      "type": "function"
    },
    {
      "inputs": [],
      "name": "WETH",
      "outputs": [
        {
          "internalType": "address",
          "name": "",
          "type": "address"
        }
      ],
      "stateMutability": "view",
      "type": "function"
    },
    {
      "inputs": [
        {
          "internalType": "address",
          "name": "tokenAddress",
          "type": "address"
        }
      ],
      "name": "acceptToken",
      "outputs": [],
      "stateMutability": "nonpayable",
      "type": "function"
    },
    {
      "inputs": [
        {
          "internalType": "address",
          "name": "owner",
          "type": "address"
        },
        {
          "internalType": "address",
          "name": "spender",
          "type": "address"
        }
      ],
      "name": "allowance",
      "outputs": [
        {
          "internalType": "uint256",
          "name": "",
          "type": "uint256"
        }
      ],
      "stateMutability": "view",
      "type": "function"
    },
    {
      "inputs": [
        {
          "internalType": "address",
          "name": "spender",
          "type": "address"
        },
        {
          "internalType": "uint256",
          "name": "amount",
          "type": "uint256"
        }
      ],
      "name": "approve",
      "outputs": [
        {
          "internalType": "bool",
          "name": "",
          "type": "bool"
        }
      ],
      "stateMutability": "nonpayable",
      "type": "function"
    },
    {
      "inputs": [
        {
          "internalType": "address",
          "name": "account",
          "type": "address"
        }
      ],
      "name": "balanceOf",
      "outputs": [
        {
          "internalType": "uint256",
          "name": "",
          "type": "uint256"
        }
      ],
      "stateMutability": "view",
      "type": "function"
    },
    {
      "inputs": [],
      "name": "decimals",
      "outputs": [
        {
          "internalType": "uint8",
          "name": "",
          "type": "uint8"
        }
      ],
      "stateMutability": "view",
      "type": "function"
    },
    {
      "inputs": [
        {
          "internalType": "address",
          "name": "spender",
          "type": "address"
        },
        {
          "internalType": "uint256",
          "name": "subtractedValue",
          "type": "uint256"
        }
      ],
      "name": "decreaseAllowance",
      "outputs": [
        {
          "internalType": "bool",
          "name": "",
          "type": "bool"
        }
      ],
      "stateMutability": "nonpayable",
      "type": "function"
    },
    {
      "inputs": [
        {
          "internalType": "address",
          "name": "tokenAddress",
          "type": "address"
        },
        {
          "internalType": "uint256",
          "name": "_amount",
          "type": "uint256"
        }
      ],
      "name": "deposit",
      "outputs": [],
      "stateMutability": "payable",
      "type": "function"
    },
    {
      "inputs": [],
      "name": "exposition",
      "outputs": [
        {
          "internalType": "uint8",
          "name": "",
          "type": "uint8"
        }
      ],
      "stateMutability": "view",
      "type": "function"
    },
    {
      "inputs": [],
      "name": "getExposition",
      "outputs": [
        {
          "internalType": "uint8",
          "name": "",
          "type": "uint8"
        }
      ],
      "stateMutability": "view",
      "type": "function"
    },
    {
      "inputs": [],
      "name": "getGMX_controller",
      "outputs": [
        {
          "internalType": "address",
          "name": "",
          "type": "address"
        }
      ],
      "stateMutability": "view",
      "type": "function"
    },
    {
      "inputs": [],
      "name": "getNetAssetValue",
      "outputs": [
        {
          "internalType": "uint256",
          "name": "",
          "type": "uint256"
        }
      ],
      "stateMutability": "view",
      "type": "function"
    },
    {
      "inputs": [],
      "name": "gmxVault",
      "outputs": [
        {
          "internalType": "address",
          "name": "",
          "type": "address"
        }
      ],
      "stateMutability": "view",
      "type": "function"
    },
    {
      "inputs": [
        {
          "internalType": "address",
          "name": "spender",
          "type": "address"
        },
        {
          "internalType": "uint256",
          "name": "addedValue",
          "type": "uint256"
        }
      ],
      "name": "increaseAllowance",
      "outputs": [
        {
          "internalType": "bool",
          "name": "",
          "type": "bool"
        }
      ],
      "stateMutability": "nonpayable",
      "type": "function"
    },
    {
      "inputs": [
        {
          "internalType": "address",
          "name": "tokenAddress",
          "type": "address"
        }
      ],
      "name": "isAccepted",
      "outputs": [
        {
          "internalType": "bool",
          "name": "",
          "type": "bool"
        }
      ],
      "stateMutability": "view",
      "type": "function"
    },
    {
      "inputs": [],
      "name": "liquidateLongPositions",
      "outputs": [],
      "stateMutability": "payable",
      "type": "function"
    },
    {
      "inputs": [],
      "name": "liquidateShortPositions",
      "outputs": [],
      "stateMutability": "payable",
      "type": "function"
    },
    {
      "inputs": [],
      "name": "name",
      "outputs": [
        {
          "internalType": "string",
          "name": "",
          "type": "string"
        }
      ],
      "stateMutability": "view",
      "type": "function"
    },
    {
      "inputs": [],
      "name": "netAssetValue",
      "outputs": [
        {
          "internalType": "uint256",
          "name": "",
          "type": "uint256"
        }
      ],
      "stateMutability": "view",
      "type": "function"
    },
    {
      "inputs": [],
      "name": "openPosition",
      "outputs": [],
      "stateMutability": "payable",
      "type": "function"
    },
    {
      "inputs": [],
      "name": "owner",
      "outputs": [
        {
          "internalType": "address",
          "name": "",
          "type": "address"
        }
      ],
      "stateMutability": "view",
      "type": "function"
    },
    {
      "inputs": [
        {
          "internalType": "address",
          "name": "tokenAddress",
          "type": "address"
        }
      ],
      "name": "removeToken",
      "outputs": [],
      "stateMutability": "nonpayable",
      "type": "function"
    },
    {
      "inputs": [],
      "name": "renounceOwnership",
      "outputs": [],
      "stateMutability": "nonpayable",
      "type": "function"
    },
    {
      "inputs": [
        {
          "internalType": "uint8",
          "name": "_exposition",
          "type": "uint8"
        }
      ],
      "name": "setExposition",
      "outputs": [],
      "stateMutability": "nonpayable",
      "type": "function"
    },
    {
      "inputs": [
        {
          "internalType": "address",
          "name": "_addr",
          "type": "address"
        }
      ],
      "name": "setGMX_controller",
      "outputs": [],
      "stateMutability": "nonpayable",
      "type": "function"
    },
    {
      "inputs": [],
      "name": "symbol",
      "outputs": [
        {
          "internalType": "string",
          "name": "",
          "type": "string"
        }
      ],
      "stateMutability": "view",
      "type": "function"
    },
    {
      "inputs": [
        {
          "internalType": "address",
          "name": "",
          "type": "address"
        }
      ],
      "name": "tokenAccepted",
      "outputs": [
        {
          "internalType": "bool",
          "name": "",
          "type": "bool"
        }
      ],
      "stateMutability": "view",
      "type": "function"
    },
    {
      "inputs": [],
      "name": "totalSupply",
      "outputs": [
        {
          "internalType": "uint256",
          "name": "",
          "type": "uint256"
        }
      ],
      "stateMutability": "view",
      "type": "function"
    },
    {
      "inputs": [
        {
          "internalType": "address",
          "name": "to",
          "type": "address"
        },
        {
          "internalType": "uint256",
          "name": "amount",
          "type": "uint256"
        }
      ],
      "name": "transfer",
      "outputs": [
        {
          "internalType": "bool",
          "name": "",
          "type": "bool"
        }
      ],
      "stateMutability": "nonpayable",
      "type": "function"
    },
    {
      "inputs": [
        {
          "internalType": "address",
          "name": "from",
          "type": "address"
        },
        {
          "internalType": "address",
          "name": "to",
          "type": "address"
        },
        {
          "internalType": "uint256",
          "name": "amount",
          "type": "uint256"
        }
      ],
      "name": "transferFrom",
      "outputs": [
        {
          "internalType": "bool",
          "name": "",
          "type": "bool"
        }
      ],
      "stateMutability": "nonpayable",
      "type": "function"
    },
    {
      "inputs": [
        {
          "internalType": "address",
          "name": "newOwner",
          "type": "address"
        }
      ],
      "name": "transferOwnership",
      "outputs": [],
      "stateMutability": "nonpayable",
      "type": "function"
    },
    {
      "inputs": [],
      "name": "updateNetAssetValue",
      "outputs": [],
      "stateMutability": "nonpayable",
      "type": "function"
    },
    {
      "inputs": [
        {
          "internalType": "uint256",
          "name": "_amount",
          "type": "uint256"
        }
      ],
      "name": "withdraw",
      "outputs": [],
      "stateMutability": "payable",
      "type": "function"
    }
  ],
  "bytecode": "0x60806040527382af49447d8a07e3bd95bd0d56f35241523fbab1600760006101000a81548173ffffffffffffffffffffffffffffffffffffffff021916908373ffffffffffffffffffffffffffffffffffffffff16021790555073ff970a61a04b1ca14834a43f5de4533ebddb5cc8600860006101000a81548173ffffffffffffffffffffffffffffffffffffffff021916908373ffffffffffffffffffffffffffffffffffffffff16021790555073489ee077994b6658eafa855c308275ead8097c4a600960006101000a81548173ffffffffffffffffffffffffffffffffffffffff021916908373ffffffffffffffffffffffffffffffffffffffff1602179055503480156200011057600080fd5b506040518060400160405280600881526020017f506f6c79706c75730000000000000000000000000000000000000000000000008152506040518060400160405280600381526020017f504c5000000000000000000000000000000000000000000000000000000000008152506200019d620001916200024160201b60201c565b6200024960201b60201c565b8160049081620001ae91906200058a565b508060059081620001c091906200058a565b505050620001df679646a20c2e879cef60c01b6200030d60201b60201c565b620001fb678d5a85aeeaa9c21b60c01b6200030d60201b60201c565b6000600b60006101000a81548160ff021916908360ff1602179055506200023367c8ba2d670923406260c01b6200030d60201b60201c565b6001600a8190555062000671565b600033905090565b60008060009054906101000a900473ffffffffffffffffffffffffffffffffffffffff169050816000806101000a81548173ffffffffffffffffffffffffffffffffffffffff021916908373ffffffffffffffffffffffffffffffffffffffff1602179055508173ffffffffffffffffffffffffffffffffffffffff168173ffffffffffffffffffffffffffffffffffffffff167f8be0079c531659141344cd1fd0a4f28419497f9722a3daafe3b4186f6b6457e060405160405180910390a35050565b50565b600081519050919050565b7f4e487b7100000000000000000000000000000000000000000000000000000000600052604160045260246000fd5b7f4e487b7100000000000000000000000000000000000000000000000000000000600052602260045260246000fd5b600060028204905060018216806200039257607f821691505b602082108103620003a857620003a76200034a565b5b50919050565b60008190508160005260206000209050919050565b60006020601f8301049050919050565b600082821b905092915050565b600060088302620004127fffffffffffffffffffffffffffffffffffffffffffffffffffffffffffffffff82620003d3565b6200041e8683620003d3565b95508019841693508086168417925050509392505050565b6000819050919050565b6000819050919050565b60006200046b620004656200045f8462000436565b62000440565b62000436565b9050919050565b6000819050919050565b62000487836200044a565b6200049f620004968262000472565b848454620003e0565b825550505050565b600090565b620004b6620004a7565b620004c38184846200047c565b505050565b5b81811015620004eb57620004df600082620004ac565b600181019050620004c9565b5050565b601f8211156200053a576200050481620003ae565b6200050f84620003c3565b810160208510156200051f578190505b620005376200052e85620003c3565b830182620004c8565b50505b505050565b600082821c905092915050565b60006200055f600019846008026200053f565b1980831691505092915050565b60006200057a83836200054c565b9150826002028217905092915050565b620005958262000310565b67ffffffffffffffff811115620005b157620005b06200031b565b5b620005bd825462000379565b620005ca828285620004ef565b600060209050601f831160018114620006025760008415620005ed578287015190505b620005f985826200056c565b86555062000669565b601f1984166200061286620003ae565b60005b828110156200063c5784890151825560018201915060208501945060208101905062000615565b868310156200065c578489015162000658601f8916826200054c565b8355505b6001600288020188555050505b505050505050565b614f1980620006816000396000f3fe6080604052600436106101c45760003560e01c806370a08231116100f8578063a9059cbb11610090578063a9059cbb146105e4578063ad5c464814610621578063aedf795e1461064c578063b3b3453e14610689578063dd62ed3e146106b4578063de9257cd146106f1578063e6f091f91461071c578063ed61f4a114610759578063f2fde38b14610770576101c4565b806370a0823114610453578063715018a61461049057806389a30271146104a75780638cd3f064146104d25780638da5cb5b146104fb57806395d89b41146105265780639ecbfa4214610551578063a3673b381461057c578063a457c2d7146105a7576101c4565b80632e1a7d4d1161016b5780632e1a7d4d146103225780633027ac221461033e578063313ce56714610348578063350245c214610373578063395093511461037d57806347e7ef24146103ba578063481d6ee9146103d65780635fa7b584146103ff5780636639a81d14610428576101c4565b80630677a2a5146101c957806306fdde03146101f4578063095ea7b31461021f57806311af7d951461025c57806318160ddd146102855780631cd2f7c8146102b057806323b872dd146102db57806328250e0d14610318575b600080fd5b3480156101d557600080fd5b506101de610799565b6040516101eb9190613c58565b60405180910390f35b34801561020057600080fd5b506102096107ff565b6040516102169190613d03565b60405180910390f35b34801561022b57600080fd5b5061024660048036038101906102419190613d8c565b610891565b6040516102539190613de7565b60405180910390f35b34801561026857600080fd5b50610283600480360381019061027e9190613e02565b6108b4565b005b34801561029157600080fd5b5061029a610950565b6040516102a79190613e3e565b60405180910390f35b3480156102bc57600080fd5b506102c561095a565b6040516102d29190613e75565b60405180910390f35b3480156102e757600080fd5b5061030260048036038101906102fd9190613e90565b61096d565b60405161030f9190613de7565b60405180910390f35b61032061099c565b005b61033c60048036038101906103379190613ee3565b610a99565b005b610346611055565b005b34801561035457600080fd5b5061035d611152565b60405161036a9190613e75565b60405180910390f35b61037b61115b565b005b34801561038957600080fd5b506103a4600480360381019061039f9190613d8c565b6114cb565b6040516103b19190613de7565b60405180910390f35b6103d460048036038101906103cf9190613d8c565b611502565b005b3480156103e257600080fd5b506103fd60048036038101906103f89190613f3c565b611e4d565b005b34801561040b57600080fd5b5061042660048036038101906104219190613e02565b61213a565b005b34801561043457600080fd5b5061043d612328565b60405161044a9190613e3e565b60405180910390f35b34801561045f57600080fd5b5061047a60048036038101906104759190613e02565b61236e565b6040516104879190613e3e565b60405180910390f35b34801561049c57600080fd5b506104a56123b7565b005b3480156104b357600080fd5b506104bc6123cb565b6040516104c99190613c58565b60405180910390f35b3480156104de57600080fd5b506104f960048036038101906104f49190613e02565b6123f1565b005b34801561050757600080fd5b506105106125e0565b60405161051d9190613c58565b60405180910390f35b34801561053257600080fd5b5061053b612609565b6040516105489190613d03565b60405180910390f35b34801561055d57600080fd5b5061056661269b565b6040516105739190613c58565b60405180910390f35b34801561058857600080fd5b506105916126c1565b60405161059e9190613e3e565b60405180910390f35b3480156105b357600080fd5b506105ce60048036038101906105c99190613d8c565b6126c7565b6040516105db9190613de7565b60405180910390f35b3480156105f057600080fd5b5061060b60048036038101906106069190613d8c565b61273e565b6040516106189190613de7565b60405180910390f35b34801561062d57600080fd5b50610636612761565b6040516106439190613c58565b60405180910390f35b34801561065857600080fd5b50610673600480360381019061066e9190613e02565b612787565b6040516106809190613de7565b60405180910390f35b34801561069557600080fd5b5061069e6127a7565b6040516106ab9190613c58565b60405180910390f35b3480156106c057600080fd5b506106db60048036038101906106d69190613f69565b6127cd565b6040516106e89190613e3e565b60405180910390f35b3480156106fd57600080fd5b50610706612854565b6040516107139190613e75565b60405180910390f35b34801561072857600080fd5b50610743600480360381019061073e9190613e02565b6128a7565b6040516107509190613de7565b60405180910390f35b34801561076557600080fd5b5061076e612939565b005b34801561077c57600080fd5b5061079760048036038101906107929190613e02565b6129af565b005b60006107af67998e1ec449a8d96660c01b612a32565b6107c3674a91d558f89dcd3960c01b612a32565b6107d767a6c6f9dc54c715d760c01b612a32565b600660009054906101000a900473ffffffffffffffffffffffffffffffffffffffff16905090565b60606004805461080e90613fd8565b80601f016020809104026020016040519081016040528092919081815260200182805461083a90613fd8565b80156108875780601f1061085c57610100808354040283529160200191610887565b820191906000526020600020905b81548152906001019060200180831161086a57829003601f168201915b5050505050905090565b60008061089c612a35565b90506108a9818585612a3d565b600191505092915050565b6108c8674082f53e53f0e77d60c01b612a32565b6108d0612c06565b6108e4671754f33f2baf569760c01b612a32565b6108f867ba9f87dadc32278f60c01b612a32565b61090c67ac7729b98a8e9ec260c01b612a32565b80600660006101000a81548173ffffffffffffffffffffffffffffffffffffffff021916908373ffffffffffffffffffffffffffffffffffffffff16021790555050565b6000600354905090565b600b60009054906101000a900460ff1681565b600080610978612a35565b9050610985858285612c84565b610990858585612d10565b60019150509392505050565b6109b0676401c4f0e14d114260c01b612a32565b6109b8612c06565b6109cc67922be12642b6d1ac60c01b612a32565b6109e067ca6f67da3ae872e460c01b612a32565b6109f4677db660856781cced60c01b612a32565b610a08673f3ad1281f2f472660c01b612a32565b600660009054906101000a900473ffffffffffffffffffffffffffffffffffffffff1673ffffffffffffffffffffffffffffffffffffffff16637cb175973460016040518363ffffffff1660e01b8152600401610a659190613de7565b6000604051808303818588803b158015610a7e57600080fd5b505af1158015610a92573d6000803e3d6000fd5b5050505050565b610aad67c2468fab26af8a4560c01b612a32565b610ac1676c994a8d2a7b599d60c01b612a32565b610ad567a3130a4028848f2d60c01b612a32565b610ae96725348dc1d02c583360c01b612a32565b60008111610af657600080fd5b610b0a67d819e6946c5c0b8b60c01b612a32565b610b1e6708a787a9aa57573f60c01b612a32565b610b3267388683a7b1d6ae7e60c01b612a32565b610b46672f6c3a27632d8a5760c01b612a32565b803073ffffffffffffffffffffffffffffffffffffffff166370a08231336040518263ffffffff1660e01b8152600401610b809190613c58565b602060405180830381865afa158015610b9d573d6000803e3d6000fd5b505050506040513d601f19601f82011682018060405250810190610bc1919061401e565b1015610c02576040517f08c379a0000000000000000000000000000000000000000000000000000000008152600401610bf9906140bd565b60405180910390fd5b610c1667dd76bc4002d30db960c01b612a32565b610c2a67508afe3e1ef0ebc760c01b612a32565b610c3e67a8785ed5b15de0d660c01b612a32565b60006001600b60009054906101000a900460ff1660ff1614610c61576000610c64565b60015b9050610c7a675aa19742c605172060c01b612a32565b610c8e67058dca980fb379bb60c01b612a32565b610c96612f89565b610caa677521f640282e8e3b60c01b612a32565b610cbe6739e9f14cbe44aa9d60c01b612a32565b60003073ffffffffffffffffffffffffffffffffffffffff166318160ddd6040518163ffffffff1660e01b8152600401602060405180830381865afa158015610d0b573d6000803e3d6000fd5b505050506040513d601f19601f82011682018060405250810190610d2f919061401e565b9050610d456701fe7988d4ec93fa60c01b612a32565b610d596706b1bc96276fb2d460c01b612a32565b610d633384613818565b610d776733421eb863bc187960c01b612a32565b610d8b6765defa4b0527082760c01b612a32565b6000600b60009054906101000a900460ff1660ff1603610ec557610db96789bac8e7119aca4c60c01b612a32565b610dcd67554bc41c8dcc7ce260c01b612a32565b610de167bf6cf8ab2afb088060c01b612a32565b600860009054906101000a900473ffffffffffffffffffffffffffffffffffffffff1673ffffffffffffffffffffffffffffffffffffffff1663a9059cbb336c0c9f2c9cd04674edea4000000084610e39919061410c565b600a5487620f4240610e4b919061410c565b610e55919061410c565b610e5f919061417d565b6040518363ffffffff1660e01b8152600401610e7c9291906141ae565b6020604051808303816000875af1158015610e9b573d6000803e3d6000fd5b505050506040513d601f19601f82011682018060405250810190610ebf9190614203565b50610fd2565b610ed967bcd0e4ec96e837bb60c01b612a32565b610eed67c3c70a6e27a6649260c01b612a32565b610f0167ff3d05949a47a56a60c01b612a32565b600660009054906101000a900473ffffffffffffffffffffffffffffffffffffffff1673ffffffffffffffffffffffffffffffffffffffff1663c5dac33b34336c0c9f2c9cd04674edea4000000085610f5a919061410c565b600a5488620f1b30610f6c919061410c565b610f76919061410c565b610f80919061417d565b866040518563ffffffff1660e01b8152600401610f9f93929190614230565b6000604051808303818588803b158015610fb857600080fd5b505af1158015610fcc573d6000803e3d6000fd5b50505050505b610fe667e722c7168809baa960c01b612a32565b610ffa676e3d769fa0e0f81b60c01b612a32565b3373ffffffffffffffffffffffffffffffffffffffff167f7d655f729e74749ef66079e8380b356147309a7161212c83e699b8e7fb78781c4285600a54856040516110489493929190614267565b60405180910390a2505050565b61106967da2910c54162979c60c01b612a32565b611071612c06565b61108567abff04d8d397b15d60c01b612a32565b61109967adcda44ca3bf0edf60c01b612a32565b6110ad676381c38c6d05697d60c01b612a32565b6110c16729e831cead1d126660c01b612a32565b600660009054906101000a900473ffffffffffffffffffffffffffffffffffffffff1673ffffffffffffffffffffffffffffffffffffffff16637cb175973460006040518363ffffffff1660e01b815260040161111e9190613de7565b6000604051808303818588803b15801561113757600080fd5b505af115801561114b573d6000803e3d6000fd5b5050505050565b60006012905090565b61116f67bd27e53c1dc2f42460c01b612a32565b611177612c06565b61118b67122f4d5c8d5b662660c01b612a32565b61119f676f5087e43c24dd5160c01b612a32565b6111b367b4e993ce8674442460c01b612a32565b6111c7674e92d2452cb0d0ec60c01b612a32565b60006001600b60009054906101000a900460ff1660ff16146111ea5760006111ed565b60015b90506112036707e64e0954baa78060c01b612a32565b6112176740ef5f27cb268ca160c01b612a32565b600860009054906101000a900473ffffffffffffffffffffffffffffffffffffffff1673ffffffffffffffffffffffffffffffffffffffff1663095ea7b3600660009054906101000a900473ffffffffffffffffffffffffffffffffffffffff16600860009054906101000a900473ffffffffffffffffffffffffffffffffffffffff1673ffffffffffffffffffffffffffffffffffffffff166370a08231306040518263ffffffff1660e01b81526004016112d39190613c58565b602060405180830381865afa1580156112f0573d6000803e3d6000fd5b505050506040513d601f19601f82011682018060405250810190611314919061401e565b6040518363ffffffff1660e01b81526004016113319291906141ae565b6020604051808303816000875af1158015611350573d6000803e3d6000fd5b505050506040513d601f19601f820116820180604052508101906113749190614203565b50611389678f50533c2afb65b460c01b612a32565b61139d67b414a8787f82c1b860c01b612a32565b600660009054906101000a900473ffffffffffffffffffffffffffffffffffffffff1673ffffffffffffffffffffffffffffffffffffffff16631c5ecc0634600860009054906101000a900473ffffffffffffffffffffffffffffffffffffffff1673ffffffffffffffffffffffffffffffffffffffff166370a08231306040518263ffffffff1660e01b81526004016114379190613c58565b602060405180830381865afa158015611454573d6000803e3d6000fd5b505050506040513d601f19601f82011682018060405250810190611478919061401e565b846040518463ffffffff1660e01b81526004016114969291906142ac565b6000604051808303818588803b1580156114af57600080fd5b505af11580156114c3573d6000803e3d6000fd5b505050505050565b6000806114d6612a35565b90506114f78185856114e885896127cd565b6114f291906142d5565b612a3d565b600191505092915050565b61151667034963122a13c72560c01b612a32565b61152a67f8762afdd0a4524b60c01b612a32565b61153e67ca45d65b46b360f560c01b612a32565b611552672503426eef6f15ac60c01b612a32565b600c60008373ffffffffffffffffffffffffffffffffffffffff1673ffffffffffffffffffffffffffffffffffffffff16815260200190815260200160002060009054906101000a900460ff166115de576040517f08c379a00000000000000000000000000000000000000000000000000000000081526004016115d590614355565b60405180910390fd5b6115f26728fb13aca279f93460c01b612a32565b61160667b4f9b1d7686c1ec760c01b612a32565b61161a67e54f820f5ddb9d5f60c01b612a32565b61162e67ffa4e13bd126587360c01b612a32565b60008111611671576040517f08c379a0000000000000000000000000000000000000000000000000000000008152600401611668906143c1565b60405180910390fd5b611685670b644169eb6204ac60c01b612a32565b6116996749af74d1cd821b7460c01b612a32565b6116ad67ca5e7b0e8779ea6060c01b612a32565b60006064826116bc919061417d565b826116c791906143e1565b90506116dd67ba90e4e4b6a809f360c01b612a32565b6116f1670566179b38cb67ec60c01b612a32565b600061170767d3b63f0cb99172a760c01b612a32565b61171b67c0a9fa6bf5c1e3a160c01b612a32565b60003073ffffffffffffffffffffffffffffffffffffffff166318160ddd6040518163ffffffff1660e01b8152600401602060405180830381865afa158015611768573d6000803e3d6000fd5b505050506040513d601f19601f8201168201806040525081019061178c919061401e565b036117d1576117a567b9b7eb836fc4c3ca60c01b612a32565b6117b967d5762fed8f2705f960c01b612a32565b64e8d4a51000836117ca919061410c565b90506119ea565b6117e5674ce3fd4b827b4a5b60c01b612a32565b6117f967ee74415e6fcbb4f260c01b612a32565b61180d674771644d48181ec860c01b612a32565b611815612f89565b61182967984ed4699860c78560c01b612a32565b61183d674c3cf60abcb7994d60c01b612a32565b6000600b60009054906101000a900460ff1660ff16036119225761186b6778f85613f72552bc60c01b612a32565b61187f67f29fb56c0cd0a0c160c01b612a32565b600a543073ffffffffffffffffffffffffffffffffffffffff166318160ddd6040518163ffffffff1660e01b8152600401602060405180830381865afa1580156118cd573d6000803e3d6000fd5b505050506040513d601f19601f820116820180604052508101906118f1919061401e565b8469d3c21bcecceda1000000611907919061410c565b611911919061410c565b61191b919061417d565b90506119e9565b61193667c9605ece567900e260c01b612a32565b61194a674fae977b1e28bb4460c01b612a32565b600a543073ffffffffffffffffffffffffffffffffffffffff166318160ddd6040518163ffffffff1660e01b8152600401602060405180830381865afa158015611998573d6000803e3d6000fd5b505050506040513d601f19601f820116820180604052508101906119bc919061401e565b8369d3c21bcecceda10000006119d2919061410c565b6119dc919061410c565b6119e6919061417d565b90505b5b6119fe67d90ae2894c946a5860c01b612a32565b611a12670de62d5e4ded4ad460c01b612a32565b611a1c33826139e7565b611a30670b5796e2c7c485fb60c01b612a32565b611a44674fe0e35f5fc76db160c01b612a32565b8373ffffffffffffffffffffffffffffffffffffffff166323b872dd3330866040518463ffffffff1660e01b8152600401611a8193929190614415565b6020604051808303816000875af1158015611aa0573d6000803e3d6000fd5b505050506040513d601f19601f82011682018060405250810190611ac49190614203565b50611ad967bf6db183cfd093c160c01b612a32565b611aed67d04870f1cda4c7a260c01b612a32565b8373ffffffffffffffffffffffffffffffffffffffff1663095ea7b3600660009054906101000a900473ffffffffffffffffffffffffffffffffffffffff16856040518363ffffffff1660e01b8152600401611b4a9291906141ae565b6020604051808303816000875af1158015611b69573d6000803e3d6000fd5b505050506040513d601f19601f82011682018060405250810190611b8d9190614203565b50611ba2675c229d5d6eaa8d7860c01b612a32565b611bb667f5be3e50e59e129360c01b612a32565b6001600b60009054906101000a900460ff1660ff1603611ca157611be4676fe0ea53c38a666e60c01b612a32565b611bf86708f8dc6d8dbf1a5f60c01b612a32565b611c0b6643b9869cd4d9ae60c01b612a32565b600660009054906101000a900473ffffffffffffffffffffffffffffffffffffffff1673ffffffffffffffffffffffffffffffffffffffff16631c5ecc06348560016040518463ffffffff1660e01b8152600401611c6a9291906142ac565b6000604051808303818588803b158015611c8357600080fd5b505af1158015611c97573d6000803e3d6000fd5b5050505050611dcb565b611cb56782705bf850d9535d60c01b612a32565b611cc967fc89a7ddd822f76a60c01b612a32565b6002600b60009054906101000a900460ff1660ff1603611db557611cf7673b8d4b4f4c1b2ecf60c01b612a32565b611d0b67cef7b6fb225c7d8460c01b612a32565b611d1f673546ad296a5c44d060c01b612a32565b600660009054906101000a900473ffffffffffffffffffffffffffffffffffffffff1673ffffffffffffffffffffffffffffffffffffffff16631c5ecc06348560006040518463ffffffff1660e01b8152600401611d7e9291906142ac565b6000604051808303818588803b158015611d9757600080fd5b505af1158015611dab573d6000803e3d6000fd5b5050505050611dca565b611dc9673445b1882d0b03b460c01b612a32565b5b5b611ddf671789c82e8941ab6b60c01b612a32565b611df367cbde8e03fa44c4f660c01b612a32565b3373ffffffffffffffffffffffffffffffffffffffff167fc43285a6e98e6524bf49b1c1bdda72f38b968b31d2861d4422c0716e89b1318142868685604051611e3f949392919061444c565b60405180910390a250505050565b611e6167fddbc65a943f1f5f60c01b612a32565b611e69612c06565b611e7d679297dd665cce1a7560c01b612a32565b611e9167dd77b214be1897b460c01b612a32565b611ea567f3221c617474c3be60c01b612a32565b611eb9672ade0bdf838734b860c01b612a32565b611ecd67862bf9cb27eec93360c01b612a32565b60008160ff16148015611ef05750611eef6765bd488814c1943260c01b613b3e565b5b80611f36575060018160ff16148015611f195750611f1867451104dd8277a4ab60c01b613b3e565b5b8015611f355750611f34673bbfdb3e3656eeb060c01b613b3e565b5b5b80611f5f575060028160ff16148015611f5e5750611f5d660687d16bf3e33060c01b613b3e565b5b5b611f9e576040517f08c379a0000000000000000000000000000000000000000000000000000000008152600401611f9590614503565b60405180910390fd5b611fb267eecc0f6bb7cdbe8460c01b612a32565b611fc6670be8c6b8fb89001060c01b612a32565b611fda675aa6500567b48ef660c01b612a32565b611fee678c8365ea6a0a280160c01b612a32565b8060ff16600b60009054906101000a900460ff1660ff1603612045576040517f08c379a000000000000000000000000000000000000000000000000000000000815260040161203c90614595565b60405180910390fd5b612059677d2ea680f916417560c01b612a32565b61206d67281bb2926c574da860c01b612a32565b61208167667cf2abd99c9f3460c01b612a32565b6000600b60009054906101000a900460ff1690506120a967a60160d08f99a15d60c01b612a32565b81600b60006101000a81548160ff021916908360ff1602179055506120d86739415f3067b44d3860c01b612a32565b6120ec6711ed25efde833f6360c01b612a32565b7ffa0731d6f72a8f51cd2381cdd6778ccea1323c89d9b49a780eb07d809e4ce1694282600b60009054906101000a900460ff1660405161212e939291906145b5565b60405180910390a15050565b61214e67bc729d793c922e8260c01b612a32565b612156612c06565b61216a673965b2d6dea2f51560c01b612a32565b61217e67c9c6a9ae2b7c5b8960c01b612a32565b61219267243bc9bb1fded2ff60c01b612a32565b6121a667fbd7c2bb79eab82260c01b612a32565b6121ba67ac808456381c280e60c01b612a32565b600c60008273ffffffffffffffffffffffffffffffffffffffff1673ffffffffffffffffffffffffffffffffffffffff16815260200190815260200160002060009054906101000a900460ff16612246576040517f08c379a000000000000000000000000000000000000000000000000000000000815260040161223d90614638565b60405180910390fd5b61225a67ec62a8414f0990e060c01b612a32565b61226e672206fd8b6914ab4560c01b612a32565b6000600c60008373ffffffffffffffffffffffffffffffffffffffff1673ffffffffffffffffffffffffffffffffffffffff16815260200190815260200160002060006101000a81548160ff0219169083151502179055506122da6797b8fcc3d4341ab060c01b612a32565b6122ee67411232351c18d09260c01b612a32565b7f4c910b69fe65a61f7531b9c5042b2329ca7179c77290aa7e2eb3afa3c8511fd38160405161231d9190613c58565b60405180910390a150565b600061233e67d3d735c60f175f0b60c01b612a32565b612352673885d873cf3e8ce960c01b612a32565b61236667fbd02adb0220b6fb60c01b612a32565b600a54905090565b6000600160008373ffffffffffffffffffffffffffffffffffffffff1673ffffffffffffffffffffffffffffffffffffffff168152602001908152602001600020549050919050565b6123bf612c06565b6123c96000613b49565b565b600860009054906101000a900473ffffffffffffffffffffffffffffffffffffffff1681565b61240567a7806a0ec0ec676660c01b612a32565b61240d612c06565b61242167cc6e09e5e081d76160c01b612a32565b612435670f34c4b686ccdae760c01b612a32565b61244967f6373173d1b3a9d960c01b612a32565b61245d671621736952bb517e60c01b612a32565b612471673f4163dbb4e607a660c01b612a32565b600c60008273ffffffffffffffffffffffffffffffffffffffff1673ffffffffffffffffffffffffffffffffffffffff16815260200190815260200160002060009054906101000a900460ff16156124fe576040517f08c379a00000000000000000000000000000000000000000000000000000000081526004016124f5906146a4565b60405180910390fd5b612512675628e1104734931a60c01b612a32565b61252667450709727588278660c01b612a32565b6001600c60008373ffffffffffffffffffffffffffffffffffffffff1673ffffffffffffffffffffffffffffffffffffffff16815260200190815260200160002060006101000a81548160ff02191690831515021790555061259267bc76c7a42db1158660c01b612a32565b6125a667a88d869418086ebc60c01b612a32565b7fae340411f33c346ae24187433a8df6e508be40cf0deb3949d51cea12df7fa021816040516125d59190613c58565b60405180910390a150565b60008060009054906101000a900473ffffffffffffffffffffffffffffffffffffffff16905090565b60606005805461261890613fd8565b80601f016020809104026020016040519081016040528092919081815260200182805461264490613fd8565b80156126915780601f1061266657610100808354040283529160200191612691565b820191906000526020600020905b81548152906001019060200180831161267457829003601f168201915b5050505050905090565b600660009054906101000a900473ffffffffffffffffffffffffffffffffffffffff1681565b600a5481565b6000806126d2612a35565b905060006126e082866127cd565b905083811015612725576040517f08c379a000000000000000000000000000000000000000000000000000000000815260040161271c90614736565b60405180910390fd5b6127328286868403612a3d565b60019250505092915050565b600080612749612a35565b9050612756818585612d10565b600191505092915050565b600760009054906101000a900473ffffffffffffffffffffffffffffffffffffffff1681565b600c6020528060005260406000206000915054906101000a900460ff1681565b600960009054906101000a900473ffffffffffffffffffffffffffffffffffffffff1681565b6000600260008473ffffffffffffffffffffffffffffffffffffffff1673ffffffffffffffffffffffffffffffffffffffff16815260200190815260200160002060008373ffffffffffffffffffffffffffffffffffffffff1673ffffffffffffffffffffffffffffffffffffffff16815260200190815260200160002054905092915050565b600061286a67102386726179518160c01b612a32565b61287e67f4b072cdcae240a760c01b612a32565b6128926724edd92cc0a3ad9760c01b612a32565b600b60009054906101000a900460ff16905090565b60006128bd67a76a083b87813a7260c01b612a32565b6128d16758388a8c35c8a8f860c01b612a32565b6128e567787acf38988d6aaa60c01b612a32565b600c60008373ffffffffffffffffffffffffffffffffffffffff1673ffffffffffffffffffffffffffffffffffffffff16815260200190815260200160002060009054906101000a900460ff169050919050565b61294d6746d04d9a0938234360c01b612a32565b612955612c06565b612969674e47f7449c43561860c01b612a32565b61297d6790872a979469b15d60c01b612a32565b61299167cd9be1cf7994b36060c01b612a32565b6129a56701eee420bd51296360c01b612a32565b6129ad612f89565b565b6129b7612c06565b600073ffffffffffffffffffffffffffffffffffffffff168173ffffffffffffffffffffffffffffffffffffffff1603612a26576040517f08c379a0000000000000000000000000000000000000000000000000000000008152600401612a1d906147c8565b60405180910390fd5b612a2f81613b49565b50565b50565b600033905090565b600073ffffffffffffffffffffffffffffffffffffffff168373ffffffffffffffffffffffffffffffffffffffff1603612aac576040517f08c379a0000000000000000000000000000000000000000000000000000000008152600401612aa39061485a565b60405180910390fd5b600073ffffffffffffffffffffffffffffffffffffffff168273ffffffffffffffffffffffffffffffffffffffff1603612b1b576040517f08c379a0000000000000000000000000000000000000000000000000000000008152600401612b12906148ec565b60405180910390fd5b80600260008573ffffffffffffffffffffffffffffffffffffffff1673ffffffffffffffffffffffffffffffffffffffff16815260200190815260200160002060008473ffffffffffffffffffffffffffffffffffffffff1673ffffffffffffffffffffffffffffffffffffffff168152602001908152602001600020819055508173ffffffffffffffffffffffffffffffffffffffff168373ffffffffffffffffffffffffffffffffffffffff167f8c5be1e5ebec7d5bd14f71427d1e84f3dd0314c0f7b2291e5b200ac8c7c3b92583604051612bf99190613e3e565b60405180910390a3505050565b612c0e612a35565b73ffffffffffffffffffffffffffffffffffffffff16612c2c6125e0565b73ffffffffffffffffffffffffffffffffffffffff1614612c82576040517f08c379a0000000000000000000000000000000000000000000000000000000008152600401612c7990614958565b60405180910390fd5b565b6000612c9084846127cd565b90507fffffffffffffffffffffffffffffffffffffffffffffffffffffffffffffffff8114612d0a5781811015612cfc576040517f08c379a0000000000000000000000000000000000000000000000000000000008152600401612cf3906149c4565b60405180910390fd5b612d098484848403612a3d565b5b50505050565b600073ffffffffffffffffffffffffffffffffffffffff168373ffffffffffffffffffffffffffffffffffffffff1603612d7f576040517f08c379a0000000000000000000000000000000000000000000000000000000008152600401612d7690614a56565b60405180910390fd5b600073ffffffffffffffffffffffffffffffffffffffff168273ffffffffffffffffffffffffffffffffffffffff1603612dee576040517f08c379a0000000000000000000000000000000000000000000000000000000008152600401612de590614ae8565b60405180910390fd5b612df9838383613c0d565b6000600160008573ffffffffffffffffffffffffffffffffffffffff1673ffffffffffffffffffffffffffffffffffffffff16815260200190815260200160002054905081811015612e80576040517f08c379a0000000000000000000000000000000000000000000000000000000008152600401612e7790614b7a565b60405180910390fd5b818103600160008673ffffffffffffffffffffffffffffffffffffffff1673ffffffffffffffffffffffffffffffffffffffff1681526020019081526020016000208190555081600160008573ffffffffffffffffffffffffffffffffffffffff1673ffffffffffffffffffffffffffffffffffffffff168152602001908152602001600020600082825401925050819055508273ffffffffffffffffffffffffffffffffffffffff168473ffffffffffffffffffffffffffffffffffffffff167fddf252ad1be2c89b69c2b068fc378daa952ba7f163c4a11628f55a4df523b3ef84604051612f709190613e3e565b60405180910390a3612f83848484613c12565b50505050565b612f9d67e3b08027923c2bcf60c01b612a32565b612fb167c030f108e647325760c01b612a32565b612fc567486fa4d79282dcf260c01b612a32565b6000600a549050612fe067935079176d5ece6160c01b612a32565b612ff467b9f9440aa895a2c360c01b612a32565b600061300a67432848c07829fc2560c01b612a32565b61301e67ddf1867759ef93c060c01b612a32565b600061303467869d7a1271c3c70560c01b612a32565b613048674dfee9145ca6998d60c01b612a32565b600069d3c21bcecceda1000000600860009054906101000a900473ffffffffffffffffffffffffffffffffffffffff1673ffffffffffffffffffffffffffffffffffffffff166370a08231306040518263ffffffff1660e01b81526004016130b09190613c58565b602060405180830381865afa1580156130cd573d6000803e3d6000fd5b505050506040513d601f19601f820116820180604052508101906130f1919061401e565b6130fb919061410c565b9050613111671cf3b1fadc39707c60c01b612a32565b613125673abb914363fbbc3660c01b612a32565b6000600960009054906101000a900473ffffffffffffffffffffffffffffffffffffffff1673ffffffffffffffffffffffffffffffffffffffff16634a3f088d600660009054906101000a900473ffffffffffffffffffffffffffffffffffffffff16600760009054906101000a900473ffffffffffffffffffffffffffffffffffffffff16600760009054906101000a900473ffffffffffffffffffffffffffffffffffffffff1660016040518563ffffffff1660e01b81526004016131ef9493929190614b9a565b610100604051808303816000875af115801561320f573d6000803e3d6000fd5b505050506040513d601f19601f820116820180604052508101906132339190614bdf565b505050505050915050613250670ae47402788c837160c01b612a32565b61326467feadf614b82ce30b60c01b612a32565b60008111156133aa5761328167db48dbe137b3933060c01b612a32565b613295672ee0680dd9766a6c60c01b612a32565b600960009054906101000a900473ffffffffffffffffffffffffffffffffffffffff1673ffffffffffffffffffffffffffffffffffffffff166345a6f370600660009054906101000a900473ffffffffffffffffffffffffffffffffffffffff16600760009054906101000a900473ffffffffffffffffffffffffffffffffffffffff16600760009054906101000a900473ffffffffffffffffffffffffffffffffffffffff1660016040518563ffffffff1660e01b815260040161335d9493929190614b9a565b60408051808303816000875af115801561337b573d6000803e3d6000fd5b505050506040513d601f19601f8201168201806040525081019061339f9190614c95565b9050809450506133bf565b6133be6740a75a8248b455de60c01b612a32565b5b6133d3678397c469d742651b60c01b612a32565b6133e767a1402f7fd7d852d960c01b612a32565b600084826133f591906142d5565b905061340b67d9f6790f69bb5cb160c01b612a32565b61341f6726b974136660335a60c01b612a32565b6000600960009054906101000a900473ffffffffffffffffffffffffffffffffffffffff1673ffffffffffffffffffffffffffffffffffffffff16634a3f088d600660009054906101000a900473ffffffffffffffffffffffffffffffffffffffff16600860009054906101000a900473ffffffffffffffffffffffffffffffffffffffff16600760009054906101000a900473ffffffffffffffffffffffffffffffffffffffff1660006040518563ffffffff1660e01b81526004016134e99493929190614b9a565b610100604051808303816000875af1158015613509573d6000803e3d6000fd5b505050506040513d601f19601f8201168201806040525081019061352d9190614bdf565b50505050505091505061354a67b9689d218b0d634360c01b612a32565b61355e67fbe6b299323b21d560c01b612a32565b60008111156136a45761357b676f51c1a283050c7360c01b612a32565b61358f67e9012eb6fe33047160c01b612a32565b600960009054906101000a900473ffffffffffffffffffffffffffffffffffffffff1673ffffffffffffffffffffffffffffffffffffffff166345a6f370600660009054906101000a900473ffffffffffffffffffffffffffffffffffffffff16600860009054906101000a900473ffffffffffffffffffffffffffffffffffffffff16600760009054906101000a900473ffffffffffffffffffffffffffffffffffffffff1660006040518563ffffffff1660e01b81526004016136579493929190614b9a565b60408051808303816000875af1158015613675573d6000803e3d6000fd5b505050506040513d601f19601f820116820180604052508101906136999190614c95565b9050809550506136b9565b6136b867845c59b4ebb16bba60c01b612a32565b5b6136cd67af90e5e2813f51bd60c01b612a32565b6136e167335b314ba9c21d2b60c01b612a32565b600085826136ef91906143e1565b9050613705675f72c9c7cb3882bf60c01b612a32565b80838661371291906142d5565b61371c91906142d5565b600a8190555061373667a8f3cc67624811f760c01b612a32565b61374a6724d4e4d3f2416e0860c01b612a32565b7f059d0701380a5813cc605b68bc8aae0c943d3aecbfa3d35e11f8396e056eb6cc42600b60009054906101000a900460ff168a600a548988873073ffffffffffffffffffffffffffffffffffffffff166318160ddd6040518163ffffffff1660e01b8152600401602060405180830381865afa1580156137ce573d6000803e3d6000fd5b505050506040513d601f19601f820116820180604052508101906137f2919061401e565b604051613806989796959493929190614cd5565b60405180910390a15050505050505050565b600073ffffffffffffffffffffffffffffffffffffffff168273ffffffffffffffffffffffffffffffffffffffff1603613887576040517f08c379a000000000000000000000000000000000000000000000000000000000815260040161387e90614dc5565b60405180910390fd5b61389382600083613c0d565b6000600160008473ffffffffffffffffffffffffffffffffffffffff1673ffffffffffffffffffffffffffffffffffffffff1681526020019081526020016000205490508181101561391a576040517f08c379a000000000000000000000000000000000000000000000000000000000815260040161391190614e57565b60405180910390fd5b818103600160008573ffffffffffffffffffffffffffffffffffffffff1673ffffffffffffffffffffffffffffffffffffffff1681526020019081526020016000208190555081600360008282540392505081905550600073ffffffffffffffffffffffffffffffffffffffff168373ffffffffffffffffffffffffffffffffffffffff167fddf252ad1be2c89b69c2b068fc378daa952ba7f163c4a11628f55a4df523b3ef846040516139ce9190613e3e565b60405180910390a36139e283600084613c12565b505050565b600073ffffffffffffffffffffffffffffffffffffffff168273ffffffffffffffffffffffffffffffffffffffff1603613a56576040517f08c379a0000000000000000000000000000000000000000000000000000000008152600401613a4d90614ec3565b60405180910390fd5b613a6260008383613c0d565b8060036000828254613a7491906142d5565b9250508190555080600160008473ffffffffffffffffffffffffffffffffffffffff1673ffffffffffffffffffffffffffffffffffffffff168152602001908152602001600020600082825401925050819055508173ffffffffffffffffffffffffffffffffffffffff16600073ffffffffffffffffffffffffffffffffffffffff167fddf252ad1be2c89b69c2b068fc378daa952ba7f163c4a11628f55a4df523b3ef83604051613b269190613e3e565b60405180910390a3613b3a60008383613c12565b5050565b600060019050919050565b60008060009054906101000a900473ffffffffffffffffffffffffffffffffffffffff169050816000806101000a81548173ffffffffffffffffffffffffffffffffffffffff021916908373ffffffffffffffffffffffffffffffffffffffff1602179055508173ffffffffffffffffffffffffffffffffffffffff168173ffffffffffffffffffffffffffffffffffffffff167f8be0079c531659141344cd1fd0a4f28419497f9722a3daafe3b4186f6b6457e060405160405180910390a35050565b505050565b505050565b600073ffffffffffffffffffffffffffffffffffffffff82169050919050565b6000613c4282613c17565b9050919050565b613c5281613c37565b82525050565b6000602082019050613c6d6000830184613c49565b92915050565b600081519050919050565b600082825260208201905092915050565b60005b83811015613cad578082015181840152602081019050613c92565b60008484015250505050565b6000601f19601f8301169050919050565b6000613cd582613c73565b613cdf8185613c7e565b9350613cef818560208601613c8f565b613cf881613cb9565b840191505092915050565b60006020820190508181036000830152613d1d8184613cca565b905092915050565b600080fd5b613d3381613c37565b8114613d3e57600080fd5b50565b600081359050613d5081613d2a565b92915050565b6000819050919050565b613d6981613d56565b8114613d7457600080fd5b50565b600081359050613d8681613d60565b92915050565b60008060408385031215613da357613da2613d25565b5b6000613db185828601613d41565b9250506020613dc285828601613d77565b9150509250929050565b60008115159050919050565b613de181613dcc565b82525050565b6000602082019050613dfc6000830184613dd8565b92915050565b600060208284031215613e1857613e17613d25565b5b6000613e2684828501613d41565b91505092915050565b613e3881613d56565b82525050565b6000602082019050613e536000830184613e2f565b92915050565b600060ff82169050919050565b613e6f81613e59565b82525050565b6000602082019050613e8a6000830184613e66565b92915050565b600080600060608486031215613ea957613ea8613d25565b5b6000613eb786828701613d41565b9350506020613ec886828701613d41565b9250506040613ed986828701613d77565b9150509250925092565b600060208284031215613ef957613ef8613d25565b5b6000613f0784828501613d77565b91505092915050565b613f1981613e59565b8114613f2457600080fd5b50565b600081359050613f3681613f10565b92915050565b600060208284031215613f5257613f51613d25565b5b6000613f6084828501613f27565b91505092915050565b60008060408385031215613f8057613f7f613d25565b5b6000613f8e85828601613d41565b9250506020613f9f85828601613d41565b9150509250929050565b7f4e487b7100000000000000000000000000000000000000000000000000000000600052602260045260246000fd5b60006002820490506001821680613ff057607f821691505b60208210810361400357614002613fa9565b5b50919050565b60008151905061401881613d60565b92915050565b60006020828403121561403457614033613d25565b5b600061404284828501614009565b91505092915050565b7f53757270726973696e676c7920796f752063616e6e6f7420776974686472617760008201527f20746f6b656e20796f752068617665206e6f7420626f75676874000000000000602082015250565b60006140a7603a83613c7e565b91506140b28261404b565b604082019050919050565b600060208201905081810360008301526140d68161409a565b9050919050565b7f4e487b7100000000000000000000000000000000000000000000000000000000600052601160045260246000fd5b600061411782613d56565b915061412283613d56565b925082820261413081613d56565b91508282048414831517614147576141466140dd565b5b5092915050565b7f4e487b7100000000000000000000000000000000000000000000000000000000600052601260045260246000fd5b600061418882613d56565b915061419383613d56565b9250826141a3576141a261414e565b5b828204905092915050565b60006040820190506141c36000830185613c49565b6141d06020830184613e2f565b9392505050565b6141e081613dcc565b81146141eb57600080fd5b50565b6000815190506141fd816141d7565b92915050565b60006020828403121561421957614218613d25565b5b6000614227848285016141ee565b91505092915050565b60006060820190506142456000830186613c49565b6142526020830185613e2f565b61425f6040830184613dd8565b949350505050565b600060808201905061427c6000830187613e2f565b6142896020830186613e2f565b6142966040830185613e2f565b6142a36060830184613e2f565b95945050505050565b60006040820190506142c16000830185613e2f565b6142ce6020830184613dd8565b9392505050565b60006142e082613d56565b91506142eb83613d56565b9250828201905080821115614303576143026140dd565b5b92915050565b7f546f6b656e206e6f742079657420737570706f72746564000000000000000000600082015250565b600061433f601783613c7e565b915061434a82614309565b602082019050919050565b6000602082019050818103600083015261436e81614332565b9050919050565b7f416d6f756e7420746f206465706f736974206973206d616e6461746f72790000600082015250565b60006143ab601e83613c7e565b91506143b682614375565b602082019050919050565b600060208201905081810360008301526143da8161439e565b9050919050565b60006143ec82613d56565b91506143f783613d56565b925082820390508181111561440f5761440e6140dd565b5b92915050565b600060608201905061442a6000830186613c49565b6144376020830185613c49565b6144446040830184613e2f565b949350505050565b60006080820190506144616000830187613e2f565b61446e6020830186613c49565b61447b6040830185613e2f565b6144886060830184613e2f565b95945050505050565b7f56616c7565206d757374206265203020666f72206e65757472616c2c2031206660008201527f6f72204c6f6e67206f72203220666f722053686f727400000000000000000000602082015250565b60006144ed603683613c7e565b91506144f882614491565b604082019050919050565b6000602082019050818103600083015261451c816144e0565b9050919050565b7f52657665727465642062656361757365206578706f736974696f6e206861732060008201527f6e6f74206368616e676564000000000000000000000000000000000000000000602082015250565b600061457f602b83613c7e565b915061458a82614523565b604082019050919050565b600060208201905081810360008301526145ae81614572565b9050919050565b60006060820190506145ca6000830186613e2f565b6145d76020830185613e66565b6145e46040830184613e66565b949350505050565b7f546f6b656e206e6f742079657420616464656400000000000000000000000000600082015250565b6000614622601383613c7e565b915061462d826145ec565b602082019050919050565b6000602082019050818103600083015261465181614615565b9050919050565b7f546f6b656e20616c726561647920616464656400000000000000000000000000600082015250565b600061468e601383613c7e565b915061469982614658565b602082019050919050565b600060208201905081810360008301526146bd81614681565b9050919050565b7f45524332303a2064656372656173656420616c6c6f77616e63652062656c6f7760008201527f207a65726f000000000000000000000000000000000000000000000000000000602082015250565b6000614720602583613c7e565b915061472b826146c4565b604082019050919050565b6000602082019050818103600083015261474f81614713565b9050919050565b7f4f776e61626c653a206e6577206f776e657220697320746865207a65726f206160008201527f6464726573730000000000000000000000000000000000000000000000000000602082015250565b60006147b2602683613c7e565b91506147bd82614756565b604082019050919050565b600060208201905081810360008301526147e1816147a5565b9050919050565b7f45524332303a20617070726f76652066726f6d20746865207a65726f2061646460008201527f7265737300000000000000000000000000000000000000000000000000000000602082015250565b6000614844602483613c7e565b915061484f826147e8565b604082019050919050565b6000602082019050818103600083015261487381614837565b9050919050565b7f45524332303a20617070726f766520746f20746865207a65726f20616464726560008201527f7373000000000000000000000000000000000000000000000000000000000000602082015250565b60006148d6602283613c7e565b91506148e18261487a565b604082019050919050565b60006020820190508181036000830152614905816148c9565b9050919050565b7f4f776e61626c653a2063616c6c6572206973206e6f7420746865206f776e6572600082015250565b6000614942602083613c7e565b915061494d8261490c565b602082019050919050565b6000602082019050818103600083015261497181614935565b9050919050565b7f45524332303a20696e73756666696369656e7420616c6c6f77616e6365000000600082015250565b60006149ae601d83613c7e565b91506149b982614978565b602082019050919050565b600060208201905081810360008301526149dd816149a1565b9050919050565b7f45524332303a207472616e736665722066726f6d20746865207a65726f20616460008201527f6472657373000000000000000000000000000000000000000000000000000000602082015250565b6000614a40602583613c7e565b9150614a4b826149e4565b604082019050919050565b60006020820190508181036000830152614a6f81614a33565b9050919050565b7f45524332303a207472616e7366657220746f20746865207a65726f206164647260008201527f6573730000000000000000000000000000000000000000000000000000000000602082015250565b6000614ad2602383613c7e565b9150614add82614a76565b604082019050919050565b60006020820190508181036000830152614b0181614ac5565b9050919050565b7f45524332303a207472616e7366657220616d6f756e742065786365656473206260008201527f616c616e63650000000000000000000000000000000000000000000000000000602082015250565b6000614b64602683613c7e565b9150614b6f82614b08565b604082019050919050565b60006020820190508181036000830152614b9381614b57565b9050919050565b6000608082019050614baf6000830187613c49565b614bbc6020830186613c49565b614bc96040830185613c49565b614bd66060830184613dd8565b95945050505050565b600080600080600080600080610100898b031215614c0057614bff613d25565b5b6000614c0e8b828c01614009565b9850506020614c1f8b828c01614009565b9750506040614c308b828c01614009565b9650506060614c418b828c01614009565b9550506080614c528b828c01614009565b94505060a0614c638b828c01614009565b93505060c0614c748b828c016141ee565b92505060e0614c858b828c01614009565b9150509295985092959890939650565b60008060408385031215614cac57614cab613d25565b5b6000614cba858286016141ee565b9250506020614ccb85828601614009565b9150509250929050565b600061010082019050614ceb600083018b613e2f565b614cf8602083018a613e66565b614d056040830189613e2f565b614d126060830188613e2f565b614d1f6080830187613e2f565b614d2c60a0830186613e2f565b614d3960c0830185613e2f565b614d4660e0830184613e2f565b9998505050505050505050565b7f45524332303a206275726e2066726f6d20746865207a65726f2061646472657360008201527f7300000000000000000000000000000000000000000000000000000000000000602082015250565b6000614daf602183613c7e565b9150614dba82614d53565b604082019050919050565b60006020820190508181036000830152614dde81614da2565b9050919050565b7f45524332303a206275726e20616d6f756e7420657863656564732062616c616e60008201527f6365000000000000000000000000000000000000000000000000000000000000602082015250565b6000614e41602283613c7e565b9150614e4c82614de5565b604082019050919050565b60006020820190508181036000830152614e7081614e34565b9050919050565b7f45524332303a206d696e7420746f20746865207a65726f206164647265737300600082015250565b6000614ead601f83613c7e565b9150614eb882614e77565b602082019050919050565b60006020820190508181036000830152614edc81614ea0565b905091905056fea26469706673582212208fb15a8a8821aa3541d1de254a09e799ab2b43a79c435a7f87e9fa2b6a153af364736f6c63430008110033",
  "linkReferences": {},
  "deployedLinkReferences": {}
}