{
  "_format": "hh-sol-artifact-1",
  "contractName": "MyVault",
  "sourceName": "contracts/MyVault.sol",
  "abi": [
    {
      "inputs": [],
      "stateMutability": "nonpayable",
      "type": "constructor"
    },
    {
      "anonymous": false,
      "inputs": [
        {
          "indexed": true,
          "internalType": "address",
          "name": "owner",
          "type": "address"
        },
        {
          "indexed": true,
          "internalType": "address",
          "name": "spender",
          "type": "address"
        },
        {
          "indexed": false,
          "internalType": "uint256",
          "name": "value",
          "type": "uint256"
        }
      ],
      "name": "Approval",
      "type": "event"
    },
    {
      "anonymous": false,
      "inputs": [
        {
          "indexed": false,
          "internalType": "address",
          "name": "tokenAddress",
          "type": "address"
        }
      ],
      "name": "NewTokenAdded",
      "type": "event"
    },
    {
      "anonymous": false,
      "inputs": [
        {
          "indexed": true,
          "internalType": "address",
          "name": "previousOwner",
          "type": "address"
        },
        {
          "indexed": true,
          "internalType": "address",
          "name": "newOwner",
          "type": "address"
        }
      ],
      "name": "OwnershipTransferred",
      "type": "event"
    },
    {
      "anonymous": false,
      "inputs": [
        {
          "indexed": false,
          "internalType": "address",
          "name": "tokenAddress",
          "type": "address"
        }
      ],
      "name": "TokenRemoved",
      "type": "event"
    },
    {
      "anonymous": false,
      "inputs": [
        {
          "indexed": true,
          "internalType": "address",
          "name": "from",
          "type": "address"
        },
        {
          "indexed": true,
          "internalType": "address",
          "name": "to",
          "type": "address"
        },
        {
          "indexed": false,
          "internalType": "uint256",
          "name": "value",
          "type": "uint256"
        }
      ],
      "name": "Transfer",
      "type": "event"
    },
    {
      "anonymous": false,
      "inputs": [
        {
          "indexed": true,
          "internalType": "address",
          "name": "account",
          "type": "address"
        },
        {
          "indexed": false,
          "internalType": "uint256",
          "name": "when",
          "type": "uint256"
        },
        {
          "indexed": false,
          "internalType": "address",
          "name": "token_deposited",
          "type": "address"
        },
        {
          "indexed": false,
          "internalType": "uint256",
          "name": "amount",
          "type": "uint256"
        },
        {
          "indexed": false,
          "internalType": "uint256",
          "name": "PLPissued",
          "type": "uint256"
        }
      ],
      "name": "depositEvent",
      "type": "event"
    },
    {
      "anonymous": false,
      "inputs": [
        {
          "indexed": false,
          "internalType": "uint256",
          "name": "when",
          "type": "uint256"
        },
        {
          "indexed": false,
          "internalType": "uint8",
          "name": "oldexpo",
          "type": "uint8"
        },
        {
          "indexed": false,
          "internalType": "uint8",
          "name": "newexpo",
          "type": "uint8"
        }
      ],
      "name": "expoEvent",
      "type": "event"
    },
    {
      "anonymous": false,
      "inputs": [
        {
          "indexed": false,
          "internalType": "uint256",
          "name": "when",
          "type": "uint256"
        },
        {
          "indexed": false,
          "internalType": "uint8",
          "name": "exposition",
          "type": "uint8"
        },
        {
          "indexed": false,
          "internalType": "uint256",
          "name": "oldNAV",
          "type": "uint256"
        },
        {
          "indexed": false,
          "internalType": "uint256",
          "name": "NAV",
          "type": "uint256"
        },
        {
          "indexed": false,
          "internalType": "uint256",
          "name": "usdcNAV",
          "type": "uint256"
        },
        {
          "indexed": false,
          "internalType": "uint256",
          "name": "longNAV",
          "type": "uint256"
        },
        {
          "indexed": false,
          "internalType": "uint256",
          "name": "shortNAV",
          "type": "uint256"
        },
        {
          "indexed": false,
          "internalType": "uint256",
          "name": "totalsupply",
          "type": "uint256"
        }
      ],
      "name": "navEvent",
      "type": "event"
    },
    {
      "anonymous": false,
      "inputs": [
        {
          "indexed": true,
          "internalType": "address",
          "name": "account",
          "type": "address"
        },
        {
          "indexed": false,
          "internalType": "uint256",
          "name": "when",
          "type": "uint256"
        },
        {
          "indexed": false,
          "internalType": "uint256",
          "name": "amount",
          "type": "uint256"
        },
        {
          "indexed": false,
          "internalType": "uint256",
          "name": "unitprice",
          "type": "uint256"
        }
      ],
      "name": "withdrawEvent",
      "type": "event"
    },
    {
      "inputs": [],
      "name": "GMX_controller",
      "outputs": [
        {
          "internalType": "address",
          "name": "",
          "type": "address"
        }
      ],
      "stateMutability": "view",
      "type": "function"
    },
    {
      "inputs": [],
      "name": "USDC",
      "outputs": [
        {
          "internalType": "address",
          "name": "",
          "type": "address"
        }
      ],
      "stateMutability": "view",
      "type": "function"
    },
    {
      "inputs": [],
      "name": "WETH",
      "outputs": [
        {
          "internalType": "address",
          "name": "",
          "type": "address"
        }
      ],
      "stateMutability": "view",
      "type": "function"
    },
    {
      "inputs": [
        {
          "internalType": "address",
          "name": "tokenAddress",
          "type": "address"
        }
      ],
      "name": "acceptToken",
      "outputs": [],
      "stateMutability": "nonpayable",
      "type": "function"
    },
    {
      "inputs": [
        {
          "internalType": "address",
          "name": "owner",
          "type": "address"
        },
        {
          "internalType": "address",
          "name": "spender",
          "type": "address"
        }
      ],
      "name": "allowance",
      "outputs": [
        {
          "internalType": "uint256",
          "name": "",
          "type": "uint256"
        }
      ],
      "stateMutability": "view",
      "type": "function"
    },
    {
      "inputs": [
        {
          "internalType": "address",
          "name": "spender",
          "type": "address"
        },
        {
          "internalType": "uint256",
          "name": "amount",
          "type": "uint256"
        }
      ],
      "name": "approve",
      "outputs": [
        {
          "internalType": "bool",
          "name": "",
          "type": "bool"
        }
      ],
      "stateMutability": "nonpayable",
      "type": "function"
    },
    {
      "inputs": [
        {
          "internalType": "address",
          "name": "account",
          "type": "address"
        }
      ],
      "name": "balanceOf",
      "outputs": [
        {
          "internalType": "uint256",
          "name": "",
          "type": "uint256"
        }
      ],
      "stateMutability": "view",
      "type": "function"
    },
    {
      "inputs": [],
      "name": "decimals",
      "outputs": [
        {
          "internalType": "uint8",
          "name": "",
          "type": "uint8"
        }
      ],
      "stateMutability": "view",
      "type": "function"
    },
    {
      "inputs": [
        {
          "internalType": "address",
          "name": "spender",
          "type": "address"
        },
        {
          "internalType": "uint256",
          "name": "subtractedValue",
          "type": "uint256"
        }
      ],
      "name": "decreaseAllowance",
      "outputs": [
        {
          "internalType": "bool",
          "name": "",
          "type": "bool"
        }
      ],
      "stateMutability": "nonpayable",
      "type": "function"
    },
    {
      "inputs": [
        {
          "internalType": "address",
          "name": "tokenAddress",
          "type": "address"
        },
        {
          "internalType": "uint256",
          "name": "_amount",
          "type": "uint256"
        }
      ],
      "name": "deposit",
      "outputs": [],
      "stateMutability": "payable",
      "type": "function"
    },
    {
      "inputs": [],
      "name": "exposition",
      "outputs": [
        {
          "internalType": "uint8",
          "name": "",
          "type": "uint8"
        }
      ],
      "stateMutability": "view",
      "type": "function"
    },
    {
      "inputs": [],
      "name": "fees",
      "outputs": [
        {
          "internalType": "uint8",
          "name": "",
          "type": "uint8"
        }
      ],
      "stateMutability": "view",
      "type": "function"
    },
    {
      "inputs": [],
      "name": "getExposition",
      "outputs": [
        {
          "internalType": "uint8",
          "name": "",
          "type": "uint8"
        }
      ],
      "stateMutability": "view",
      "type": "function"
    },
    {
      "inputs": [],
      "name": "getGMX_controller",
      "outputs": [
        {
          "internalType": "address",
          "name": "",
          "type": "address"
        }
      ],
      "stateMutability": "view",
      "type": "function"
    },
    {
      "inputs": [],
      "name": "getNetAssetValue",
      "outputs": [
        {
          "internalType": "uint256",
          "name": "",
          "type": "uint256"
        }
      ],
      "stateMutability": "view",
      "type": "function"
    },
    {
      "inputs": [],
      "name": "gmxVault",
      "outputs": [
        {
          "internalType": "address",
          "name": "",
          "type": "address"
        }
      ],
      "stateMutability": "view",
      "type": "function"
    },
    {
      "inputs": [
        {
          "internalType": "address",
          "name": "spender",
          "type": "address"
        },
        {
          "internalType": "uint256",
          "name": "addedValue",
          "type": "uint256"
        }
      ],
      "name": "increaseAllowance",
      "outputs": [
        {
          "internalType": "bool",
          "name": "",
          "type": "bool"
        }
      ],
      "stateMutability": "nonpayable",
      "type": "function"
    },
    {
      "inputs": [
        {
          "internalType": "address",
          "name": "tokenAddress",
          "type": "address"
        }
      ],
      "name": "isAccepted",
      "outputs": [
        {
          "internalType": "bool",
          "name": "",
          "type": "bool"
        }
      ],
      "stateMutability": "view",
      "type": "function"
    },
    {
      "inputs": [],
      "name": "liquidatePositions",
      "outputs": [],
      "stateMutability": "payable",
      "type": "function"
    },
    {
      "inputs": [],
      "name": "name",
      "outputs": [
        {
          "internalType": "string",
          "name": "",
          "type": "string"
        }
      ],
      "stateMutability": "view",
      "type": "function"
    },
    {
      "inputs": [],
      "name": "netAssetValue",
      "outputs": [
        {
          "internalType": "uint256",
          "name": "",
          "type": "uint256"
        }
      ],
      "stateMutability": "view",
      "type": "function"
    },
    {
      "inputs": [],
      "name": "openPosition",
      "outputs": [],
      "stateMutability": "payable",
      "type": "function"
    },
    {
      "inputs": [],
      "name": "owner",
      "outputs": [
        {
          "internalType": "address",
          "name": "",
          "type": "address"
        }
      ],
      "stateMutability": "view",
      "type": "function"
    },
    {
      "inputs": [
        {
          "internalType": "address",
          "name": "tokenAddress",
          "type": "address"
        }
      ],
      "name": "removeToken",
      "outputs": [],
      "stateMutability": "nonpayable",
      "type": "function"
    },
    {
      "inputs": [],
      "name": "renounceOwnership",
      "outputs": [],
      "stateMutability": "nonpayable",
      "type": "function"
    },
    {
      "inputs": [
        {
          "internalType": "uint8",
          "name": "_exposition",
          "type": "uint8"
        }
      ],
      "name": "setExposition",
      "outputs": [],
      "stateMutability": "nonpayable",
      "type": "function"
    },
    {
      "inputs": [
        {
          "internalType": "address",
          "name": "_addr",
          "type": "address"
        }
      ],
      "name": "setGMX_controller",
      "outputs": [],
      "stateMutability": "nonpayable",
      "type": "function"
    },
    {
      "inputs": [],
      "name": "symbol",
      "outputs": [
        {
          "internalType": "string",
          "name": "",
          "type": "string"
        }
      ],
      "stateMutability": "view",
      "type": "function"
    },
    {
      "inputs": [
        {
          "internalType": "address",
          "name": "",
          "type": "address"
        }
      ],
      "name": "tokenAccepted",
      "outputs": [
        {
          "internalType": "bool",
          "name": "",
          "type": "bool"
        }
      ],
      "stateMutability": "view",
      "type": "function"
    },
    {
      "inputs": [],
      "name": "totalSupply",
      "outputs": [
        {
          "internalType": "uint256",
          "name": "",
          "type": "uint256"
        }
      ],
      "stateMutability": "view",
      "type": "function"
    },
    {
      "inputs": [
        {
          "internalType": "address",
          "name": "to",
          "type": "address"
        },
        {
          "internalType": "uint256",
          "name": "amount",
          "type": "uint256"
        }
      ],
      "name": "transfer",
      "outputs": [
        {
          "internalType": "bool",
          "name": "",
          "type": "bool"
        }
      ],
      "stateMutability": "nonpayable",
      "type": "function"
    },
    {
      "inputs": [
        {
          "internalType": "address",
          "name": "from",
          "type": "address"
        },
        {
          "internalType": "address",
          "name": "to",
          "type": "address"
        },
        {
          "internalType": "uint256",
          "name": "amount",
          "type": "uint256"
        }
      ],
      "name": "transferFrom",
      "outputs": [
        {
          "internalType": "bool",
          "name": "",
          "type": "bool"
        }
      ],
      "stateMutability": "nonpayable",
      "type": "function"
    },
    {
      "inputs": [
        {
          "internalType": "address",
          "name": "newOwner",
          "type": "address"
        }
      ],
      "name": "transferOwnership",
      "outputs": [],
      "stateMutability": "nonpayable",
      "type": "function"
    },
    {
      "inputs": [],
      "name": "updateNetAssetValue",
      "outputs": [],
      "stateMutability": "nonpayable",
      "type": "function"
    },
    {
      "inputs": [
        {
          "internalType": "uint256",
          "name": "_amount",
          "type": "uint256"
        }
      ],
      "name": "withdraw",
      "outputs": [],
      "stateMutability": "payable",
      "type": "function"
    }
  ],
  "bytecode": "0x6080604052600780546001600160a01b03199081167382af49447d8a07e3bd95bd0d56f35241523fbab11790915560088054821673ff970a61a04b1ca14834a43f5de4533ebddb5cc81790556009805490911673489ee077994b6658eafa855c308275ead8097c4a1790553480156200007757600080fd5b5060405180604001604052806008815260200167506f6c79706c757360c01b815250604051806040016040528060038152602001620504c560ec1b815250620000cf620000c96200010660201b60201c565b6200010a565b6004620000dd8382620001ff565b506005620000ec8282620001ff565b5050600b80546001600a5562ff00ff1916905550620002cb565b3390565b600080546001600160a01b038381166001600160a01b0319831681178455604051919092169283917f8be0079c531659141344cd1fd0a4f28419497f9722a3daafe3b4186f6b6457e09190a35050565b634e487b7160e01b600052604160045260246000fd5b600181811c908216806200018557607f821691505b602082108103620001a657634e487b7160e01b600052602260045260246000fd5b50919050565b601f821115620001fa57600081815260208120601f850160051c81016020861015620001d55750805b601f850160051c820191505b81811015620001f657828155600101620001e1565b5050505b505050565b81516001600160401b038111156200021b576200021b6200015a565b62000233816200022c845462000170565b84620001ac565b602080601f8311600181146200026b5760008415620002525750858301515b600019600386901b1c1916600185901b178555620001f6565b600085815260208120601f198616915b828110156200029c578886015182559484019460019091019084016200027b565b5085821015620002bb5787850151600019600388901b60f8161c191681555b5050505050600190811b01905550565b61226980620002db6000396000f3fe6080604052600436106101c45760003560e01c8063715018a6116100f8578063a9059cbb11610090578063a9059cbb146104ca578063ad5c4648146104ea578063aedf795e1461050a578063b3b3453e1461053a578063dd62ed3e1461055a578063de9257cd1461057a578063e6f091f914610592578063ed61f4a1146105cb578063f2fde38b146105e057600080fd5b8063715018a6146103cd57806389a30271146103e25780638cd3f064146104025780638da5cb5b1461042257806395d89b41146104405780639af1d35a146104555780639ecbfa4214610474578063a3673b3814610494578063a457c2d7146104aa57600080fd5b8063313ce5671161016b578063313ce567146102eb578063350245c2146102ff578063395093511461030757806347e7ef2414610327578063481d6ee91461033a5780635fa7b5841461035a5780636639a81d1461037a5780636780a7d41461038f57806370a082311461039757600080fd5b80630677a2a5146101c957806306fdde03146101f9578063095ea7b31461021b57806311af7d951461024b57806318160ddd1461026d5780631cd2f7c81461028c57806323b872dd146102b85780632e1a7d4d146102d8575b600080fd5b3480156101d557600080fd5b506006546001600160a01b03165b6040516101f09190611eb3565b60405180910390f35b34801561020557600080fd5b5061020e610600565b6040516101f09190611ec7565b34801561022757600080fd5b5061023b610236366004611f31565b610692565b60405190151581526020016101f0565b34801561025757600080fd5b5061026b610266366004611f5b565b6106ac565b005b34801561027957600080fd5b506003545b6040519081526020016101f0565b34801561029857600080fd5b50600b546102a69060ff1681565b60405160ff90911681526020016101f0565b3480156102c457600080fd5b5061023b6102d3366004611f7d565b6106e8565b61026b6102e6366004611fb9565b61070c565b3480156102f757600080fd5b5060126102a6565b61026b610a6c565b34801561031357600080fd5b5061023b610322366004611f31565b610c4e565b61026b610335366004611f31565b610c70565b34801561034657600080fd5b5061026b610355366004611fd2565b611071565b34801561036657600080fd5b5061026b610375366004611f5b565b6111cc565b34801561038657600080fd5b50600a5461027e565b61026b61128d565b3480156103a357600080fd5b5061027e6103b2366004611f5b565b6001600160a01b031660009081526001602052604090205490565b3480156103d957600080fd5b5061026b6112e4565b3480156103ee57600080fd5b506008546101e3906001600160a01b031681565b34801561040e57600080fd5b5061026b61041d366004611f5b565b6112f8565b34801561042e57600080fd5b506000546001600160a01b03166101e3565b34801561044c57600080fd5b5061020e6113b2565b34801561046157600080fd5b50600b546102a690610100900460ff1681565b34801561048057600080fd5b506006546101e3906001600160a01b031681565b3480156104a057600080fd5b5061027e600a5481565b3480156104b657600080fd5b5061023b6104c5366004611f31565b6113c1565b3480156104d657600080fd5b5061023b6104e5366004611f31565b61143c565b3480156104f657600080fd5b506007546101e3906001600160a01b031681565b34801561051657600080fd5b5061023b610525366004611f5b565b600c6020526000908152604090205460ff1681565b34801561054657600080fd5b506009546101e3906001600160a01b031681565b34801561056657600080fd5b5061027e610575366004611ff5565b61144a565b34801561058657600080fd5b50600b5460ff166102a6565b34801561059e57600080fd5b5061023b6105ad366004611f5b565b6001600160a01b03166000908152600c602052604090205460ff1690565b3480156105d757600080fd5b5061026b611475565b3480156105ec57600080fd5b5061026b6105fb366004611f5b565b611485565b60606004805461060f90612028565b80601f016020809104026020016040519081016040528092919081815260200182805461063b90612028565b80156106885780601f1061065d57610100808354040283529160200191610688565b820191906000526020600020905b81548152906001019060200180831161066b57829003601f168201915b5050505050905090565b6000336106a08185856114fe565b60019150505b92915050565b6106b4611623565b600680546001600160a01b039092166001600160a01b0319909216919091179055600b805462ff0000191662010000179055565b6000336106f685828561167d565b6107018585856116f7565b506001949350505050565b6000811161071957600080fd5b6040516370a0823160e01b8152819030906370a082319061073e903390600401611eb3565b602060405180830381865afa15801561075b573d6000803e3d6000fd5b505050506040513d601f19601f8201168201806040525081019061077f9190612062565b10156107f85760405162461bcd60e51b815260206004820152603a60248201527f53757270726973696e676c7920796f752063616e6e6f7420776974686472617760448201527f20746f6b656e20796f752068617665206e6f7420626f7567687400000000000060648201526084015b60405180910390fd5b610800611890565b6000306001600160a01b03166318160ddd6040518163ffffffff1660e01b8152600401602060405180830381865afa158015610840573d6000803e3d6000fd5b505050506040513d601f19601f820116820180604052508101906108649190612062565b600a546108719190612091565b905061087d3383611c9a565b600061088a606484612091565b61089490846120b3565b600b5490915060ff16600003610926576008546001600160a01b031663a9059cbb336108c085876120c6565b6040518363ffffffff1660e01b81526004016108dd9291906120dd565b6020604051808303816000875af11580156108fc573d6000803e3d6000fd5b505050506040513d601f19601f820116820180604052508101906109209190612106565b50610a24565b600b5460ff166001036109a7576006546001600160a01b031663c5dac33b343361095086866120c6565b60016040518563ffffffff1660e01b815260040161097093929190612121565b6000604051808303818588803b15801561098957600080fd5b505af115801561099d573d6000803e3d6000fd5b5050505050610a24565b600b5460ff16600203610a24576006546001600160a01b031663c5dac33b34336109d186866120c6565b60006040518563ffffffff1660e01b81526004016109f193929190612121565b6000604051808303818588803b158015610a0a57600080fd5b505af1158015610a1e573d6000803e3d6000fd5b50505050505b604080514281526020810185905290810183905233907f55b6b6c484caa4fe51b6b82b0531afe069b1c2d151713cc6d9746b6db96986419060600160405180910390a2505050565b610a74611623565b600b5460009060ff16600114610a8b576000610a8e565b60015b6008546006546040516370a0823160e01b81529293506001600160a01b039182169263095ea7b3929091169083906370a0823190610ad0903090600401611eb3565b602060405180830381865afa158015610aed573d6000803e3d6000fd5b505050506040513d601f19601f82011682018060405250810190610b119190612062565b6040518363ffffffff1660e01b8152600401610b2e9291906120dd565b6020604051808303816000875af1158015610b4d573d6000803e3d6000fd5b505050506040513d601f19601f82011682018060405250810190610b719190612106565b506006546008546040516370a0823160e01b81526001600160a01b0392831692631c5ecc069234929116906370a0823190610bb0903090600401611eb3565b602060405180830381865afa158015610bcd573d6000803e3d6000fd5b505050506040513d601f19601f82011682018060405250810190610bf19190612062565b6040516001600160e01b031960e085901b168152600481019190915284151560248201526044015b6000604051808303818588803b158015610c3257600080fd5b505af1158015610c46573d6000803e3d6000fd5b505050505050565b6000336106a0818585610c61838361144a565b610c6b9190612144565b6114fe565b6001600160a01b0382166000908152600c602052604090205460ff16610cd25760405162461bcd60e51b8152602060048201526017602482015276151bdad95b881b9bdd081e595d081cdd5c1c1bdc9d1959604a1b60448201526064016107ef565b60008111610d225760405162461bcd60e51b815260206004820152601e60248201527f416d6f756e7420746f206465706f736974206973206d616e6461746f7279000060448201526064016107ef565b6000610d2f606483612091565b610d3990836120b3565b90506000306001600160a01b03166318160ddd6040518163ffffffff1660e01b8152600401602060405180830381865afa158015610d7b573d6000803e3d6000fd5b505050506040513d601f19601f82011682018060405250810190610d9f9190612062565b600003610dad575081610e31565b610db5611890565b600a54306001600160a01b03166318160ddd6040518163ffffffff1660e01b8152600401602060405180830381865afa158015610df6573d6000803e3d6000fd5b505050506040513d601f19601f82011682018060405250810190610e1a9190612062565b610e2490846120c6565b610e2e9190612091565b90505b610e3b3382611db4565b6040516323b872dd60e01b8152336004820152306024820152604481018490526001600160a01b038516906323b872dd906064016020604051808303816000875af1158015610e8e573d6000803e3d6000fd5b505050506040513d601f19601f82011682018060405250810190610eb29190612106565b5060065460405163095ea7b360e01b81526001600160a01b038681169263095ea7b392610ee7929091169087906004016120dd565b6020604051808303816000875af1158015610f06573d6000803e3d6000fd5b505050506040513d601f19601f82011682018060405250810190610f2a9190612106565b50600b5460ff16600103610fa457600654604051630e2f660360e11b815260048101859052600160248201526001600160a01b0390911690631c5ecc069034906044016000604051808303818588803b158015610f8657600080fd5b505af1158015610f9a573d6000803e3d6000fd5b5050505050611019565b600b5460ff1660020361101957600654604051630e2f660360e11b815260048101859052600060248201526001600160a01b0390911690631c5ecc069034906044016000604051808303818588803b158015610fff57600080fd5b505af1158015611013573d6000803e3d6000fd5b50505050505b604080514281526001600160a01b03861660208201529081018490526060810182905233907fc43285a6e98e6524bf49b1c1bdda72f38b968b31d2861d4422c0716e89b131819060800160405180910390a250505050565b611079611623565b60ff8116158061108c57508060ff166001145b8061109a57508060ff166002145b6111055760405162461bcd60e51b815260206004820152603660248201527f56616c7565206d757374206265203020666f72206e65757472616c2c203120666044820152751bdc88131bdb99c81bdc880c88199bdc8814da1bdc9d60521b60648201526084016107ef565b600b5460ff8083169116036111705760405162461bcd60e51b815260206004820152602b60248201527f52657665727465642062656361757365206578706f736974696f6e206861732060448201526a1b9bdd0818da185b99d95960aa1b60648201526084016107ef565b600b805460ff19811660ff84811691821790935560408051428152939092166020840181905291830152907ffa0731d6f72a8f51cd2381cdd6778ccea1323c89d9b49a780eb07d809e4ce1699060600160405180910390a15050565b6111d4611623565b6001600160a01b0381166000908152600c602052604090205460ff166112325760405162461bcd60e51b8152602060048201526013602482015272151bdad95b881b9bdd081e595d081859191959606a1b60448201526064016107ef565b6001600160a01b0381166000908152600c602052604090819020805460ff19169055517f4c910b69fe65a61f7531b9c5042b2329ca7179c77290aa7e2eb3afa3c8511fd390611282908390611eb3565b60405180910390a150565b611295611623565b600b5460009060ff166001146112ac5760006112af565b60015b600654604051637cb1759760e01b815282151560048201529192506001600160a01b031690637cb17597903490602401610c19565b6112ec611623565b6112f66000611e63565b565b611300611623565b6001600160a01b0381166000908152600c602052604090205460ff161561135f5760405162461bcd60e51b8152602060048201526013602482015272151bdad95b88185b1c9958591e481859191959606a1b60448201526064016107ef565b6001600160a01b0381166000908152600c602052604090819020805460ff19166001179055517fae340411f33c346ae24187433a8df6e508be40cf0deb3949d51cea12df7fa02190611282908390611eb3565b60606005805461060f90612028565b600033816113cf828661144a565b90508381101561142f5760405162461bcd60e51b815260206004820152602560248201527f45524332303a2064656372656173656420616c6c6f77616e63652062656c6f77604482015264207a65726f60d81b60648201526084016107ef565b61070182868684036114fe565b6000336106a08185856116f7565b6001600160a01b03918216600090815260026020908152604080832093909416825291909152205490565b61147d611623565b6112f6611890565b61148d611623565b6001600160a01b0381166114f25760405162461bcd60e51b815260206004820152602660248201527f4f776e61626c653a206e6577206f776e657220697320746865207a65726f206160448201526564647265737360d01b60648201526084016107ef565b6114fb81611e63565b50565b6001600160a01b0383166115605760405162461bcd60e51b8152602060048201526024808201527f45524332303a20617070726f76652066726f6d20746865207a65726f206164646044820152637265737360e01b60648201526084016107ef565b6001600160a01b0382166115c15760405162461bcd60e51b815260206004820152602260248201527f45524332303a20617070726f766520746f20746865207a65726f206164647265604482015261737360f01b60648201526084016107ef565b6001600160a01b0383811660008181526002602090815260408083209487168084529482529182902085905590518481527f8c5be1e5ebec7d5bd14f71427d1e84f3dd0314c0f7b2291e5b200ac8c7c3b92591015b60405180910390a3505050565b6000546001600160a01b031633146112f65760405162461bcd60e51b815260206004820181905260248201527f4f776e61626c653a2063616c6c6572206973206e6f7420746865206f776e657260448201526064016107ef565b6000611689848461144a565b905060001981146116f157818110156116e45760405162461bcd60e51b815260206004820152601d60248201527f45524332303a20696e73756666696369656e7420616c6c6f77616e636500000060448201526064016107ef565b6116f184848484036114fe565b50505050565b6001600160a01b03831661175b5760405162461bcd60e51b815260206004820152602560248201527f45524332303a207472616e736665722066726f6d20746865207a65726f206164604482015264647265737360d81b60648201526084016107ef565b6001600160a01b0382166117bd5760405162461bcd60e51b815260206004820152602360248201527f45524332303a207472616e7366657220746f20746865207a65726f206164647260448201526265737360e81b60648201526084016107ef565b6001600160a01b038316600090815260016020526040902054818110156118355760405162461bcd60e51b815260206004820152602660248201527f45524332303a207472616e7366657220616d6f756e7420657863656564732062604482015265616c616e636560d01b60648201526084016107ef565b6001600160a01b038085166000818152600160205260408082208686039055928616808252908390208054860190559151600080516020612214833981519152906118839086815260200190565b60405180910390a36116f1565b600a546008546040516370a0823160e01b8152600091829182916001600160a01b0316906370a08231906118c8903090600401611eb3565b602060405180830381865afa1580156118e5573d6000803e3d6000fd5b505050506040513d601f19601f820116820180604052508101906119099190612062565b600954600654600754604051634a3f088d60e01b81529394506000936001600160a01b0393841693634a3f088d9361194f93908216929116908190600190600401612157565b610100604051808303816000875af115801561196f573d6000803e3d6000fd5b505050506040513d601f19601f820116820180604052508101906119939190612181565b5050505050509150506000811115611a2b5760095460065460075460405163045a6f3760e41b81526001600160a01b03938416936345a6f370936119e593908216929116908190600190600401612157565b60408051808303816000875af1158015611a03573d6000803e3d6000fd5b505050506040513d601f19601f82011682018060405250810190611a2791906121e7565b9450505b600069d3c21bcecceda1000000611a428684612144565b611a4c9190612091565b600954600654600854600754604051634a3f088d60e01b81529495506000946001600160a01b0394851694634a3f088d94611a969490821693908216929116908790600401612157565b610100604051808303816000875af1158015611ab6573d6000803e3d6000fd5b505050506040513d601f19601f82011682018060405250810190611ada9190612181565b5050505050509150506000811115611b775760095460065460085460075460405163045a6f3760e41b81526001600160a01b03948516946345a6f37094611b31949082169390821692911690600090600401612157565b60408051808303816000875af1158015611b4f573d6000803e3d6000fd5b505050506040513d601f19601f82011682018060405250810190611b7391906121e7565b9550505b600069d3c21bcecceda1000000611b8e87846120b3565b611b989190612091565b905080611ba58487612144565b611baf9190612144565b600a819055507f059d0701380a5813cc605b68bc8aae0c943d3aecbfa3d35e11f8396e056eb6cc42600b60009054906101000a900460ff168a600a54898887306001600160a01b03166318160ddd6040518163ffffffff1660e01b8152600401602060405180830381865afa158015611c2c573d6000803e3d6000fd5b505050506040513d601f19601f82011682018060405250810190611c509190612062565b6040805198895260ff9097166020890152958701949094526060860192909252608085015260a084015260c083015260e08201526101000160405180910390a15050505050505050565b6001600160a01b038216611cfa5760405162461bcd60e51b815260206004820152602160248201527f45524332303a206275726e2066726f6d20746865207a65726f206164647265736044820152607360f81b60648201526084016107ef565b6001600160a01b03821660009081526001602052604090205481811015611d6e5760405162461bcd60e51b815260206004820152602260248201527f45524332303a206275726e20616d6f756e7420657863656564732062616c616e604482015261636560f01b60648201526084016107ef565b6001600160a01b03831660008181526001602090815260408083208686039055600380548790039055518581529192916000805160206122148339815191529101611616565b6001600160a01b038216611e0a5760405162461bcd60e51b815260206004820152601f60248201527f45524332303a206d696e7420746f20746865207a65726f20616464726573730060448201526064016107ef565b8060036000828254611e1c9190612144565b90915550506001600160a01b038216600081815260016020908152604080832080548601905551848152600080516020612214833981519152910160405180910390a35050565b600080546001600160a01b038381166001600160a01b0319831681178455604051919092169283917f8be0079c531659141344cd1fd0a4f28419497f9722a3daafe3b4186f6b6457e09190a35050565b6001600160a01b0391909116815260200190565b600060208083528351808285015260005b81811015611ef457858101830151858201604001528201611ed8565b506000604082860101526040601f19601f8301168501019250505092915050565b80356001600160a01b0381168114611f2c57600080fd5b919050565b60008060408385031215611f4457600080fd5b611f4d83611f15565b946020939093013593505050565b600060208284031215611f6d57600080fd5b611f7682611f15565b9392505050565b600080600060608486031215611f9257600080fd5b611f9b84611f15565b9250611fa960208501611f15565b9150604084013590509250925092565b600060208284031215611fcb57600080fd5b5035919050565b600060208284031215611fe457600080fd5b813560ff81168114611f7657600080fd5b6000806040838503121561200857600080fd5b61201183611f15565b915061201f60208401611f15565b90509250929050565b600181811c9082168061203c57607f821691505b60208210810361205c57634e487b7160e01b600052602260045260246000fd5b50919050565b60006020828403121561207457600080fd5b5051919050565b634e487b7160e01b600052601160045260246000fd5b6000826120ae57634e487b7160e01b600052601260045260246000fd5b500490565b818103818111156106a6576106a661207b565b80820281158282048414176106a6576106a661207b565b6001600160a01b03929092168252602082015260400190565b80518015158114611f2c57600080fd5b60006020828403121561211857600080fd5b611f76826120f6565b6001600160a01b0393909316835260208301919091521515604082015260600190565b808201808211156106a6576106a661207b565b6001600160a01b039485168152928416602084015292166040820152901515606082015260800190565b600080600080600080600080610100898b03121561219e57600080fd5b885197506020890151965060408901519550606089015194506080890151935060a089015192506121d160c08a016120f6565b915060e089015190509295985092959890939650565b600080604083850312156121fa57600080fd5b612203836120f6565b915060208301519050925092905056feddf252ad1be2c89b69c2b068fc378daa952ba7f163c4a11628f55a4df523b3efa2646970667358221220a42f4173828deab17636545d1a9eb6e700bf9d63ce8228d8722728fabef2fefd64736f6c63430008110033",
  "linkReferences": {},
  "deployedLinkReferences": {}
}