{
  "_format": "hh-sol-artifact-1",
  "contractName": "MyVault",
  "sourceName": "contracts/MyVault.sol",
  "abi": [
    {
      "inputs": [],
      "stateMutability": "nonpayable",
      "type": "constructor"
    },
    {
      "anonymous": false,
      "inputs": [
        {
          "indexed": true,
          "internalType": "address",
          "name": "owner",
          "type": "address"
        },
        {
          "indexed": true,
          "internalType": "address",
          "name": "spender",
          "type": "address"
        },
        {
          "indexed": false,
          "internalType": "uint256",
          "name": "value",
          "type": "uint256"
        }
      ],
      "name": "Approval",
      "type": "event"
    },
    {
      "anonymous": false,
      "inputs": [
        {
          "indexed": false,
          "internalType": "address",
          "name": "tokenAddress",
          "type": "address"
        }
      ],
      "name": "NewTokenAdded",
      "type": "event"
    },
    {
      "anonymous": false,
      "inputs": [
        {
          "indexed": true,
          "internalType": "address",
          "name": "previousOwner",
          "type": "address"
        },
        {
          "indexed": true,
          "internalType": "address",
          "name": "newOwner",
          "type": "address"
        }
      ],
      "name": "OwnershipTransferred",
      "type": "event"
    },
    {
      "anonymous": false,
      "inputs": [
        {
          "indexed": false,
          "internalType": "address",
          "name": "tokenAddress",
          "type": "address"
        }
      ],
      "name": "TokenRemoved",
      "type": "event"
    },
    {
      "anonymous": false,
      "inputs": [
        {
          "indexed": true,
          "internalType": "address",
          "name": "from",
          "type": "address"
        },
        {
          "indexed": true,
          "internalType": "address",
          "name": "to",
          "type": "address"
        },
        {
          "indexed": false,
          "internalType": "uint256",
          "name": "value",
          "type": "uint256"
        }
      ],
      "name": "Transfer",
      "type": "event"
    },
    {
      "anonymous": false,
      "inputs": [
        {
          "indexed": true,
          "internalType": "address",
          "name": "account",
          "type": "address"
        },
        {
          "indexed": false,
          "internalType": "uint256",
          "name": "when",
          "type": "uint256"
        },
        {
          "indexed": false,
          "internalType": "address",
          "name": "token_deposited",
          "type": "address"
        },
        {
          "indexed": false,
          "internalType": "uint256",
          "name": "amount",
          "type": "uint256"
        },
        {
          "indexed": false,
          "internalType": "uint256",
          "name": "PLPissued",
          "type": "uint256"
        }
      ],
      "name": "depositEvent",
      "type": "event"
    },
    {
      "anonymous": false,
      "inputs": [
        {
          "indexed": false,
          "internalType": "uint256",
          "name": "when",
          "type": "uint256"
        },
        {
          "indexed": false,
          "internalType": "uint8",
          "name": "oldexpo",
          "type": "uint8"
        },
        {
          "indexed": false,
          "internalType": "uint8",
          "name": "newexpo",
          "type": "uint8"
        }
      ],
      "name": "expoEvent",
      "type": "event"
    },
    {
      "anonymous": false,
      "inputs": [
        {
          "indexed": false,
          "internalType": "uint256",
          "name": "when",
          "type": "uint256"
        },
        {
          "indexed": false,
          "internalType": "uint8",
          "name": "exposition",
          "type": "uint8"
        },
        {
          "indexed": false,
          "internalType": "uint256",
          "name": "oldNAV",
          "type": "uint256"
        },
        {
          "indexed": false,
          "internalType": "uint256",
          "name": "NAV",
          "type": "uint256"
        },
        {
          "indexed": false,
          "internalType": "uint256",
          "name": "usdcNAV",
          "type": "uint256"
        },
        {
          "indexed": false,
          "internalType": "uint256",
          "name": "longNAV",
          "type": "uint256"
        },
        {
          "indexed": false,
          "internalType": "uint256",
          "name": "shortNAV",
          "type": "uint256"
        },
        {
          "indexed": false,
          "internalType": "uint256",
          "name": "totalsupply",
          "type": "uint256"
        }
      ],
      "name": "navEvent",
      "type": "event"
    },
    {
      "anonymous": false,
      "inputs": [
        {
          "indexed": true,
          "internalType": "address",
          "name": "account",
          "type": "address"
        },
        {
          "indexed": false,
          "internalType": "uint256",
          "name": "when",
          "type": "uint256"
        },
        {
          "indexed": false,
          "internalType": "uint256",
          "name": "amount",
          "type": "uint256"
        },
        {
          "indexed": false,
          "internalType": "uint256",
          "name": "nav",
          "type": "uint256"
        },
        {
          "indexed": false,
          "internalType": "uint256",
          "name": "preop_supply",
          "type": "uint256"
        }
      ],
      "name": "withdrawEvent",
      "type": "event"
    },
    {
      "inputs": [],
      "name": "GMX_controller",
      "outputs": [
        {
          "internalType": "address",
          "name": "",
          "type": "address"
        }
      ],
      "stateMutability": "view",
      "type": "function"
    },
    {
      "inputs": [],
      "name": "USDC",
      "outputs": [
        {
          "internalType": "address",
          "name": "",
          "type": "address"
        }
      ],
      "stateMutability": "view",
      "type": "function"
    },
    {
      "inputs": [],
      "name": "WETH",
      "outputs": [
        {
          "internalType": "address",
          "name": "",
          "type": "address"
        }
      ],
      "stateMutability": "view",
      "type": "function"
    },
    {
      "inputs": [
        {
          "internalType": "address",
          "name": "tokenAddress",
          "type": "address"
        }
      ],
      "name": "acceptToken",
      "outputs": [],
      "stateMutability": "nonpayable",
      "type": "function"
    },
    {
      "inputs": [
        {
          "internalType": "address",
          "name": "owner",
          "type": "address"
        },
        {
          "internalType": "address",
          "name": "spender",
          "type": "address"
        }
      ],
      "name": "allowance",
      "outputs": [
        {
          "internalType": "uint256",
          "name": "",
          "type": "uint256"
        }
      ],
      "stateMutability": "view",
      "type": "function"
    },
    {
      "inputs": [
        {
          "internalType": "address",
          "name": "spender",
          "type": "address"
        },
        {
          "internalType": "uint256",
          "name": "amount",
          "type": "uint256"
        }
      ],
      "name": "approve",
      "outputs": [
        {
          "internalType": "bool",
          "name": "",
          "type": "bool"
        }
      ],
      "stateMutability": "nonpayable",
      "type": "function"
    },
    {
      "inputs": [
        {
          "internalType": "address",
          "name": "account",
          "type": "address"
        }
      ],
      "name": "balanceOf",
      "outputs": [
        {
          "internalType": "uint256",
          "name": "",
          "type": "uint256"
        }
      ],
      "stateMutability": "view",
      "type": "function"
    },
    {
      "inputs": [],
      "name": "decimals",
      "outputs": [
        {
          "internalType": "uint8",
          "name": "",
          "type": "uint8"
        }
      ],
      "stateMutability": "view",
      "type": "function"
    },
    {
      "inputs": [
        {
          "internalType": "address",
          "name": "spender",
          "type": "address"
        },
        {
          "internalType": "uint256",
          "name": "subtractedValue",
          "type": "uint256"
        }
      ],
      "name": "decreaseAllowance",
      "outputs": [
        {
          "internalType": "bool",
          "name": "",
          "type": "bool"
        }
      ],
      "stateMutability": "nonpayable",
      "type": "function"
    },
    {
      "inputs": [
        {
          "internalType": "address",
          "name": "tokenAddress",
          "type": "address"
        },
        {
          "internalType": "uint256",
          "name": "_amount",
          "type": "uint256"
        }
      ],
      "name": "deposit",
      "outputs": [],
      "stateMutability": "payable",
      "type": "function"
    },
    {
      "inputs": [],
      "name": "exposition",
      "outputs": [
        {
          "internalType": "uint8",
          "name": "",
          "type": "uint8"
        }
      ],
      "stateMutability": "view",
      "type": "function"
    },
    {
      "inputs": [],
      "name": "getExposition",
      "outputs": [
        {
          "internalType": "uint8",
          "name": "",
          "type": "uint8"
        }
      ],
      "stateMutability": "view",
      "type": "function"
    },
    {
      "inputs": [],
      "name": "getGMX_controller",
      "outputs": [
        {
          "internalType": "address",
          "name": "",
          "type": "address"
        }
      ],
      "stateMutability": "view",
      "type": "function"
    },
    {
      "inputs": [],
      "name": "getNetAssetValue",
      "outputs": [
        {
          "internalType": "uint256",
          "name": "",
          "type": "uint256"
        }
      ],
      "stateMutability": "view",
      "type": "function"
    },
    {
      "inputs": [],
      "name": "gmxVault",
      "outputs": [
        {
          "internalType": "address",
          "name": "",
          "type": "address"
        }
      ],
      "stateMutability": "view",
      "type": "function"
    },
    {
      "inputs": [
        {
          "internalType": "address",
          "name": "spender",
          "type": "address"
        },
        {
          "internalType": "uint256",
          "name": "addedValue",
          "type": "uint256"
        }
      ],
      "name": "increaseAllowance",
      "outputs": [
        {
          "internalType": "bool",
          "name": "",
          "type": "bool"
        }
      ],
      "stateMutability": "nonpayable",
      "type": "function"
    },
    {
      "inputs": [
        {
          "internalType": "address",
          "name": "tokenAddress",
          "type": "address"
        }
      ],
      "name": "isAccepted",
      "outputs": [
        {
          "internalType": "bool",
          "name": "",
          "type": "bool"
        }
      ],
      "stateMutability": "view",
      "type": "function"
    },
    {
      "inputs": [],
      "name": "liquidateLongPositions",
      "outputs": [],
      "stateMutability": "payable",
      "type": "function"
    },
    {
      "inputs": [],
      "name": "liquidateShortPositions",
      "outputs": [],
      "stateMutability": "payable",
      "type": "function"
    },
    {
      "inputs": [],
      "name": "name",
      "outputs": [
        {
          "internalType": "string",
          "name": "",
          "type": "string"
        }
      ],
      "stateMutability": "view",
      "type": "function"
    },
    {
      "inputs": [],
      "name": "netAssetValue",
      "outputs": [
        {
          "internalType": "uint256",
          "name": "",
          "type": "uint256"
        }
      ],
      "stateMutability": "view",
      "type": "function"
    },
    {
      "inputs": [],
      "name": "openPosition",
      "outputs": [],
      "stateMutability": "payable",
      "type": "function"
    },
    {
      "inputs": [],
      "name": "owner",
      "outputs": [
        {
          "internalType": "address",
          "name": "",
          "type": "address"
        }
      ],
      "stateMutability": "view",
      "type": "function"
    },
    {
      "inputs": [
        {
          "internalType": "address",
          "name": "tokenAddress",
          "type": "address"
        }
      ],
      "name": "removeToken",
      "outputs": [],
      "stateMutability": "nonpayable",
      "type": "function"
    },
    {
      "inputs": [],
      "name": "renounceOwnership",
      "outputs": [],
      "stateMutability": "nonpayable",
      "type": "function"
    },
    {
      "inputs": [
        {
          "internalType": "uint8",
          "name": "_exposition",
          "type": "uint8"
        }
      ],
      "name": "setExposition",
      "outputs": [],
      "stateMutability": "nonpayable",
      "type": "function"
    },
    {
      "inputs": [
        {
          "internalType": "address",
          "name": "_addr",
          "type": "address"
        }
      ],
      "name": "setGMX_controller",
      "outputs": [],
      "stateMutability": "nonpayable",
      "type": "function"
    },
    {
      "inputs": [],
      "name": "symbol",
      "outputs": [
        {
          "internalType": "string",
          "name": "",
          "type": "string"
        }
      ],
      "stateMutability": "view",
      "type": "function"
    },
    {
      "inputs": [
        {
          "internalType": "address",
          "name": "",
          "type": "address"
        }
      ],
      "name": "tokenAccepted",
      "outputs": [
        {
          "internalType": "bool",
          "name": "",
          "type": "bool"
        }
      ],
      "stateMutability": "view",
      "type": "function"
    },
    {
      "inputs": [],
      "name": "totalSupply",
      "outputs": [
        {
          "internalType": "uint256",
          "name": "",
          "type": "uint256"
        }
      ],
      "stateMutability": "view",
      "type": "function"
    },
    {
      "inputs": [
        {
          "internalType": "address",
          "name": "to",
          "type": "address"
        },
        {
          "internalType": "uint256",
          "name": "amount",
          "type": "uint256"
        }
      ],
      "name": "transfer",
      "outputs": [
        {
          "internalType": "bool",
          "name": "",
          "type": "bool"
        }
      ],
      "stateMutability": "nonpayable",
      "type": "function"
    },
    {
      "inputs": [
        {
          "internalType": "address",
          "name": "from",
          "type": "address"
        },
        {
          "internalType": "address",
          "name": "to",
          "type": "address"
        },
        {
          "internalType": "uint256",
          "name": "amount",
          "type": "uint256"
        }
      ],
      "name": "transferFrom",
      "outputs": [
        {
          "internalType": "bool",
          "name": "",
          "type": "bool"
        }
      ],
      "stateMutability": "nonpayable",
      "type": "function"
    },
    {
      "inputs": [
        {
          "internalType": "address",
          "name": "newOwner",
          "type": "address"
        }
      ],
      "name": "transferOwnership",
      "outputs": [],
      "stateMutability": "nonpayable",
      "type": "function"
    },
    {
      "inputs": [],
      "name": "updateNetAssetValue",
      "outputs": [],
      "stateMutability": "nonpayable",
      "type": "function"
    },
    {
      "inputs": [
        {
          "internalType": "uint256",
          "name": "_amount",
          "type": "uint256"
        }
      ],
      "name": "withdraw",
      "outputs": [],
      "stateMutability": "payable",
      "type": "function"
    }
  ],
  "bytecode": "0x6080604052600880546001600160a01b03199081167382af49447d8a07e3bd95bd0d56f35241523fbab11790915560098054821673ff970a61a04b1ca14834a43f5de4533ebddb5cc8179055600a805490911673489ee077994b6658eafa855c308275ead8097c4a1790553480156200007757600080fd5b5060405180604001604052806008815260200167506f6c79706c757360c01b815250604051806040016040528060038152602001620504c560ec1b815250620000cf620000c96200010960201b60201c565b6200010d565b6004620000dd838262000202565b506005620000ec828262000202565b505060016006819055600c805460ff19169055600b5550620002ce565b3390565b600080546001600160a01b038381166001600160a01b0319831681178455604051919092169283917f8be0079c531659141344cd1fd0a4f28419497f9722a3daafe3b4186f6b6457e09190a35050565b634e487b7160e01b600052604160045260246000fd5b600181811c908216806200018857607f821691505b602082108103620001a957634e487b7160e01b600052602260045260246000fd5b50919050565b601f821115620001fd57600081815260208120601f850160051c81016020861015620001d85750805b601f850160051c820191505b81811015620001f957828155600101620001e4565b5050505b505050565b81516001600160401b038111156200021e576200021e6200015d565b62000236816200022f845462000173565b84620001af565b602080601f8311600181146200026e5760008415620002555750858301515b600019600386901b1c1916600185901b178555620001f9565b600085815260208120601f198616915b828110156200029f578886015182559484019460019091019084016200027e565b5085821015620002be5787850151600019600388901b60f8161c191681555b5050505050600190811b01905550565b61237480620002de6000396000f3fe6080604052600436106101c45760003560e01c806370a08231116100f8578063a9059cbb11610090578063a9059cbb146104b3578063ad5c4648146104d3578063aedf795e146104f3578063b3b3453e14610523578063dd62ed3e14610543578063de9257cd14610563578063e6f091f91461057b578063ed61f4a1146105b4578063f2fde38b146105c957600080fd5b806370a082311461039f578063715018a6146103d557806389a30271146103ea5780638cd3f0641461040a5780638da5cb5b1461042a57806395d89b41146104485780639ecbfa421461045d578063a3673b381461047d578063a457c2d71461049357600080fd5b80632e1a7d4d1161016b5780632e1a7d4d146102e05780633027ac22146102f3578063313ce567146102fb578063350245c21461030f578063395093511461031757806347e7ef2414610337578063481d6ee91461034a5780635fa7b5841461036a5780636639a81d1461038a57600080fd5b80630677a2a5146101c957806306fdde03146101f9578063095ea7b31461021b57806311af7d951461024b57806318160ddd1461026d5780631cd2f7c81461028c57806323b872dd146102b857806328250e0d146102d8575b600080fd5b3480156101d557600080fd5b506007546001600160a01b03165b6040516101f09190611fe1565b60405180910390f35b34801561020557600080fd5b5061020e6105e9565b6040516101f09190611ff5565b34801561022757600080fd5b5061023b61023636600461205f565b61067b565b60405190151581526020016101f0565b34801561025757600080fd5b5061026b610266366004612089565b610695565b005b34801561027957600080fd5b506003545b6040519081526020016101f0565b34801561029857600080fd5b50600c546102a69060ff1681565b60405160ff90911681526020016101f0565b3480156102c457600080fd5b5061023b6102d33660046120ab565b6106bf565b61026b6106e3565b61026b6102ee3660046120e7565b61074e565b61026b610aa8565b34801561030757600080fd5b5060126102a6565b61026b610ae3565b34801561032357600080fd5b5061023b61033236600461205f565b610cc4565b61026b61034536600461205f565b610ce6565b34801561035657600080fd5b5061026b610365366004612100565b6111b6565b34801561037657600080fd5b5061026b610385366004612089565b611311565b34801561039657600080fd5b50600b5461027e565b3480156103ab57600080fd5b5061027e6103ba366004612089565b6001600160a01b031660009081526001602052604090205490565b3480156103e157600080fd5b5061026b6113d2565b3480156103f657600080fd5b506009546101e3906001600160a01b031681565b34801561041657600080fd5b5061026b610425366004612089565b6113e6565b34801561043657600080fd5b506000546001600160a01b03166101e3565b34801561045457600080fd5b5061020e6114a0565b34801561046957600080fd5b506007546101e3906001600160a01b031681565b34801561048957600080fd5b5061027e600b5481565b34801561049f57600080fd5b5061023b6104ae36600461205f565b6114af565b3480156104bf57600080fd5b5061023b6104ce36600461205f565b61152a565b3480156104df57600080fd5b506008546101e3906001600160a01b031681565b3480156104ff57600080fd5b5061023b61050e366004612089565b600d6020526000908152604090205460ff1681565b34801561052f57600080fd5b50600a546101e3906001600160a01b031681565b34801561054f57600080fd5b5061027e61055e366004612123565b611538565b34801561056f57600080fd5b50600c5460ff166102a6565b34801561058757600080fd5b5061023b610596366004612089565b6001600160a01b03166000908152600d602052604090205460ff1690565b3480156105c057600080fd5b5061026b611563565b3480156105d557600080fd5b5061026b6105e4366004612089565b611573565b6060600480546105f890612156565b80601f016020809104026020016040519081016040528092919081815260200182805461062490612156565b80156106715780601f1061064657610100808354040283529160200191610671565b820191906000526020600020905b81548152906001019060200180831161065457829003601f168201915b5050505050905090565b6000336106898185856115e9565b60019150505b92915050565b61069d61170e565b600780546001600160a01b0319166001600160a01b0392909216919091179055565b6000336106cd858285611768565b6106d88585856117e2565b506001949350505050565b6106eb61170e565b600754604051637cb1759760e01b8152600160048201526001600160a01b0390911690637cb175979034906024015b6000604051808303818588803b15801561073357600080fd5b505af1158015610747573d6000803e3d6000fd5b5050505050565b61075661197b565b6000811161076357600080fd5b6040516370a0823160e01b8152819030906370a0823190610788903390600401611fe1565b602060405180830381865afa1580156107a5573d6000803e3d6000fd5b505050506040513d601f19601f820116820180604052508101906107c99190612190565b10156108425760405162461bcd60e51b815260206004820152603a60248201527f53757270726973696e676c7920796f752063616e6e6f7420776974686472617760448201527f20746f6b656e20796f752068617665206e6f7420626f7567687400000000000060648201526084015b60405180910390fd5b600c5460009060ff1660011461085957600061085c565b60015b90506108666119d4565b6000306001600160a01b03166318160ddd6040518163ffffffff1660e01b8152600401602060405180830381865afa1580156108a6573d6000803e3d6000fd5b505050506040513d601f19601f820116820180604052508101906108ca9190612190565b90506108d63384611dc8565b600c5460ff16600003610996576009546001600160a01b031663a9059cbb3361090c846c0c9f2c9cd04674edea400000006121bf565b600b5461091c88620f42406121bf565b61092691906121bf565b61093091906121d6565b6040518363ffffffff1660e01b815260040161094d9291906121f8565b6020604051808303816000875af115801561096c573d6000803e3d6000fd5b505050506040513d601f19601f820116820180604052508101906109909190612221565b50610a4b565b6007546001600160a01b031663c5dac33b34336109c0856c0c9f2c9cd04674edea400000006121bf565b600b546109d089620f1b306121bf565b6109da91906121bf565b6109e491906121d6565b6040516001600160e01b031960e086901b1681526001600160a01b039092166004830152602482015285151560448201526064016000604051808303818588803b158015610a3157600080fd5b505af1158015610a45573d6000803e3d6000fd5b50505050505b600b546040805142815260208101869052908101919091526060810182905233907f7d655f729e74749ef66079e8380b356147309a7161212c83e699b8e7fb78781c9060800160405180910390a25050610aa56001600655565b50565b610ab061170e565b600754604051637cb1759760e01b8152600060048201526001600160a01b0390911690637cb1759790349060240161071a565b610aeb61170e565b600c5460009060ff16600114610b02576000610b05565b60015b6009546007546040516370a0823160e01b81529293506001600160a01b039182169263095ea7b3929091169083906370a0823190610b47903090600401611fe1565b602060405180830381865afa158015610b64573d6000803e3d6000fd5b505050506040513d601f19601f82011682018060405250810190610b889190612190565b6040518363ffffffff1660e01b8152600401610ba59291906121f8565b6020604051808303816000875af1158015610bc4573d6000803e3d6000fd5b505050506040513d601f19601f82011682018060405250810190610be89190612221565b506007546009546040516370a0823160e01b81526001600160a01b0392831692631c5ecc069234929116906370a0823190610c27903090600401611fe1565b602060405180830381865afa158015610c44573d6000803e3d6000fd5b505050506040513d601f19601f82011682018060405250810190610c689190612190565b6040516001600160e01b031960e085901b168152600481019190915284151560248201526044016000604051808303818588803b158015610ca857600080fd5b505af1158015610cbc573d6000803e3d6000fd5b505050505050565b600033610689818585610cd78383611538565b610ce1919061223c565b6115e9565b610cee61197b565b6001600160a01b0382166000908152600d602052604090205460ff16610d505760405162461bcd60e51b8152602060048201526017602482015276151bdad95b881b9bdd081e595d081cdd5c1c1bdc9d1959604a1b6044820152606401610839565b60008111610da05760405162461bcd60e51b815260206004820152601e60248201527f416d6f756e7420746f206465706f736974206973206d616e6461746f727900006044820152606401610839565b6000610dad6064836121d6565b610db7908361224f565b90506000306001600160a01b03166318160ddd6040518163ffffffff1660e01b8152600401602060405180830381865afa158015610df9573d6000803e3d6000fd5b505050506040513d601f19601f82011682018060405250810190610e1d9190612190565b600003610e3a57610e338364e8d4a510006121bf565b9050610f6c565b610e426119d4565b600c5460ff16600003610edc57600b54306001600160a01b03166318160ddd6040518163ffffffff1660e01b8152600401602060405180830381865afa158015610e90573d6000803e3d6000fd5b505050506040513d601f19601f82011682018060405250810190610eb49190612190565b610ec88569d3c21bcecceda10000006121bf565b610ed291906121bf565b610e3391906121d6565b600b54306001600160a01b03166318160ddd6040518163ffffffff1660e01b8152600401602060405180830381865afa158015610f1d573d6000803e3d6000fd5b505050506040513d601f19601f82011682018060405250810190610f419190612190565b610f558469d3c21bcecceda10000006121bf565b610f5f91906121bf565b610f6991906121d6565b90505b610f763382611ee2565b6040516323b872dd60e01b8152336004820152306024820152604481018490526001600160a01b038516906323b872dd906064016020604051808303816000875af1158015610fc9573d6000803e3d6000fd5b505050506040513d601f19601f82011682018060405250810190610fed9190612221565b5060075460405163095ea7b360e01b81526001600160a01b038681169263095ea7b392611022929091169087906004016121f8565b6020604051808303816000875af1158015611041573d6000803e3d6000fd5b505050506040513d601f19601f820116820180604052508101906110659190612221565b50600c5460ff166001036110df57600754604051630e2f660360e11b815260048101859052600160248201526001600160a01b0390911690631c5ecc069034906044016000604051808303818588803b1580156110c157600080fd5b505af11580156110d5573d6000803e3d6000fd5b5050505050611154565b600c5460ff1660020361115457600754604051630e2f660360e11b815260048101859052600060248201526001600160a01b0390911690631c5ecc069034906044016000604051808303818588803b15801561113a57600080fd5b505af115801561114e573d6000803e3d6000fd5b50505050505b604080514281526001600160a01b03861660208201529081018490526060810182905233907fc43285a6e98e6524bf49b1c1bdda72f38b968b31d2861d4422c0716e89b131819060800160405180910390a250506111b26001600655565b5050565b6111be61170e565b60ff811615806111d157508060ff166001145b806111df57508060ff166002145b61124a5760405162461bcd60e51b815260206004820152603660248201527f56616c7565206d757374206265203020666f72206e65757472616c2c203120666044820152751bdc88131bdb99c81bdc880c88199bdc8814da1bdc9d60521b6064820152608401610839565b600c5460ff8083169116036112b55760405162461bcd60e51b815260206004820152602b60248201527f52657665727465642062656361757365206578706f736974696f6e206861732060448201526a1b9bdd0818da185b99d95960aa1b6064820152608401610839565b600c805460ff19811660ff84811691821790935560408051428152939092166020840181905291830152907ffa0731d6f72a8f51cd2381cdd6778ccea1323c89d9b49a780eb07d809e4ce1699060600160405180910390a15050565b61131961170e565b6001600160a01b0381166000908152600d602052604090205460ff166113775760405162461bcd60e51b8152602060048201526013602482015272151bdad95b881b9bdd081e595d081859191959606a1b6044820152606401610839565b6001600160a01b0381166000908152600d602052604090819020805460ff19169055517f4c910b69fe65a61f7531b9c5042b2329ca7179c77290aa7e2eb3afa3c8511fd3906113c7908390611fe1565b60405180910390a150565b6113da61170e565b6113e46000611f91565b565b6113ee61170e565b6001600160a01b0381166000908152600d602052604090205460ff161561144d5760405162461bcd60e51b8152602060048201526013602482015272151bdad95b88185b1c9958591e481859191959606a1b6044820152606401610839565b6001600160a01b0381166000908152600d602052604090819020805460ff19166001179055517fae340411f33c346ae24187433a8df6e508be40cf0deb3949d51cea12df7fa021906113c7908390611fe1565b6060600580546105f890612156565b600033816114bd8286611538565b90508381101561151d5760405162461bcd60e51b815260206004820152602560248201527f45524332303a2064656372656173656420616c6c6f77616e63652062656c6f77604482015264207a65726f60d81b6064820152608401610839565b6106d882868684036115e9565b6000336106898185856117e2565b6001600160a01b03918216600090815260026020908152604080832093909416825291909152205490565b61156b61170e565b6113e46119d4565b61157b61170e565b6001600160a01b0381166115e05760405162461bcd60e51b815260206004820152602660248201527f4f776e61626c653a206e6577206f776e657220697320746865207a65726f206160448201526564647265737360d01b6064820152608401610839565b610aa581611f91565b6001600160a01b03831661164b5760405162461bcd60e51b8152602060048201526024808201527f45524332303a20617070726f76652066726f6d20746865207a65726f206164646044820152637265737360e01b6064820152608401610839565b6001600160a01b0382166116ac5760405162461bcd60e51b815260206004820152602260248201527f45524332303a20617070726f766520746f20746865207a65726f206164647265604482015261737360f01b6064820152608401610839565b6001600160a01b0383811660008181526002602090815260408083209487168084529482529182902085905590518481527f8c5be1e5ebec7d5bd14f71427d1e84f3dd0314c0f7b2291e5b200ac8c7c3b92591015b60405180910390a3505050565b6000546001600160a01b031633146113e45760405162461bcd60e51b815260206004820181905260248201527f4f776e61626c653a2063616c6c6572206973206e6f7420746865206f776e65726044820152606401610839565b60006117748484611538565b905060001981146117dc57818110156117cf5760405162461bcd60e51b815260206004820152601d60248201527f45524332303a20696e73756666696369656e7420616c6c6f77616e63650000006044820152606401610839565b6117dc84848484036115e9565b50505050565b6001600160a01b0383166118465760405162461bcd60e51b815260206004820152602560248201527f45524332303a207472616e736665722066726f6d20746865207a65726f206164604482015264647265737360d81b6064820152608401610839565b6001600160a01b0382166118a85760405162461bcd60e51b815260206004820152602360248201527f45524332303a207472616e7366657220746f20746865207a65726f206164647260448201526265737360e81b6064820152608401610839565b6001600160a01b038316600090815260016020526040902054818110156119205760405162461bcd60e51b815260206004820152602660248201527f45524332303a207472616e7366657220616d6f756e7420657863656564732062604482015265616c616e636560d01b6064820152608401610839565b6001600160a01b03808516600081815260016020526040808220868603905592861680825290839020805486019055915160008051602061231f8339815191529061196e9086815260200190565b60405180910390a36117dc565b6002600654036119cd5760405162461bcd60e51b815260206004820152601f60248201527f5265656e7472616e637947756172643a207265656e7472616e742063616c6c006044820152606401610839565b6002600655565b600b546009546040516370a0823160e01b8152600091829182916001600160a01b0316906370a0823190611a0c903090600401611fe1565b602060405180830381865afa158015611a29573d6000803e3d6000fd5b505050506040513d601f19601f82011682018060405250810190611a4d9190612190565b611a619069d3c21bcecceda10000006121bf565b600a54600754600854604051634a3f088d60e01b81529394506000936001600160a01b0393841693634a3f088d93611aa793908216929116908190600190600401612262565b610100604051808303816000875af1158015611ac7573d6000803e3d6000fd5b505050506040513d601f19601f82011682018060405250810190611aeb919061228c565b5050505050509150506000811115611b8357600a5460075460085460405163045a6f3760e41b81526001600160a01b03938416936345a6f37093611b3d93908216929116908190600190600401612262565b60408051808303816000875af1158015611b5b573d6000803e3d6000fd5b505050506040513d601f19601f82011682018060405250810190611b7f91906122f2565b9450505b6000611b8f858361223c565b600a54600754600954600854604051634a3f088d60e01b81529495506000946001600160a01b0394851694634a3f088d94611bd99490821693908216929116908790600401612262565b610100604051808303816000875af1158015611bf9573d6000803e3d6000fd5b505050506040513d601f19601f82011682018060405250810190611c1d919061228c565b5050505050509150506000811115611cba57600a5460075460095460085460405163045a6f3760e41b81526001600160a01b03948516946345a6f37094611c74949082169390821692911690600090600401612262565b60408051808303816000875af1158015611c92573d6000803e3d6000fd5b505050506040513d601f19601f82011682018060405250810190611cb691906122f2565b9550505b6000611cc6868361224f565b905080611cd3848761223c565b611cdd919061223c565b600b819055507f059d0701380a5813cc605b68bc8aae0c943d3aecbfa3d35e11f8396e056eb6cc42600c60009054906101000a900460ff168a600b54898887306001600160a01b03166318160ddd6040518163ffffffff1660e01b8152600401602060405180830381865afa158015611d5a573d6000803e3d6000fd5b505050506040513d601f19601f82011682018060405250810190611d7e9190612190565b6040805198895260ff9097166020890152958701949094526060860192909252608085015260a084015260c083015260e08201526101000160405180910390a15050505050505050565b6001600160a01b038216611e285760405162461bcd60e51b815260206004820152602160248201527f45524332303a206275726e2066726f6d20746865207a65726f206164647265736044820152607360f81b6064820152608401610839565b6001600160a01b03821660009081526001602052604090205481811015611e9c5760405162461bcd60e51b815260206004820152602260248201527f45524332303a206275726e20616d6f756e7420657863656564732062616c616e604482015261636560f01b6064820152608401610839565b6001600160a01b038316600081815260016020908152604080832086860390556003805487900390555185815291929160008051602061231f8339815191529101611701565b6001600160a01b038216611f385760405162461bcd60e51b815260206004820152601f60248201527f45524332303a206d696e7420746f20746865207a65726f2061646472657373006044820152606401610839565b8060036000828254611f4a919061223c565b90915550506001600160a01b03821660008181526001602090815260408083208054860190555184815260008051602061231f833981519152910160405180910390a35050565b600080546001600160a01b038381166001600160a01b0319831681178455604051919092169283917f8be0079c531659141344cd1fd0a4f28419497f9722a3daafe3b4186f6b6457e09190a35050565b6001600160a01b0391909116815260200190565b600060208083528351808285015260005b8181101561202257858101830151858201604001528201612006565b506000604082860101526040601f19601f8301168501019250505092915050565b80356001600160a01b038116811461205a57600080fd5b919050565b6000806040838503121561207257600080fd5b61207b83612043565b946020939093013593505050565b60006020828403121561209b57600080fd5b6120a482612043565b9392505050565b6000806000606084860312156120c057600080fd5b6120c984612043565b92506120d760208501612043565b9150604084013590509250925092565b6000602082840312156120f957600080fd5b5035919050565b60006020828403121561211257600080fd5b813560ff811681146120a457600080fd5b6000806040838503121561213657600080fd5b61213f83612043565b915061214d60208401612043565b90509250929050565b600181811c9082168061216a57607f821691505b60208210810361218a57634e487b7160e01b600052602260045260246000fd5b50919050565b6000602082840312156121a257600080fd5b5051919050565b634e487b7160e01b600052601160045260246000fd5b808202811582820484141761068f5761068f6121a9565b6000826121f357634e487b7160e01b600052601260045260246000fd5b500490565b6001600160a01b03929092168252602082015260400190565b8051801515811461205a57600080fd5b60006020828403121561223357600080fd5b6120a482612211565b8082018082111561068f5761068f6121a9565b8181038181111561068f5761068f6121a9565b6001600160a01b039485168152928416602084015292166040820152901515606082015260800190565b600080600080600080600080610100898b0312156122a957600080fd5b885197506020890151965060408901519550606089015194506080890151935060a089015192506122dc60c08a01612211565b915060e089015190509295985092959890939650565b6000806040838503121561230557600080fd5b61230e83612211565b915060208301519050925092905056feddf252ad1be2c89b69c2b068fc378daa952ba7f163c4a11628f55a4df523b3efa264697066735822122047b8c68e053c0b01a377d9dbfb08d147c5437f7b11c6444c87789e45468e78f164736f6c63430008110033",
  "linkReferences": {},
  "deployedLinkReferences": {}
}